8=FIX.4.4|9=85|35=A|34=1|49=FIX_GWY_1|52=20250822-10:11:03.000|56=CRYPTO_TRADER_1|98=0|108=30|141=Y|10=122|8=FIX.4.4|9=1525|35=y|34=2|49=FIX_GWY_1|52=20250822-10:11:03.000|56=CRYPTO_TRADER_1|146=28|55=ADA-USD|207=OTHER_COIN_MARKET|58={"type":"Crypto"}|55=AVX-AUD|207=OTHER_COIN_MARKET|58={"type":"Crypto"}|55=BCH-CNY|207=OTHER_COIN_MARKET|58={"type":"Crypto"}|55=BTC-AUD|207=BTC_MARKET|58={"type":"Crypto"}|55=BTC-CAD|207=BTC_MARKET|58={"type":"Crypto"}|55=BTC-CNY|207=BTC_MARKET|58={"type":"Crypto"}|55=BTC-EUR|207=BTC_MARKET|58={"type":"Crypto"}|55=BTC-GBP|207=BTC_MARKET|58={"type":"Crypto"}|55=BTC-JPY|207=BTC_MARKET|58={"type":"Crypto"}|55=BTC-USD|207=BTC_MARKET|58={"type":"Crypto"}|55=DAI-USD|207=OTHER_COIN_MARKET|58={"type":"Crypto"}|55=DOT-GBP|207=OTHER_COIN_MARKET|58={"type":"Crypto"}|55=ETH-AUD|207=ETH_MARKET|58={"type":"Crypto"}|55=ETH-CAD|207=ETH_MARKET|58={"type":"Crypto"}|55=ETH-CNY|207=ETH_MARKET|58={"type":"Crypto"}|55=ETH-EUR|207=ETH_MARKET|58={"type":"Crypto"}|55=ETH-GBP|207=ETH_MARKET|58={"type":"Crypto"}|55=ETH-JPY|207=ETH_MARKET|58={"type":"Crypto"}|55=ETH-USD|207=ETH_MARKET|58={"type":"Crypto"}|55=LTC-JPY|207=OTHER_COIN_MARKET|58={"type":"Crypto"}|55=LUN-CAD|207=OTHER_COIN_MARKET|58={"type":"Crypto"}|55=MTC-CAD|207=OTHER_COIN_MARKET|58={"type":"Crypto"}|55=SOL-EUR|207=OTHER_COIN_MARKET|58={"type":"Crypto"}|55=UNI-JPY|207=OTHER_COIN_MARKET|58={"type":"Crypto"}|55=XLM-CNY|207=OTHER_COIN_MARKET|58={"type":"Crypto"}|55=XLM-EUR|207=OTHER_COIN_MARKET|58={"type":"Crypto"}|55=XMR-AUD|207=OTHER_COIN_MARKET|58={"type":"Crypto"}|55=XRP-GBP|207=OTHER_COIN_MARKET|58={"type":"Crypto"}|320=SecurityListRequest1|322=1|560=0|10=022|8=FIX.4.4|9=126|35=W|34=3|49=FIX_GWY_1|52=20250822-10:11:04.000|56=CRYPTO_TRADER_1|55=ADA-USD|207=OTHER_COIN_MARKET|268=1|269=4|270=101|271=0|10=151|8=FIX.4.4|9=126|35=W|34=4|49=FIX_GWY_1|52=20250822-10:11:04.000|56=CRYPTO_TRADER_1|55=AVX-AUD|207=OTHER_COIN_MARKET|268=1|269=4|270=401|271=0|10=178|8=FIX.4.4|9=126|35=W|34=5|49=FIX_GWY_1|52=20250822-10:11:04.000|56=CRYPTO_TRADER_1|55=BCH-CNY|207=OTHER_COIN_MARKET|268=1|269=4|270=401|271=0|10=161|8=FIX.4.4|9=121|35=W|34=6|49=FIX_GWY_1|52=20250822-10:11:04.000|56=CRYPTO_TRADER_1|55=BTC-AUD|207=BTC_MARKET|268=1|269=4|270=40100|271=0|10=200|8=FIX.4.4|9=121|35=W|34=7|49=FIX_GWY_1|52=20250822-10:11:04.000|56=CRYPTO_TRADER_1|55=BTC-CAD|207=BTC_MARKET|268=1|269=4|270=40100|271=0|10=183|8=FIX.4.4|9=366|35=W|34=8|49=FIX_GWY_1|52=20250822-10:11:04.000|56=CRYPTO_TRADER_1|55=BTC-CNY|207=BTC_MARKET|268=14|269=0|270=0|271=0|269=0|270=0|271=0|269=0|270=0|271=0|269=0|270=0|271=0|269=0|270=0|271=0|269=1|270=0|271=0|269=1|270=0|271=0|269=1|270=0|271=0|269=1|270=0|271=0|269=1|270=0|271=0|269=2|270=40200|271=0|269=B|270=0|271=100|269=4|270=40100|271=0|269=8|270=40100|271=0|10=172|8=FIX.4.4|9=121|35=W|34=9|49=FIX_GWY_1|52=20250822-10:11:04.000|56=CRYPTO_TRADER_1|55=BTC-EUR|207=BTC_MARKET|268=1|269=4|270=20100|271=0|10=219|8=FIX.4.4|9=122|35=W|34=10|49=FIX_GWY_1|52=20250822-10:11:04.000|56=CRYPTO_TRADER_1|55=BTC-GBP|207=BTC_MARKET|268=1|269=4|270=30100|271=0|10=242|8=FIX.4.4|9=122|35=W|34=11|49=FIX_GWY_1|52=20250822-10:11:04.000|56=CRYPTO_TRADER_1|55=BTC-JPY|207=BTC_MARKET|268=1|269=4|270=40100|271=0|10=014|8=FIX.4.4|9=122|35=W|34=12|49=FIX_GWY_1|52=20250822-10:11:04.000|56=CRYPTO_TRADER_1|55=BTC-USD|207=BTC_MARKET|268=1|269=4|270=10100|271=0|10=005|8=FIX.4.4|9=127|35=W|34=13|49=FIX_GWY_1|52=20250822-10:11:04.000|56=CRYPTO_TRADER_1|55=DAI-USD|207=OTHER_COIN_MARKET|268=1|269=4|270=101|271=0|10=209|8=FIX.4.4|9=127|35=W|34=14|49=FIX_GWY_1|52=20250822-10:11:04.000|56=CRYPTO_TRADER_1|55=DOT-GBP|207=OTHER_COIN_MARKET|268=1|269=4|270=301|271=0|10=218|8=FIX.4.4|9=121|35=W|34=15|49=FIX_GWY_1|52=20250822-10:11:04.000|56=CRYPTO_TRADER_1|55=ETH-AUD|207=ETH_MARKET|268=1|269=4|270=4010|271=0|10=216|8=FIX.4.4|9=121|35=W|34=16|49=FIX_GWY_1|52=20250822-10:11:04.000|56=CRYPTO_TRADER_1|55=ETH-CAD|207=ETH_MARKET|268=1|269=4|270=4010|271=0|10=199|8=FIX.4.4|9=121|35=W|34=17|49=FIX_GWY_1|52=20250822-10:11:04.000|56=CRYPTO_TRADER_1|55=ETH-CNY|207=ETH_MARKET|268=1|269=4|270=4010|271=0|10=234|8=FIX.4.4|9=121|35=W|34=18|49=FIX_GWY_1|52=20250822-10:11:04.000|56=CRYPTO_TRADER_1|55=ETH-EUR|207=ETH_MARKET|268=1|269=4|270=2010|271=0|10=235|8=FIX.4.4|9=121|35=W|34=19|49=FIX_GWY_1|52=20250822-10:11:04.000|56=CRYPTO_TRADER_1|55=ETH-GBP|207=ETH_MARKET|268=1|269=4|270=3010|271=0|10=218|8=FIX.4.4|9=121|35=W|34=20|49=FIX_GWY_1|52=20250822-10:11:04.000|56=CRYPTO_TRADER_1|55=ETH-JPY|207=ETH_MARKET|268=1|269=4|270=4010|271=0|10=237|8=FIX.4.4|9=121|35=W|34=21|49=FIX_GWY_1|52=20250822-10:11:04.000|56=CRYPTO_TRADER_1|55=ETH-USD|207=ETH_MARKET|268=1|269=4|270=1010|271=0|10=228|8=FIX.4.4|9=127|35=W|34=22|49=FIX_GWY_1|52=20250822-10:11:04.000|56=CRYPTO_TRADER_1|55=LTC-JPY|207=OTHER_COIN_MARKET|268=1|269=4|270=401|271=0|10=240|8=FIX.4.4|9=127|35=W|34=23|49=FIX_GWY_1|52=20250822-10:11:04.000|56=CRYPTO_TRADER_1|55=LUN-CAD|207=OTHER_COIN_MARKET|268=1|269=4|270=401|271=0|10=210|8=FIX.4.4|9=127|35=W|34=24|49=FIX_GWY_1|52=20250822-10:11:04.000|56=CRYPTO_TRADER_1|55=MTC-CAD|207=OTHER_COIN_MARKET|268=1|269=4|270=401|271=0|10=200|8=FIX.4.4|9=127|35=W|34=25|49=FIX_GWY_1|52=20250822-10:11:04.000|56=CRYPTO_TRADER_1|55=SOL-EUR|207=OTHER_COIN_MARKET|268=1|269=4|270=201|271=0|10=245|8=FIX.4.4|9=127|35=W|34=26|49=FIX_GWY_1|52=20250822-10:11:04.000|56=CRYPTO_TRADER_1|55=UNI-JPY|207=OTHER_COIN_MARKET|268=1|269=4|270=401|271=0|10=253|8=FIX.4.4|9=127|35=W|34=27|49=FIX_GWY_1|52=20250822-10:11:04.000|56=CRYPTO_TRADER_1|55=XLM-CNY|207=OTHER_COIN_MARKET|268=1|269=4|270=401|271=0|10=250|8=FIX.4.4|9=127|35=W|34=28|49=FIX_GWY_1|52=20250822-10:11:04.000|56=CRYPTO_TRADER_1|55=XLM-EUR|207=OTHER_COIN_MARKET|268=1|269=4|270=201|271=0|10=251|8=FIX.4.4|9=127|35=W|34=29|49=FIX_GWY_1|52=20250822-10:11:04.000|56=CRYPTO_TRADER_1|55=XMR-AUD|207=OTHER_COIN_MARKET|268=1|269=4|270=401|271=0|10=242|8=FIX.4.4|9=127|35=W|34=30|49=FIX_GWY_1|52=20250822-10:11:04.000|56=CRYPTO_TRADER_1|55=XRP-GBP|207=OTHER_COIN_MARKET|268=1|269=4|270=301|271=0|10=235|8=FIX.4.4|9=77|35=0|34=31|49=FIX_GWY_1|52=20250822-10:11:40.000|56=CRYPTO_TRADER_1|112=TEST|10=106|8=FIX.4.4|9=68|35=0|34=32|49=FIX_GWY_1|52=20250822-10:12:10.000|56=CRYPTO_TRADER_1|10=087|8=FIX.4.4|9=68|35=0|34=33|49=FIX_GWY_1|52=20250822-10:12:40.000|56=CRYPTO_TRADER_1|10=091|8=FIX.4.4|9=68|35=0|34=34|49=FIX_GWY_1|52=20250822-10:13:10.000|56=CRYPTO_TRADER_1|10=090|8=FIX.4.4|9=68|35=0|34=35|49=FIX_GWY_1|52=20250822-10:13:40.000|56=CRYPTO_TRADER_1|10=094|8=FIX.4.4|9=68|35=0|34=36|49=FIX_GWY_1|52=20250822-10:14:10.000|56=CRYPTO_TRADER_1|10=093|8=FIX.4.4|9=68|35=0|34=37|49=FIX_GWY_1|52=20250822-10:14:40.000|56=CRYPTO_TRADER_1|10=097|8=FIX.4.4|9=68|35=0|34=38|49=FIX_GWY_1|52=20250822-10:15:10.000|56=CRYPTO_TRADER_1|10=096|8=FIX.4.4|9=68|35=0|34=39|49=FIX_GWY_1|52=20250822-10:15:40.000|56=CRYPTO_TRADER_1|10=100|8=FIX.4.4|9=68|35=0|34=40|49=FIX_GWY_1|52=20250822-10:16:10.000|56=CRYPTO_TRADER_1|10=090|8=FIX.4.4|9=68|35=0|34=41|49=FIX_GWY_1|52=20250822-10:16:40.000|56=CRYPTO_TRADER_1|10=094|8=FIX.4.4|9=68|35=0|34=42|49=FIX_GWY_1|52=20250822-10:17:10.000|56=CRYPTO_TRADER_1|10=093|8=FIX.4.4|9=68|35=0|34=43|49=FIX_GWY_1|52=20250822-10:17:40.000|56=CRYPTO_TRADER_1|10=097|8=FIX.4.4|9=68|35=0|34=44|49=FIX_GWY_1|52=20250822-10:18:10.000|56=CRYPTO_TRADER_1|10=096|8=FIX.4.4|9=68|35=0|34=45|49=FIX_GWY_1|52=20250822-10:18:40.000|56=CRYPTO_TRADER_1|10=100|8=FIX.4.4|9=68|35=0|34=46|49=FIX_GWY_1|52=20250822-10:19:10.000|56=CRYPTO_TRADER_1|10=099|8=FIX.4.4|9=68|35=0|34=47|49=FIX_GWY_1|52=20250822-10:19:40.000|56=CRYPTO_TRADER_1|10=103|8=FIX.4.4|9=68|35=0|34=48|49=FIX_GWY_1|52=20250822-10:20:10.000|56=CRYPTO_TRADER_1|10=093|8=FIX.4.4|9=68|35=0|34=49|49=FIX_GWY_1|52=20250822-10:20:40.000|56=CRYPTO_TRADER_1|10=097|8=FIX.4.4|9=68|35=0|34=50|49=FIX_GWY_1|52=20250822-10:21:10.000|56=CRYPTO_TRADER_1|10=087|8=FIX.4.4|9=68|35=0|34=51|49=FIX_GWY_1|52=20250822-10:21:40.000|56=CRYPTO_TRADER_1|10=091|8=FIX.4.4|9=68|35=0|34=52|49=FIX_GWY_1|52=20250822-10:22:10.000|56=CRYPTO_TRADER_1|10=090|8=FIX.4.4|9=68|35=0|34=53|49=FIX_GWY_1|52=20250822-10:22:40.000|56=CRYPTO_TRADER_1|10=094|8=FIX.4.4|9=68|35=0|34=54|49=FIX_GWY_1|52=20250822-10:23:10.000|56=CRYPTO_TRADER_1|10=093|8=FIX.4.4|9=68|35=0|34=55|49=FIX_GWY_1|52=20250822-10:23:40.000|56=CRYPTO_TRADER_1|10=097|8=FIX.4.4|9=68|35=0|34=56|49=FIX_GWY_1|52=20250822-10:24:10.000|56=CRYPTO_TRADER_1|10=096|8=FIX.4.4|9=68|35=0|34=57|49=FIX_GWY_1|52=20250822-10:24:40.000|56=CRYPTO_TRADER_1|10=100|8=FIX.4.4|9=68|35=0|34=58|49=FIX_GWY_1|52=20250822-10:25:10.000|56=CRYPTO_TRADER_1|10=099|8=FIX.4.4|9=68|35=0|34=59|49=FIX_GWY_1|52=20250822-10:25:40.000|56=CRYPTO_TRADER_1|10=103|8=FIX.4.4|9=68|35=0|34=60|49=FIX_GWY_1|52=20250822-10:26:10.000|56=CRYPTO_TRADER_1|10=093|8=FIX.4.4|9=68|35=0|34=61|49=FIX_GWY_1|52=20250822-10:26:40.000|56=CRYPTO_TRADER_1|10=097|8=FIX.4.4|9=68|35=0|34=62|49=FIX_GWY_1|52=20250822-10:27:10.000|56=CRYPTO_TRADER_1|10=096|8=FIX.4.4|9=68|35=0|34=63|49=FIX_GWY_1|52=20250822-10:27:40.000|56=CRYPTO_TRADER_1|10=100|8=FIX.4.4|9=68|35=0|34=64|49=FIX_GWY_1|52=20250822-10:28:10.000|56=CRYPTO_TRADER_1|10=099|8=FIX.4.4|9=68|35=0|34=65|49=FIX_GWY_1|52=20250822-10:28:40.000|56=CRYPTO_TRADER_1|10=103|8=FIX.4.4|9=68|35=0|34=66|49=FIX_GWY_1|52=20250822-10:29:10.000|56=CRYPTO_TRADER_1|10=102|8=FIX.4.4|9=68|35=0|34=67|49=FIX_GWY_1|52=20250822-10:29:40.000|56=CRYPTO_TRADER_1|10=106|8=FIX.4.4|9=68|35=0|34=68|49=FIX_GWY_1|52=20250822-10:30:10.000|56=CRYPTO_TRADER_1|10=096|8=FIX.4.4|9=68|35=0|34=69|49=FIX_GWY_1|52=20250822-10:30:40.000|56=CRYPTO_TRADER_1|10=100|8=FIX.4.4|9=68|35=0|34=70|49=FIX_GWY_1|52=20250822-10:31:10.000|56=CRYPTO_TRADER_1|10=090|8=FIX.4.4|9=68|35=0|34=71|49=FIX_GWY_1|52=20250822-10:31:40.000|56=CRYPTO_TRADER_1|10=094|8=FIX.4.4|9=68|35=0|34=72|49=FIX_GWY_1|52=20250822-10:32:10.000|56=CRYPTO_TRADER_1|10=093|8=FIX.4.4|9=68|35=0|34=73|49=FIX_GWY_1|52=20250822-10:32:40.000|56=CRYPTO_TRADER_1|10=097|8=FIX.4.4|9=68|35=0|34=74|49=FIX_GWY_1|52=20250822-10:33:10.000|56=CRYPTO_TRADER_1|10=096|8=FIX.4.4|9=68|35=0|34=75|49=FIX_GWY_1|52=20250822-10:33:40.000|56=CRYPTO_TRADER_1|10=100|8=FIX.4.4|9=68|35=0|34=76|49=FIX_GWY_1|52=20250822-10:34:10.000|56=CRYPTO_TRADER_1|10=099|8=FIX.4.4|9=68|35=0|34=77|49=FIX_GWY_1|52=20250822-10:34:40.000|56=CRYPTO_TRADER_1|10=103|8=FIX.4.4|9=68|35=0|34=78|49=FIX_GWY_1|52=20250822-10:35:10.000|56=CRYPTO_TRADER_1|10=102|8=FIX.4.4|9=68|35=0|34=79|49=FIX_GWY_1|52=20250822-10:35:40.000|56=CRYPTO_TRADER_1|10=106|8=FIX.4.4|9=68|35=0|34=80|49=FIX_GWY_1|52=20250822-10:36:10.000|56=CRYPTO_TRADER_1|10=096|8=FIX.4.4|9=68|35=0|34=81|49=FIX_GWY_1|52=20250822-10:36:40.000|56=CRYPTO_TRADER_1|10=100|8=FIX.4.4|9=68|35=0|34=82|49=FIX_GWY_1|52=20250822-10:37:10.000|56=CRYPTO_TRADER_1|10=099|8=FIX.4.4|9=68|35=0|34=83|49=FIX_GWY_1|52=20250822-10:37:40.000|56=CRYPTO_TRADER_1|10=103|8=FIX.4.4|9=68|35=0|34=84|49=FIX_GWY_1|52=20250822-10:38:10.000|56=CRYPTO_TRADER_1|10=102|8=FIX.4.4|9=68|35=0|34=85|49=FIX_GWY_1|52=20250822-10:38:40.000|56=CRYPTO_TRADER_1|10=106|