8=FIX.4.4|9=85|35=A|34=1|49=FIX_GWY_1|52=20250822-11:53:31.000|56=CRYPTO_TRADER_1|98=0|108=30|141=Y|10=130|8=FIX.4.4|9=1525|35=y|34=2|49=FIX_GWY_1|52=20250822-11:53:31.000|56=CRYPTO_TRADER_1|146=28|55=ADA-USD|207=OTHER_COIN_MARKET|58={"type":"Crypto"}|55=AVX-AUD|207=OTHER_COIN_MARKET|58={"type":"Crypto"}|55=BCH-CNY|207=OTHER_COIN_MARKET|58={"type":"Crypto"}|55=BTC-AUD|207=BTC_MARKET|58={"type":"Crypto"}|55=BTC-CAD|207=BTC_MARKET|58={"type":"Crypto"}|55=BTC-CNY|207=BTC_MARKET|58={"type":"Crypto"}|55=BTC-EUR|207=BTC_MARKET|58={"type":"Crypto"}|55=BTC-GBP|207=BTC_MARKET|58={"type":"Crypto"}|55=BTC-JPY|207=BTC_MARKET|58={"type":"Crypto"}|55=BTC-USD|207=BTC_MARKET|58={"type":"Crypto"}|55=DAI-USD|207=OTHER_COIN_MARKET|58={"type":"Crypto"}|55=DOT-GBP|207=OTHER_COIN_MARKET|58={"type":"Crypto"}|55=ETH-AUD|207=ETH_MARKET|58={"type":"Crypto"}|55=ETH-CAD|207=ETH_MARKET|58={"type":"Crypto"}|55=ETH-CNY|207=ETH_MARKET|58={"type":"Crypto"}|55=ETH-EUR|207=ETH_MARKET|58={"type":"Crypto"}|55=ETH-GBP|207=ETH_MARKET|58={"type":"Crypto"}|55=ETH-JPY|207=ETH_MARKET|58={"type":"Crypto"}|55=ETH-USD|207=ETH_MARKET|58={"type":"Crypto"}|55=LTC-JPY|207=OTHER_COIN_MARKET|58={"type":"Crypto"}|55=LUN-CAD|207=OTHER_COIN_MARKET|58={"type":"Crypto"}|55=MTC-CAD|207=OTHER_COIN_MARKET|58={"type":"Crypto"}|55=SOL-EUR|207=OTHER_COIN_MARKET|58={"type":"Crypto"}|55=UNI-JPY|207=OTHER_COIN_MARKET|58={"type":"Crypto"}|55=XLM-CNY|207=OTHER_COIN_MARKET|58={"type":"Crypto"}|55=XLM-EUR|207=OTHER_COIN_MARKET|58={"type":"Crypto"}|55=XMR-AUD|207=OTHER_COIN_MARKET|58={"type":"Crypto"}|55=XRP-GBP|207=OTHER_COIN_MARKET|58={"type":"Crypto"}|320=SecurityListRequest1|322=1|560=0|10=030|8=FIX.4.4|9=126|35=W|34=3|49=FIX_GWY_1|52=20250822-11:53:32.000|56=CRYPTO_TRADER_1|55=ADA-USD|207=OTHER_COIN_MARKET|268=1|269=4|270=101|271=0|10=159|8=FIX.4.4|9=126|35=W|34=4|49=FIX_GWY_1|52=20250822-11:53:32.000|56=CRYPTO_TRADER_1|55=AVX-AUD|207=OTHER_COIN_MARKET|268=1|269=4|270=401|271=0|10=186|8=FIX.4.4|9=126|35=W|34=5|49=FIX_GWY_1|52=20250822-11:53:32.000|56=CRYPTO_TRADER_1|55=BCH-CNY|207=OTHER_COIN_MARKET|268=1|269=4|270=401|271=0|10=169|8=FIX.4.4|9=121|35=W|34=6|49=FIX_GWY_1|52=20250822-11:53:32.000|56=CRYPTO_TRADER_1|55=BTC-AUD|207=BTC_MARKET|268=1|269=4|270=40100|271=0|10=208|8=FIX.4.4|9=121|35=W|34=7|49=FIX_GWY_1|52=20250822-11:53:32.000|56=CRYPTO_TRADER_1|55=BTC-CAD|207=BTC_MARKET|268=1|269=4|270=40100|271=0|10=191|8=FIX.4.4|9=366|35=W|34=8|49=FIX_GWY_1|52=20250822-11:53:32.000|56=CRYPTO_TRADER_1|55=BTC-CNY|207=BTC_MARKET|268=14|269=0|270=0|271=0|269=0|270=0|271=0|269=0|270=0|271=0|269=0|270=0|271=0|269=0|270=0|271=0|269=1|270=0|271=0|269=1|270=0|271=0|269=1|270=0|271=0|269=1|270=0|271=0|269=1|270=0|271=0|269=2|270=40200|271=0|269=B|270=0|271=100|269=4|270=40100|271=0|269=8|270=40100|271=0|10=180|8=FIX.4.4|9=121|35=W|34=9|49=FIX_GWY_1|52=20250822-11:53:32.000|56=CRYPTO_TRADER_1|55=BTC-EUR|207=BTC_MARKET|268=1|269=4|270=20100|271=0|10=227|8=FIX.4.4|9=122|35=W|34=10|49=FIX_GWY_1|52=20250822-11:53:32.000|56=CRYPTO_TRADER_1|55=BTC-GBP|207=BTC_MARKET|268=1|269=4|270=30100|271=0|10=250|8=FIX.4.4|9=122|35=W|34=11|49=FIX_GWY_1|52=20250822-11:53:32.000|56=CRYPTO_TRADER_1|55=BTC-JPY|207=BTC_MARKET|268=1|269=4|270=40100|271=0|10=022|8=FIX.4.4|9=122|35=W|34=12|49=FIX_GWY_1|52=20250822-11:53:32.000|56=CRYPTO_TRADER_1|55=BTC-USD|207=BTC_MARKET|268=1|269=4|270=10100|271=0|10=013|8=FIX.4.4|9=127|35=W|34=13|49=FIX_GWY_1|52=20250822-11:53:32.000|56=CRYPTO_TRADER_1|55=DAI-USD|207=OTHER_COIN_MARKET|268=1|269=4|270=101|271=0|10=217|8=FIX.4.4|9=127|35=W|34=14|49=FIX_GWY_1|52=20250822-11:53:32.000|56=CRYPTO_TRADER_1|55=DOT-GBP|207=OTHER_COIN_MARKET|268=1|269=4|270=301|271=0|10=226|8=FIX.4.4|9=121|35=W|34=15|49=FIX_GWY_1|52=20250822-11:53:32.000|56=CRYPTO_TRADER_1|55=ETH-AUD|207=ETH_MARKET|268=1|269=4|270=4010|271=0|10=224|8=FIX.4.4|9=121|35=W|34=16|49=FIX_GWY_1|52=20250822-11:53:32.000|56=CRYPTO_TRADER_1|55=ETH-CAD|207=ETH_MARKET|268=1|269=4|270=4010|271=0|10=207|8=FIX.4.4|9=121|35=W|34=17|49=FIX_GWY_1|52=20250822-11:53:32.000|56=CRYPTO_TRADER_1|55=ETH-CNY|207=ETH_MARKET|268=1|269=4|270=4010|271=0|10=242|8=FIX.4.4|9=121|35=W|34=18|49=FIX_GWY_1|52=20250822-11:53:32.000|56=CRYPTO_TRADER_1|55=ETH-EUR|207=ETH_MARKET|268=1|269=4|270=2010|271=0|10=243|8=FIX.4.4|9=121|35=W|34=19|49=FIX_GWY_1|52=20250822-11:53:32.000|56=CRYPTO_TRADER_1|55=ETH-GBP|207=ETH_MARKET|268=1|269=4|270=3010|271=0|10=226|8=FIX.4.4|9=121|35=W|34=20|49=FIX_GWY_1|52=20250822-11:53:32.000|56=CRYPTO_TRADER_1|55=ETH-JPY|207=ETH_MARKET|268=1|269=4|270=4010|271=0|10=245|8=FIX.4.4|9=121|35=W|34=21|49=FIX_GWY_1|52=20250822-11:53:32.000|56=CRYPTO_TRADER_1|55=ETH-USD|207=ETH_MARKET|268=1|269=4|270=1010|271=0|10=236|8=FIX.4.4|9=127|35=W|34=22|49=FIX_GWY_1|52=20250822-11:53:32.000|56=CRYPTO_TRADER_1|55=LTC-JPY|207=OTHER_COIN_MARKET|268=1|269=4|270=401|271=0|10=248|8=FIX.4.4|9=127|35=W|34=23|49=FIX_GWY_1|52=20250822-11:53:32.000|56=CRYPTO_TRADER_1|55=LUN-CAD|207=OTHER_COIN_MARKET|268=1|269=4|270=401|271=0|10=218|8=FIX.4.4|9=127|35=W|34=24|49=FIX_GWY_1|52=20250822-11:53:32.000|56=CRYPTO_TRADER_1|55=MTC-CAD|207=OTHER_COIN_MARKET|268=1|269=4|270=401|271=0|10=208|8=FIX.4.4|9=127|35=W|34=25|49=FIX_GWY_1|52=20250822-11:53:32.000|56=CRYPTO_TRADER_1|55=SOL-EUR|207=OTHER_COIN_MARKET|268=1|269=4|270=201|271=0|10=253|8=FIX.4.4|9=127|35=W|34=26|49=FIX_GWY_1|52=20250822-11:53:32.000|56=CRYPTO_TRADER_1|55=UNI-JPY|207=OTHER_COIN_MARKET|268=1|269=4|270=401|271=0|10=005|8=FIX.4.4|9=127|35=W|34=27|49=FIX_GWY_1|52=20250822-11:53:32.000|56=CRYPTO_TRADER_1|55=XLM-CNY|207=OTHER_COIN_MARKET|268=1|269=4|270=401|271=0|10=002|8=FIX.4.4|9=127|35=W|34=28|49=FIX_GWY_1|52=20250822-11:53:32.000|56=CRYPTO_TRADER_1|55=XLM-EUR|207=OTHER_COIN_MARKET|268=1|269=4|270=201|271=0|10=003|8=FIX.4.4|9=127|35=W|34=29|49=FIX_GWY_1|52=20250822-11:53:32.000|56=CRYPTO_TRADER_1|55=XMR-AUD|207=OTHER_COIN_MARKET|268=1|269=4|270=401|271=0|10=250|8=FIX.4.4|9=127|35=W|34=30|49=FIX_GWY_1|52=20250822-11:53:32.000|56=CRYPTO_TRADER_1|55=XRP-GBP|207=OTHER_COIN_MARKET|268=1|269=4|270=301|271=0|10=243|8=FIX.4.4|9=253|35=8|34=31|49=FIX_GWY_1|52=20250822-11:53:35.000|56=CRYPTO_TRADER_1|6=0|14=0|17=1000029|31=0|32=0|37=investor_1:1755863615768071000|38=100|39=0|40=2|44=40100|54=1|55=BTC-CNY|58=OK|59=0|60=20250822-11:53:35.768720|99=0|103=0|150=0|151=100|207=BTC_MARKET|10=040|8=FIX.4.4|9=253|35=8|34=32|49=FIX_GWY_1|52=20250822-11:53:35.000|56=CRYPTO_TRADER_1|6=0|14=0|17=1000030|31=0|32=0|37=investor_2:1755863615768140000|38=100|39=0|40=2|44=40100|54=1|55=BTC-CNY|58=OK|59=0|60=20250822-11:53:35.770107|99=0|103=0|150=0|151=100|207=BTC_MARKET|10=023|8=FIX.4.4|9=253|35=8|34=33|49=FIX_GWY_1|52=20250822-11:53:35.000|56=CRYPTO_TRADER_1|6=0|14=0|17=1000031|31=0|32=0|37=investor_2:1755863615768206000|38=100|39=0|40=2|44=40100|54=1|55=BTC-CNY|58=OK|59=0|60=20250822-11:53:35.771259|99=0|103=0|150=0|151=100|207=BTC_MARKET|10=037|8=FIX.4.4|9=253|35=8|34=34|49=FIX_GWY_1|52=20250822-11:53:35.000|56=CRYPTO_TRADER_1|6=0|14=0|17=1000032|31=0|32=0|37=investor_2:1755863615768245000|38=100|39=0|40=2|44=40100|54=1|55=BTC-CNY|58=OK|59=0|60=20250822-11:53:35.773005|99=0|103=0|150=0|151=100|207=BTC_MARKET|10=033|8=FIX.4.4|9=253|35=8|34=35|49=FIX_GWY_1|52=20250822-11:53:35.000|56=CRYPTO_TRADER_1|6=0|14=0|17=1000033|31=0|32=0|37=investor_1:1755863615768281000|38=100|39=0|40=2|44=40100|54=1|55=BTC-CNY|58=OK|59=0|60=20250822-11:53:35.775054|99=0|103=0|150=0|151=100|207=BTC_MARKET|10=040|8=FIX.4.4|9=253|35=8|34=36|49=FIX_GWY_1|52=20250822-11:53:35.000|56=CRYPTO_TRADER_1|6=0|14=0|17=1000034|31=0|32=0|37=investor_1:1755863615768309000|38=100|39=0|40=2|44=40100|54=1|55=BTC-CNY|58=OK|59=0|60=20250822-11:53:35.776347|99=0|103=0|150=0|151=100|207=BTC_MARKET|10=049|8=FIX.4.4|9=253|35=8|34=37|49=FIX_GWY_1|52=20250822-11:53:35.000|56=CRYPTO_TRADER_1|6=0|14=0|17=1000035|31=0|32=0|37=investor_1:1755863615768340000|38=100|39=0|40=2|44=40100|54=1|55=BTC-CNY|58=OK|59=0|60=20250822-11:53:35.777431|99=0|103=0|150=0|151=100|207=BTC_MARKET|10=041|8=FIX.4.4|9=253|35=8|34=38|49=FIX_GWY_1|52=20250822-11:53:35.000|56=CRYPTO_TRADER_1|6=0|14=0|17=1000036|31=0|32=0|37=investor_2:1755863615768371000|38=100|39=0|40=2|44=40100|54=1|55=BTC-CNY|58=OK|59=0|60=20250822-11:53:35.779413|99=0|103=0|150=0|151=100|207=BTC_MARKET|10=050|8=FIX.4.4|9=253|35=8|34=39|49=FIX_GWY_1|52=20250822-11:53:35.000|56=CRYPTO_TRADER_1|6=0|14=0|17=1000037|31=0|32=0|37=investor_2:1755863615768396000|38=100|39=0|40=2|44=40100|54=1|55=BTC-CNY|58=OK|59=0|60=20250822-11:53:35.781387|99=0|103=0|150=0|151=100|207=BTC_MARKET|10=062|8=FIX.4.4|9=795|35=X|34=40|49=FIX_GWY_1|52=20250822-11:53:35.000|56=CRYPTO_TRADER_1|268=14|279=0|269=0|55=BTC-CNY|207=BTC_MARKET|270=40100|271=900|279=0|269=0|55=BTC-CNY|207=BTC_MARKET|270=0|271=0|279=0|269=0|55=BTC-CNY|207=BTC_MARKET|270=0|271=0|279=0|269=0|55=BTC-CNY|207=BTC_MARKET|270=0|271=0|279=0|269=0|55=BTC-CNY|207=BTC_MARKET|270=0|271=0|279=0|269=1|55=BTC-CNY|207=BTC_MARKET|270=0|271=0|279=0|269=1|55=BTC-CNY|207=BTC_MARKET|270=0|271=0|279=0|269=1|55=BTC-CNY|207=BTC_MARKET|270=0|271=0|279=0|269=1|55=BTC-CNY|207=BTC_MARKET|270=0|271=0|279=0|269=1|55=BTC-CNY|207=BTC_MARKET|270=0|271=0|279=0|269=2|55=BTC-CNY|207=BTC_MARKET|270=40200|271=0|279=0|269=B|55=BTC-CNY|207=BTC_MARKET|270=0|271=100|279=0|269=4|55=BTC-CNY|207=BTC_MARKET|270=40100|271=0|279=0|269=8|55=BTC-CNY|207=BTC_MARKET|270=40100|271=0|10=103|8=FIX.4.4|9=68|35=0|34=41|49=FIX_GWY_1|52=20250822-11:54:05.000|56=CRYPTO_TRADER_1|10=098|8=FIX.4.4|9=68|35=0|34=42|49=FIX_GWY_1|52=20250822-11:54:35.000|56=CRYPTO_TRADER_1|10=102|8=FIX.4.4|9=68|35=0|34=43|49=FIX_GWY_1|52=20250822-12:10:03.000|56=CRYPTO_TRADER_1|10=091|8=FIX.4.4|9=68|35=0|34=44|49=FIX_GWY_1|52=20250822-12:10:33.000|56=CRYPTO_TRADER_1|10=095|8=FIX.4.4|9=68|35=0|34=45|49=FIX_GWY_1|52=20250822-12:11:03.000|56=CRYPTO_TRADER_1|10=094|8=FIX.4.4|9=68|35=0|34=46|49=FIX_GWY_1|52=20250822-12:11:33.000|56=CRYPTO_TRADER_1|10=098|8=FIX.4.4|9=68|35=0|34=47|49=FIX_GWY_1|52=20250822-12:12:03.000|56=CRYPTO_TRADER_1|10=097|8=FIX.4.4|9=68|35=0|34=48|49=FIX_GWY_1|52=20250822-12:12:33.000|56=CRYPTO_TRADER_1|10=101|8=FIX.4.4|9=68|35=0|34=49|49=FIX_GWY_1|52=20250822-12:13:03.000|56=CRYPTO_TRADER_1|10=100|8=FIX.4.4|9=68|35=0|34=50|49=FIX_GWY_1|52=20250822-12:13:33.000|56=CRYPTO_TRADER_1|10=095|8=FIX.4.4|9=68|35=0|34=51|49=FIX_GWY_1|52=20250822-12:14:03.000|56=CRYPTO_TRADER_1|10=094|8=FIX.4.4|9=68|35=0|34=52|49=FIX_GWY_1|52=20250822-12:14:33.000|56=CRYPTO_TRADER_1|10=098|8=FIX.4.4|9=68|35=0|34=53|49=FIX_GWY_1|52=20250822-12:15:03.000|56=CRYPTO_TRADER_1|10=097|8=FIX.4.4|9=68|35=0|34=54|49=FIX_GWY_1|52=20250822-12:15:33.000|56=CRYPTO_TRADER_1|10=101|8=FIX.4.4|9=68|35=0|34=55|49=FIX_GWY_1|52=20250822-12:16:03.000|56=CRYPTO_TRADER_1|10=100|8=FIX.4.4|9=68|35=0|34=56|49=FIX_GWY_1|52=20250822-12:16:33.000|56=CRYPTO_TRADER_1|10=104|8=FIX.4.4|9=68|35=0|34=57|49=FIX_GWY_1|52=20250822-12:17:03.000|56=CRYPTO_TRADER_1|10=103|8=FIX.4.4|9=68|35=0|34=58|49=FIX_GWY_1|52=20250822-12:17:33.000|56=CRYPTO_TRADER_1|10=107|8=FIX.4.4|9=68|35=0|34=59|49=FIX_GWY_1|52=20250822-12:18:03.000|56=CRYPTO_TRADER_1|10=106|8=FIX.4.4|9=68|35=0|34=60|49=FIX_GWY_1|52=20250822-12:18:33.000|56=CRYPTO_TRADER_1|10=101|8=FIX.4.4|9=68|35=0|34=61|49=FIX_GWY_1|52=20250822-12:19:03.000|56=CRYPTO_TRADER_1|10=100|8=FIX.4.4|9=68|35=0|34=62|49=FIX_GWY_1|52=20250822-12:19:33.000|56=CRYPTO_TRADER_1|10=104|8=FIX.4.4|9=68|35=0|34=63|49=FIX_GWY_1|52=20250822-12:20:03.000|56=CRYPTO_TRADER_1|10=094|8=FIX.4.4|9=68|35=0|34=64|49=FIX_GWY_1|52=20250822-12:20:33.000|56=CRYPTO_TRADER_1|10=098|8=FIX.4.4|9=68|35=0|34=65|49=FIX_GWY_1|52=20250822-12:21:03.000|56=CRYPTO_TRADER_1|10=097|8=FIX.4.4|9=68|35=0|34=66|49=FIX_GWY_1|52=20250822-12:21:33.000|56=CRYPTO_TRADER_1|10=101|8=FIX.4.4|9=68|35=0|34=67|49=FIX_GWY_1|52=20250822-12:22:03.000|56=CRYPTO_TRADER_1|10=100|8=FIX.4.4|9=68|35=0|34=68|49=FIX_GWY_1|52=20250822-12:22:33.000|56=CRYPTO_TRADER_1|10=104|8=FIX.4.4|9=68|35=0|34=69|49=FIX_GWY_1|52=20250822-12:23:03.000|56=CRYPTO_TRADER_1|10=103|8=FIX.4.4|9=68|35=0|34=70|49=FIX_GWY_1|52=20250822-12:23:33.000|56=CRYPTO_TRADER_1|10=098|8=FIX.4.4|9=68|35=0|34=71|49=FIX_GWY_1|52=20250822-12:24:03.000|56=CRYPTO_TRADER_1|10=097|8=FIX.4.4|9=68|35=0|34=72|49=FIX_GWY_1|52=20250822-12:24:33.000|56=CRYPTO_TRADER_1|10=101|8=FIX.4.4|9=68|35=0|34=73|49=FIX_GWY_1|52=20250822-12:25:03.000|56=CRYPTO_TRADER_1|10=100|8=FIX.4.4|9=68|35=0|34=74|49=FIX_GWY_1|52=20250822-12:25:33.000|56=CRYPTO_TRADER_1|10=104|8=FIX.4.4|9=68|35=0|34=75|49=FIX_GWY_1|52=20250822-12:26:03.000|56=CRYPTO_TRADER_1|10=103|8=FIX.4.4|9=68|35=0|34=76|49=FIX_GWY_1|52=20250822-12:26:33.000|56=CRYPTO_TRADER_1|10=107|8=FIX.4.4|9=68|35=0|34=77|49=FIX_GWY_1|52=20250822-12:27:03.000|56=CRYPTO_TRADER_1|10=106|8=FIX.4.4|9=68|35=0|34=78|49=FIX_GWY_1|52=20250822-12:27:33.000|56=CRYPTO_TRADER_1|10=110|8=FIX.4.4|9=68|35=0|34=79|49=FIX_GWY_1|52=20250822-12:28:03.000|56=CRYPTO_TRADER_1|10=109|8=FIX.4.4|9=68|35=0|34=80|49=FIX_GWY_1|52=20250822-12:28:33.000|56=CRYPTO_TRADER_1|10=104|8=FIX.4.4|9=68|35=0|34=81|49=FIX_GWY_1|52=20250822-12:29:03.000|56=CRYPTO_TRADER_1|10=103|8=FIX.4.4|9=68|35=0|34=82|49=FIX_GWY_1|52=20250822-12:29:33.000|56=CRYPTO_TRADER_1|10=107|8=FIX.4.4|9=68|35=0|34=83|49=FIX_GWY_1|52=20250822-12:30:03.000|56=CRYPTO_TRADER_1|10=097|8=FIX.4.4|9=68|35=0|34=84|49=FIX_GWY_1|52=20250822-12:30:33.000|56=CRYPTO_TRADER_1|10=101|8=FIX.4.4|9=68|35=0|34=85|49=FIX_GWY_1|52=20250822-12:31:03.000|56=CRYPTO_TRADER_1|10=100|8=FIX.4.4|9=68|35=0|34=86|49=FIX_GWY_1|52=20250822-12:31:33.000|56=CRYPTO_TRADER_1|10=104|8=FIX.4.4|9=68|35=0|34=87|49=FIX_GWY_1|52=20250822-12:32:03.000|56=CRYPTO_TRADER_1|10=103|8=FIX.4.4|9=68|35=0|34=88|49=FIX_GWY_1|52=20250822-12:32:33.000|56=CRYPTO_TRADER_1|10=107|8=FIX.4.4|9=68|35=0|34=89|49=FIX_GWY_1|52=20250822-12:33:03.000|56=CRYPTO_TRADER_1|10=106|8=FIX.4.4|9=68|35=0|34=90|49=FIX_GWY_1|52=20250822-12:33:33.000|56=CRYPTO_TRADER_1|10=101|8=FIX.4.4|9=68|35=0|34=91|49=FIX_GWY_1|52=20250822-12:34:03.000|56=CRYPTO_TRADER_1|10=100|8=FIX.4.4|9=68|35=0|34=92|49=FIX_GWY_1|52=20250822-12:34:33.000|56=CRYPTO_TRADER_1|10=104|8=FIX.4.4|9=68|35=0|34=93|49=FIX_GWY_1|52=20250822-12:35:03.000|56=CRYPTO_TRADER_1|10=103|8=FIX.4.4|9=68|35=0|34=94|49=FIX_GWY_1|52=20250822-12:35:33.000|56=CRYPTO_TRADER_1|10=107|8=FIX.4.4|9=68|35=0|34=95|49=FIX_GWY_1|52=20250822-12:36:03.000|56=CRYPTO_TRADER_1|10=106|8=FIX.4.4|9=68|35=0|34=96|49=FIX_GWY_1|52=20250822-12:36:33.000|56=CRYPTO_TRADER_1|10=110|8=FIX.4.4|9=68|35=0|34=97|49=FIX_GWY_1|52=20250822-12:37:03.000|56=CRYPTO_TRADER_1|10=109|8=FIX.4.4|9=68|35=0|34=98|49=FIX_GWY_1|52=20250822-12:37:33.000|56=CRYPTO_TRADER_1|10=113|8=FIX.4.4|9=68|35=0|34=99|49=FIX_GWY_1|52=20250822-12:38:03.000|56=CRYPTO_TRADER_1|10=112|8=FIX.4.4|9=69|35=0|34=100|49=FIX_GWY_1|52=20250822-12:38:33.000|56=CRYPTO_TRADER_1|10=147|8=FIX.4.4|9=69|35=0|34=101|49=FIX_GWY_1|52=20250822-12:39:03.000|56=CRYPTO_TRADER_1|10=146|8=FIX.4.4|9=69|35=0|34=102|49=FIX_GWY_1|52=20250822-12:39:33.000|56=CRYPTO_TRADER_1|10=150|8=FIX.4.4|9=69|35=0|34=103|49=FIX_GWY_1|52=20250822-12:40:03.000|56=CRYPTO_TRADER_1|10=140|8=FIX.4.4|9=69|35=0|34=104|49=FIX_GWY_1|52=20250822-12:40:33.000|56=CRYPTO_TRADER_1|10=144|8=FIX.4.4|9=69|35=0|34=105|49=FIX_GWY_1|52=20250822-12:41:04.000|56=CRYPTO_TRADER_1|10=144|8=FIX.4.4|9=69|35=0|34=106|49=FIX_GWY_1|52=20250822-12:41:34.000|56=CRYPTO_TRADER_1|10=148|8=FIX.4.4|9=69|35=0|34=107|49=FIX_GWY_1|52=20250822-12:42:04.000|56=CRYPTO_TRADER_1|10=147|8=FIX.4.4|9=69|35=0|34=108|49=FIX_GWY_1|52=20250822-12:42:34.000|56=CRYPTO_TRADER_1|10=151|8=FIX.4.4|9=69|35=0|34=109|49=FIX_GWY_1|52=20250822-12:43:04.000|56=CRYPTO_TRADER_1|10=150|8=FIX.4.4|9=69|35=0|34=110|49=FIX_GWY_1|52=20250822-12:43:34.000|56=CRYPTO_TRADER_1|10=145|8=FIX.4.4|9=69|35=0|34=111|49=FIX_GWY_1|52=20250822-12:44:04.000|56=CRYPTO_TRADER_1|10=144|8=FIX.4.4|9=69|35=0|34=112|49=FIX_GWY_1|52=20250822-12:44:34.000|56=CRYPTO_TRADER_1|10=148|8=FIX.4.4|9=69|35=0|34=113|49=FIX_GWY_1|52=20250822-12:45:04.000|56=CRYPTO_TRADER_1|10=147|8=FIX.4.4|9=69|35=0|34=114|49=FIX_GWY_1|52=20250822-12:45:34.000|56=CRYPTO_TRADER_1|10=151|8=FIX.4.4|9=69|35=0|34=115|49=FIX_GWY_1|52=20250822-12:46:04.000|56=CRYPTO_TRADER_1|10=150|8=FIX.4.4|9=69|35=0|34=116|49=FIX_GWY_1|52=20250822-12:46:34.000|56=CRYPTO_TRADER_1|10=154|8=FIX.4.4|9=78|35=0|34=117|49=FIX_GWY_1|52=20250822-12:47:09.000|56=CRYPTO_TRADER_1|112=TEST|10=176|8=FIX.4.4|9=69|35=0|34=118|49=FIX_GWY_1|52=20250822-12:47:39.000|56=CRYPTO_TRADER_1|10=162|8=FIX.4.4|9=69|35=0|34=119|49=FIX_GWY_1|52=20250822-12:48:09.000|56=CRYPTO_TRADER_1|10=161|8=FIX.4.4|9=69|35=0|34=120|49=FIX_GWY_1|52=20250822-12:48:39.000|56=CRYPTO_TRADER_1|10=156|8=FIX.4.4|9=69|35=0|34=121|49=FIX_GWY_1|52=20250822-12:49:09.000|56=CRYPTO_TRADER_1|10=155|8=FIX.4.4|9=69|35=0|34=122|49=FIX_GWY_1|52=20250822-12:49:39.000|56=CRYPTO_TRADER_1|10=159|8=FIX.4.4|9=69|35=0|34=123|49=FIX_GWY_1|52=20250822-12:50:09.000|56=CRYPTO_TRADER_1|10=149|8=FIX.4.4|9=69|35=0|34=124|49=FIX_GWY_1|52=20250822-12:50:39.000|56=CRYPTO_TRADER_1|10=153|8=FIX.4.4|9=69|35=0|34=125|49=FIX_GWY_1|52=20250822-12:51:09.000|56=CRYPTO_TRADER_1|10=152|8=FIX.4.4|9=69|35=0|34=126|49=FIX_GWY_1|52=20250822-12:51:39.000|56=CRYPTO_TRADER_1|10=156|8=FIX.4.4|9=69|35=0|34=127|49=FIX_GWY_1|52=20250822-12:52:10.000|56=CRYPTO_TRADER_1|10=147|8=FIX.4.4|9=69|35=0|34=128|49=FIX_GWY_1|52=20250822-12:52:40.000|56=CRYPTO_TRADER_1|10=151|8=FIX.4.4|9=69|35=0|34=129|49=FIX_GWY_1|52=20250822-12:53:10.000|56=CRYPTO_TRADER_1|10=150|8=FIX.4.4|9=69|35=0|34=130|49=FIX_GWY_1|52=20250822-12:53:40.000|56=CRYPTO_TRADER_1|10=145|8=FIX.4.4|9=69|35=0|34=131|49=FIX_GWY_1|52=20250822-12:54:10.000|56=CRYPTO_TRADER_1|10=144|8=FIX.4.4|9=69|35=0|34=132|49=FIX_GWY_1|52=20250822-12:54:40.000|56=CRYPTO_TRADER_1|10=148|8=FIX.4.4|9=69|35=0|34=133|49=FIX_GWY_1|52=20250822-12:55:10.000|56=CRYPTO_TRADER_1|10=147|8=FIX.4.4|9=69|35=0|34=134|49=FIX_GWY_1|52=20250822-12:55:40.000|56=CRYPTO_TRADER_1|10=151|8=FIX.4.4|9=69|35=0|34=135|49=FIX_GWY_1|52=20250822-12:56:10.000|56=CRYPTO_TRADER_1|10=150|8=FIX.4.4|9=69|35=0|34=136|49=FIX_GWY_1|52=20250822-12:56:40.000|56=CRYPTO_TRADER_1|10=154|8=FIX.4.4|9=69|35=0|34=137|49=FIX_GWY_1|52=20250822-12:57:10.000|56=CRYPTO_TRADER_1|10=153|8=FIX.4.4|9=69|35=0|34=138|49=FIX_GWY_1|52=20250822-12:57:40.000|56=CRYPTO_TRADER_1|10=157|8=FIX.4.4|9=69|35=0|34=139|49=FIX_GWY_1|52=20250822-12:58:10.000|56=CRYPTO_TRADER_1|10=156|8=FIX.4.4|9=69|35=0|34=140|49=FIX_GWY_1|52=20250822-12:58:40.000|56=CRYPTO_TRADER_1|10=151|8=FIX.4.4|9=69|35=0|34=141|49=FIX_GWY_1|52=20250822-12:59:10.000|56=CRYPTO_TRADER_1|10=150|8=FIX.4.4|9=69|35=0|34=142|49=FIX_GWY_1|52=20250822-12:59:40.000|56=CRYPTO_TRADER_1|10=154|8=FIX.4.4|9=69|35=0|34=143|49=FIX_GWY_1|52=20250822-13:00:10.000|56=CRYPTO_TRADER_1|10=139|8=FIX.4.4|9=69|35=0|34=144|49=FIX_GWY_1|52=20250822-13:00:40.000|56=CRYPTO_TRADER_1|10=143|8=FIX.4.4|9=69|35=0|34=145|49=FIX_GWY_1|52=20250822-13:01:10.000|56=CRYPTO_TRADER_1|10=142|8=FIX.4.4|9=69|35=0|34=146|49=FIX_GWY_1|52=20250822-13:01:40.000|56=CRYPTO_TRADER_1|10=146|8=FIX.4.4|9=69|35=0|34=147|49=FIX_GWY_1|52=20250822-13:02:10.000|56=CRYPTO_TRADER_1|10=145|8=FIX.4.4|9=69|35=0|34=148|49=FIX_GWY_1|52=20250822-13:02:40.000|56=CRYPTO_TRADER_1|10=149|8=FIX.4.4|9=69|35=0|34=149|49=FIX_GWY_1|52=20250822-13:03:10.000|56=CRYPTO_TRADER_1|10=148|8=FIX.4.4|9=69|35=0|34=150|49=FIX_GWY_1|52=20250822-13:03:40.000|56=CRYPTO_TRADER_1|10=143|8=FIX.4.4|9=69|35=0|34=151|49=FIX_GWY_1|52=20250822-13:04:10.000|56=CRYPTO_TRADER_1|10=142|8=FIX.4.4|9=69|35=0|34=152|49=FIX_GWY_1|52=20250822-13:04:40.000|56=CRYPTO_TRADER_1|10=146|8=FIX.4.4|9=69|35=0|34=153|49=FIX_GWY_1|52=20250822-13:05:10.000|56=CRYPTO_TRADER_1|10=145|8=FIX.4.4|9=69|35=0|34=154|49=FIX_GWY_1|52=20250822-13:05:40.000|56=CRYPTO_TRADER_1|10=149|8=FIX.4.4|9=69|35=0|34=155|49=FIX_GWY_1|52=20250822-13:06:10.000|56=CRYPTO_TRADER_1|10=148|8=FIX.4.4|9=69|35=0|34=156|49=FIX_GWY_1|52=20250822-13:06:40.000|56=CRYPTO_TRADER_1|10=152|8=FIX.4.4|9=69|35=0|34=157|49=FIX_GWY_1|52=20250822-13:07:10.000|56=CRYPTO_TRADER_1|10=151|8=FIX.4.4|9=69|35=0|34=158|49=FIX_GWY_1|52=20250822-13:07:40.000|56=CRYPTO_TRADER_1|10=155|8=FIX.4.4|9=69|35=0|34=159|49=FIX_GWY_1|52=20250822-13:08:10.000|56=CRYPTO_TRADER_1|10=154|8=FIX.4.4|9=69|35=0|34=160|49=FIX_GWY_1|52=20250822-13:08:40.000|56=CRYPTO_TRADER_1|10=149|8=FIX.4.4|9=69|35=0|34=161|49=FIX_GWY_1|52=20250822-13:09:10.000|56=CRYPTO_TRADER_1|10=148|8=FIX.4.4|9=69|35=0|34=162|49=FIX_GWY_1|52=20250822-13:09:40.000|56=CRYPTO_TRADER_1|10=152|8=FIX.4.4|9=69|35=0|34=163|49=FIX_GWY_1|52=20250822-13:10:10.000|56=CRYPTO_TRADER_1|10=142|8=FIX.4.4|9=69|35=0|34=164|49=FIX_GWY_1|52=20250822-13:10:40.000|56=CRYPTO_TRADER_1|10=146|8=FIX.4.4|9=69|35=0|34=165|49=FIX_GWY_1|52=20250822-13:11:10.000|56=CRYPTO_TRADER_1|10=145|8=FIX.4.4|9=69|35=0|34=166|49=FIX_GWY_1|52=20250822-13:11:40.000|56=CRYPTO_TRADER_1|10=149|8=FIX.4.4|9=69|35=0|34=167|49=FIX_GWY_1|52=20250822-13:12:10.000|56=CRYPTO_TRADER_1|10=148|8=FIX.4.4|9=69|35=0|34=168|49=FIX_GWY_1|52=20250822-13:12:40.000|56=CRYPTO_TRADER_1|10=152|8=FIX.4.4|9=69|35=0|34=169|49=FIX_GWY_1|52=20250822-13:13:10.000|56=CRYPTO_TRADER_1|10=151|8=FIX.4.4|9=69|35=0|34=170|49=FIX_GWY_1|52=20250822-13:13:40.000|56=CRYPTO_TRADER_1|10=146|8=FIX.4.4|9=69|35=0|34=171|49=FIX_GWY_1|52=20250822-13:14:10.000|56=CRYPTO_TRADER_1|10=145|8=FIX.4.4|9=69|35=0|34=172|49=FIX_GWY_1|52=20250822-13:14:40.000|56=CRYPTO_TRADER_1|10=149|8=FIX.4.4|9=69|35=0|34=173|49=FIX_GWY_1|52=20250822-13:15:10.000|56=CRYPTO_TRADER_1|10=148|8=FIX.4.4|9=69|35=0|34=174|49=FIX_GWY_1|52=20250822-13:15:40.000|56=CRYPTO_TRADER_1|10=152|8=FIX.4.4|9=69|35=0|34=175|49=FIX_GWY_1|52=20250822-13:16:10.000|56=CRYPTO_TRADER_1|10=151|8=FIX.4.4|9=69|35=0|34=176|49=FIX_GWY_1|52=20250822-13:16:40.000|56=CRYPTO_TRADER_1|10=155|8=FIX.4.4|9=69|35=0|34=177|49=FIX_GWY_1|52=20250822-13:17:10.000|56=CRYPTO_TRADER_1|10=154|8=FIX.4.4|9=69|35=0|34=178|49=FIX_GWY_1|52=20250822-13:17:40.000|56=CRYPTO_TRADER_1|10=158|8=FIX.4.4|9=69|35=0|34=179|49=FIX_GWY_1|52=20250822-13:18:10.000|56=CRYPTO_TRADER_1|10=157|8=FIX.4.4|9=69|35=0|34=180|49=FIX_GWY_1|52=20250822-13:18:40.000|56=CRYPTO_TRADER_1|10=152|8=FIX.4.4|9=69|35=0|34=181|49=FIX_GWY_1|52=20250822-13:19:10.000|56=CRYPTO_TRADER_1|10=151|8=FIX.4.4|9=69|35=0|34=182|49=FIX_GWY_1|52=20250822-13:19:40.000|56=CRYPTO_TRADER_1|10=155|8=FIX.4.4|9=69|35=0|34=183|49=FIX_GWY_1|52=20250822-13:20:10.000|56=CRYPTO_TRADER_1|10=145|8=FIX.4.4|9=69|35=0|34=184|49=FIX_GWY_1|52=20250822-13:20:40.000|56=CRYPTO_TRADER_1|10=149|8=FIX.4.4|9=69|35=0|34=185|49=FIX_GWY_1|52=20250822-13:21:10.000|56=CRYPTO_TRADER_1|10=148|8=FIX.4.4|9=69|35=0|34=186|49=FIX_GWY_1|52=20250822-13:21:40.000|56=CRYPTO_TRADER_1|10=152|8=FIX.4.4|9=69|35=0|34=187|49=FIX_GWY_1|52=20250822-13:22:10.000|56=CRYPTO_TRADER_1|10=151|8=FIX.4.4|9=69|35=0|34=188|49=FIX_GWY_1|52=20250822-13:22:40.000|56=CRYPTO_TRADER_1|10=155|8=FIX.4.4|9=69|35=0|34=189|49=FIX_GWY_1|52=20250822-13:23:10.000|56=CRYPTO_TRADER_1|10=154|8=FIX.4.4|9=69|35=0|34=190|49=FIX_GWY_1|52=20250822-13:23:40.000|56=CRYPTO_TRADER_1|10=149|8=FIX.4.4|9=69|35=0|34=191|49=FIX_GWY_1|52=20250822-13:24:10.000|56=CRYPTO_TRADER_1|10=148|8=FIX.4.4|9=69|35=0|34=192|49=FIX_GWY_1|52=20250822-13:24:40.000|56=CRYPTO_TRADER_1|10=152|8=FIX.4.4|9=69|35=0|34=193|49=FIX_GWY_1|52=20250822-13:25:10.000|56=CRYPTO_TRADER_1|10=151|8=FIX.4.4|9=69|35=0|34=194|49=FIX_GWY_1|52=20250822-13:25:40.000|56=CRYPTO_TRADER_1|10=155|8=FIX.4.4|9=69|35=0|34=195|49=FIX_GWY_1|52=20250822-13:26:10.000|56=CRYPTO_TRADER_1|10=154|8=FIX.4.4|9=69|35=0|34=196|49=FIX_GWY_1|52=20250822-13:26:40.000|56=CRYPTO_TRADER_1|10=158|8=FIX.4.4|9=69|35=0|34=197|49=FIX_GWY_1|52=20250822-13:27:10.000|56=CRYPTO_TRADER_1|10=157|8=FIX.4.4|9=69|35=0|34=198|49=FIX_GWY_1|52=20250822-13:27:40.000|56=CRYPTO_TRADER_1|10=161|8=FIX.4.4|9=69|35=0|34=199|49=FIX_GWY_1|52=20250822-13:28:10.000|56=CRYPTO_TRADER_1|10=160|8=FIX.4.4|9=69|35=0|34=200|49=FIX_GWY_1|52=20250822-13:28:40.000|56=CRYPTO_TRADER_1|10=146|8=FIX.4.4|9=69|35=0|34=201|49=FIX_GWY_1|52=20250822-13:29:10.000|56=CRYPTO_TRADER_1|10=145|8=FIX.4.4|9=69|35=0|34=202|49=FIX_GWY_1|52=20250822-13:29:40.000|56=CRYPTO_TRADER_1|10=149|8=FIX.4.4|9=69|35=0|34=203|49=FIX_GWY_1|52=20250822-13:30:10.000|56=CRYPTO_TRADER_1|10=139|8=FIX.4.4|9=69|35=0|34=204|49=FIX_GWY_1|52=20250822-13:30:40.000|56=CRYPTO_TRADER_1|10=143|8=FIX.4.4|9=69|35=0|34=205|49=FIX_GWY_1|52=20250822-13:31:10.000|56=CRYPTO_TRADER_1|10=142|8=FIX.4.4|9=69|35=0|34=206|49=FIX_GWY_1|52=20250822-13:31:40.000|56=CRYPTO_TRADER_1|10=146|