8=FIX.4.4|9=85|35=A|34=1|49=FIX_GWY_1|52=20250822-10:48:28.000|56=CRYPTO_TRADER_1|98=0|108=30|141=Y|10=139|8=FIX.4.4|9=1525|35=y|34=2|49=FIX_GWY_1|52=20250822-10:48:29.000|56=CRYPTO_TRADER_1|146=28|55=ADA-USD|207=OTHER_COIN_MARKET|58={"type":"Crypto"}|55=AVX-AUD|207=OTHER_COIN_MARKET|58={"type":"Crypto"}|55=BCH-CNY|207=OTHER_COIN_MARKET|58={"type":"Crypto"}|55=BTC-AUD|207=BTC_MARKET|58={"type":"Crypto"}|55=BTC-CAD|207=BTC_MARKET|58={"type":"Crypto"}|55=BTC-CNY|207=BTC_MARKET|58={"type":"Crypto"}|55=BTC-EUR|207=BTC_MARKET|58={"type":"Crypto"}|55=BTC-GBP|207=BTC_MARKET|58={"type":"Crypto"}|55=BTC-JPY|207=BTC_MARKET|58={"type":"Crypto"}|55=BTC-USD|207=BTC_MARKET|58={"type":"Crypto"}|55=DAI-USD|207=OTHER_COIN_MARKET|58={"type":"Crypto"}|55=DOT-GBP|207=OTHER_COIN_MARKET|58={"type":"Crypto"}|55=ETH-AUD|207=ETH_MARKET|58={"type":"Crypto"}|55=ETH-CAD|207=ETH_MARKET|58={"type":"Crypto"}|55=ETH-CNY|207=ETH_MARKET|58={"type":"Crypto"}|55=ETH-EUR|207=ETH_MARKET|58={"type":"Crypto"}|55=ETH-GBP|207=ETH_MARKET|58={"type":"Crypto"}|55=ETH-JPY|207=ETH_MARKET|58={"type":"Crypto"}|55=ETH-USD|207=ETH_MARKET|58={"type":"Crypto"}|55=LTC-JPY|207=OTHER_COIN_MARKET|58={"type":"Crypto"}|55=LUN-CAD|207=OTHER_COIN_MARKET|58={"type":"Crypto"}|55=MTC-CAD|207=OTHER_COIN_MARKET|58={"type":"Crypto"}|55=SOL-EUR|207=OTHER_COIN_MARKET|58={"type":"Crypto"}|55=UNI-JPY|207=OTHER_COIN_MARKET|58={"type":"Crypto"}|55=XLM-CNY|207=OTHER_COIN_MARKET|58={"type":"Crypto"}|55=XLM-EUR|207=OTHER_COIN_MARKET|58={"type":"Crypto"}|55=XMR-AUD|207=OTHER_COIN_MARKET|58={"type":"Crypto"}|55=XRP-GBP|207=OTHER_COIN_MARKET|58={"type":"Crypto"}|320=SecurityListRequest1|322=1|560=0|10=040|8=FIX.4.4|9=126|35=W|34=3|49=FIX_GWY_1|52=20250822-10:48:29.000|56=CRYPTO_TRADER_1|55=ADA-USD|207=OTHER_COIN_MARKET|268=1|269=4|270=101|271=0|10=168|8=FIX.4.4|9=126|35=W|34=4|49=FIX_GWY_1|52=20250822-10:48:29.000|56=CRYPTO_TRADER_1|55=AVX-AUD|207=OTHER_COIN_MARKET|268=1|269=4|270=401|271=0|10=195|8=FIX.4.4|9=126|35=W|34=5|49=FIX_GWY_1|52=20250822-10:48:29.000|56=CRYPTO_TRADER_1|55=BCH-CNY|207=OTHER_COIN_MARKET|268=1|269=4|270=401|271=0|10=178|8=FIX.4.4|9=121|35=W|34=6|49=FIX_GWY_1|52=20250822-10:48:29.000|56=CRYPTO_TRADER_1|55=BTC-AUD|207=BTC_MARKET|268=1|269=4|270=40100|271=0|10=217|8=FIX.4.4|9=121|35=W|34=7|49=FIX_GWY_1|52=20250822-10:48:29.000|56=CRYPTO_TRADER_1|55=BTC-CAD|207=BTC_MARKET|268=1|269=4|270=40100|271=0|10=200|8=FIX.4.4|9=366|35=W|34=8|49=FIX_GWY_1|52=20250822-10:48:29.000|56=CRYPTO_TRADER_1|55=BTC-CNY|207=BTC_MARKET|268=14|269=0|270=0|271=0|269=0|270=0|271=0|269=0|270=0|271=0|269=0|270=0|271=0|269=0|270=0|271=0|269=1|270=0|271=0|269=1|270=0|271=0|269=1|270=0|271=0|269=1|270=0|271=0|269=1|270=0|271=0|269=2|270=40200|271=0|269=B|270=0|271=100|269=4|270=40100|271=0|269=8|270=40100|271=0|10=189|8=FIX.4.4|9=121|35=W|34=9|49=FIX_GWY_1|52=20250822-10:48:29.000|56=CRYPTO_TRADER_1|55=BTC-EUR|207=BTC_MARKET|268=1|269=4|270=20100|271=0|10=236|8=FIX.4.4|9=122|35=W|34=10|49=FIX_GWY_1|52=20250822-10:48:29.000|56=CRYPTO_TRADER_1|55=BTC-GBP|207=BTC_MARKET|268=1|269=4|270=30100|271=0|10=003|8=FIX.4.4|9=122|35=W|34=11|49=FIX_GWY_1|52=20250822-10:48:29.000|56=CRYPTO_TRADER_1|55=BTC-JPY|207=BTC_MARKET|268=1|269=4|270=40100|271=0|10=031|8=FIX.4.4|9=122|35=W|34=12|49=FIX_GWY_1|52=20250822-10:48:29.000|56=CRYPTO_TRADER_1|55=BTC-USD|207=BTC_MARKET|268=1|269=4|270=10100|271=0|10=022|8=FIX.4.4|9=127|35=W|34=13|49=FIX_GWY_1|52=20250822-10:48:29.000|56=CRYPTO_TRADER_1|55=DAI-USD|207=OTHER_COIN_MARKET|268=1|269=4|270=101|271=0|10=226|8=FIX.4.4|9=127|35=W|34=14|49=FIX_GWY_1|52=20250822-10:48:29.000|56=CRYPTO_TRADER_1|55=DOT-GBP|207=OTHER_COIN_MARKET|268=1|269=4|270=301|271=0|10=235|8=FIX.4.4|9=121|35=W|34=15|49=FIX_GWY_1|52=20250822-10:48:29.000|56=CRYPTO_TRADER_1|55=ETH-AUD|207=ETH_MARKET|268=1|269=4|270=4010|271=0|10=233|8=FIX.4.4|9=121|35=W|34=16|49=FIX_GWY_1|52=20250822-10:48:29.000|56=CRYPTO_TRADER_1|55=ETH-CAD|207=ETH_MARKET|268=1|269=4|270=4010|271=0|10=216|8=FIX.4.4|9=121|35=W|34=17|49=FIX_GWY_1|52=20250822-10:48:29.000|56=CRYPTO_TRADER_1|55=ETH-CNY|207=ETH_MARKET|268=1|269=4|270=4010|271=0|10=251|8=FIX.4.4|9=121|35=W|34=18|49=FIX_GWY_1|52=20250822-10:48:29.000|56=CRYPTO_TRADER_1|55=ETH-EUR|207=ETH_MARKET|268=1|269=4|270=2010|271=0|10=252|8=FIX.4.4|9=121|35=W|34=19|49=FIX_GWY_1|52=20250822-10:48:29.000|56=CRYPTO_TRADER_1|55=ETH-GBP|207=ETH_MARKET|268=1|269=4|270=3010|271=0|10=235|8=FIX.4.4|9=121|35=W|34=20|49=FIX_GWY_1|52=20250822-10:48:29.000|56=CRYPTO_TRADER_1|55=ETH-JPY|207=ETH_MARKET|268=1|269=4|270=4010|271=0|10=254|8=FIX.4.4|9=121|35=W|34=21|49=FIX_GWY_1|52=20250822-10:48:29.000|56=CRYPTO_TRADER_1|55=ETH-USD|207=ETH_MARKET|268=1|269=4|270=1010|271=0|10=245|8=FIX.4.4|9=127|35=W|34=22|49=FIX_GWY_1|52=20250822-10:48:29.000|56=CRYPTO_TRADER_1|55=LTC-JPY|207=OTHER_COIN_MARKET|268=1|269=4|270=401|271=0|10=001|8=FIX.4.4|9=127|35=W|34=23|49=FIX_GWY_1|52=20250822-10:48:29.000|56=CRYPTO_TRADER_1|55=LUN-CAD|207=OTHER_COIN_MARKET|268=1|269=4|270=401|271=0|10=227|8=FIX.4.4|9=127|35=W|34=24|49=FIX_GWY_1|52=20250822-10:48:29.000|56=CRYPTO_TRADER_1|55=MTC-CAD|207=OTHER_COIN_MARKET|268=1|269=4|270=401|271=0|10=217|8=FIX.4.4|9=127|35=W|34=25|49=FIX_GWY_1|52=20250822-10:48:29.000|56=CRYPTO_TRADER_1|55=SOL-EUR|207=OTHER_COIN_MARKET|268=1|269=4|270=201|271=0|10=006|8=FIX.4.4|9=127|35=W|34=26|49=FIX_GWY_1|52=20250822-10:48:29.000|56=CRYPTO_TRADER_1|55=UNI-JPY|207=OTHER_COIN_MARKET|268=1|269=4|270=401|271=0|10=014|8=FIX.4.4|9=127|35=W|34=27|49=FIX_GWY_1|52=20250822-10:48:29.000|56=CRYPTO_TRADER_1|55=XLM-CNY|207=OTHER_COIN_MARKET|268=1|269=4|270=401|271=0|10=011|8=FIX.4.4|9=127|35=W|34=28|49=FIX_GWY_1|52=20250822-10:48:29.000|56=CRYPTO_TRADER_1|55=XLM-EUR|207=OTHER_COIN_MARKET|268=1|269=4|270=201|271=0|10=012|8=FIX.4.4|9=127|35=W|34=29|49=FIX_GWY_1|52=20250822-10:48:29.000|56=CRYPTO_TRADER_1|55=XMR-AUD|207=OTHER_COIN_MARKET|268=1|269=4|270=401|271=0|10=003|8=FIX.4.4|9=127|35=W|34=30|49=FIX_GWY_1|52=20250822-10:48:29.000|56=CRYPTO_TRADER_1|55=XRP-GBP|207=OTHER_COIN_MARKET|268=1|269=4|270=301|271=0|10=252|8=FIX.4.4|9=68|35=0|34=31|49=FIX_GWY_1|52=20250822-10:48:59.000|56=CRYPTO_TRADER_1|10=108|8=FIX.4.4|9=68|35=0|34=32|49=FIX_GWY_1|52=20250822-10:49:29.000|56=CRYPTO_TRADER_1|10=107|8=FIX.4.4|9=68|35=0|34=33|49=FIX_GWY_1|52=20250822-10:49:59.000|56=CRYPTO_TRADER_1|10=111|8=FIX.4.4|9=68|35=0|34=34|49=FIX_GWY_1|52=20250822-10:50:29.000|56=CRYPTO_TRADER_1|10=101|8=FIX.4.4|9=68|35=0|34=35|49=FIX_GWY_1|52=20250822-10:50:59.000|56=CRYPTO_TRADER_1|10=105|8=FIX.4.4|9=68|35=0|34=36|49=FIX_GWY_1|52=20250822-10:51:29.000|56=CRYPTO_TRADER_1|10=104|8=FIX.4.4|9=68|35=0|34=37|49=FIX_GWY_1|52=20250822-10:51:59.000|56=CRYPTO_TRADER_1|10=108|8=FIX.4.4|9=68|35=0|34=38|49=FIX_GWY_1|52=20250822-10:52:29.000|56=CRYPTO_TRADER_1|10=107|8=FIX.4.4|9=68|35=0|34=39|49=FIX_GWY_1|52=20250822-10:52:59.000|56=CRYPTO_TRADER_1|10=111|8=FIX.4.4|9=68|35=0|34=40|49=FIX_GWY_1|52=20250822-10:53:29.000|56=CRYPTO_TRADER_1|10=101|8=FIX.4.4|9=68|35=0|34=41|49=FIX_GWY_1|52=20250822-10:53:59.000|56=CRYPTO_TRADER_1|10=105|8=FIX.4.4|9=68|35=0|34=42|49=FIX_GWY_1|52=20250822-10:54:29.000|56=CRYPTO_TRADER_1|10=104|8=FIX.4.4|9=68|35=0|34=43|49=FIX_GWY_1|52=20250822-10:54:59.000|56=CRYPTO_TRADER_1|10=108|8=FIX.4.4|9=68|35=0|34=44|49=FIX_GWY_1|52=20250822-10:55:29.000|56=CRYPTO_TRADER_1|10=107|8=FIX.4.4|9=68|35=0|34=45|49=FIX_GWY_1|52=20250822-10:55:59.000|56=CRYPTO_TRADER_1|10=111|8=FIX.4.4|9=68|35=0|34=46|49=FIX_GWY_1|52=20250822-10:56:29.000|56=CRYPTO_TRADER_1|10=110|8=FIX.4.4|9=68|35=0|34=47|49=FIX_GWY_1|52=20250822-10:56:59.000|56=CRYPTO_TRADER_1|10=114|8=FIX.4.4|9=68|35=0|34=48|49=FIX_GWY_1|52=20250822-10:57:29.000|56=CRYPTO_TRADER_1|10=113|8=FIX.4.4|9=68|35=0|34=49|49=FIX_GWY_1|52=20250822-10:57:59.000|56=CRYPTO_TRADER_1|10=117|8=FIX.4.4|9=68|35=0|34=50|49=FIX_GWY_1|52=20250822-10:58:29.000|56=CRYPTO_TRADER_1|10=107|8=FIX.4.4|9=68|35=0|34=51|49=FIX_GWY_1|52=20250822-10:58:59.000|56=CRYPTO_TRADER_1|10=111|