8=FIX.4.4|9=85|35=A|34=1|49=FIX_GWY_1|52=20250822-10:38:59.000|56=CRYPTO_TRADER_1|98=0|108=30|141=Y|10=142|8=FIX.4.4|9=1525|35=y|34=2|49=FIX_GWY_1|52=20250822-10:38:59.000|56=CRYPTO_TRADER_1|146=28|55=ADA-USD|207=OTHER_COIN_MARKET|58={"type":"Crypto"}|55=AVX-AUD|207=OTHER_COIN_MARKET|58={"type":"Crypto"}|55=BCH-CNY|207=OTHER_COIN_MARKET|58={"type":"Crypto"}|55=BTC-AUD|207=BTC_MARKET|58={"type":"Crypto"}|55=BTC-CAD|207=BTC_MARKET|58={"type":"Crypto"}|55=BTC-CNY|207=BTC_MARKET|58={"type":"Crypto"}|55=BTC-EUR|207=BTC_MARKET|58={"type":"Crypto"}|55=BTC-GBP|207=BTC_MARKET|58={"type":"Crypto"}|55=BTC-JPY|207=BTC_MARKET|58={"type":"Crypto"}|55=BTC-USD|207=BTC_MARKET|58={"type":"Crypto"}|55=DAI-USD|207=OTHER_COIN_MARKET|58={"type":"Crypto"}|55=DOT-GBP|207=OTHER_COIN_MARKET|58={"type":"Crypto"}|55=ETH-AUD|207=ETH_MARKET|58={"type":"Crypto"}|55=ETH-CAD|207=ETH_MARKET|58={"type":"Crypto"}|55=ETH-CNY|207=ETH_MARKET|58={"type":"Crypto"}|55=ETH-EUR|207=ETH_MARKET|58={"type":"Crypto"}|55=ETH-GBP|207=ETH_MARKET|58={"type":"Crypto"}|55=ETH-JPY|207=ETH_MARKET|58={"type":"Crypto"}|55=ETH-USD|207=ETH_MARKET|58={"type":"Crypto"}|55=LTC-JPY|207=OTHER_COIN_MARKET|58={"type":"Crypto"}|55=LUN-CAD|207=OTHER_COIN_MARKET|58={"type":"Crypto"}|55=MTC-CAD|207=OTHER_COIN_MARKET|58={"type":"Crypto"}|55=SOL-EUR|207=OTHER_COIN_MARKET|58={"type":"Crypto"}|55=UNI-JPY|207=OTHER_COIN_MARKET|58={"type":"Crypto"}|55=XLM-CNY|207=OTHER_COIN_MARKET|58={"type":"Crypto"}|55=XLM-EUR|207=OTHER_COIN_MARKET|58={"type":"Crypto"}|55=XMR-AUD|207=OTHER_COIN_MARKET|58={"type":"Crypto"}|55=XRP-GBP|207=OTHER_COIN_MARKET|58={"type":"Crypto"}|320=SecurityListRequest1|322=1|560=0|10=042|8=FIX.4.4|9=126|35=W|34=3|49=FIX_GWY_1|52=20250822-10:39:00.000|56=CRYPTO_TRADER_1|55=ADA-USD|207=OTHER_COIN_MARKET|268=1|269=4|270=101|271=0|10=157|8=FIX.4.4|9=126|35=W|34=4|49=FIX_GWY_1|52=20250822-10:39:00.000|56=CRYPTO_TRADER_1|55=AVX-AUD|207=OTHER_COIN_MARKET|268=1|269=4|270=401|271=0|10=184|8=FIX.4.4|9=126|35=W|34=5|49=FIX_GWY_1|52=20250822-10:39:00.000|56=CRYPTO_TRADER_1|55=BCH-CNY|207=OTHER_COIN_MARKET|268=1|269=4|270=401|271=0|10=167|8=FIX.4.4|9=121|35=W|34=6|49=FIX_GWY_1|52=20250822-10:39:00.000|56=CRYPTO_TRADER_1|55=BTC-AUD|207=BTC_MARKET|268=1|269=4|270=40100|271=0|10=206|8=FIX.4.4|9=121|35=W|34=7|49=FIX_GWY_1|52=20250822-10:39:00.000|56=CRYPTO_TRADER_1|55=BTC-CAD|207=BTC_MARKET|268=1|269=4|270=40100|271=0|10=189|8=FIX.4.4|9=366|35=W|34=8|49=FIX_GWY_1|52=20250822-10:39:00.000|56=CRYPTO_TRADER_1|55=BTC-CNY|207=BTC_MARKET|268=14|269=0|270=0|271=0|269=0|270=0|271=0|269=0|270=0|271=0|269=0|270=0|271=0|269=0|270=0|271=0|269=1|270=0|271=0|269=1|270=0|271=0|269=1|270=0|271=0|269=1|270=0|271=0|269=1|270=0|271=0|269=2|270=40200|271=0|269=B|270=0|271=100|269=4|270=40100|271=0|269=8|270=40100|271=0|10=178|8=FIX.4.4|9=121|35=W|34=9|49=FIX_GWY_1|52=20250822-10:39:00.000|56=CRYPTO_TRADER_1|55=BTC-EUR|207=BTC_MARKET|268=1|269=4|270=20100|271=0|10=225|8=FIX.4.4|9=122|35=W|34=10|49=FIX_GWY_1|52=20250822-10:39:00.000|56=CRYPTO_TRADER_1|55=BTC-GBP|207=BTC_MARKET|268=1|269=4|270=30100|271=0|10=248|8=FIX.4.4|9=122|35=W|34=11|49=FIX_GWY_1|52=20250822-10:39:00.000|56=CRYPTO_TRADER_1|55=BTC-JPY|207=BTC_MARKET|268=1|269=4|270=40100|271=0|10=020|8=FIX.4.4|9=122|35=W|34=12|49=FIX_GWY_1|52=20250822-10:39:00.000|56=CRYPTO_TRADER_1|55=BTC-USD|207=BTC_MARKET|268=1|269=4|270=10100|271=0|10=011|8=FIX.4.4|9=127|35=W|34=13|49=FIX_GWY_1|52=20250822-10:39:00.000|56=CRYPTO_TRADER_1|55=DAI-USD|207=OTHER_COIN_MARKET|268=1|269=4|270=101|271=0|10=215|8=FIX.4.4|9=127|35=W|34=14|49=FIX_GWY_1|52=20250822-10:39:00.000|56=CRYPTO_TRADER_1|55=DOT-GBP|207=OTHER_COIN_MARKET|268=1|269=4|270=301|271=0|10=224|8=FIX.4.4|9=121|35=W|34=15|49=FIX_GWY_1|52=20250822-10:39:00.000|56=CRYPTO_TRADER_1|55=ETH-AUD|207=ETH_MARKET|268=1|269=4|270=4010|271=0|10=222|8=FIX.4.4|9=121|35=W|34=16|49=FIX_GWY_1|52=20250822-10:39:00.000|56=CRYPTO_TRADER_1|55=ETH-CAD|207=ETH_MARKET|268=1|269=4|270=4010|271=0|10=205|8=FIX.4.4|9=121|35=W|34=17|49=FIX_GWY_1|52=20250822-10:39:00.000|56=CRYPTO_TRADER_1|55=ETH-CNY|207=ETH_MARKET|268=1|269=4|270=4010|271=0|10=240|8=FIX.4.4|9=121|35=W|34=18|49=FIX_GWY_1|52=20250822-10:39:00.000|56=CRYPTO_TRADER_1|55=ETH-EUR|207=ETH_MARKET|268=1|269=4|270=2010|271=0|10=241|8=FIX.4.4|9=121|35=W|34=19|49=FIX_GWY_1|52=20250822-10:39:00.000|56=CRYPTO_TRADER_1|55=ETH-GBP|207=ETH_MARKET|268=1|269=4|270=3010|271=0|10=224|8=FIX.4.4|9=121|35=W|34=20|49=FIX_GWY_1|52=20250822-10:39:00.000|56=CRYPTO_TRADER_1|55=ETH-JPY|207=ETH_MARKET|268=1|269=4|270=4010|271=0|10=243|8=FIX.4.4|9=121|35=W|34=21|49=FIX_GWY_1|52=20250822-10:39:00.000|56=CRYPTO_TRADER_1|55=ETH-USD|207=ETH_MARKET|268=1|269=4|270=1010|271=0|10=234|8=FIX.4.4|9=127|35=W|34=22|49=FIX_GWY_1|52=20250822-10:39:00.000|56=CRYPTO_TRADER_1|55=LTC-JPY|207=OTHER_COIN_MARKET|268=1|269=4|270=401|271=0|10=246|8=FIX.4.4|9=127|35=W|34=23|49=FIX_GWY_1|52=20250822-10:39:00.000|56=CRYPTO_TRADER_1|55=LUN-CAD|207=OTHER_COIN_MARKET|268=1|269=4|270=401|271=0|10=216|8=FIX.4.4|9=127|35=W|34=24|49=FIX_GWY_1|52=20250822-10:39:00.000|56=CRYPTO_TRADER_1|55=MTC-CAD|207=OTHER_COIN_MARKET|268=1|269=4|270=401|271=0|10=206|8=FIX.4.4|9=127|35=W|34=25|49=FIX_GWY_1|52=20250822-10:39:00.000|56=CRYPTO_TRADER_1|55=SOL-EUR|207=OTHER_COIN_MARKET|268=1|269=4|270=201|271=0|10=251|8=FIX.4.4|9=127|35=W|34=26|49=FIX_GWY_1|52=20250822-10:39:00.000|56=CRYPTO_TRADER_1|55=UNI-JPY|207=OTHER_COIN_MARKET|268=1|269=4|270=401|271=0|10=003|8=FIX.4.4|9=127|35=W|34=27|49=FIX_GWY_1|52=20250822-10:39:00.000|56=CRYPTO_TRADER_1|55=XLM-CNY|207=OTHER_COIN_MARKET|268=1|269=4|270=401|271=0|10=000|8=FIX.4.4|9=127|35=W|34=28|49=FIX_GWY_1|52=20250822-10:39:00.000|56=CRYPTO_TRADER_1|55=XLM-EUR|207=OTHER_COIN_MARKET|268=1|269=4|270=201|271=0|10=001|8=FIX.4.4|9=127|35=W|34=29|49=FIX_GWY_1|52=20250822-10:39:00.000|56=CRYPTO_TRADER_1|55=XMR-AUD|207=OTHER_COIN_MARKET|268=1|269=4|270=401|271=0|10=248|8=FIX.4.4|9=127|35=W|34=30|49=FIX_GWY_1|52=20250822-10:39:00.000|56=CRYPTO_TRADER_1|55=XRP-GBP|207=OTHER_COIN_MARKET|268=1|269=4|270=301|271=0|10=241|8=FIX.4.4|9=77|35=0|34=31|49=FIX_GWY_1|52=20250822-10:39:36.000|56=CRYPTO_TRADER_1|112=TEST|10=121|8=FIX.4.4|9=68|35=0|34=32|49=FIX_GWY_1|52=20250822-10:40:06.000|56=CRYPTO_TRADER_1|10=093|8=FIX.4.4|9=68|35=0|34=33|49=FIX_GWY_1|52=20250822-10:40:36.000|56=CRYPTO_TRADER_1|10=097|8=FIX.4.4|9=68|35=0|34=34|49=FIX_GWY_1|52=20250822-10:41:06.000|56=CRYPTO_TRADER_1|10=096|8=FIX.4.4|9=68|35=0|34=35|49=FIX_GWY_1|52=20250822-10:41:36.000|56=CRYPTO_TRADER_1|10=100|8=FIX.4.4|9=68|35=0|34=36|49=FIX_GWY_1|52=20250822-10:42:06.000|56=CRYPTO_TRADER_1|10=099|8=FIX.4.4|9=68|35=0|34=37|49=FIX_GWY_1|52=20250822-10:42:36.000|56=CRYPTO_TRADER_1|10=103|8=FIX.4.4|9=68|35=0|34=38|49=FIX_GWY_1|52=20250822-10:43:06.000|56=CRYPTO_TRADER_1|10=102|8=FIX.4.4|9=68|35=0|34=39|49=FIX_GWY_1|52=20250822-10:43:36.000|56=CRYPTO_TRADER_1|10=106|