8=FIX.4.4|9=85|35=A|34=1|49=FIX_GWY_1|52=20250822-11:43:41.000|56=CRYPTO_TRADER_1|98=0|108=30|141=Y|10=130|8=FIX.4.4|9=1525|35=y|34=2|49=FIX_GWY_1|52=20250822-11:43:41.000|56=CRYPTO_TRADER_1|146=28|55=ADA-USD|207=OTHER_COIN_MARKET|58={"type":"Crypto"}|55=AVX-AUD|207=OTHER_COIN_MARKET|58={"type":"Crypto"}|55=BCH-CNY|207=OTHER_COIN_MARKET|58={"type":"Crypto"}|55=BTC-AUD|207=BTC_MARKET|58={"type":"Crypto"}|55=BTC-CAD|207=BTC_MARKET|58={"type":"Crypto"}|55=BTC-CNY|207=BTC_MARKET|58={"type":"Crypto"}|55=BTC-EUR|207=BTC_MARKET|58={"type":"Crypto"}|55=BTC-GBP|207=BTC_MARKET|58={"type":"Crypto"}|55=BTC-JPY|207=BTC_MARKET|58={"type":"Crypto"}|55=BTC-USD|207=BTC_MARKET|58={"type":"Crypto"}|55=DAI-USD|207=OTHER_COIN_MARKET|58={"type":"Crypto"}|55=DOT-GBP|207=OTHER_COIN_MARKET|58={"type":"Crypto"}|55=ETH-AUD|207=ETH_MARKET|58={"type":"Crypto"}|55=ETH-CAD|207=ETH_MARKET|58={"type":"Crypto"}|55=ETH-CNY|207=ETH_MARKET|58={"type":"Crypto"}|55=ETH-EUR|207=ETH_MARKET|58={"type":"Crypto"}|55=ETH-GBP|207=ETH_MARKET|58={"type":"Crypto"}|55=ETH-JPY|207=ETH_MARKET|58={"type":"Crypto"}|55=ETH-USD|207=ETH_MARKET|58={"type":"Crypto"}|55=LTC-JPY|207=OTHER_COIN_MARKET|58={"type":"Crypto"}|55=LUN-CAD|207=OTHER_COIN_MARKET|58={"type":"Crypto"}|55=MTC-CAD|207=OTHER_COIN_MARKET|58={"type":"Crypto"}|55=SOL-EUR|207=OTHER_COIN_MARKET|58={"type":"Crypto"}|55=UNI-JPY|207=OTHER_COIN_MARKET|58={"type":"Crypto"}|55=XLM-CNY|207=OTHER_COIN_MARKET|58={"type":"Crypto"}|55=XLM-EUR|207=OTHER_COIN_MARKET|58={"type":"Crypto"}|55=XMR-AUD|207=OTHER_COIN_MARKET|58={"type":"Crypto"}|55=XRP-GBP|207=OTHER_COIN_MARKET|58={"type":"Crypto"}|320=SecurityListRequest1|322=1|560=0|10=030|8=FIX.4.4|9=126|35=W|34=3|49=FIX_GWY_1|52=20250822-11:43:42.000|56=CRYPTO_TRADER_1|55=ADA-USD|207=OTHER_COIN_MARKET|268=1|269=4|270=101|271=0|10=159|8=FIX.4.4|9=126|35=W|34=4|49=FIX_GWY_1|52=20250822-11:43:42.000|56=CRYPTO_TRADER_1|55=AVX-AUD|207=OTHER_COIN_MARKET|268=1|269=4|270=401|271=0|10=186|8=FIX.4.4|9=126|35=W|34=5|49=FIX_GWY_1|52=20250822-11:43:42.000|56=CRYPTO_TRADER_1|55=BCH-CNY|207=OTHER_COIN_MARKET|268=1|269=4|270=401|271=0|10=169|8=FIX.4.4|9=121|35=W|34=6|49=FIX_GWY_1|52=20250822-11:43:42.000|56=CRYPTO_TRADER_1|55=BTC-AUD|207=BTC_MARKET|268=1|269=4|270=40100|271=0|10=208|8=FIX.4.4|9=121|35=W|34=7|49=FIX_GWY_1|52=20250822-11:43:42.000|56=CRYPTO_TRADER_1|55=BTC-CAD|207=BTC_MARKET|268=1|269=4|270=40100|271=0|10=191|8=FIX.4.4|9=366|35=W|34=8|49=FIX_GWY_1|52=20250822-11:43:42.000|56=CRYPTO_TRADER_1|55=BTC-CNY|207=BTC_MARKET|268=14|269=0|270=0|271=0|269=0|270=0|271=0|269=0|270=0|271=0|269=0|270=0|271=0|269=0|270=0|271=0|269=1|270=0|271=0|269=1|270=0|271=0|269=1|270=0|271=0|269=1|270=0|271=0|269=1|270=0|271=0|269=2|270=40200|271=0|269=B|270=0|271=100|269=4|270=40100|271=0|269=8|270=40100|271=0|10=180|8=FIX.4.4|9=121|35=W|34=9|49=FIX_GWY_1|52=20250822-11:43:42.000|56=CRYPTO_TRADER_1|55=BTC-EUR|207=BTC_MARKET|268=1|269=4|270=20100|271=0|10=227|8=FIX.4.4|9=122|35=W|34=10|49=FIX_GWY_1|52=20250822-11:43:42.000|56=CRYPTO_TRADER_1|55=BTC-GBP|207=BTC_MARKET|268=1|269=4|270=30100|271=0|10=250|8=FIX.4.4|9=122|35=W|34=11|49=FIX_GWY_1|52=20250822-11:43:42.000|56=CRYPTO_TRADER_1|55=BTC-JPY|207=BTC_MARKET|268=1|269=4|270=40100|271=0|10=022|8=FIX.4.4|9=122|35=W|34=12|49=FIX_GWY_1|52=20250822-11:43:42.000|56=CRYPTO_TRADER_1|55=BTC-USD|207=BTC_MARKET|268=1|269=4|270=10100|271=0|10=013|8=FIX.4.4|9=127|35=W|34=13|49=FIX_GWY_1|52=20250822-11:43:42.000|56=CRYPTO_TRADER_1|55=DAI-USD|207=OTHER_COIN_MARKET|268=1|269=4|270=101|271=0|10=217|8=FIX.4.4|9=127|35=W|34=14|49=FIX_GWY_1|52=20250822-11:43:42.000|56=CRYPTO_TRADER_1|55=DOT-GBP|207=OTHER_COIN_MARKET|268=1|269=4|270=301|271=0|10=226|8=FIX.4.4|9=121|35=W|34=15|49=FIX_GWY_1|52=20250822-11:43:42.000|56=CRYPTO_TRADER_1|55=ETH-AUD|207=ETH_MARKET|268=1|269=4|270=4010|271=0|10=224|8=FIX.4.4|9=121|35=W|34=16|49=FIX_GWY_1|52=20250822-11:43:42.000|56=CRYPTO_TRADER_1|55=ETH-CAD|207=ETH_MARKET|268=1|269=4|270=4010|271=0|10=207|8=FIX.4.4|9=121|35=W|34=17|49=FIX_GWY_1|52=20250822-11:43:42.000|56=CRYPTO_TRADER_1|55=ETH-CNY|207=ETH_MARKET|268=1|269=4|270=4010|271=0|10=242|8=FIX.4.4|9=121|35=W|34=18|49=FIX_GWY_1|52=20250822-11:43:42.000|56=CRYPTO_TRADER_1|55=ETH-EUR|207=ETH_MARKET|268=1|269=4|270=2010|271=0|10=243|8=FIX.4.4|9=121|35=W|34=19|49=FIX_GWY_1|52=20250822-11:43:42.000|56=CRYPTO_TRADER_1|55=ETH-GBP|207=ETH_MARKET|268=1|269=4|270=3010|271=0|10=226|8=FIX.4.4|9=121|35=W|34=20|49=FIX_GWY_1|52=20250822-11:43:42.000|56=CRYPTO_TRADER_1|55=ETH-JPY|207=ETH_MARKET|268=1|269=4|270=4010|271=0|10=245|8=FIX.4.4|9=121|35=W|34=21|49=FIX_GWY_1|52=20250822-11:43:42.000|56=CRYPTO_TRADER_1|55=ETH-USD|207=ETH_MARKET|268=1|269=4|270=1010|271=0|10=236|8=FIX.4.4|9=127|35=W|34=22|49=FIX_GWY_1|52=20250822-11:43:42.000|56=CRYPTO_TRADER_1|55=LTC-JPY|207=OTHER_COIN_MARKET|268=1|269=4|270=401|271=0|10=248|8=FIX.4.4|9=127|35=W|34=23|49=FIX_GWY_1|52=20250822-11:43:42.000|56=CRYPTO_TRADER_1|55=LUN-CAD|207=OTHER_COIN_MARKET|268=1|269=4|270=401|271=0|10=218|8=FIX.4.4|9=127|35=W|34=24|49=FIX_GWY_1|52=20250822-11:43:42.000|56=CRYPTO_TRADER_1|55=MTC-CAD|207=OTHER_COIN_MARKET|268=1|269=4|270=401|271=0|10=208|8=FIX.4.4|9=127|35=W|34=25|49=FIX_GWY_1|52=20250822-11:43:42.000|56=CRYPTO_TRADER_1|55=SOL-EUR|207=OTHER_COIN_MARKET|268=1|269=4|270=201|271=0|10=253|8=FIX.4.4|9=127|35=W|34=26|49=FIX_GWY_1|52=20250822-11:43:42.000|56=CRYPTO_TRADER_1|55=UNI-JPY|207=OTHER_COIN_MARKET|268=1|269=4|270=401|271=0|10=005|8=FIX.4.4|9=127|35=W|34=27|49=FIX_GWY_1|52=20250822-11:43:42.000|56=CRYPTO_TRADER_1|55=XLM-CNY|207=OTHER_COIN_MARKET|268=1|269=4|270=401|271=0|10=002|8=FIX.4.4|9=127|35=W|34=28|49=FIX_GWY_1|52=20250822-11:43:42.000|56=CRYPTO_TRADER_1|55=XLM-EUR|207=OTHER_COIN_MARKET|268=1|269=4|270=201|271=0|10=003|8=FIX.4.4|9=127|35=W|34=29|49=FIX_GWY_1|52=20250822-11:43:42.000|56=CRYPTO_TRADER_1|55=XMR-AUD|207=OTHER_COIN_MARKET|268=1|269=4|270=401|271=0|10=250|8=FIX.4.4|9=127|35=W|34=30|49=FIX_GWY_1|52=20250822-11:43:42.000|56=CRYPTO_TRADER_1|55=XRP-GBP|207=OTHER_COIN_MARKET|268=1|269=4|270=301|271=0|10=243|8=FIX.4.4|9=253|35=8|34=31|49=FIX_GWY_1|52=20250822-11:43:45.000|56=CRYPTO_TRADER_1|6=0|14=0|17=1000021|31=0|32=0|37=investor_2:1755863025965376000|38=100|39=0|40=2|44=40100|54=1|55=BTC-CNY|58=OK|59=0|60=20250822-11:43:45.968565|99=0|103=0|150=0|151=100|207=BTC_MARKET|10=044|8=FIX.4.4|9=253|35=8|34=32|49=FIX_GWY_1|52=20250822-11:43:45.000|56=CRYPTO_TRADER_1|6=0|14=0|17=1000022|31=0|32=0|37=investor_2:1755863025965452000|38=100|39=0|40=2|44=40100|54=1|55=BTC-CNY|58=OK|59=0|60=20250822-11:43:45.971322|99=0|103=0|150=0|151=100|207=BTC_MARKET|10=026|8=FIX.4.4|9=253|35=8|34=33|49=FIX_GWY_1|52=20250822-11:43:45.000|56=CRYPTO_TRADER_1|6=0|14=0|17=1000023|31=0|32=0|37=investor_2:1755863025965507000|38=100|39=0|40=2|44=40100|54=1|55=BTC-CNY|58=OK|59=0|60=20250822-11:43:45.972201|99=0|103=0|150=0|151=100|207=BTC_MARKET|10=026|8=FIX.4.4|9=253|35=8|34=34|49=FIX_GWY_1|52=20250822-11:43:45.000|56=CRYPTO_TRADER_1|6=0|14=0|17=1000024|31=0|32=0|37=investor_2:1755863025965595000|38=100|39=0|40=2|44=40100|54=1|55=BTC-CNY|58=OK|59=0|60=20250822-11:43:45.973034|99=0|103=0|150=0|151=100|207=BTC_MARKET|10=040|8=FIX.4.4|9=795|35=X|34=35|49=FIX_GWY_1|52=20250822-11:43:46.000|56=CRYPTO_TRADER_1|268=14|279=0|269=0|55=BTC-CNY|207=BTC_MARKET|270=40100|271=400|279=0|269=0|55=BTC-CNY|207=BTC_MARKET|270=0|271=0|279=0|269=0|55=BTC-CNY|207=BTC_MARKET|270=0|271=0|279=0|269=0|55=BTC-CNY|207=BTC_MARKET|270=0|271=0|279=0|269=0|55=BTC-CNY|207=BTC_MARKET|270=0|271=0|279=0|269=1|55=BTC-CNY|207=BTC_MARKET|270=0|271=0|279=0|269=1|55=BTC-CNY|207=BTC_MARKET|270=0|271=0|279=0|269=1|55=BTC-CNY|207=BTC_MARKET|270=0|271=0|279=0|269=1|55=BTC-CNY|207=BTC_MARKET|270=0|271=0|279=0|269=1|55=BTC-CNY|207=BTC_MARKET|270=0|271=0|279=0|269=2|55=BTC-CNY|207=BTC_MARKET|270=40200|271=0|279=0|269=B|55=BTC-CNY|207=BTC_MARKET|270=0|271=100|279=0|269=4|55=BTC-CNY|207=BTC_MARKET|270=40100|271=0|279=0|269=8|55=BTC-CNY|207=BTC_MARKET|270=40100|271=0|10=103|