8=FIX.4.4|9=85|35=A|34=1|49=FIX_GWY_1|52=20250822-11:34:51.000|56=CRYPTO_TRADER_1|98=0|108=30|141=Y|10=131|8=FIX.4.4|9=1525|35=y|34=2|49=FIX_GWY_1|52=20250822-11:34:52.000|56=CRYPTO_TRADER_1|146=28|55=ADA-USD|207=OTHER_COIN_MARKET|58={"type":"Crypto"}|55=AVX-AUD|207=OTHER_COIN_MARKET|58={"type":"Crypto"}|55=BCH-CNY|207=OTHER_COIN_MARKET|58={"type":"Crypto"}|55=BTC-AUD|207=BTC_MARKET|58={"type":"Crypto"}|55=BTC-CAD|207=BTC_MARKET|58={"type":"Crypto"}|55=BTC-CNY|207=BTC_MARKET|58={"type":"Crypto"}|55=BTC-EUR|207=BTC_MARKET|58={"type":"Crypto"}|55=BTC-GBP|207=BTC_MARKET|58={"type":"Crypto"}|55=BTC-JPY|207=BTC_MARKET|58={"type":"Crypto"}|55=BTC-USD|207=BTC_MARKET|58={"type":"Crypto"}|55=DAI-USD|207=OTHER_COIN_MARKET|58={"type":"Crypto"}|55=DOT-GBP|207=OTHER_COIN_MARKET|58={"type":"Crypto"}|55=ETH-AUD|207=ETH_MARKET|58={"type":"Crypto"}|55=ETH-CAD|207=ETH_MARKET|58={"type":"Crypto"}|55=ETH-CNY|207=ETH_MARKET|58={"type":"Crypto"}|55=ETH-EUR|207=ETH_MARKET|58={"type":"Crypto"}|55=ETH-GBP|207=ETH_MARKET|58={"type":"Crypto"}|55=ETH-JPY|207=ETH_MARKET|58={"type":"Crypto"}|55=ETH-USD|207=ETH_MARKET|58={"type":"Crypto"}|55=LTC-JPY|207=OTHER_COIN_MARKET|58={"type":"Crypto"}|55=LUN-CAD|207=OTHER_COIN_MARKET|58={"type":"Crypto"}|55=MTC-CAD|207=OTHER_COIN_MARKET|58={"type":"Crypto"}|55=SOL-EUR|207=OTHER_COIN_MARKET|58={"type":"Crypto"}|55=UNI-JPY|207=OTHER_COIN_MARKET|58={"type":"Crypto"}|55=XLM-CNY|207=OTHER_COIN_MARKET|58={"type":"Crypto"}|55=XLM-EUR|207=OTHER_COIN_MARKET|58={"type":"Crypto"}|55=XMR-AUD|207=OTHER_COIN_MARKET|58={"type":"Crypto"}|55=XRP-GBP|207=OTHER_COIN_MARKET|58={"type":"Crypto"}|320=SecurityListRequest1|322=1|560=0|10=032|8=FIX.4.4|9=126|35=W|34=3|49=FIX_GWY_1|52=20250822-11:34:53.000|56=CRYPTO_TRADER_1|55=ADA-USD|207=OTHER_COIN_MARKET|268=1|269=4|270=101|271=0|10=161|8=FIX.4.4|9=126|35=W|34=4|49=FIX_GWY_1|52=20250822-11:34:53.000|56=CRYPTO_TRADER_1|55=AVX-AUD|207=OTHER_COIN_MARKET|268=1|269=4|270=401|271=0|10=188|8=FIX.4.4|9=126|35=W|34=5|49=FIX_GWY_1|52=20250822-11:34:53.000|56=CRYPTO_TRADER_1|55=BCH-CNY|207=OTHER_COIN_MARKET|268=1|269=4|270=401|271=0|10=171|8=FIX.4.4|9=121|35=W|34=6|49=FIX_GWY_1|52=20250822-11:34:53.000|56=CRYPTO_TRADER_1|55=BTC-AUD|207=BTC_MARKET|268=1|269=4|270=40100|271=0|10=210|8=FIX.4.4|9=121|35=W|34=7|49=FIX_GWY_1|52=20250822-11:34:53.000|56=CRYPTO_TRADER_1|55=BTC-CAD|207=BTC_MARKET|268=1|269=4|270=40100|271=0|10=193|8=FIX.4.4|9=366|35=W|34=8|49=FIX_GWY_1|52=20250822-11:34:53.000|56=CRYPTO_TRADER_1|55=BTC-CNY|207=BTC_MARKET|268=14|269=0|270=0|271=0|269=0|270=0|271=0|269=0|270=0|271=0|269=0|270=0|271=0|269=0|270=0|271=0|269=1|270=0|271=0|269=1|270=0|271=0|269=1|270=0|271=0|269=1|270=0|271=0|269=1|270=0|271=0|269=2|270=40200|271=0|269=B|270=0|271=100|269=4|270=40100|271=0|269=8|270=40100|271=0|10=182|8=FIX.4.4|9=121|35=W|34=9|49=FIX_GWY_1|52=20250822-11:34:53.000|56=CRYPTO_TRADER_1|55=BTC-EUR|207=BTC_MARKET|268=1|269=4|270=20100|271=0|10=229|8=FIX.4.4|9=122|35=W|34=10|49=FIX_GWY_1|52=20250822-11:34:53.000|56=CRYPTO_TRADER_1|55=BTC-GBP|207=BTC_MARKET|268=1|269=4|270=30100|271=0|10=252|8=FIX.4.4|9=122|35=W|34=11|49=FIX_GWY_1|52=20250822-11:34:53.000|56=CRYPTO_TRADER_1|55=BTC-JPY|207=BTC_MARKET|268=1|269=4|270=40100|271=0|10=024|8=FIX.4.4|9=122|35=W|34=12|49=FIX_GWY_1|52=20250822-11:34:53.000|56=CRYPTO_TRADER_1|55=BTC-USD|207=BTC_MARKET|268=1|269=4|270=10100|271=0|10=015|8=FIX.4.4|9=127|35=W|34=13|49=FIX_GWY_1|52=20250822-11:34:53.000|56=CRYPTO_TRADER_1|55=DAI-USD|207=OTHER_COIN_MARKET|268=1|269=4|270=101|271=0|10=219|8=FIX.4.4|9=127|35=W|34=14|49=FIX_GWY_1|52=20250822-11:34:53.000|56=CRYPTO_TRADER_1|55=DOT-GBP|207=OTHER_COIN_MARKET|268=1|269=4|270=301|271=0|10=228|8=FIX.4.4|9=121|35=W|34=15|49=FIX_GWY_1|52=20250822-11:34:53.000|56=CRYPTO_TRADER_1|55=ETH-AUD|207=ETH_MARKET|268=1|269=4|270=4010|271=0|10=226|8=FIX.4.4|9=121|35=W|34=16|49=FIX_GWY_1|52=20250822-11:34:53.000|56=CRYPTO_TRADER_1|55=ETH-CAD|207=ETH_MARKET|268=1|269=4|270=4010|271=0|10=209|8=FIX.4.4|9=121|35=W|34=17|49=FIX_GWY_1|52=20250822-11:34:53.000|56=CRYPTO_TRADER_1|55=ETH-CNY|207=ETH_MARKET|268=1|269=4|270=4010|271=0|10=244|8=FIX.4.4|9=121|35=W|34=18|49=FIX_GWY_1|52=20250822-11:34:53.000|56=CRYPTO_TRADER_1|55=ETH-EUR|207=ETH_MARKET|268=1|269=4|270=2010|271=0|10=245|8=FIX.4.4|9=121|35=W|34=19|49=FIX_GWY_1|52=20250822-11:34:53.000|56=CRYPTO_TRADER_1|55=ETH-GBP|207=ETH_MARKET|268=1|269=4|270=3010|271=0|10=228|8=FIX.4.4|9=121|35=W|34=20|49=FIX_GWY_1|52=20250822-11:34:53.000|56=CRYPTO_TRADER_1|55=ETH-JPY|207=ETH_MARKET|268=1|269=4|270=4010|271=0|10=247|8=FIX.4.4|9=121|35=W|34=21|49=FIX_GWY_1|52=20250822-11:34:53.000|56=CRYPTO_TRADER_1|55=ETH-USD|207=ETH_MARKET|268=1|269=4|270=1010|271=0|10=238|8=FIX.4.4|9=127|35=W|34=22|49=FIX_GWY_1|52=20250822-11:34:53.000|56=CRYPTO_TRADER_1|55=LTC-JPY|207=OTHER_COIN_MARKET|268=1|269=4|270=401|271=0|10=250|8=FIX.4.4|9=127|35=W|34=23|49=FIX_GWY_1|52=20250822-11:34:53.000|56=CRYPTO_TRADER_1|55=LUN-CAD|207=OTHER_COIN_MARKET|268=1|269=4|270=401|271=0|10=220|8=FIX.4.4|9=127|35=W|34=24|49=FIX_GWY_1|52=20250822-11:34:53.000|56=CRYPTO_TRADER_1|55=MTC-CAD|207=OTHER_COIN_MARKET|268=1|269=4|270=401|271=0|10=210|8=FIX.4.4|9=127|35=W|34=25|49=FIX_GWY_1|52=20250822-11:34:53.000|56=CRYPTO_TRADER_1|55=SOL-EUR|207=OTHER_COIN_MARKET|268=1|269=4|270=201|271=0|10=255|8=FIX.4.4|9=127|35=W|34=26|49=FIX_GWY_1|52=20250822-11:34:53.000|56=CRYPTO_TRADER_1|55=UNI-JPY|207=OTHER_COIN_MARKET|268=1|269=4|270=401|271=0|10=007|8=FIX.4.4|9=127|35=W|34=27|49=FIX_GWY_1|52=20250822-11:34:53.000|56=CRYPTO_TRADER_1|55=XLM-CNY|207=OTHER_COIN_MARKET|268=1|269=4|270=401|271=0|10=004|8=FIX.4.4|9=127|35=W|34=28|49=FIX_GWY_1|52=20250822-11:34:53.000|56=CRYPTO_TRADER_1|55=XLM-EUR|207=OTHER_COIN_MARKET|268=1|269=4|270=201|271=0|10=005|8=FIX.4.4|9=127|35=W|34=29|49=FIX_GWY_1|52=20250822-11:34:53.000|56=CRYPTO_TRADER_1|55=XMR-AUD|207=OTHER_COIN_MARKET|268=1|269=4|270=401|271=0|10=252|8=FIX.4.4|9=127|35=W|34=30|49=FIX_GWY_1|52=20250822-11:34:53.000|56=CRYPTO_TRADER_1|55=XRP-GBP|207=OTHER_COIN_MARKET|268=1|269=4|270=301|271=0|10=245|8=FIX.4.4|9=77|35=0|34=31|49=FIX_GWY_1|52=20250822-11:35:29.000|56=CRYPTO_TRADER_1|112=TEST|10=120|8=FIX.4.4|9=68|35=0|34=32|49=FIX_GWY_1|52=20250822-11:35:59.000|56=CRYPTO_TRADER_1|10=106|8=FIX.4.4|9=68|35=0|34=33|49=FIX_GWY_1|52=20250822-11:36:29.000|56=CRYPTO_TRADER_1|10=105|8=FIX.4.4|9=68|35=0|34=34|49=FIX_GWY_1|52=20250822-11:36:59.000|56=CRYPTO_TRADER_1|10=109|8=FIX.4.4|9=68|35=0|34=35|49=FIX_GWY_1|52=20250822-11:37:29.000|56=CRYPTO_TRADER_1|10=108|8=FIX.4.4|9=68|35=0|34=36|49=FIX_GWY_1|52=20250822-11:37:59.000|56=CRYPTO_TRADER_1|10=112|8=FIX.4.4|9=68|35=0|34=37|49=FIX_GWY_1|52=20250822-11:38:29.000|56=CRYPTO_TRADER_1|10=111|8=FIX.4.4|9=68|35=0|34=38|49=FIX_GWY_1|52=20250822-11:38:59.000|56=CRYPTO_TRADER_1|10=115|8=FIX.4.4|9=68|35=0|34=39|49=FIX_GWY_1|52=20250822-11:39:29.000|56=CRYPTO_TRADER_1|10=114|8=FIX.4.4|9=68|35=0|34=40|49=FIX_GWY_1|52=20250822-11:39:59.000|56=CRYPTO_TRADER_1|10=109|