8=FIX.4.4|9=85|35=A|34=1|49=FIX_GWY_1|52=20250823-08:59:49.000|56=CRYPTO_TRADER_1|98=0|108=30|141=Y|10=152|8=FIX.4.4|9=1525|35=y|34=2|49=FIX_GWY_1|52=20250823-08:59:50.000|56=CRYPTO_TRADER_1|146=28|55=ADA-USD|207=OTHER_COIN_MARKET|58={"type":"Crypto"}|55=AVX-AUD|207=OTHER_COIN_MARKET|58={"type":"Crypto"}|55=BCH-CNY|207=OTHER_COIN_MARKET|58={"type":"Crypto"}|55=BTC-AUD|207=BTC_MARKET|58={"type":"Crypto"}|55=BTC-CAD|207=BTC_MARKET|58={"type":"Crypto"}|55=BTC-CNY|207=BTC_MARKET|58={"type":"Crypto"}|55=BTC-EUR|207=BTC_MARKET|58={"type":"Crypto"}|55=BTC-GBP|207=BTC_MARKET|58={"type":"Crypto"}|55=BTC-JPY|207=BTC_MARKET|58={"type":"Crypto"}|55=BTC-USD|207=BTC_MARKET|58={"type":"Crypto"}|55=DAI-USD|207=OTHER_COIN_MARKET|58={"type":"Crypto"}|55=DOT-GBP|207=OTHER_COIN_MARKET|58={"type":"Crypto"}|55=ETH-AUD|207=ETH_MARKET|58={"type":"Crypto"}|55=ETH-CAD|207=ETH_MARKET|58={"type":"Crypto"}|55=ETH-CNY|207=ETH_MARKET|58={"type":"Crypto"}|55=ETH-EUR|207=ETH_MARKET|58={"type":"Crypto"}|55=ETH-GBP|207=ETH_MARKET|58={"type":"Crypto"}|55=ETH-JPY|207=ETH_MARKET|58={"type":"Crypto"}|55=ETH-USD|207=ETH_MARKET|58={"type":"Crypto"}|55=LTC-JPY|207=OTHER_COIN_MARKET|58={"type":"Crypto"}|55=LUN-CAD|207=OTHER_COIN_MARKET|58={"type":"Crypto"}|55=MTC-CAD|207=OTHER_COIN_MARKET|58={"type":"Crypto"}|55=SOL-EUR|207=OTHER_COIN_MARKET|58={"type":"Crypto"}|55=UNI-JPY|207=OTHER_COIN_MARKET|58={"type":"Crypto"}|55=XLM-CNY|207=OTHER_COIN_MARKET|58={"type":"Crypto"}|55=XLM-EUR|207=OTHER_COIN_MARKET|58={"type":"Crypto"}|55=XMR-AUD|207=OTHER_COIN_MARKET|58={"type":"Crypto"}|55=XRP-GBP|207=OTHER_COIN_MARKET|58={"type":"Crypto"}|320=SecurityListRequest1|322=1|560=0|10=044|8=FIX.4.4|9=126|35=W|34=3|49=FIX_GWY_1|52=20250823-08:59:51.000|56=CRYPTO_TRADER_1|55=ADA-USD|207=OTHER_COIN_MARKET|268=1|269=4|270=101|271=0|10=173|8=FIX.4.4|9=126|35=W|34=4|49=FIX_GWY_1|52=20250823-08:59:51.000|56=CRYPTO_TRADER_1|55=AVX-AUD|207=OTHER_COIN_MARKET|268=1|269=4|270=401|271=0|10=200|8=FIX.4.4|9=126|35=W|34=5|49=FIX_GWY_1|52=20250823-08:59:51.000|56=CRYPTO_TRADER_1|55=BCH-CNY|207=OTHER_COIN_MARKET|268=1|269=4|270=401|271=0|10=183|8=FIX.4.4|9=121|35=W|34=6|49=FIX_GWY_1|52=20250823-08:59:51.000|56=CRYPTO_TRADER_1|55=BTC-AUD|207=BTC_MARKET|268=1|269=4|270=40100|271=0|10=222|8=FIX.4.4|9=121|35=W|34=7|49=FIX_GWY_1|52=20250823-08:59:51.000|56=CRYPTO_TRADER_1|55=BTC-CAD|207=BTC_MARKET|268=1|269=4|270=40100|271=0|10=205|8=FIX.4.4|9=121|35=W|34=8|49=FIX_GWY_1|52=20250823-08:59:51.000|56=CRYPTO_TRADER_1|55=BTC-CNY|207=BTC_MARKET|268=1|269=4|270=40100|271=0|10=240|8=FIX.4.4|9=121|35=W|34=9|49=FIX_GWY_1|52=20250823-08:59:51.000|56=CRYPTO_TRADER_1|55=BTC-EUR|207=BTC_MARKET|268=1|269=4|270=20100|271=0|10=241|8=FIX.4.4|9=122|35=W|34=10|49=FIX_GWY_1|52=20250823-08:59:51.000|56=CRYPTO_TRADER_1|55=BTC-GBP|207=BTC_MARKET|268=1|269=4|270=30100|271=0|10=008|8=FIX.4.4|9=122|35=W|34=11|49=FIX_GWY_1|52=20250823-08:59:51.000|56=CRYPTO_TRADER_1|55=BTC-JPY|207=BTC_MARKET|268=1|269=4|270=40100|271=0|10=036|8=FIX.4.4|9=122|35=W|34=12|49=FIX_GWY_1|52=20250823-08:59:51.000|56=CRYPTO_TRADER_1|55=BTC-USD|207=BTC_MARKET|268=1|269=4|270=10100|271=0|10=027|8=FIX.4.4|9=127|35=W|34=13|49=FIX_GWY_1|52=20250823-08:59:51.000|56=CRYPTO_TRADER_1|55=DAI-USD|207=OTHER_COIN_MARKET|268=1|269=4|270=101|271=0|10=231|8=FIX.4.4|9=127|35=W|34=14|49=FIX_GWY_1|52=20250823-08:59:51.000|56=CRYPTO_TRADER_1|55=DOT-GBP|207=OTHER_COIN_MARKET|268=1|269=4|270=301|271=0|10=240|8=FIX.4.4|9=121|35=W|34=15|49=FIX_GWY_1|52=20250823-08:59:51.000|56=CRYPTO_TRADER_1|55=ETH-AUD|207=ETH_MARKET|268=1|269=4|270=4010|271=0|10=238|8=FIX.4.4|9=121|35=W|34=16|49=FIX_GWY_1|52=20250823-08:59:51.000|56=CRYPTO_TRADER_1|55=ETH-CAD|207=ETH_MARKET|268=1|269=4|270=4010|271=0|10=221|8=FIX.4.4|9=121|35=W|34=17|49=FIX_GWY_1|52=20250823-08:59:51.000|56=CRYPTO_TRADER_1|55=ETH-CNY|207=ETH_MARKET|268=1|269=4|270=4010|271=0|10=000|8=FIX.4.4|9=121|35=W|34=18|49=FIX_GWY_1|52=20250823-08:59:51.000|56=CRYPTO_TRADER_1|55=ETH-EUR|207=ETH_MARKET|268=1|269=4|270=2010|271=0|10=001|8=FIX.4.4|9=121|35=W|34=19|49=FIX_GWY_1|52=20250823-08:59:51.000|56=CRYPTO_TRADER_1|55=ETH-GBP|207=ETH_MARKET|268=1|269=4|270=3010|271=0|10=240|8=FIX.4.4|9=121|35=W|34=20|49=FIX_GWY_1|52=20250823-08:59:51.000|56=CRYPTO_TRADER_1|55=ETH-JPY|207=ETH_MARKET|268=1|269=4|270=4010|271=0|10=003|8=FIX.4.4|9=121|35=W|34=21|49=FIX_GWY_1|52=20250823-08:59:51.000|56=CRYPTO_TRADER_1|55=ETH-USD|207=ETH_MARKET|268=1|269=4|270=1010|271=0|10=250|8=FIX.4.4|9=127|35=W|34=22|49=FIX_GWY_1|52=20250823-08:59:51.000|56=CRYPTO_TRADER_1|55=LTC-JPY|207=OTHER_COIN_MARKET|268=1|269=4|270=401|271=0|10=006|8=FIX.4.4|9=127|35=W|34=23|49=FIX_GWY_1|52=20250823-08:59:51.000|56=CRYPTO_TRADER_1|55=LUN-CAD|207=OTHER_COIN_MARKET|268=1|269=4|270=401|271=0|10=232|8=FIX.4.4|9=127|35=W|34=24|49=FIX_GWY_1|52=20250823-08:59:51.000|56=CRYPTO_TRADER_1|55=MTC-CAD|207=OTHER_COIN_MARKET|268=1|269=4|270=401|271=0|10=222|8=FIX.4.4|9=127|35=W|34=25|49=FIX_GWY_1|52=20250823-08:59:51.000|56=CRYPTO_TRADER_1|55=SOL-EUR|207=OTHER_COIN_MARKET|268=1|269=4|270=201|271=0|10=011|8=FIX.4.4|9=127|35=W|34=26|49=FIX_GWY_1|52=20250823-08:59:51.000|56=CRYPTO_TRADER_1|55=UNI-JPY|207=OTHER_COIN_MARKET|268=1|269=4|270=401|271=0|10=019|8=FIX.4.4|9=127|35=W|34=27|49=FIX_GWY_1|52=20250823-08:59:51.000|56=CRYPTO_TRADER_1|55=XLM-CNY|207=OTHER_COIN_MARKET|268=1|269=4|270=401|271=0|10=016|8=FIX.4.4|9=127|35=W|34=28|49=FIX_GWY_1|52=20250823-08:59:51.000|56=CRYPTO_TRADER_1|55=XLM-EUR|207=OTHER_COIN_MARKET|268=1|269=4|270=201|271=0|10=017|8=FIX.4.4|9=127|35=W|34=29|49=FIX_GWY_1|52=20250823-08:59:51.000|56=CRYPTO_TRADER_1|55=XMR-AUD|207=OTHER_COIN_MARKET|268=1|269=4|270=401|271=0|10=008|8=FIX.4.4|9=127|35=W|34=30|49=FIX_GWY_1|52=20250823-08:59:51.000|56=CRYPTO_TRADER_1|55=XRP-GBP|207=OTHER_COIN_MARKET|268=1|269=4|270=301|271=0|10=001|8=FIX.4.4|9=253|35=8|34=31|49=FIX_GWY_1|52=20250823-08:59:53.000|56=CRYPTO_TRADER_1|6=0|14=0|17=1000001|31=0|32=0|37=investor_1:1755939593124803000|38=100|39=0|40=2|44=40100|54=1|55=BTC-CNY|58=OK|59=0|60=20250823-08:59:53.125613|99=0|103=0|150=0|151=100|207=BTC_MARKET|10=042|8=FIX.4.4|9=253|35=8|34=32|49=FIX_GWY_1|52=20250823-08:59:53.000|56=CRYPTO_TRADER_1|6=0|14=0|17=1000002|31=0|32=0|37=investor_2:1755939593124875000|38=100|39=0|40=2|44=40100|54=1|55=BTC-CNY|58=OK|59=0|60=20250823-08:59:53.126502|99=0|103=0|150=0|151=100|207=BTC_MARKET|10=052|8=FIX.4.4|9=253|35=8|34=33|49=FIX_GWY_1|52=20250823-08:59:53.000|56=CRYPTO_TRADER_1|6=0|14=0|17=1000003|31=0|32=0|37=investor_2:1755939593124947000|38=100|39=0|40=2|44=40100|54=1|55=BTC-CNY|58=OK|59=0|60=20250823-08:59:53.127358|99=0|103=0|150=0|151=100|207=BTC_MARKET|10=064|8=FIX.4.4|9=253|35=8|34=34|49=FIX_GWY_1|52=20250823-08:59:53.000|56=CRYPTO_TRADER_1|6=0|14=0|17=1000004|31=0|32=0|37=investor_2:1755939593124991000|38=100|39=0|40=2|44=40100|54=1|55=BTC-CNY|58=OK|59=0|60=20250823-08:59:53.128026|99=0|103=0|150=0|151=100|207=BTC_MARKET|10=058|8=FIX.4.4|9=253|35=8|34=35|49=FIX_GWY_1|52=20250823-08:59:53.000|56=CRYPTO_TRADER_1|6=0|14=0|17=1000005|31=0|32=0|37=investor_1:1755939593125097000|38=100|39=0|40=2|44=40100|54=1|55=BTC-CNY|58=OK|59=0|60=20250823-08:59:53.128799|99=0|103=0|150=0|151=100|207=BTC_MARKET|10=074|8=FIX.4.4|9=253|35=8|34=36|49=FIX_GWY_1|52=20250823-08:59:53.000|56=CRYPTO_TRADER_1|6=0|14=0|17=1000006|31=0|32=0|37=investor_1:1755939593125134000|38=100|39=0|40=2|44=40100|54=1|55=BTC-CNY|58=OK|59=0|60=20250823-08:59:53.129497|99=0|103=0|150=0|151=100|207=BTC_MARKET|10=064|8=FIX.4.4|9=253|35=8|34=37|49=FIX_GWY_1|52=20250823-08:59:53.000|56=CRYPTO_TRADER_1|6=0|14=0|17=1000007|31=0|32=0|37=investor_1:1755939593125171000|38=100|39=0|40=2|44=40100|54=1|55=BTC-CNY|58=OK|59=0|60=20250823-08:59:53.130260|99=0|103=0|150=0|151=100|207=BTC_MARKET|10=047|8=FIX.4.4|9=253|35=8|34=38|49=FIX_GWY_1|52=20250823-08:59:53.000|56=CRYPTO_TRADER_1|6=0|14=0|17=1000008|31=0|32=0|37=investor_2:1755939593125209000|38=100|39=0|40=2|44=40100|54=1|55=BTC-CNY|58=OK|59=0|60=20250823-08:59:53.130860|99=0|103=0|150=0|151=100|207=BTC_MARKET|10=058|8=FIX.4.4|9=253|35=8|34=39|49=FIX_GWY_1|52=20250823-08:59:53.000|56=CRYPTO_TRADER_1|6=0|14=0|17=1000009|31=0|32=0|37=investor_2:1755939593125299000|38=100|39=0|40=2|44=40100|54=1|55=BTC-CNY|58=OK|59=0|60=20250823-08:59:53.131477|99=0|103=0|150=0|151=100|207=BTC_MARKET|10=074|8=FIX.4.4|9=635|35=X|34=40|49=FIX_GWY_1|52=20250823-08:59:53.000|56=CRYPTO_TRADER_1|268=11|279=0|269=0|55=BTC-CNY|207=BTC_MARKET|270=40100|271=900|279=0|269=0|55=BTC-CNY|207=BTC_MARKET|270=0|271=0|279=0|269=0|55=BTC-CNY|207=BTC_MARKET|270=0|271=0|279=0|269=0|55=BTC-CNY|207=BTC_MARKET|270=0|271=0|279=0|269=0|55=BTC-CNY|207=BTC_MARKET|270=0|271=0|279=0|269=1|55=BTC-CNY|207=BTC_MARKET|270=0|271=0|279=0|269=1|55=BTC-CNY|207=BTC_MARKET|270=0|271=0|279=0|269=1|55=BTC-CNY|207=BTC_MARKET|270=0|271=0|279=0|269=1|55=BTC-CNY|207=BTC_MARKET|270=0|271=0|279=0|269=1|55=BTC-CNY|207=BTC_MARKET|270=0|271=0|279=0|269=4|55=BTC-CNY|207=BTC_MARKET|270=40100|271=0|10=151|8=FIX.4.4|9=68|35=0|34=41|49=FIX_GWY_1|52=20250823-09:00:23.000|56=CRYPTO_TRADER_1|10=097|8=FIX.4.4|9=68|35=0|34=42|49=FIX_GWY_1|52=20250823-09:00:53.000|56=CRYPTO_TRADER_1|10=101|8=FIX.4.4|9=68|35=0|34=43|49=FIX_GWY_1|52=20250823-09:01:23.000|56=CRYPTO_TRADER_1|10=100|8=FIX.4.4|9=68|35=0|34=44|49=FIX_GWY_1|52=20250823-09:01:53.000|56=CRYPTO_TRADER_1|10=104|8=FIX.4.4|9=68|35=0|34=45|49=FIX_GWY_1|52=20250823-09:02:23.000|56=CRYPTO_TRADER_1|10=103|8=FIX.4.4|9=68|35=0|34=46|49=FIX_GWY_1|52=20250823-09:02:53.000|56=CRYPTO_TRADER_1|10=107|8=FIX.4.4|9=68|35=0|34=47|49=FIX_GWY_1|52=20250823-09:03:23.000|56=CRYPTO_TRADER_1|10=106|8=FIX.4.4|9=68|35=0|34=48|49=FIX_GWY_1|52=20250823-09:03:53.000|56=CRYPTO_TRADER_1|10=110|8=FIX.4.4|9=68|35=0|34=49|49=FIX_GWY_1|52=20250823-09:04:23.000|56=CRYPTO_TRADER_1|10=109|8=FIX.4.4|9=68|35=0|34=50|49=FIX_GWY_1|52=20250823-09:04:53.000|56=CRYPTO_TRADER_1|10=104|8=FIX.4.4|9=68|35=0|34=51|49=FIX_GWY_1|52=20250823-09:05:23.000|56=CRYPTO_TRADER_1|10=103|8=FIX.4.4|9=68|35=0|34=52|49=FIX_GWY_1|52=20250823-09:05:53.000|56=CRYPTO_TRADER_1|10=107|8=FIX.4.4|9=68|35=0|34=53|49=FIX_GWY_1|52=20250823-09:06:23.000|56=CRYPTO_TRADER_1|10=106|8=FIX.4.4|9=68|35=0|34=54|49=FIX_GWY_1|52=20250823-09:06:53.000|56=CRYPTO_TRADER_1|10=110|8=FIX.4.4|9=68|35=0|34=55|49=FIX_GWY_1|52=20250823-09:07:23.000|56=CRYPTO_TRADER_1|10=109|8=FIX.4.4|9=68|35=0|34=56|49=FIX_GWY_1|52=20250823-09:07:53.000|56=CRYPTO_TRADER_1|10=113|8=FIX.4.4|9=68|35=0|34=57|49=FIX_GWY_1|52=20250823-09:08:23.000|56=CRYPTO_TRADER_1|10=112|8=FIX.4.4|9=68|35=0|34=58|49=FIX_GWY_1|52=20250823-09:08:53.000|56=CRYPTO_TRADER_1|10=116|8=FIX.4.4|9=68|35=0|34=59|49=FIX_GWY_1|52=20250823-09:09:23.000|56=CRYPTO_TRADER_1|10=115|8=FIX.4.4|9=68|35=0|34=60|49=FIX_GWY_1|52=20250823-09:09:53.000|56=CRYPTO_TRADER_1|10=110|