8=FIX.4.4|9=85|35=A|34=1|49=FIX_GWY_1|52=20250822-11:04:11.000|56=CRYPTO_TRADER_1|98=0|108=30|141=Y|10=124|8=FIX.4.4|9=1525|35=y|34=2|49=FIX_GWY_1|52=20250822-11:04:12.000|56=CRYPTO_TRADER_1|146=28|55=ADA-USD|207=OTHER_COIN_MARKET|58={"type":"Crypto"}|55=AVX-AUD|207=OTHER_COIN_MARKET|58={"type":"Crypto"}|55=BCH-CNY|207=OTHER_COIN_MARKET|58={"type":"Crypto"}|55=BTC-AUD|207=BTC_MARKET|58={"type":"Crypto"}|55=BTC-CAD|207=BTC_MARKET|58={"type":"Crypto"}|55=BTC-CNY|207=BTC_MARKET|58={"type":"Crypto"}|55=BTC-EUR|207=BTC_MARKET|58={"type":"Crypto"}|55=BTC-GBP|207=BTC_MARKET|58={"type":"Crypto"}|55=BTC-JPY|207=BTC_MARKET|58={"type":"Crypto"}|55=BTC-USD|207=BTC_MARKET|58={"type":"Crypto"}|55=DAI-USD|207=OTHER_COIN_MARKET|58={"type":"Crypto"}|55=DOT-GBP|207=OTHER_COIN_MARKET|58={"type":"Crypto"}|55=ETH-AUD|207=ETH_MARKET|58={"type":"Crypto"}|55=ETH-CAD|207=ETH_MARKET|58={"type":"Crypto"}|55=ETH-CNY|207=ETH_MARKET|58={"type":"Crypto"}|55=ETH-EUR|207=ETH_MARKET|58={"type":"Crypto"}|55=ETH-GBP|207=ETH_MARKET|58={"type":"Crypto"}|55=ETH-JPY|207=ETH_MARKET|58={"type":"Crypto"}|55=ETH-USD|207=ETH_MARKET|58={"type":"Crypto"}|55=LTC-JPY|207=OTHER_COIN_MARKET|58={"type":"Crypto"}|55=LUN-CAD|207=OTHER_COIN_MARKET|58={"type":"Crypto"}|55=MTC-CAD|207=OTHER_COIN_MARKET|58={"type":"Crypto"}|55=SOL-EUR|207=OTHER_COIN_MARKET|58={"type":"Crypto"}|55=UNI-JPY|207=OTHER_COIN_MARKET|58={"type":"Crypto"}|55=XLM-CNY|207=OTHER_COIN_MARKET|58={"type":"Crypto"}|55=XLM-EUR|207=OTHER_COIN_MARKET|58={"type":"Crypto"}|55=XMR-AUD|207=OTHER_COIN_MARKET|58={"type":"Crypto"}|55=XRP-GBP|207=OTHER_COIN_MARKET|58={"type":"Crypto"}|320=SecurityListRequest1|322=1|560=0|10=025|8=FIX.4.4|9=126|35=W|34=3|49=FIX_GWY_1|52=20250822-11:04:13.000|56=CRYPTO_TRADER_1|55=ADA-USD|207=OTHER_COIN_MARKET|268=1|269=4|270=101|271=0|10=154|8=FIX.4.4|9=126|35=W|34=4|49=FIX_GWY_1|52=20250822-11:04:13.000|56=CRYPTO_TRADER_1|55=AVX-AUD|207=OTHER_COIN_MARKET|268=1|269=4|270=401|271=0|10=181|8=FIX.4.4|9=126|35=W|34=5|49=FIX_GWY_1|52=20250822-11:04:13.000|56=CRYPTO_TRADER_1|55=BCH-CNY|207=OTHER_COIN_MARKET|268=1|269=4|270=401|271=0|10=164|8=FIX.4.4|9=121|35=W|34=6|49=FIX_GWY_1|52=20250822-11:04:13.000|56=CRYPTO_TRADER_1|55=BTC-AUD|207=BTC_MARKET|268=1|269=4|270=40100|271=0|10=203|8=FIX.4.4|9=121|35=W|34=7|49=FIX_GWY_1|52=20250822-11:04:13.000|56=CRYPTO_TRADER_1|55=BTC-CAD|207=BTC_MARKET|268=1|269=4|270=40100|271=0|10=186|8=FIX.4.4|9=366|35=W|34=8|49=FIX_GWY_1|52=20250822-11:04:13.000|56=CRYPTO_TRADER_1|55=BTC-CNY|207=BTC_MARKET|268=14|269=0|270=0|271=0|269=0|270=0|271=0|269=0|270=0|271=0|269=0|270=0|271=0|269=0|270=0|271=0|269=1|270=0|271=0|269=1|270=0|271=0|269=1|270=0|271=0|269=1|270=0|271=0|269=1|270=0|271=0|269=2|270=40200|271=0|269=B|270=0|271=100|269=4|270=40100|271=0|269=8|270=40100|271=0|10=175|8=FIX.4.4|9=121|35=W|34=9|49=FIX_GWY_1|52=20250822-11:04:13.000|56=CRYPTO_TRADER_1|55=BTC-EUR|207=BTC_MARKET|268=1|269=4|270=20100|271=0|10=222|8=FIX.4.4|9=122|35=W|34=10|49=FIX_GWY_1|52=20250822-11:04:13.000|56=CRYPTO_TRADER_1|55=BTC-GBP|207=BTC_MARKET|268=1|269=4|270=30100|271=0|10=245|8=FIX.4.4|9=122|35=W|34=11|49=FIX_GWY_1|52=20250822-11:04:13.000|56=CRYPTO_TRADER_1|55=BTC-JPY|207=BTC_MARKET|268=1|269=4|270=40100|271=0|10=017|8=FIX.4.4|9=122|35=W|34=12|49=FIX_GWY_1|52=20250822-11:04:13.000|56=CRYPTO_TRADER_1|55=BTC-USD|207=BTC_MARKET|268=1|269=4|270=10100|271=0|10=008|8=FIX.4.4|9=127|35=W|34=13|49=FIX_GWY_1|52=20250822-11:04:13.000|56=CRYPTO_TRADER_1|55=DAI-USD|207=OTHER_COIN_MARKET|268=1|269=4|270=101|271=0|10=212|8=FIX.4.4|9=127|35=W|34=14|49=FIX_GWY_1|52=20250822-11:04:13.000|56=CRYPTO_TRADER_1|55=DOT-GBP|207=OTHER_COIN_MARKET|268=1|269=4|270=301|271=0|10=221|8=FIX.4.4|9=121|35=W|34=15|49=FIX_GWY_1|52=20250822-11:04:13.000|56=CRYPTO_TRADER_1|55=ETH-AUD|207=ETH_MARKET|268=1|269=4|270=4010|271=0|10=219|8=FIX.4.4|9=121|35=W|34=16|49=FIX_GWY_1|52=20250822-11:04:13.000|56=CRYPTO_TRADER_1|55=ETH-CAD|207=ETH_MARKET|268=1|269=4|270=4010|271=0|10=202|8=FIX.4.4|9=121|35=W|34=17|49=FIX_GWY_1|52=20250822-11:04:13.000|56=CRYPTO_TRADER_1|55=ETH-CNY|207=ETH_MARKET|268=1|269=4|270=4010|271=0|10=237|8=FIX.4.4|9=121|35=W|34=18|49=FIX_GWY_1|52=20250822-11:04:13.000|56=CRYPTO_TRADER_1|55=ETH-EUR|207=ETH_MARKET|268=1|269=4|270=2010|271=0|10=238|8=FIX.4.4|9=121|35=W|34=19|49=FIX_GWY_1|52=20250822-11:04:13.000|56=CRYPTO_TRADER_1|55=ETH-GBP|207=ETH_MARKET|268=1|269=4|270=3010|271=0|10=221|8=FIX.4.4|9=121|35=W|34=20|49=FIX_GWY_1|52=20250822-11:04:13.000|56=CRYPTO_TRADER_1|55=ETH-JPY|207=ETH_MARKET|268=1|269=4|270=4010|271=0|10=240|8=FIX.4.4|9=121|35=W|34=21|49=FIX_GWY_1|52=20250822-11:04:13.000|56=CRYPTO_TRADER_1|55=ETH-USD|207=ETH_MARKET|268=1|269=4|270=1010|271=0|10=231|8=FIX.4.4|9=127|35=W|34=22|49=FIX_GWY_1|52=20250822-11:04:13.000|56=CRYPTO_TRADER_1|55=LTC-JPY|207=OTHER_COIN_MARKET|268=1|269=4|270=401|271=0|10=243|8=FIX.4.4|9=127|35=W|34=23|49=FIX_GWY_1|52=20250822-11:04:13.000|56=CRYPTO_TRADER_1|55=LUN-CAD|207=OTHER_COIN_MARKET|268=1|269=4|270=401|271=0|10=213|8=FIX.4.4|9=127|35=W|34=24|49=FIX_GWY_1|52=20250822-11:04:13.000|56=CRYPTO_TRADER_1|55=MTC-CAD|207=OTHER_COIN_MARKET|268=1|269=4|270=401|271=0|10=203|8=FIX.4.4|9=127|35=W|34=25|49=FIX_GWY_1|52=20250822-11:04:13.000|56=CRYPTO_TRADER_1|55=SOL-EUR|207=OTHER_COIN_MARKET|268=1|269=4|270=201|271=0|10=248|8=FIX.4.4|9=127|35=W|34=26|49=FIX_GWY_1|52=20250822-11:04:13.000|56=CRYPTO_TRADER_1|55=UNI-JPY|207=OTHER_COIN_MARKET|268=1|269=4|270=401|271=0|10=000|8=FIX.4.4|9=127|35=W|34=27|49=FIX_GWY_1|52=20250822-11:04:13.000|56=CRYPTO_TRADER_1|55=XLM-CNY|207=OTHER_COIN_MARKET|268=1|269=4|270=401|271=0|10=253|8=FIX.4.4|9=127|35=W|34=28|49=FIX_GWY_1|52=20250822-11:04:13.000|56=CRYPTO_TRADER_1|55=XLM-EUR|207=OTHER_COIN_MARKET|268=1|269=4|270=201|271=0|10=254|8=FIX.4.4|9=127|35=W|34=29|49=FIX_GWY_1|52=20250822-11:04:13.000|56=CRYPTO_TRADER_1|55=XMR-AUD|207=OTHER_COIN_MARKET|268=1|269=4|270=401|271=0|10=245|8=FIX.4.4|9=127|35=W|34=30|49=FIX_GWY_1|52=20250822-11:04:13.000|56=CRYPTO_TRADER_1|55=XRP-GBP|207=OTHER_COIN_MARKET|268=1|269=4|270=301|271=0|10=238|8=FIX.4.4|9=77|35=0|34=31|49=FIX_GWY_1|52=20250822-11:04:49.000|56=CRYPTO_TRADER_1|112=TEST|10=118|8=FIX.4.4|9=68|35=0|34=32|49=FIX_GWY_1|52=20250822-11:05:19.000|56=CRYPTO_TRADER_1|10=099|8=FIX.4.4|9=68|35=0|34=33|49=FIX_GWY_1|52=20250822-11:05:49.000|56=CRYPTO_TRADER_1|10=103|8=FIX.4.4|9=68|35=0|34=34|49=FIX_GWY_1|52=20250822-11:06:19.000|56=CRYPTO_TRADER_1|10=102|8=FIX.4.4|9=68|35=0|34=35|49=FIX_GWY_1|52=20250822-11:06:49.000|56=CRYPTO_TRADER_1|10=106|