8=FIX.4.4|9=85|35=A|34=1|49=FIX_GWY_1|52=20250822-09:00:58.000|56=CRYPTO_TRADER_1|98=0|108=30|141=Y|10=138|8=FIX.4.4|9=1525|35=y|34=2|49=FIX_GWY_1|52=20250822-09:00:58.000|56=CRYPTO_TRADER_1|146=28|55=ADA-USD|207=OTHER_COIN_MARKET|58={"type":"Crypto"}|55=AVX-AUD|207=OTHER_COIN_MARKET|58={"type":"Crypto"}|55=BCH-CNY|207=OTHER_COIN_MARKET|58={"type":"Crypto"}|55=BTC-AUD|207=BTC_MARKET|58={"type":"Crypto"}|55=BTC-CAD|207=BTC_MARKET|58={"type":"Crypto"}|55=BTC-CNY|207=BTC_MARKET|58={"type":"Crypto"}|55=BTC-EUR|207=BTC_MARKET|58={"type":"Crypto"}|55=BTC-GBP|207=BTC_MARKET|58={"type":"Crypto"}|55=BTC-JPY|207=BTC_MARKET|58={"type":"Crypto"}|55=BTC-USD|207=BTC_MARKET|58={"type":"Crypto"}|55=DAI-USD|207=OTHER_COIN_MARKET|58={"type":"Crypto"}|55=DOT-GBP|207=OTHER_COIN_MARKET|58={"type":"Crypto"}|55=ETH-AUD|207=ETH_MARKET|58={"type":"Crypto"}|55=ETH-CAD|207=ETH_MARKET|58={"type":"Crypto"}|55=ETH-CNY|207=ETH_MARKET|58={"type":"Crypto"}|55=ETH-EUR|207=ETH_MARKET|58={"type":"Crypto"}|55=ETH-GBP|207=ETH_MARKET|58={"type":"Crypto"}|55=ETH-JPY|207=ETH_MARKET|58={"type":"Crypto"}|55=ETH-USD|207=ETH_MARKET|58={"type":"Crypto"}|55=LTC-JPY|207=OTHER_COIN_MARKET|58={"type":"Crypto"}|55=LUN-CAD|207=OTHER_COIN_MARKET|58={"type":"Crypto"}|55=MTC-CAD|207=OTHER_COIN_MARKET|58={"type":"Crypto"}|55=SOL-EUR|207=OTHER_COIN_MARKET|58={"type":"Crypto"}|55=UNI-JPY|207=OTHER_COIN_MARKET|58={"type":"Crypto"}|55=XLM-CNY|207=OTHER_COIN_MARKET|58={"type":"Crypto"}|55=XLM-EUR|207=OTHER_COIN_MARKET|58={"type":"Crypto"}|55=XMR-AUD|207=OTHER_COIN_MARKET|58={"type":"Crypto"}|55=XRP-GBP|207=OTHER_COIN_MARKET|58={"type":"Crypto"}|320=SecurityListRequest1|322=1|560=0|10=038|8=FIX.4.4|9=126|35=W|34=3|49=FIX_GWY_1|52=20250822-09:00:59.000|56=CRYPTO_TRADER_1|55=ADA-USD|207=OTHER_COIN_MARKET|268=1|269=4|270=101|271=0|10=167|8=FIX.4.4|9=126|35=W|34=4|49=FIX_GWY_1|52=20250822-09:00:59.000|56=CRYPTO_TRADER_1|55=AVX-AUD|207=OTHER_COIN_MARKET|268=1|269=4|270=401|271=0|10=194|8=FIX.4.4|9=126|35=W|34=5|49=FIX_GWY_1|52=20250822-09:00:59.000|56=CRYPTO_TRADER_1|55=BCH-CNY|207=OTHER_COIN_MARKET|268=1|269=4|270=401|271=0|10=177|8=FIX.4.4|9=121|35=W|34=6|49=FIX_GWY_1|52=20250822-09:00:59.000|56=CRYPTO_TRADER_1|55=BTC-AUD|207=BTC_MARKET|268=1|269=4|270=40100|271=0|10=216|8=FIX.4.4|9=121|35=W|34=7|49=FIX_GWY_1|52=20250822-09:00:59.000|56=CRYPTO_TRADER_1|55=BTC-CAD|207=BTC_MARKET|268=1|269=4|270=40100|271=0|10=199|8=FIX.4.4|9=366|35=W|34=8|49=FIX_GWY_1|52=20250822-09:00:59.000|56=CRYPTO_TRADER_1|55=BTC-CNY|207=BTC_MARKET|268=14|269=0|270=0|271=0|269=0|270=0|271=0|269=0|270=0|271=0|269=0|270=0|271=0|269=0|270=0|271=0|269=1|270=0|271=0|269=1|270=0|271=0|269=1|270=0|271=0|269=1|270=0|271=0|269=1|270=0|271=0|269=2|270=40200|271=0|269=B|270=0|271=100|269=4|270=40100|271=0|269=8|270=40100|271=0|10=188|8=FIX.4.4|9=121|35=W|34=9|49=FIX_GWY_1|52=20250822-09:00:59.000|56=CRYPTO_TRADER_1|55=BTC-EUR|207=BTC_MARKET|268=1|269=4|270=20100|271=0|10=235|8=FIX.4.4|9=122|35=W|34=10|49=FIX_GWY_1|52=20250822-09:00:59.000|56=CRYPTO_TRADER_1|55=BTC-GBP|207=BTC_MARKET|268=1|269=4|270=30100|271=0|10=002|8=FIX.4.4|9=122|35=W|34=11|49=FIX_GWY_1|52=20250822-09:00:59.000|56=CRYPTO_TRADER_1|55=BTC-JPY|207=BTC_MARKET|268=1|269=4|270=40100|271=0|10=030|8=FIX.4.4|9=122|35=W|34=12|49=FIX_GWY_1|52=20250822-09:00:59.000|56=CRYPTO_TRADER_1|55=BTC-USD|207=BTC_MARKET|268=1|269=4|270=10100|271=0|10=021|8=FIX.4.4|9=127|35=W|34=13|49=FIX_GWY_1|52=20250822-09:00:59.000|56=CRYPTO_TRADER_1|55=DAI-USD|207=OTHER_COIN_MARKET|268=1|269=4|270=101|271=0|10=225|8=FIX.4.4|9=127|35=W|34=14|49=FIX_GWY_1|52=20250822-09:00:59.000|56=CRYPTO_TRADER_1|55=DOT-GBP|207=OTHER_COIN_MARKET|268=1|269=4|270=301|271=0|10=234|8=FIX.4.4|9=121|35=W|34=15|49=FIX_GWY_1|52=20250822-09:00:59.000|56=CRYPTO_TRADER_1|55=ETH-AUD|207=ETH_MARKET|268=1|269=4|270=4010|271=0|10=232|8=FIX.4.4|9=121|35=W|34=16|49=FIX_GWY_1|52=20250822-09:00:59.000|56=CRYPTO_TRADER_1|55=ETH-CAD|207=ETH_MARKET|268=1|269=4|270=4010|271=0|10=215|8=FIX.4.4|9=121|35=W|34=17|49=FIX_GWY_1|52=20250822-09:00:59.000|56=CRYPTO_TRADER_1|55=ETH-CNY|207=ETH_MARKET|268=1|269=4|270=4010|271=0|10=250|8=FIX.4.4|9=121|35=W|34=18|49=FIX_GWY_1|52=20250822-09:00:59.000|56=CRYPTO_TRADER_1|55=ETH-EUR|207=ETH_MARKET|268=1|269=4|270=2010|271=0|10=251|8=FIX.4.4|9=121|35=W|34=19|49=FIX_GWY_1|52=20250822-09:00:59.000|56=CRYPTO_TRADER_1|55=ETH-GBP|207=ETH_MARKET|268=1|269=4|270=3010|271=0|10=234|8=FIX.4.4|9=121|35=W|34=20|49=FIX_GWY_1|52=20250822-09:00:59.000|56=CRYPTO_TRADER_1|55=ETH-JPY|207=ETH_MARKET|268=1|269=4|270=4010|271=0|10=253|8=FIX.4.4|9=121|35=W|34=21|49=FIX_GWY_1|52=20250822-09:00:59.000|56=CRYPTO_TRADER_1|55=ETH-USD|207=ETH_MARKET|268=1|269=4|270=1010|271=0|10=244|8=FIX.4.4|9=127|35=W|34=22|49=FIX_GWY_1|52=20250822-09:00:59.000|56=CRYPTO_TRADER_1|55=LTC-JPY|207=OTHER_COIN_MARKET|268=1|269=4|270=401|271=0|10=000|8=FIX.4.4|9=127|35=W|34=23|49=FIX_GWY_1|52=20250822-09:00:59.000|56=CRYPTO_TRADER_1|55=LUN-CAD|207=OTHER_COIN_MARKET|268=1|269=4|270=401|271=0|10=226|8=FIX.4.4|9=127|35=W|34=24|49=FIX_GWY_1|52=20250822-09:00:59.000|56=CRYPTO_TRADER_1|55=MTC-CAD|207=OTHER_COIN_MARKET|268=1|269=4|270=401|271=0|10=216|8=FIX.4.4|9=127|35=W|34=25|49=FIX_GWY_1|52=20250822-09:00:59.000|56=CRYPTO_TRADER_1|55=SOL-EUR|207=OTHER_COIN_MARKET|268=1|269=4|270=201|271=0|10=005|8=FIX.4.4|9=127|35=W|34=26|49=FIX_GWY_1|52=20250822-09:00:59.000|56=CRYPTO_TRADER_1|55=UNI-JPY|207=OTHER_COIN_MARKET|268=1|269=4|270=401|271=0|10=013|8=FIX.4.4|9=127|35=W|34=27|49=FIX_GWY_1|52=20250822-09:00:59.000|56=CRYPTO_TRADER_1|55=XLM-CNY|207=OTHER_COIN_MARKET|268=1|269=4|270=401|271=0|10=010|8=FIX.4.4|9=127|35=W|34=28|49=FIX_GWY_1|52=20250822-09:00:59.000|56=CRYPTO_TRADER_1|55=XLM-EUR|207=OTHER_COIN_MARKET|268=1|269=4|270=201|271=0|10=011|8=FIX.4.4|9=127|35=W|34=29|49=FIX_GWY_1|52=20250822-09:00:59.000|56=CRYPTO_TRADER_1|55=XMR-AUD|207=OTHER_COIN_MARKET|268=1|269=4|270=401|271=0|10=002|8=FIX.4.4|9=127|35=W|34=30|49=FIX_GWY_1|52=20250822-09:00:59.000|56=CRYPTO_TRADER_1|55=XRP-GBP|207=OTHER_COIN_MARKET|268=1|269=4|270=301|271=0|10=251|8=FIX.4.4|9=77|35=0|34=31|49=FIX_GWY_1|52=20250822-09:01:35.000|56=CRYPTO_TRADER_1|112=TEST|10=117|8=FIX.4.4|9=68|35=0|34=32|49=FIX_GWY_1|52=20250822-09:02:05.000|56=CRYPTO_TRADER_1|10=098|8=FIX.4.4|9=68|35=0|34=33|49=FIX_GWY_1|52=20250822-09:02:35.000|56=CRYPTO_TRADER_1|10=102|8=FIX.4.4|9=68|35=0|34=34|49=FIX_GWY_1|52=20250822-09:03:05.000|56=CRYPTO_TRADER_1|10=101|8=FIX.4.4|9=68|35=0|34=35|49=FIX_GWY_1|52=20250822-09:03:35.000|56=CRYPTO_TRADER_1|10=105|8=FIX.4.4|9=68|35=0|34=36|49=FIX_GWY_1|52=20250822-09:04:05.000|56=CRYPTO_TRADER_1|10=104|8=FIX.4.4|9=68|35=0|34=37|49=FIX_GWY_1|52=20250822-09:04:35.000|56=CRYPTO_TRADER_1|10=108|8=FIX.4.4|9=68|35=0|34=38|49=FIX_GWY_1|52=20250822-09:05:05.000|56=CRYPTO_TRADER_1|10=107|8=FIX.4.4|9=68|35=0|34=39|49=FIX_GWY_1|52=20250822-09:05:35.000|56=CRYPTO_TRADER_1|10=111|8=FIX.4.4|9=68|35=0|34=40|49=FIX_GWY_1|52=20250822-09:06:05.000|56=CRYPTO_TRADER_1|10=101|8=FIX.4.4|9=68|35=0|34=41|49=FIX_GWY_1|52=20250822-09:06:35.000|56=CRYPTO_TRADER_1|10=105|8=FIX.4.4|9=68|35=0|34=42|49=FIX_GWY_1|52=20250822-09:07:05.000|56=CRYPTO_TRADER_1|10=104|8=FIX.4.4|9=68|35=0|34=43|49=FIX_GWY_1|52=20250822-09:07:35.000|56=CRYPTO_TRADER_1|10=108|8=FIX.4.4|9=68|35=0|34=44|49=FIX_GWY_1|52=20250822-09:08:05.000|56=CRYPTO_TRADER_1|10=107|8=FIX.4.4|9=68|35=0|34=45|49=FIX_GWY_1|52=20250822-09:08:35.000|56=CRYPTO_TRADER_1|10=111|8=FIX.4.4|9=68|35=0|34=46|49=FIX_GWY_1|52=20250822-09:09:05.000|56=CRYPTO_TRADER_1|10=110|8=FIX.4.4|9=68|35=0|34=47|49=FIX_GWY_1|52=20250822-09:09:35.000|56=CRYPTO_TRADER_1|10=114|8=FIX.4.4|9=68|35=0|34=48|49=FIX_GWY_1|52=20250822-09:10:05.000|56=CRYPTO_TRADER_1|10=104|8=FIX.4.4|9=68|35=0|34=49|49=FIX_GWY_1|52=20250822-09:10:35.000|56=CRYPTO_TRADER_1|10=108|8=FIX.4.4|9=68|35=0|34=50|49=FIX_GWY_1|52=20250822-09:11:05.000|56=CRYPTO_TRADER_1|10=098|8=FIX.4.4|9=68|35=0|34=51|49=FIX_GWY_1|52=20250822-09:11:35.000|56=CRYPTO_TRADER_1|10=102|8=FIX.4.4|9=68|35=0|34=52|49=FIX_GWY_1|52=20250822-09:12:05.000|56=CRYPTO_TRADER_1|10=101|8=FIX.4.4|9=68|35=0|34=53|49=FIX_GWY_1|52=20250822-09:12:35.000|56=CRYPTO_TRADER_1|10=105|8=FIX.4.4|9=68|35=0|34=54|49=FIX_GWY_1|52=20250822-09:13:05.000|56=CRYPTO_TRADER_1|10=104|8=FIX.4.4|9=68|35=0|34=55|49=FIX_GWY_1|52=20250822-09:13:35.000|56=CRYPTO_TRADER_1|10=108|8=FIX.4.4|9=68|35=0|34=56|49=FIX_GWY_1|52=20250822-09:14:05.000|56=CRYPTO_TRADER_1|10=107|8=FIX.4.4|9=68|35=0|34=57|49=FIX_GWY_1|52=20250822-09:14:35.000|56=CRYPTO_TRADER_1|10=111|8=FIX.4.4|9=68|35=0|34=58|49=FIX_GWY_1|52=20250822-09:15:05.000|56=CRYPTO_TRADER_1|10=110|8=FIX.4.4|9=68|35=0|34=59|49=FIX_GWY_1|52=20250822-09:15:35.000|56=CRYPTO_TRADER_1|10=114|8=FIX.4.4|9=68|35=0|34=60|49=FIX_GWY_1|52=20250822-09:16:05.000|56=CRYPTO_TRADER_1|10=104|8=FIX.4.4|9=68|35=0|34=61|49=FIX_GWY_1|52=20250822-09:32:36.000|56=CRYPTO_TRADER_1|10=107|8=FIX.4.4|9=68|35=0|34=62|49=FIX_GWY_1|52=20250822-09:33:06.000|56=CRYPTO_TRADER_1|10=106|8=FIX.4.4|9=68|35=0|34=63|49=FIX_GWY_1|52=20250822-09:33:36.000|56=CRYPTO_TRADER_1|10=110|8=FIX.4.4|9=68|35=0|34=64|49=FIX_GWY_1|52=20250822-09:34:06.000|56=CRYPTO_TRADER_1|10=109|8=FIX.4.4|9=68|35=0|34=65|49=FIX_GWY_1|52=20250822-09:34:36.000|56=CRYPTO_TRADER_1|10=113|8=FIX.4.4|9=68|35=0|34=66|49=FIX_GWY_1|52=20250822-09:35:06.000|56=CRYPTO_TRADER_1|10=112|8=FIX.4.4|9=68|35=0|34=67|49=FIX_GWY_1|52=20250822-09:35:36.000|56=CRYPTO_TRADER_1|10=116|8=FIX.4.4|9=68|35=0|34=68|49=FIX_GWY_1|52=20250822-09:36:06.000|56=CRYPTO_TRADER_1|10=115|8=FIX.4.4|9=68|35=0|34=69|49=FIX_GWY_1|52=20250822-09:36:36.000|56=CRYPTO_TRADER_1|10=119|8=FIX.4.4|9=68|35=0|34=70|49=FIX_GWY_1|52=20250822-09:37:06.000|56=CRYPTO_TRADER_1|10=109|8=FIX.4.4|9=68|35=0|34=71|49=FIX_GWY_1|52=20250822-09:37:36.000|56=CRYPTO_TRADER_1|10=113|8=FIX.4.4|9=68|35=0|34=72|49=FIX_GWY_1|52=20250822-09:38:06.000|56=CRYPTO_TRADER_1|10=112|8=FIX.4.4|9=68|35=0|34=73|49=FIX_GWY_1|52=20250822-09:38:36.000|56=CRYPTO_TRADER_1|10=116|8=FIX.4.4|9=68|35=0|34=74|49=FIX_GWY_1|52=20250822-09:39:06.000|56=CRYPTO_TRADER_1|10=115|8=FIX.4.4|9=68|35=0|34=75|49=FIX_GWY_1|52=20250822-09:39:36.000|56=CRYPTO_TRADER_1|10=119|8=FIX.4.4|9=68|35=0|34=76|49=FIX_GWY_1|52=20250822-09:40:06.000|56=CRYPTO_TRADER_1|10=109|8=FIX.4.4|9=68|35=0|34=77|49=FIX_GWY_1|52=20250822-09:40:36.000|56=CRYPTO_TRADER_1|10=113|8=FIX.4.4|9=68|35=0|34=78|49=FIX_GWY_1|52=20250822-09:41:06.000|56=CRYPTO_TRADER_1|10=112|8=FIX.4.4|9=68|35=0|34=79|49=FIX_GWY_1|52=20250822-09:41:36.000|56=CRYPTO_TRADER_1|10=116|8=FIX.4.4|9=68|35=0|34=80|49=FIX_GWY_1|52=20250822-09:42:06.000|56=CRYPTO_TRADER_1|10=106|8=FIX.4.4|9=68|35=0|34=81|49=FIX_GWY_1|52=20250822-09:42:36.000|56=CRYPTO_TRADER_1|10=110|8=FIX.4.4|9=68|35=0|34=82|49=FIX_GWY_1|52=20250822-09:43:06.000|56=CRYPTO_TRADER_1|10=109|8=FIX.4.4|9=68|35=0|34=83|49=FIX_GWY_1|52=20250822-09:43:36.000|56=CRYPTO_TRADER_1|10=113|8=FIX.4.4|9=68|35=0|34=84|49=FIX_GWY_1|52=20250822-09:44:06.000|56=CRYPTO_TRADER_1|10=112|8=FIX.4.4|9=68|35=0|34=85|49=FIX_GWY_1|52=20250822-09:44:36.000|56=CRYPTO_TRADER_1|10=116|8=FIX.4.4|9=68|35=0|34=86|49=FIX_GWY_1|52=20250822-09:45:06.000|56=CRYPTO_TRADER_1|10=115|8=FIX.4.4|9=68|35=0|34=87|49=FIX_GWY_1|52=20250822-09:45:36.000|56=CRYPTO_TRADER_1|10=119|8=FIX.4.4|9=68|35=0|34=88|49=FIX_GWY_1|52=20250822-09:46:06.000|56=CRYPTO_TRADER_1|10=118|8=FIX.4.4|9=68|35=0|34=89|49=FIX_GWY_1|52=20250822-09:46:36.000|56=CRYPTO_TRADER_1|10=122|8=FIX.4.4|9=68|35=0|34=90|49=FIX_GWY_1|52=20250822-09:47:06.000|56=CRYPTO_TRADER_1|10=112|8=FIX.4.4|9=68|35=0|34=91|49=FIX_GWY_1|52=20250822-09:47:36.000|56=CRYPTO_TRADER_1|10=116|8=FIX.4.4|9=68|35=0|34=92|49=FIX_GWY_1|52=20250822-09:48:06.000|56=CRYPTO_TRADER_1|10=115|8=FIX.4.4|9=68|35=0|34=93|49=FIX_GWY_1|52=20250822-09:48:36.000|56=CRYPTO_TRADER_1|10=119|8=FIX.4.4|9=68|35=0|34=94|49=FIX_GWY_1|52=20250822-09:49:06.000|56=CRYPTO_TRADER_1|10=118|8=FIX.4.4|9=68|35=0|34=95|49=FIX_GWY_1|52=20250822-09:49:36.000|56=CRYPTO_TRADER_1|10=122|8=FIX.4.4|9=68|35=0|34=96|49=FIX_GWY_1|52=20250822-09:50:06.000|56=CRYPTO_TRADER_1|10=112|8=FIX.4.4|9=68|35=0|34=97|49=FIX_GWY_1|52=20250822-09:50:36.000|56=CRYPTO_TRADER_1|10=116|8=FIX.4.4|9=68|35=0|34=98|49=FIX_GWY_1|52=20250822-09:51:06.000|56=CRYPTO_TRADER_1|10=115|8=FIX.4.4|9=68|35=0|34=99|49=FIX_GWY_1|52=20250822-09:51:36.000|56=CRYPTO_TRADER_1|10=119|8=FIX.4.4|9=69|35=0|34=100|49=FIX_GWY_1|52=20250822-09:52:06.000|56=CRYPTO_TRADER_1|10=149|8=FIX.4.4|9=69|35=0|34=101|49=FIX_GWY_1|52=20250822-09:52:36.000|56=CRYPTO_TRADER_1|10=153|8=FIX.4.4|9=69|35=0|34=102|49=FIX_GWY_1|52=20250822-09:53:06.000|56=CRYPTO_TRADER_1|10=152|8=FIX.4.4|9=69|35=0|34=103|49=FIX_GWY_1|52=20250822-09:53:36.000|56=CRYPTO_TRADER_1|10=156|8=FIX.4.4|9=69|35=0|34=104|49=FIX_GWY_1|52=20250822-09:54:06.000|56=CRYPTO_TRADER_1|10=155|8=FIX.4.4|9=69|35=0|34=105|49=FIX_GWY_1|52=20250822-09:54:36.000|56=CRYPTO_TRADER_1|10=159|8=FIX.4.4|9=69|35=0|34=106|49=FIX_GWY_1|52=20250822-09:55:06.000|56=CRYPTO_TRADER_1|10=158|8=FIX.4.4|9=69|35=0|34=107|49=FIX_GWY_1|52=20250822-09:55:36.000|56=CRYPTO_TRADER_1|10=162|8=FIX.4.4|9=69|35=0|34=108|49=FIX_GWY_1|52=20250822-09:56:06.000|56=CRYPTO_TRADER_1|10=161|8=FIX.4.4|9=69|35=0|34=109|49=FIX_GWY_1|52=20250822-09:56:36.000|56=CRYPTO_TRADER_1|10=165|8=FIX.4.4|9=69|35=0|34=110|49=FIX_GWY_1|52=20250822-09:57:06.000|56=CRYPTO_TRADER_1|10=155|8=FIX.4.4|9=69|35=0|34=111|49=FIX_GWY_1|52=20250822-09:57:36.000|56=CRYPTO_TRADER_1|10=159|8=FIX.4.4|9=69|35=0|34=112|49=FIX_GWY_1|52=20250822-09:58:06.000|56=CRYPTO_TRADER_1|10=158|8=FIX.4.4|9=69|35=0|34=113|49=FIX_GWY_1|52=20250822-09:58:36.000|56=CRYPTO_TRADER_1|10=162|8=FIX.4.4|9=69|35=0|34=114|49=FIX_GWY_1|52=20250822-09:59:06.000|56=CRYPTO_TRADER_1|10=161|8=FIX.4.4|9=69|35=0|34=115|49=FIX_GWY_1|52=20250822-09:59:36.000|56=CRYPTO_TRADER_1|10=165|8=FIX.4.4|9=69|35=0|34=116|49=FIX_GWY_1|52=20250822-10:00:06.000|56=CRYPTO_TRADER_1|10=141|8=FIX.4.4|9=69|35=0|34=117|49=FIX_GWY_1|52=20250822-10:00:36.000|56=CRYPTO_TRADER_1|10=145|8=FIX.4.4|9=69|35=0|34=118|49=FIX_GWY_1|52=20250822-10:01:06.000|56=CRYPTO_TRADER_1|10=144|8=FIX.4.4|9=69|35=0|34=119|49=FIX_GWY_1|52=20250822-10:01:36.000|56=CRYPTO_TRADER_1|10=148|8=FIX.4.4|9=69|35=0|34=120|49=FIX_GWY_1|52=20250822-10:02:06.000|56=CRYPTO_TRADER_1|10=138|8=FIX.4.4|9=69|35=0|34=121|49=FIX_GWY_1|52=20250822-10:02:36.000|56=CRYPTO_TRADER_1|10=142|8=FIX.4.4|9=69|35=0|34=122|49=FIX_GWY_1|52=20250822-10:03:06.000|56=CRYPTO_TRADER_1|10=141|8=FIX.4.4|9=69|35=0|34=123|49=FIX_GWY_1|52=20250822-10:03:36.000|56=CRYPTO_TRADER_1|10=145|8=FIX.4.4|9=69|35=0|34=124|49=FIX_GWY_1|52=20250822-10:04:06.000|56=CRYPTO_TRADER_1|10=144|8=FIX.4.4|9=69|35=0|34=125|49=FIX_GWY_1|52=20250822-10:04:36.000|56=CRYPTO_TRADER_1|10=148|8=FIX.4.4|9=69|35=0|34=126|49=FIX_GWY_1|52=20250822-10:05:06.000|56=CRYPTO_TRADER_1|10=147|8=FIX.4.4|9=69|35=0|34=127|49=FIX_GWY_1|52=20250822-10:05:36.000|56=CRYPTO_TRADER_1|10=151|8=FIX.4.4|9=69|35=0|34=128|49=FIX_GWY_1|52=20250822-10:06:06.000|56=CRYPTO_TRADER_1|10=150|8=FIX.4.4|9=69|35=0|34=129|49=FIX_GWY_1|52=20250822-10:06:36.000|56=CRYPTO_TRADER_1|10=154|8=FIX.4.4|9=69|35=0|34=130|49=FIX_GWY_1|52=20250822-10:07:06.000|56=CRYPTO_TRADER_1|10=144|8=FIX.4.4|9=69|35=0|34=131|49=FIX_GWY_1|52=20250822-10:07:36.000|56=CRYPTO_TRADER_1|10=148|8=FIX.4.4|9=69|35=0|34=132|49=FIX_GWY_1|52=20250822-10:08:06.000|56=CRYPTO_TRADER_1|10=147|8=FIX.4.4|9=69|35=0|34=133|49=FIX_GWY_1|52=20250822-10:08:36.000|56=CRYPTO_TRADER_1|10=151|8=FIX.4.4|9=69|35=0|34=134|49=FIX_GWY_1|52=20250822-10:09:06.000|56=CRYPTO_TRADER_1|10=150|8=FIX.4.4|9=69|35=0|34=135|49=FIX_GWY_1|52=20250822-10:09:36.000|56=CRYPTO_TRADER_1|10=154|8=FIX.4.4|9=69|35=0|34=136|49=FIX_GWY_1|52=20250822-10:10:06.000|56=CRYPTO_TRADER_1|10=144|