8=FIX.4.4|9=85|35=A|34=1|49=FIX_GWY_1|52=20250822-07:32:32.000|56=CRYPTO_TRADER_1|98=0|108=30|141=Y|10=133|8=FIX.4.4|9=1525|35=y|34=2|49=FIX_GWY_1|52=20250822-07:32:33.000|56=CRYPTO_TRADER_1|146=28|55=ADA-USD|207=OTHER_COIN_MARKET|58={"type":"Crypto"}|55=AVX-AUD|207=OTHER_COIN_MARKET|58={"type":"Crypto"}|55=BCH-CNY|207=OTHER_COIN_MARKET|58={"type":"Crypto"}|55=BTC-AUD|207=BTC_MARKET|58={"type":"Crypto"}|55=BTC-CAD|207=BTC_MARKET|58={"type":"Crypto"}|55=BTC-CNY|207=BTC_MARKET|58={"type":"Crypto"}|55=BTC-EUR|207=BTC_MARKET|58={"type":"Crypto"}|55=BTC-GBP|207=BTC_MARKET|58={"type":"Crypto"}|55=BTC-JPY|207=BTC_MARKET|58={"type":"Crypto"}|55=BTC-USD|207=BTC_MARKET|58={"type":"Crypto"}|55=DAI-USD|207=OTHER_COIN_MARKET|58={"type":"Crypto"}|55=DOT-GBP|207=OTHER_COIN_MARKET|58={"type":"Crypto"}|55=ETH-AUD|207=ETH_MARKET|58={"type":"Crypto"}|55=ETH-CAD|207=ETH_MARKET|58={"type":"Crypto"}|55=ETH-CNY|207=ETH_MARKET|58={"type":"Crypto"}|55=ETH-EUR|207=ETH_MARKET|58={"type":"Crypto"}|55=ETH-GBP|207=ETH_MARKET|58={"type":"Crypto"}|55=ETH-JPY|207=ETH_MARKET|58={"type":"Crypto"}|55=ETH-USD|207=ETH_MARKET|58={"type":"Crypto"}|55=LTC-JPY|207=OTHER_COIN_MARKET|58={"type":"Crypto"}|55=LUN-CAD|207=OTHER_COIN_MARKET|58={"type":"Crypto"}|55=MTC-CAD|207=OTHER_COIN_MARKET|58={"type":"Crypto"}|55=SOL-EUR|207=OTHER_COIN_MARKET|58={"type":"Crypto"}|55=UNI-JPY|207=OTHER_COIN_MARKET|58={"type":"Crypto"}|55=XLM-CNY|207=OTHER_COIN_MARKET|58={"type":"Crypto"}|55=XLM-EUR|207=OTHER_COIN_MARKET|58={"type":"Crypto"}|55=XMR-AUD|207=OTHER_COIN_MARKET|58={"type":"Crypto"}|55=XRP-GBP|207=OTHER_COIN_MARKET|58={"type":"Crypto"}|320=SecurityListRequest1|322=1|560=0|10=034|8=FIX.4.4|9=126|35=W|34=3|49=FIX_GWY_1|52=20250822-07:32:34.000|56=CRYPTO_TRADER_1|55=ADA-USD|207=OTHER_COIN_MARKET|268=1|269=4|270=101|271=0|10=163|8=FIX.4.4|9=126|35=W|34=4|49=FIX_GWY_1|52=20250822-07:32:34.000|56=CRYPTO_TRADER_1|55=AVX-AUD|207=OTHER_COIN_MARKET|268=1|269=4|270=401|271=0|10=190|8=FIX.4.4|9=126|35=W|34=5|49=FIX_GWY_1|52=20250822-07:32:34.000|56=CRYPTO_TRADER_1|55=BCH-CNY|207=OTHER_COIN_MARKET|268=1|269=4|270=401|271=0|10=173|8=FIX.4.4|9=121|35=W|34=6|49=FIX_GWY_1|52=20250822-07:32:34.000|56=CRYPTO_TRADER_1|55=BTC-AUD|207=BTC_MARKET|268=1|269=4|270=40100|271=0|10=212|8=FIX.4.4|9=121|35=W|34=7|49=FIX_GWY_1|52=20250822-07:32:34.000|56=CRYPTO_TRADER_1|55=BTC-CAD|207=BTC_MARKET|268=1|269=4|270=40100|271=0|10=195|8=FIX.4.4|9=121|35=W|34=8|49=FIX_GWY_1|52=20250822-07:32:34.000|56=CRYPTO_TRADER_1|55=BTC-CNY|207=BTC_MARKET|268=1|269=4|270=40100|271=0|10=230|8=FIX.4.4|9=121|35=W|34=9|49=FIX_GWY_1|52=20250822-07:32:34.000|56=CRYPTO_TRADER_1|55=BTC-EUR|207=BTC_MARKET|268=1|269=4|270=20100|271=0|10=231|8=FIX.4.4|9=122|35=W|34=10|49=FIX_GWY_1|52=20250822-07:32:34.000|56=CRYPTO_TRADER_1|55=BTC-GBP|207=BTC_MARKET|268=1|269=4|270=30100|271=0|10=254|8=FIX.4.4|9=122|35=W|34=11|49=FIX_GWY_1|52=20250822-07:32:34.000|56=CRYPTO_TRADER_1|55=BTC-JPY|207=BTC_MARKET|268=1|269=4|270=40100|271=0|10=026|8=FIX.4.4|9=122|35=W|34=12|49=FIX_GWY_1|52=20250822-07:32:34.000|56=CRYPTO_TRADER_1|55=BTC-USD|207=BTC_MARKET|268=1|269=4|270=10100|271=0|10=017|8=FIX.4.4|9=127|35=W|34=13|49=FIX_GWY_1|52=20250822-07:32:34.000|56=CRYPTO_TRADER_1|55=DAI-USD|207=OTHER_COIN_MARKET|268=1|269=4|270=101|271=0|10=221|8=FIX.4.4|9=127|35=W|34=14|49=FIX_GWY_1|52=20250822-07:32:34.000|56=CRYPTO_TRADER_1|55=DOT-GBP|207=OTHER_COIN_MARKET|268=1|269=4|270=301|271=0|10=230|8=FIX.4.4|9=121|35=W|34=15|49=FIX_GWY_1|52=20250822-07:32:34.000|56=CRYPTO_TRADER_1|55=ETH-AUD|207=ETH_MARKET|268=1|269=4|270=4010|271=0|10=228|8=FIX.4.4|9=121|35=W|34=16|49=FIX_GWY_1|52=20250822-07:32:34.000|56=CRYPTO_TRADER_1|55=ETH-CAD|207=ETH_MARKET|268=1|269=4|270=4010|271=0|10=211|8=FIX.4.4|9=121|35=W|34=17|49=FIX_GWY_1|52=20250822-07:32:34.000|56=CRYPTO_TRADER_1|55=ETH-CNY|207=ETH_MARKET|268=1|269=4|270=4010|271=0|10=246|8=FIX.4.4|9=121|35=W|34=18|49=FIX_GWY_1|52=20250822-07:32:34.000|56=CRYPTO_TRADER_1|55=ETH-EUR|207=ETH_MARKET|268=1|269=4|270=2010|271=0|10=247|8=FIX.4.4|9=121|35=W|34=19|49=FIX_GWY_1|52=20250822-07:32:34.000|56=CRYPTO_TRADER_1|55=ETH-GBP|207=ETH_MARKET|268=1|269=4|270=3010|271=0|10=230|8=FIX.4.4|9=121|35=W|34=20|49=FIX_GWY_1|52=20250822-07:32:34.000|56=CRYPTO_TRADER_1|55=ETH-JPY|207=ETH_MARKET|268=1|269=4|270=4010|271=0|10=249|8=FIX.4.4|9=121|35=W|34=21|49=FIX_GWY_1|52=20250822-07:32:34.000|56=CRYPTO_TRADER_1|55=ETH-USD|207=ETH_MARKET|268=1|269=4|270=1010|271=0|10=240|8=FIX.4.4|9=127|35=W|34=22|49=FIX_GWY_1|52=20250822-07:32:34.000|56=CRYPTO_TRADER_1|55=LTC-JPY|207=OTHER_COIN_MARKET|268=1|269=4|270=401|271=0|10=252|8=FIX.4.4|9=127|35=W|34=23|49=FIX_GWY_1|52=20250822-07:32:34.000|56=CRYPTO_TRADER_1|55=LUN-CAD|207=OTHER_COIN_MARKET|268=1|269=4|270=401|271=0|10=222|8=FIX.4.4|9=127|35=W|34=24|49=FIX_GWY_1|52=20250822-07:32:34.000|56=CRYPTO_TRADER_1|55=MTC-CAD|207=OTHER_COIN_MARKET|268=1|269=4|270=401|271=0|10=212|8=FIX.4.4|9=127|35=W|34=25|49=FIX_GWY_1|52=20250822-07:32:34.000|56=CRYPTO_TRADER_1|55=SOL-EUR|207=OTHER_COIN_MARKET|268=1|269=4|270=201|271=0|10=001|8=FIX.4.4|9=127|35=W|34=26|49=FIX_GWY_1|52=20250822-07:32:34.000|56=CRYPTO_TRADER_1|55=UNI-JPY|207=OTHER_COIN_MARKET|268=1|269=4|270=401|271=0|10=009|8=FIX.4.4|9=127|35=W|34=27|49=FIX_GWY_1|52=20250822-07:32:34.000|56=CRYPTO_TRADER_1|55=XLM-CNY|207=OTHER_COIN_MARKET|268=1|269=4|270=401|271=0|10=006|8=FIX.4.4|9=127|35=W|34=28|49=FIX_GWY_1|52=20250822-07:32:34.000|56=CRYPTO_TRADER_1|55=XLM-EUR|207=OTHER_COIN_MARKET|268=1|269=4|270=201|271=0|10=007|8=FIX.4.4|9=127|35=W|34=29|49=FIX_GWY_1|52=20250822-07:32:34.000|56=CRYPTO_TRADER_1|55=XMR-AUD|207=OTHER_COIN_MARKET|268=1|269=4|270=401|271=0|10=254|8=FIX.4.4|9=127|35=W|34=30|49=FIX_GWY_1|52=20250822-07:32:34.000|56=CRYPTO_TRADER_1|55=XRP-GBP|207=OTHER_COIN_MARKET|268=1|269=4|270=301|271=0|10=247|8=FIX.4.4|9=77|35=0|34=31|49=FIX_GWY_1|52=20250822-07:33:10.000|56=CRYPTO_TRADER_1|112=TEST|10=113|8=FIX.4.4|9=244|35=8|34=32|49=FIX_GWY_1|52=20250822-07:33:13.000|56=CRYPTO_TRADER_1|6=0|14=0|17=1000001|31=0|32=0|37=investor_2:1755847952|38=100|39=0|40=2|44=40100|54=1|55=BTC-CNY|58=OK|59=0|60=20250822-07:33:13.416079|99=0|103=0|150=0|151=100|207=BTC_MARKET|10=084|8=FIX.4.4|9=635|35=X|34=33|49=FIX_GWY_1|52=20250822-07:33:13.000|56=CRYPTO_TRADER_1|268=11|279=0|269=0|55=BTC-CNY|207=BTC_MARKET|270=40100|271=100|279=0|269=0|55=BTC-CNY|207=BTC_MARKET|270=0|271=0|279=0|269=0|55=BTC-CNY|207=BTC_MARKET|270=0|271=0|279=0|269=0|55=BTC-CNY|207=BTC_MARKET|270=0|271=0|279=0|269=0|55=BTC-CNY|207=BTC_MARKET|270=0|271=0|279=0|269=1|55=BTC-CNY|207=BTC_MARKET|270=0|271=0|279=0|269=1|55=BTC-CNY|207=BTC_MARKET|270=0|271=0|279=0|269=1|55=BTC-CNY|207=BTC_MARKET|270=0|271=0|279=0|269=1|55=BTC-CNY|207=BTC_MARKET|270=0|271=0|279=0|269=1|55=BTC-CNY|207=BTC_MARKET|270=0|271=0|279=0|269=4|55=BTC-CNY|207=BTC_MARKET|270=40100|271=0|10=131|8=FIX.4.4|9=68|35=0|34=34|49=FIX_GWY_1|52=20250822-07:33:43.000|56=CRYPTO_TRADER_1|10=104|8=FIX.4.4|9=244|35=8|34=35|49=FIX_GWY_1|52=20250822-07:33:43.000|56=CRYPTO_TRADER_1|6=0|14=0|17=1000002|31=0|32=0|37=investor_2:1755847953|38=100|39=0|40=2|44=40200|54=2|55=BTC-CNY|58=OK|59=0|60=20250822-07:33:43.155162|99=0|103=0|150=0|151=100|207=BTC_MARKET|10=090|8=FIX.4.4|9=641|35=X|34=36|49=FIX_GWY_1|52=20250822-07:33:43.000|56=CRYPTO_TRADER_1|268=11|279=0|269=0|55=BTC-CNY|207=BTC_MARKET|270=40100|271=100|279=0|269=0|55=BTC-CNY|207=BTC_MARKET|270=0|271=0|279=0|269=0|55=BTC-CNY|207=BTC_MARKET|270=0|271=0|279=0|269=0|55=BTC-CNY|207=BTC_MARKET|270=0|271=0|279=0|269=0|55=BTC-CNY|207=BTC_MARKET|270=0|271=0|279=0|269=1|55=BTC-CNY|207=BTC_MARKET|270=40200|271=100|279=0|269=1|55=BTC-CNY|207=BTC_MARKET|270=0|271=0|279=0|269=1|55=BTC-CNY|207=BTC_MARKET|270=0|271=0|279=0|269=1|55=BTC-CNY|207=BTC_MARKET|270=0|271=0|279=0|269=1|55=BTC-CNY|207=BTC_MARKET|270=0|271=0|279=0|269=4|55=BTC-CNY|207=BTC_MARKET|270=40100|271=0|10=173|8=FIX.4.4|9=244|35=8|34=37|49=FIX_GWY_1|52=20250822-07:34:07.000|56=CRYPTO_TRADER_1|6=0|14=0|17=1000003|31=0|32=0|37=investor_2:1755847954|38=100|39=0|40=2|44=40150|54=1|55=BTC-CNY|58=OK|59=0|60=20250822-07:34:07.200339|99=0|103=0|150=0|151=100|207=BTC_MARKET|10=096|8=FIX.4.4|9=647|35=X|34=38|49=FIX_GWY_1|52=20250822-07:34:07.000|56=CRYPTO_TRADER_1|268=11|279=0|269=0|55=BTC-CNY|207=BTC_MARKET|270=40150|271=100|279=0|269=0|55=BTC-CNY|207=BTC_MARKET|270=40100|271=100|279=0|269=0|55=BTC-CNY|207=BTC_MARKET|270=0|271=0|279=0|269=0|55=BTC-CNY|207=BTC_MARKET|270=0|271=0|279=0|269=0|55=BTC-CNY|207=BTC_MARKET|270=0|271=0|279=0|269=1|55=BTC-CNY|207=BTC_MARKET|270=40200|271=100|279=0|269=1|55=BTC-CNY|207=BTC_MARKET|270=0|271=0|279=0|269=1|55=BTC-CNY|207=BTC_MARKET|270=0|271=0|279=0|269=1|55=BTC-CNY|207=BTC_MARKET|270=0|271=0|279=0|269=1|55=BTC-CNY|207=BTC_MARKET|270=0|271=0|279=0|269=4|55=BTC-CNY|207=BTC_MARKET|270=40100|271=0|10=225|8=FIX.4.4|9=244|35=8|34=39|49=FIX_GWY_1|52=20250822-07:34:25.000|56=CRYPTO_TRADER_1|6=0|14=0|17=1000004|31=0|32=0|37=investor_2:1755847955|38=100|39=0|40=2|44=40120|54=1|55=BTC-CNY|58=OK|59=0|60=20250822-07:34:25.920535|99=0|103=0|150=0|151=100|207=BTC_MARKET|10=104|8=FIX.4.4|9=653|35=X|34=40|49=FIX_GWY_1|52=20250822-07:34:25.000|56=CRYPTO_TRADER_1|268=11|279=0|269=0|55=BTC-CNY|207=BTC_MARKET|270=40150|271=100|279=0|269=0|55=BTC-CNY|207=BTC_MARKET|270=40120|271=100|279=0|269=0|55=BTC-CNY|207=BTC_MARKET|270=40100|271=100|279=0|269=0|55=BTC-CNY|207=BTC_MARKET|270=0|271=0|279=0|269=0|55=BTC-CNY|207=BTC_MARKET|270=0|271=0|279=0|269=1|55=BTC-CNY|207=BTC_MARKET|270=40200|271=100|279=0|269=1|55=BTC-CNY|207=BTC_MARKET|270=0|271=0|279=0|269=1|55=BTC-CNY|207=BTC_MARKET|270=0|271=0|279=0|269=1|55=BTC-CNY|207=BTC_MARKET|270=0|271=0|279=0|269=1|55=BTC-CNY|207=BTC_MARKET|270=0|271=0|279=0|269=4|55=BTC-CNY|207=BTC_MARKET|270=40100|271=0|10=255|8=FIX.4.4|9=68|35=0|34=41|49=FIX_GWY_1|52=20250822-07:34:55.000|56=CRYPTO_TRADER_1|10=106|8=FIX.4.4|9=244|35=8|34=42|49=FIX_GWY_1|52=20250822-07:34:55.000|56=CRYPTO_TRADER_1|6=0|14=0|17=1000005|31=0|32=0|37=investor_2:1755847956|38=100|39=0|40=2|44=40300|54=1|55=BTC-CNY|58=OK|59=0|60=20250822-07:34:55.653306|99=0|103=0|150=0|151=100|207=BTC_MARKET|10=105|8=FIX.4.4|9=250|35=8|34=43|49=FIX_GWY_1|52=20250822-07:34:55.000|56=CRYPTO_TRADER_1|6=402|14=100|17=1000006|31=402|32=100|37=investor_2:1755847956|38=100|39=2|40=2|44=40300|54=1|55=BTC-CNY|58=OK|59=0|60=20250822-07:34:55.654515|99=0|103=0|150=2|151=0|207=BTC_MARKET|10=156|8=FIX.4.4|9=250|35=8|34=44|49=FIX_GWY_1|52=20250822-07:34:55.000|56=CRYPTO_TRADER_1|6=402|14=100|17=1000007|31=402|32=100|37=investor_2:1755847953|38=100|39=2|40=2|44=40200|54=2|55=BTC-CNY|58=OK|59=0|60=20250822-07:34:55.654517|99=0|103=0|150=2|151=0|207=BTC_MARKET|10=157|8=FIX.4.4|9=807|35=X|34=45|49=FIX_GWY_1|52=20250822-07:34:55.000|56=CRYPTO_TRADER_1|268=14|279=0|269=0|55=BTC-CNY|207=BTC_MARKET|270=40150|271=100|279=0|269=0|55=BTC-CNY|207=BTC_MARKET|270=40120|271=100|279=0|269=0|55=BTC-CNY|207=BTC_MARKET|270=40100|271=100|279=0|269=0|55=BTC-CNY|207=BTC_MARKET|270=0|271=0|279=0|269=0|55=BTC-CNY|207=BTC_MARKET|270=0|271=0|279=0|269=1|55=BTC-CNY|207=BTC_MARKET|270=0|271=0|279=0|269=1|55=BTC-CNY|207=BTC_MARKET|270=0|271=0|279=0|269=1|55=BTC-CNY|207=BTC_MARKET|270=0|271=0|279=0|269=1|55=BTC-CNY|207=BTC_MARKET|270=0|271=0|279=0|269=1|55=BTC-CNY|207=BTC_MARKET|270=0|271=0|279=0|269=2|55=BTC-CNY|207=BTC_MARKET|270=40200|271=0|279=0|269=B|55=BTC-CNY|207=BTC_MARKET|270=0|271=100|279=0|269=4|55=BTC-CNY|207=BTC_MARKET|270=40100|271=0|279=0|269=8|55=BTC-CNY|207=BTC_MARKET|270=40100|271=0|10=183|8=FIX.4.4|9=68|35=0|34=46|49=FIX_GWY_1|52=20250822-07:35:25.000|56=CRYPTO_TRADER_1|10=109|8=FIX.4.4|9=68|35=0|34=47|49=FIX_GWY_1|52=20250822-07:35:55.000|56=CRYPTO_TRADER_1|10=113|8=FIX.4.4|9=244|35=8|34=48|49=FIX_GWY_1|52=20250822-07:36:19.000|56=CRYPTO_TRADER_1|6=0|14=0|17=1000008|31=0|32=0|37=investor_2:1755847957|38=100|39=0|40=2|44=40400|54=1|55=BTC-CNY|58=OK|59=0|60=20250822-07:36:19.609766|99=0|103=0|150=0|151=100|207=BTC_MARKET|10=131|8=FIX.4.4|9=813|35=X|34=49|49=FIX_GWY_1|52=20250822-07:36:19.000|56=CRYPTO_TRADER_1|268=14|279=0|269=0|55=BTC-CNY|207=BTC_MARKET|270=40400|271=100|279=0|269=0|55=BTC-CNY|207=BTC_MARKET|270=40150|271=100|279=0|269=0|55=BTC-CNY|207=BTC_MARKET|270=40120|271=100|279=0|269=0|55=BTC-CNY|207=BTC_MARKET|270=40100|271=100|279=0|269=0|55=BTC-CNY|207=BTC_MARKET|270=0|271=0|279=0|269=1|55=BTC-CNY|207=BTC_MARKET|270=0|271=0|279=0|269=1|55=BTC-CNY|207=BTC_MARKET|270=0|271=0|279=0|269=1|55=BTC-CNY|207=BTC_MARKET|270=0|271=0|279=0|269=1|55=BTC-CNY|207=BTC_MARKET|270=0|271=0|279=0|269=1|55=BTC-CNY|207=BTC_MARKET|270=0|271=0|279=0|269=2|55=BTC-CNY|207=BTC_MARKET|270=40200|271=0|279=0|269=B|55=BTC-CNY|207=BTC_MARKET|270=0|271=100|279=0|269=4|55=BTC-CNY|207=BTC_MARKET|270=40100|271=0|279=0|269=8|55=BTC-CNY|207=BTC_MARKET|270=40100|271=0|10=227|8=FIX.4.4|9=68|35=0|34=50|49=FIX_GWY_1|52=20250822-07:36:49.000|56=CRYPTO_TRADER_1|10=111|8=FIX.4.4|9=68|35=0|34=51|49=FIX_GWY_1|52=20250822-07:37:19.000|56=CRYPTO_TRADER_1|10=110|8=FIX.4.4|9=68|35=0|34=52|49=FIX_GWY_1|52=20250822-07:37:49.000|56=CRYPTO_TRADER_1|10=114|8=FIX.4.4|9=244|35=8|34=53|49=FIX_GWY_1|52=20250822-07:38:11.000|56=CRYPTO_TRADER_1|6=0|14=0|17=1000009|31=0|32=0|37=investor_2:1755847958|38=100|39=0|40=2|44=40500|54=1|55=BTC-CNY|58=OK|59=0|60=20250822-07:38:11.061857|99=0|103=0|150=0|151=100|207=BTC_MARKET|10=111|8=FIX.4.4|9=819|35=X|34=54|49=FIX_GWY_1|52=20250822-07:38:11.000|56=CRYPTO_TRADER_1|268=14|279=0|269=0|55=BTC-CNY|207=BTC_MARKET|270=40500|271=100|279=0|269=0|55=BTC-CNY|207=BTC_MARKET|270=40400|271=100|279=0|269=0|55=BTC-CNY|207=BTC_MARKET|270=40150|271=100|279=0|269=0|55=BTC-CNY|207=BTC_MARKET|270=40120|271=100|279=0|269=0|55=BTC-CNY|207=BTC_MARKET|270=40100|271=100|279=0|269=1|55=BTC-CNY|207=BTC_MARKET|270=0|271=0|279=0|269=1|55=BTC-CNY|207=BTC_MARKET|270=0|271=0|279=0|269=1|55=BTC-CNY|207=BTC_MARKET|270=0|271=0|279=0|269=1|55=BTC-CNY|207=BTC_MARKET|270=0|271=0|279=0|269=1|55=BTC-CNY|207=BTC_MARKET|270=0|271=0|279=0|269=2|55=BTC-CNY|207=BTC_MARKET|270=40200|271=0|279=0|269=B|55=BTC-CNY|207=BTC_MARKET|270=0|271=100|279=0|269=4|55=BTC-CNY|207=BTC_MARKET|270=40100|271=0|279=0|269=8|55=BTC-CNY|207=BTC_MARKET|270=40100|271=0|10=009|8=FIX.4.4|9=68|35=0|34=55|49=FIX_GWY_1|52=20250822-07:38:41.000|56=CRYPTO_TRADER_1|10=110|8=FIX.4.4|9=68|35=0|34=56|49=FIX_GWY_1|52=20250822-07:39:11.000|56=CRYPTO_TRADER_1|10=109|8=FIX.4.4|9=68|35=0|34=57|49=FIX_GWY_1|52=20250822-07:39:41.000|56=CRYPTO_TRADER_1|10=113|8=FIX.4.4|9=68|35=0|34=58|49=FIX_GWY_1|52=20250822-07:40:11.000|56=CRYPTO_TRADER_1|10=103|8=FIX.4.4|9=68|35=0|34=59|49=FIX_GWY_1|52=20250822-07:40:41.000|56=CRYPTO_TRADER_1|10=107|8=FIX.4.4|9=68|35=0|34=60|49=FIX_GWY_1|52=20250822-07:41:11.000|56=CRYPTO_TRADER_1|10=097|8=FIX.4.4|9=244|35=8|34=61|49=FIX_GWY_1|52=20250822-07:41:16.000|56=CRYPTO_TRADER_1|6=0|14=0|17=1000010|31=0|32=0|37=investor_2:1755847959|38=100|39=0|40=2|44=40600|54=1|55=BTC-CNY|58=OK|59=0|60=20250822-07:41:16.319839|99=0|103=0|150=0|151=100|207=BTC_MARKET|10=108|8=FIX.4.4|9=819|35=X|34=62|49=FIX_GWY_1|52=20250822-07:41:16.000|56=CRYPTO_TRADER_1|268=14|279=0|269=0|55=BTC-CNY|207=BTC_MARKET|270=40600|271=100|279=0|269=0|55=BTC-CNY|207=BTC_MARKET|270=40500|271=100|279=0|269=0|55=BTC-CNY|207=BTC_MARKET|270=40400|271=100|279=0|269=0|55=BTC-CNY|207=BTC_MARKET|270=40150|271=100|279=0|269=0|55=BTC-CNY|207=BTC_MARKET|270=40120|271=100|279=0|269=1|55=BTC-CNY|207=BTC_MARKET|270=0|271=0|279=0|269=1|55=BTC-CNY|207=BTC_MARKET|270=0|271=0|279=0|269=1|55=BTC-CNY|207=BTC_MARKET|270=0|271=0|279=0|269=1|55=BTC-CNY|207=BTC_MARKET|270=0|271=0|279=0|269=1|55=BTC-CNY|207=BTC_MARKET|270=0|271=0|279=0|269=2|55=BTC-CNY|207=BTC_MARKET|270=40200|271=0|279=0|269=B|55=BTC-CNY|207=BTC_MARKET|270=0|271=100|279=0|269=4|55=BTC-CNY|207=BTC_MARKET|270=40100|271=0|279=0|269=8|55=BTC-CNY|207=BTC_MARKET|270=40100|271=0|10=012|8=FIX.4.4|9=68|35=0|34=63|49=FIX_GWY_1|52=20250822-07:41:46.000|56=CRYPTO_TRADER_1|10=108|8=FIX.4.4|9=68|35=0|34=64|49=FIX_GWY_1|52=20250822-07:42:16.000|56=CRYPTO_TRADER_1|10=107|8=FIX.4.4|9=68|35=0|34=65|49=FIX_GWY_1|52=20250822-07:42:46.000|56=CRYPTO_TRADER_1|10=111|8=FIX.4.4|9=68|35=0|34=66|49=FIX_GWY_1|52=20250822-07:43:16.000|56=CRYPTO_TRADER_1|10=110|8=FIX.4.4|9=68|35=0|34=67|49=FIX_GWY_1|52=20250822-07:43:46.000|56=CRYPTO_TRADER_1|10=114|8=FIX.4.4|9=244|35=8|34=68|49=FIX_GWY_1|52=20250822-07:44:10.000|56=CRYPTO_TRADER_1|6=0|14=0|17=1000011|31=0|32=0|37=investor_2:1755847960|38=100|39=0|40=2|44=40050|54=1|55=BTC-CNY|58=OK|59=0|60=20250822-07:44:10.178090|99=0|103=0|150=0|151=100|207=BTC_MARKET|10=093|8=FIX.4.4|9=68|35=0|34=69|49=FIX_GWY_1|52=20250822-07:44:40.000|56=CRYPTO_TRADER_1|10=111|8=FIX.4.4|9=244|35=8|34=70|49=FIX_GWY_1|52=20250822-07:44:47.000|56=CRYPTO_TRADER_1|6=0|14=0|17=1000012|31=0|32=0|37=investor_2:1755847961|38=100|39=0|40=2|44=47000|54=2|55=BTC-CNY|58=OK|59=0|60=20250822-07:44:47.502281|99=0|103=0|150=0|151=100|207=BTC_MARKET|10=104|8=FIX.4.4|9=825|35=X|34=71|49=FIX_GWY_1|52=20250822-07:44:47.000|56=CRYPTO_TRADER_1|268=14|279=0|269=0|55=BTC-CNY|207=BTC_MARKET|270=40600|271=100|279=0|269=0|55=BTC-CNY|207=BTC_MARKET|270=40500|271=100|279=0|269=0|55=BTC-CNY|207=BTC_MARKET|270=40400|271=100|279=0|269=0|55=BTC-CNY|207=BTC_MARKET|270=40150|271=100|279=0|269=0|55=BTC-CNY|207=BTC_MARKET|270=40120|271=100|279=0|269=1|55=BTC-CNY|207=BTC_MARKET|270=47000|271=100|279=0|269=1|55=BTC-CNY|207=BTC_MARKET|270=0|271=0|279=0|269=1|55=BTC-CNY|207=BTC_MARKET|270=0|271=0|279=0|269=1|55=BTC-CNY|207=BTC_MARKET|270=0|271=0|279=0|269=1|55=BTC-CNY|207=BTC_MARKET|270=0|271=0|279=0|269=2|55=BTC-CNY|207=BTC_MARKET|270=40200|271=0|279=0|269=B|55=BTC-CNY|207=BTC_MARKET|270=0|271=100|279=0|269=4|55=BTC-CNY|207=BTC_MARKET|270=40100|271=0|279=0|269=8|55=BTC-CNY|207=BTC_MARKET|270=40100|271=0|10=060|8=FIX.4.4|9=68|35=0|34=72|49=FIX_GWY_1|52=20250822-07:45:17.000|56=CRYPTO_TRADER_1|10=110|8=FIX.4.4|9=68|35=0|34=73|49=FIX_GWY_1|52=20250822-07:45:47.000|56=CRYPTO_TRADER_1|10=114|8=FIX.4.4|9=68|35=0|34=74|49=FIX_GWY_1|52=20250822-07:46:17.000|56=CRYPTO_TRADER_1|10=113|8=FIX.4.4|9=68|35=0|34=75|49=FIX_GWY_1|52=20250822-07:46:47.000|56=CRYPTO_TRADER_1|10=117|8=FIX.4.4|9=68|35=0|34=76|49=FIX_GWY_1|52=20250822-07:47:17.000|56=CRYPTO_TRADER_1|10=116|8=FIX.4.4|9=68|35=0|34=77|49=FIX_GWY_1|52=20250822-07:47:47.000|56=CRYPTO_TRADER_1|10=120|8=FIX.4.4|9=68|35=0|34=78|49=FIX_GWY_1|52=20250822-07:48:17.000|56=CRYPTO_TRADER_1|10=119|8=FIX.4.4|9=68|35=0|34=79|49=FIX_GWY_1|52=20250822-07:48:47.000|56=CRYPTO_TRADER_1|10=123|8=FIX.4.4|9=68|35=0|34=80|49=FIX_GWY_1|52=20250822-07:49:17.000|56=CRYPTO_TRADER_1|10=113|8=FIX.4.4|9=68|35=0|34=81|49=FIX_GWY_1|52=20250822-07:49:47.000|56=CRYPTO_TRADER_1|10=117|8=FIX.4.4|9=68|35=0|34=82|49=FIX_GWY_1|52=20250822-07:50:17.000|56=CRYPTO_TRADER_1|10=107|8=FIX.4.4|9=68|35=0|34=83|49=FIX_GWY_1|52=20250822-07:50:47.000|56=CRYPTO_TRADER_1|10=111|8=FIX.4.4|9=68|35=0|34=84|49=FIX_GWY_1|52=20250822-07:51:17.000|56=CRYPTO_TRADER_1|10=110|8=FIX.4.4|9=68|35=0|34=85|49=FIX_GWY_1|52=20250822-07:51:47.000|56=CRYPTO_TRADER_1|10=114|8=FIX.4.4|9=68|35=0|34=86|49=FIX_GWY_1|52=20250822-07:52:17.000|56=CRYPTO_TRADER_1|10=113|8=FIX.4.4|9=68|35=0|34=87|49=FIX_GWY_1|52=20250822-07:52:47.000|56=CRYPTO_TRADER_1|10=117|8=FIX.4.4|9=68|35=0|34=88|49=FIX_GWY_1|52=20250822-07:53:17.000|56=CRYPTO_TRADER_1|10=116|8=FIX.4.4|9=68|35=0|34=89|49=FIX_GWY_1|52=20250822-07:53:47.000|56=CRYPTO_TRADER_1|10=120|8=FIX.4.4|9=68|35=0|34=90|49=FIX_GWY_1|52=20250822-07:54:17.000|56=CRYPTO_TRADER_1|10=110|8=FIX.4.4|9=68|35=0|34=91|49=FIX_GWY_1|52=20250822-07:54:47.000|56=CRYPTO_TRADER_1|10=114|8=FIX.4.4|9=68|35=0|34=92|49=FIX_GWY_1|52=20250822-07:55:17.000|56=CRYPTO_TRADER_1|10=113|8=FIX.4.4|9=68|35=0|34=93|49=FIX_GWY_1|52=20250822-07:55:47.000|56=CRYPTO_TRADER_1|10=117|8=FIX.4.4|9=68|35=0|34=94|49=FIX_GWY_1|52=20250822-07:56:17.000|56=CRYPTO_TRADER_1|10=116|8=FIX.4.4|9=68|35=0|34=95|49=FIX_GWY_1|52=20250822-07:56:47.000|56=CRYPTO_TRADER_1|10=120|8=FIX.4.4|9=68|35=0|34=96|49=FIX_GWY_1|52=20250822-07:57:17.000|56=CRYPTO_TRADER_1|10=119|8=FIX.4.4|9=68|35=0|34=97|49=FIX_GWY_1|52=20250822-07:57:47.000|56=CRYPTO_TRADER_1|10=123|8=FIX.4.4|9=68|35=0|34=98|49=FIX_GWY_1|52=20250822-07:58:17.000|56=CRYPTO_TRADER_1|10=122|8=FIX.4.4|9=68|35=0|34=99|49=FIX_GWY_1|52=20250822-07:58:47.000|56=CRYPTO_TRADER_1|10=126|8=FIX.4.4|9=69|35=0|34=100|49=FIX_GWY_1|52=20250822-07:59:17.000|56=CRYPTO_TRADER_1|10=156|8=FIX.4.4|9=69|35=0|34=101|49=FIX_GWY_1|52=20250822-07:59:47.000|56=CRYPTO_TRADER_1|10=160|8=FIX.4.4|9=69|35=0|34=102|49=FIX_GWY_1|52=20250822-08:00:17.000|56=CRYPTO_TRADER_1|10=145|8=FIX.4.4|9=69|35=0|34=103|49=FIX_GWY_1|52=20250822-08:00:47.000|56=CRYPTO_TRADER_1|10=149|8=FIX.4.4|9=69|35=0|34=104|49=FIX_GWY_1|52=20250822-08:01:17.000|56=CRYPTO_TRADER_1|10=148|8=FIX.4.4|9=69|35=0|34=105|49=FIX_GWY_1|52=20250822-08:01:47.000|56=CRYPTO_TRADER_1|10=152|8=FIX.4.4|9=69|35=0|34=106|49=FIX_GWY_1|52=20250822-08:02:17.000|56=CRYPTO_TRADER_1|10=151|8=FIX.4.4|9=69|35=0|34=107|49=FIX_GWY_1|52=20250822-08:02:47.000|56=CRYPTO_TRADER_1|10=155|8=FIX.4.4|9=69|35=0|34=108|49=FIX_GWY_1|52=20250822-08:03:17.000|56=CRYPTO_TRADER_1|10=154|8=FIX.4.4|9=69|35=0|34=109|49=FIX_GWY_1|52=20250822-08:03:47.000|56=CRYPTO_TRADER_1|10=158|8=FIX.4.4|9=69|35=0|34=110|49=FIX_GWY_1|52=20250822-08:04:17.000|56=CRYPTO_TRADER_1|10=148|8=FIX.4.4|9=69|35=0|34=111|49=FIX_GWY_1|52=20250822-08:04:47.000|56=CRYPTO_TRADER_1|10=152|8=FIX.4.4|9=69|35=0|34=112|49=FIX_GWY_1|52=20250822-08:05:17.000|56=CRYPTO_TRADER_1|10=151|8=FIX.4.4|9=69|35=0|34=113|49=FIX_GWY_1|52=20250822-08:15:46.000|56=CRYPTO_TRADER_1|10=155|8=FIX.4.4|9=69|35=0|34=114|49=FIX_GWY_1|52=20250822-08:16:16.000|56=CRYPTO_TRADER_1|10=154|8=FIX.4.4|9=69|35=0|34=115|49=FIX_GWY_1|52=20250822-08:32:48.000|56=CRYPTO_TRADER_1|10=158|8=FIX.4.4|9=69|35=0|34=116|49=FIX_GWY_1|52=20250822-08:33:18.000|56=CRYPTO_TRADER_1|10=157|8=FIX.4.4|9=69|35=0|34=117|49=FIX_GWY_1|52=20250822-08:33:48.000|56=CRYPTO_TRADER_1|10=161|8=FIX.4.4|9=69|35=0|34=118|49=FIX_GWY_1|52=20250822-08:34:18.000|56=CRYPTO_TRADER_1|10=160|8=FIX.4.4|9=69|35=0|34=119|49=FIX_GWY_1|52=20250822-08:34:48.000|56=CRYPTO_TRADER_1|10=164|8=FIX.4.4|9=69|35=0|34=120|49=FIX_GWY_1|52=20250822-08:35:18.000|56=CRYPTO_TRADER_1|10=154|8=FIX.4.4|9=69|35=0|34=121|49=FIX_GWY_1|52=20250822-08:35:48.000|56=CRYPTO_TRADER_1|10=158|8=FIX.4.4|9=69|35=0|34=122|49=FIX_GWY_1|52=20250822-08:36:18.000|56=CRYPTO_TRADER_1|10=157|8=FIX.4.4|9=69|35=0|34=123|49=FIX_GWY_1|52=20250822-08:36:48.000|56=CRYPTO_TRADER_1|10=161|8=FIX.4.4|9=69|35=0|34=124|49=FIX_GWY_1|52=20250822-08:37:18.000|56=CRYPTO_TRADER_1|10=160|8=FIX.4.4|9=69|35=0|34=125|49=FIX_GWY_1|52=20250822-08:37:48.000|56=CRYPTO_TRADER_1|10=164|8=FIX.4.4|9=69|35=0|34=126|49=FIX_GWY_1|52=20250822-08:38:18.000|56=CRYPTO_TRADER_1|10=163|8=FIX.4.4|9=69|35=0|34=127|49=FIX_GWY_1|52=20250822-08:38:48.000|56=CRYPTO_TRADER_1|10=167|8=FIX.4.4|9=69|35=0|34=128|49=FIX_GWY_1|52=20250822-08:39:18.000|56=CRYPTO_TRADER_1|10=166|8=FIX.4.4|9=69|35=0|34=129|49=FIX_GWY_1|52=20250822-08:39:48.000|56=CRYPTO_TRADER_1|10=170|8=FIX.4.4|9=69|35=0|34=130|49=FIX_GWY_1|52=20250822-08:40:18.000|56=CRYPTO_TRADER_1|10=151|8=FIX.4.4|9=69|35=0|34=131|49=FIX_GWY_1|52=20250822-08:40:48.000|56=CRYPTO_TRADER_1|10=155|8=FIX.4.4|9=69|35=0|34=132|49=FIX_GWY_1|52=20250822-08:41:18.000|56=CRYPTO_TRADER_1|10=154|8=FIX.4.4|9=69|35=0|34=133|49=FIX_GWY_1|52=20250822-08:41:48.000|56=CRYPTO_TRADER_1|10=158|8=FIX.4.4|9=69|35=0|34=134|49=FIX_GWY_1|52=20250822-08:42:18.000|56=CRYPTO_TRADER_1|10=157|8=FIX.4.4|9=69|35=0|34=135|49=FIX_GWY_1|52=20250822-08:42:48.000|56=CRYPTO_TRADER_1|10=161|8=FIX.4.4|9=69|35=0|34=136|49=FIX_GWY_1|52=20250822-08:43:18.000|56=CRYPTO_TRADER_1|10=160|8=FIX.4.4|9=69|35=0|34=137|49=FIX_GWY_1|52=20250822-08:43:48.000|56=CRYPTO_TRADER_1|10=164|8=FIX.4.4|9=69|35=0|34=138|49=FIX_GWY_1|52=20250822-08:44:18.000|56=CRYPTO_TRADER_1|10=163|8=FIX.4.4|9=69|35=0|34=139|49=FIX_GWY_1|52=20250822-08:44:48.000|56=CRYPTO_TRADER_1|10=167|8=FIX.4.4|9=69|35=0|34=140|49=FIX_GWY_1|52=20250822-08:45:18.000|56=CRYPTO_TRADER_1|10=157|8=FIX.4.4|9=69|35=0|34=141|49=FIX_GWY_1|52=20250822-08:45:48.000|56=CRYPTO_TRADER_1|10=161|8=FIX.4.4|9=69|35=0|34=142|49=FIX_GWY_1|52=20250822-08:46:18.000|56=CRYPTO_TRADER_1|10=160|8=FIX.4.4|9=69|35=0|34=143|49=FIX_GWY_1|52=20250822-08:46:48.000|56=CRYPTO_TRADER_1|10=164|8=FIX.4.4|9=69|35=0|34=144|49=FIX_GWY_1|52=20250822-08:47:18.000|56=CRYPTO_TRADER_1|10=163|8=FIX.4.4|9=69|35=0|34=145|49=FIX_GWY_1|52=20250822-08:47:48.000|56=CRYPTO_TRADER_1|10=167|8=FIX.4.4|9=69|35=0|34=146|49=FIX_GWY_1|52=20250822-08:48:18.000|56=CRYPTO_TRADER_1|10=166|8=FIX.4.4|9=69|35=0|34=147|49=FIX_GWY_1|52=20250822-08:48:48.000|56=CRYPTO_TRADER_1|10=170|8=FIX.4.4|9=69|35=0|34=148|49=FIX_GWY_1|52=20250822-08:49:18.000|56=CRYPTO_TRADER_1|10=169|8=FIX.4.4|9=69|35=0|34=149|49=FIX_GWY_1|52=20250822-08:49:48.000|56=CRYPTO_TRADER_1|10=173|8=FIX.4.4|9=69|35=0|34=150|49=FIX_GWY_1|52=20250822-08:50:18.000|56=CRYPTO_TRADER_1|10=154|8=FIX.4.4|9=69|35=0|34=151|49=FIX_GWY_1|52=20250822-08:50:48.000|56=CRYPTO_TRADER_1|10=158|8=FIX.4.4|9=69|35=0|34=152|49=FIX_GWY_1|52=20250822-08:51:18.000|56=CRYPTO_TRADER_1|10=157|8=FIX.4.4|9=69|35=0|34=153|49=FIX_GWY_1|52=20250822-08:51:48.000|56=CRYPTO_TRADER_1|10=161|8=FIX.4.4|9=69|35=0|34=154|49=FIX_GWY_1|52=20250822-08:52:18.000|56=CRYPTO_TRADER_1|10=160|8=FIX.4.4|9=69|35=0|34=155|49=FIX_GWY_1|52=20250822-08:52:48.000|56=CRYPTO_TRADER_1|10=164|8=FIX.4.4|9=69|35=0|34=156|49=FIX_GWY_1|52=20250822-08:53:18.000|56=CRYPTO_TRADER_1|10=163|8=FIX.4.4|9=69|35=0|34=157|49=FIX_GWY_1|52=20250822-08:53:48.000|56=CRYPTO_TRADER_1|10=167|8=FIX.4.4|9=69|35=0|34=158|49=FIX_GWY_1|52=20250822-08:54:18.000|56=CRYPTO_TRADER_1|10=166|8=FIX.4.4|9=69|35=0|34=159|49=FIX_GWY_1|52=20250822-08:54:48.000|56=CRYPTO_TRADER_1|10=170|8=FIX.4.4|9=69|35=0|34=160|49=FIX_GWY_1|52=20250822-08:55:18.000|56=CRYPTO_TRADER_1|10=160|8=FIX.4.4|9=69|35=0|34=161|49=FIX_GWY_1|52=20250822-08:55:48.000|56=CRYPTO_TRADER_1|10=164|8=FIX.4.4|9=69|35=0|34=162|49=FIX_GWY_1|52=20250822-08:56:18.000|56=CRYPTO_TRADER_1|10=163|8=FIX.4.4|9=69|35=0|34=163|49=FIX_GWY_1|52=20250822-08:56:48.000|56=CRYPTO_TRADER_1|10=167|8=FIX.4.4|9=69|35=0|34=164|49=FIX_GWY_1|52=20250822-08:57:18.000|56=CRYPTO_TRADER_1|10=166|8=FIX.4.4|9=69|35=0|34=165|49=FIX_GWY_1|52=20250822-08:57:48.000|56=CRYPTO_TRADER_1|10=170|8=FIX.4.4|9=69|35=0|34=166|49=FIX_GWY_1|52=20250822-08:58:18.000|56=CRYPTO_TRADER_1|10=169|8=FIX.4.4|9=69|35=0|34=167|49=FIX_GWY_1|52=20250822-08:58:48.000|56=CRYPTO_TRADER_1|10=173|8=FIX.4.4|9=69|35=0|34=168|49=FIX_GWY_1|52=20250822-08:59:18.000|56=CRYPTO_TRADER_1|10=172|8=FIX.4.4|9=69|35=0|34=169|49=FIX_GWY_1|52=20250822-08:59:48.000|56=CRYPTO_TRADER_1|10=176|8=FIX.4.4|9=69|35=0|34=170|49=FIX_GWY_1|52=20250822-09:00:18.000|56=CRYPTO_TRADER_1|10=152|8=FIX.4.4|9=69|35=0|34=171|49=FIX_GWY_1|52=20250822-09:00:48.000|56=CRYPTO_TRADER_1|10=156|