2025/08/21 13:15:18.000590 8=FIX.4.4|9=114|35=A|34=1|49=CRYPTO_TRADER_1|52=20250821-13:15:18.000|56=FIX_GWY_1|98=0|108=30|141=Y|553=CRYPTO_TRADER_1|554=TEST|10=056|
2025/08/21 13:15:18.392073 8=FIX.4.4|9=85|35=A|34=1|49=FIX_GWY_1|52=20250821-13:15:18.000|56=CRYPTO_TRADER_1|98=0|108=30|141=Y|10=134|
2025/08/21 13:15:18.392355 8=FIX.4.4|9=98|35=x|34=2|49=CRYPTO_TRADER_1|52=20250821-13:15:18.392|56=FIX_GWY_1|320=SecurityListRequest1|559=4|10=128|
2025/08/21 13:15:18.557659 8=FIX.4.4|9=1525|35=y|34=2|49=FIX_GWY_1|52=20250821-13:15:18.000|56=CRYPTO_TRADER_1|146=28|55=ADA-USD|207=OTHER_COIN_MARKET|58={"type":"Crypto"}|55=AVX-AUD|207=OTHER_COIN_MARKET|58={"type":"Crypto"}|55=BCH-CNY|207=OTHER_COIN_MARKET|58={"type":"Crypto"}|55=BTC-AUD|207=BTC_MARKET|58={"type":"Crypto"}|55=BTC-CAD|207=BTC_MARKET|58={"type":"Crypto"}|55=BTC-CNY|207=BTC_MARKET|58={"type":"Crypto"}|55=BTC-EUR|207=BTC_MARKET|58={"type":"Crypto"}|55=BTC-GBP|207=BTC_MARKET|58={"type":"Crypto"}|55=BTC-JPY|207=BTC_MARKET|58={"type":"Crypto"}|55=BTC-USD|207=BTC_MARKET|58={"type":"Crypto"}|55=DAI-USD|207=OTHER_COIN_MARKET|58={"type":"Crypto"}|55=DOT-GBP|207=OTHER_COIN_MARKET|58={"type":"Crypto"}|55=ETH-AUD|207=ETH_MARKET|58={"type":"Crypto"}|55=ETH-CAD|207=ETH_MARKET|58={"type":"Crypto"}|55=ETH-CNY|207=ETH_MARKET|58={"type":"Crypto"}|55=ETH-EUR|207=ETH_MARKET|58={"type":"Crypto"}|55=ETH-GBP|207=ETH_MARKET|58={"type":"Crypto"}|55=ETH-JPY|207=ETH_MARKET|58={"type":"Crypto"}|55=ETH-USD|207=ETH_MARKET|58={"type":"Crypto"}|55=LTC-JPY|207=OTHER_COIN_MARKET|58={"type":"Crypto"}|55=LUN-CAD|207=OTHER_COIN_MARKET|58={"type":"Crypto"}|55=MTC-CAD|207=OTHER_COIN_MARKET|58={"type":"Crypto"}|55=SOL-EUR|207=OTHER_COIN_MARKET|58={"type":"Crypto"}|55=UNI-JPY|207=OTHER_COIN_MARKET|58={"type":"Crypto"}|55=XLM-CNY|207=OTHER_COIN_MARKET|58={"type":"Crypto"}|55=XLM-EUR|207=OTHER_COIN_MARKET|58={"type":"Crypto"}|55=XMR-AUD|207=OTHER_COIN_MARKET|58={"type":"Crypto"}|55=XRP-GBP|207=OTHER_COIN_MARKET|58={"type":"Crypto"}|320=SecurityListRequest1|322=1|560=0|10=034|
2025/08/21 13:15:18.558041 8=FIX.4.4|9=959|35=V|34=3|49=CRYPTO_TRADER_1|52=20250821-13:15:18.558|56=FIX_GWY_1|146=28|55=ADA-USD|207=OTHER_COIN_MARKET|55=AVX-AUD|207=OTHER_COIN_MARKET|55=BCH-CNY|207=OTHER_COIN_MARKET|55=BTC-AUD|207=BTC_MARKET|55=BTC-CAD|207=BTC_MARKET|55=BTC-CNY|207=BTC_MARKET|55=BTC-EUR|207=BTC_MARKET|55=BTC-GBP|207=BTC_MARKET|55=BTC-JPY|207=BTC_MARKET|55=BTC-USD|207=BTC_MARKET|55=DAI-USD|207=OTHER_COIN_MARKET|55=DOT-GBP|207=OTHER_COIN_MARKET|55=ETH-AUD|207=ETH_MARKET|55=ETH-CAD|207=ETH_MARKET|55=ETH-CNY|207=ETH_MARKET|55=ETH-EUR|207=ETH_MARKET|55=ETH-GBP|207=ETH_MARKET|55=ETH-JPY|207=ETH_MARKET|55=ETH-USD|207=ETH_MARKET|55=LTC-JPY|207=OTHER_COIN_MARKET|55=LUN-CAD|207=OTHER_COIN_MARKET|55=MTC-CAD|207=OTHER_COIN_MARKET|55=SOL-EUR|207=OTHER_COIN_MARKET|55=UNI-JPY|207=OTHER_COIN_MARKET|55=XLM-CNY|207=OTHER_COIN_MARKET|55=XLM-EUR|207=OTHER_COIN_MARKET|55=XMR-AUD|207=OTHER_COIN_MARKET|55=XRP-GBP|207=OTHER_COIN_MARKET|262=MarketDataRequest1|263=1|264=0|265=1|267=2|269=0|269=1|10=186|
2025/08/21 13:15:18.979528 8=FIX.4.4|9=126|35=W|34=3|49=FIX_GWY_1|52=20250821-13:15:18.000|56=CRYPTO_TRADER_1|55=ADA-USD|207=OTHER_COIN_MARKET|268=1|269=4|270=101|271=0|10=162|
2025/08/21 13:15:18.979598 8=FIX.4.4|9=126|35=W|34=4|49=FIX_GWY_1|52=20250821-13:15:18.000|56=CRYPTO_TRADER_1|55=AVX-AUD|207=OTHER_COIN_MARKET|268=1|269=4|270=401|271=0|10=189|
2025/08/21 13:15:18.979671 8=FIX.4.4|9=126|35=W|34=5|49=FIX_GWY_1|52=20250821-13:15:18.000|56=CRYPTO_TRADER_1|55=BCH-CNY|207=OTHER_COIN_MARKET|268=1|269=4|270=401|271=0|10=172|
2025/08/21 13:15:18.979801 8=FIX.4.4|9=121|35=W|34=6|49=FIX_GWY_1|52=20250821-13:15:18.000|56=CRYPTO_TRADER_1|55=BTC-AUD|207=BTC_MARKET|268=1|269=4|270=40100|271=0|10=211|
2025/08/21 13:15:18.979879 8=FIX.4.4|9=121|35=W|34=7|49=FIX_GWY_1|52=20250821-13:15:18.000|56=CRYPTO_TRADER_1|55=BTC-CAD|207=BTC_MARKET|268=1|269=4|270=40100|271=0|10=194|
2025/08/21 13:15:18.980060 8=FIX.4.4|9=366|35=W|34=8|49=FIX_GWY_1|52=20250821-13:15:18.000|56=CRYPTO_TRADER_1|55=BTC-CNY|207=BTC_MARKET|268=14|269=0|270=0|271=0|269=0|270=0|271=0|269=0|270=0|271=0|269=0|270=0|271=0|269=0|270=0|271=0|269=1|270=0|271=0|269=1|270=0|271=0|269=1|270=0|271=0|269=1|270=0|271=0|269=1|270=0|271=0|269=2|270=40200|271=0|269=B|270=0|271=500|269=4|270=40100|271=0|269=8|270=40100|271=0|10=187|
2025/08/21 13:15:18.980115 8=FIX.4.4|9=121|35=W|34=9|49=FIX_GWY_1|52=20250821-13:15:18.000|56=CRYPTO_TRADER_1|55=BTC-EUR|207=BTC_MARKET|268=1|269=4|270=20100|271=0|10=230|
2025/08/21 13:15:18.980170 8=FIX.4.4|9=122|35=W|34=10|49=FIX_GWY_1|52=20250821-13:15:18.000|56=CRYPTO_TRADER_1|55=BTC-GBP|207=BTC_MARKET|268=1|269=4|270=30100|271=0|10=253|
2025/08/21 13:15:18.980217 8=FIX.4.4|9=122|35=W|34=11|49=FIX_GWY_1|52=20250821-13:15:18.000|56=CRYPTO_TRADER_1|55=BTC-JPY|207=BTC_MARKET|268=1|269=4|270=40100|271=0|10=025|
2025/08/21 13:15:18.980267 8=FIX.4.4|9=122|35=W|34=12|49=FIX_GWY_1|52=20250821-13:15:18.000|56=CRYPTO_TRADER_1|55=BTC-USD|207=BTC_MARKET|268=1|269=4|270=10100|271=0|10=016|
2025/08/21 13:15:18.980318 8=FIX.4.4|9=127|35=W|34=13|49=FIX_GWY_1|52=20250821-13:15:18.000|56=CRYPTO_TRADER_1|55=DAI-USD|207=OTHER_COIN_MARKET|268=1|269=4|270=101|271=0|10=220|
2025/08/21 13:15:18.980364 8=FIX.4.4|9=127|35=W|34=14|49=FIX_GWY_1|52=20250821-13:15:18.000|56=CRYPTO_TRADER_1|55=DOT-GBP|207=OTHER_COIN_MARKET|268=1|269=4|270=301|271=0|10=229|
2025/08/21 13:15:18.980417 8=FIX.4.4|9=121|35=W|34=15|49=FIX_GWY_1|52=20250821-13:15:18.000|56=CRYPTO_TRADER_1|55=ETH-AUD|207=ETH_MARKET|268=1|269=4|270=4010|271=0|10=227|
2025/08/21 13:15:18.980465 8=FIX.4.4|9=121|35=W|34=16|49=FIX_GWY_1|52=20250821-13:15:18.000|56=CRYPTO_TRADER_1|55=ETH-CAD|207=ETH_MARKET|268=1|269=4|270=4010|271=0|10=210|
2025/08/21 13:15:18.980515 8=FIX.4.4|9=121|35=W|34=17|49=FIX_GWY_1|52=20250821-13:15:18.000|56=CRYPTO_TRADER_1|55=ETH-CNY|207=ETH_MARKET|268=1|269=4|270=4010|271=0|10=245|
2025/08/21 13:15:18.980582 8=FIX.4.4|9=121|35=W|34=18|49=FIX_GWY_1|52=20250821-13:15:18.000|56=CRYPTO_TRADER_1|55=ETH-EUR|207=ETH_MARKET|268=1|269=4|270=2010|271=0|10=246|
2025/08/21 13:15:18.980642 8=FIX.4.4|9=121|35=W|34=19|49=FIX_GWY_1|52=20250821-13:15:18.000|56=CRYPTO_TRADER_1|55=ETH-GBP|207=ETH_MARKET|268=1|269=4|270=3010|271=0|10=229|
2025/08/21 13:15:18.980695 8=FIX.4.4|9=121|35=W|34=20|49=FIX_GWY_1|52=20250821-13:15:18.000|56=CRYPTO_TRADER_1|55=ETH-JPY|207=ETH_MARKET|268=1|269=4|270=4010|271=0|10=248|
2025/08/21 13:15:18.980737 8=FIX.4.4|9=121|35=W|34=21|49=FIX_GWY_1|52=20250821-13:15:18.000|56=CRYPTO_TRADER_1|55=ETH-USD|207=ETH_MARKET|268=1|269=4|270=1010|271=0|10=239|
2025/08/21 13:15:18.980784 8=FIX.4.4|9=127|35=W|34=22|49=FIX_GWY_1|52=20250821-13:15:18.000|56=CRYPTO_TRADER_1|55=LTC-JPY|207=OTHER_COIN_MARKET|268=1|269=4|270=401|271=0|10=251|
2025/08/21 13:15:18.980835 8=FIX.4.4|9=127|35=W|34=23|49=FIX_GWY_1|52=20250821-13:15:18.000|56=CRYPTO_TRADER_1|55=LUN-CAD|207=OTHER_COIN_MARKET|268=1|269=4|270=401|271=0|10=221|
2025/08/21 13:15:18.980872 8=FIX.4.4|9=127|35=W|34=24|49=FIX_GWY_1|52=20250821-13:15:18.000|56=CRYPTO_TRADER_1|55=MTC-CAD|207=OTHER_COIN_MARKET|268=1|269=4|270=401|271=0|10=211|
2025/08/21 13:15:18.980920 8=FIX.4.4|9=127|35=W|34=25|49=FIX_GWY_1|52=20250821-13:15:18.000|56=CRYPTO_TRADER_1|55=SOL-EUR|207=OTHER_COIN_MARKET|268=1|269=4|270=201|271=0|10=000|
2025/08/21 13:15:18.980952 8=FIX.4.4|9=127|35=W|34=26|49=FIX_GWY_1|52=20250821-13:15:18.000|56=CRYPTO_TRADER_1|55=UNI-JPY|207=OTHER_COIN_MARKET|268=1|269=4|270=401|271=0|10=008|
2025/08/21 13:15:18.981014 8=FIX.4.4|9=127|35=W|34=27|49=FIX_GWY_1|52=20250821-13:15:18.000|56=CRYPTO_TRADER_1|55=XLM-CNY|207=OTHER_COIN_MARKET|268=1|269=4|270=401|271=0|10=005|
2025/08/21 13:15:18.981063 8=FIX.4.4|9=127|35=W|34=28|49=FIX_GWY_1|52=20250821-13:15:18.000|56=CRYPTO_TRADER_1|55=XLM-EUR|207=OTHER_COIN_MARKET|268=1|269=4|270=201|271=0|10=006|
2025/08/21 13:15:18.981109 8=FIX.4.4|9=127|35=W|34=29|49=FIX_GWY_1|52=20250821-13:15:18.000|56=CRYPTO_TRADER_1|55=XMR-AUD|207=OTHER_COIN_MARKET|268=1|269=4|270=401|271=0|10=253|
2025/08/21 13:15:18.981142 8=FIX.4.4|9=127|35=W|34=30|49=FIX_GWY_1|52=20250821-13:15:18.000|56=CRYPTO_TRADER_1|55=XRP-GBP|207=OTHER_COIN_MARKET|268=1|269=4|270=301|271=0|10=246|
2025/08/21 13:15:48.558353 8=FIX.4.4|9=67|35=0|34=4|49=CRYPTO_TRADER_1|52=20250821-13:15:48.558|56=FIX_GWY_1|10=071|
2025/08/21 13:15:48.559730 8=FIX.4.4|9=68|35=0|34=31|49=FIX_GWY_1|52=20250821-13:15:48.000|56=CRYPTO_TRADER_1|10=102|
2025/08/21 13:16:18.556311 8=FIX.4.4|9=67|35=0|34=5|49=CRYPTO_TRADER_1|52=20250821-13:16:18.556|56=FIX_GWY_1|10=068|
2025/08/21 13:16:18.557225 8=FIX.4.4|9=68|35=0|34=32|49=FIX_GWY_1|52=20250821-13:16:18.000|56=CRYPTO_TRADER_1|10=101|
2025/08/21 13:16:48.549574 8=FIX.4.4|9=67|35=0|34=6|49=CRYPTO_TRADER_1|52=20250821-13:16:48.549|56=FIX_GWY_1|10=074|
2025/08/21 13:16:48.550417 8=FIX.4.4|9=68|35=0|34=33|49=FIX_GWY_1|52=20250821-13:16:48.000|56=CRYPTO_TRADER_1|10=105|
2025/08/21 13:17:18.549128 8=FIX.4.4|9=67|35=0|34=7|49=CRYPTO_TRADER_1|52=20250821-13:17:18.549|56=FIX_GWY_1|10=073|
2025/08/21 13:17:18.554490 8=FIX.4.4|9=68|35=0|34=34|49=FIX_GWY_1|52=20250821-13:17:18.000|56=CRYPTO_TRADER_1|10=104|
2025/08/21 13:17:48.551151 8=FIX.4.4|9=67|35=0|34=8|49=CRYPTO_TRADER_1|52=20250821-13:17:48.551|56=FIX_GWY_1|10=070|
2025/08/21 13:17:48.551666 8=FIX.4.4|9=68|35=0|34=35|49=FIX_GWY_1|52=20250821-13:17:48.000|56=CRYPTO_TRADER_1|10=108|
2025/08/21 13:18:18.550754 8=FIX.4.4|9=67|35=0|34=9|49=CRYPTO_TRADER_1|52=20250821-13:18:18.550|56=FIX_GWY_1|10=068|
2025/08/21 13:18:18.551231 8=FIX.4.4|9=68|35=0|34=36|49=FIX_GWY_1|52=20250821-13:18:18.000|56=CRYPTO_TRADER_1|10=107|
2025/08/21 13:18:48.550946 8=FIX.4.4|9=68|35=0|34=10|49=CRYPTO_TRADER_1|52=20250821-13:18:48.550|56=FIX_GWY_1|10=112|
2025/08/21 13:18:48.551470 8=FIX.4.4|9=68|35=0|34=37|49=FIX_GWY_1|52=20250821-13:18:48.000|56=CRYPTO_TRADER_1|10=111|
2025/08/21 13:19:18.550983 8=FIX.4.4|9=68|35=0|34=11|49=CRYPTO_TRADER_1|52=20250821-13:19:18.550|56=FIX_GWY_1|10=111|
2025/08/21 13:19:18.552634 8=FIX.4.4|9=68|35=0|34=38|49=FIX_GWY_1|52=20250821-13:19:18.000|56=CRYPTO_TRADER_1|10=110|
2025/08/21 13:19:48.552223 8=FIX.4.4|9=68|35=0|34=12|49=CRYPTO_TRADER_1|52=20250821-13:19:48.552|56=FIX_GWY_1|10=117|
2025/08/21 13:19:48.553866 8=FIX.4.4|9=68|35=0|34=39|49=FIX_GWY_1|52=20250821-13:19:48.000|56=CRYPTO_TRADER_1|10=114|
2025/08/21 13:20:18.552992 8=FIX.4.4|9=68|35=0|34=13|49=CRYPTO_TRADER_1|52=20250821-13:20:18.552|56=FIX_GWY_1|10=107|
2025/08/21 13:20:18.553313 8=FIX.4.4|9=68|35=0|34=40|49=FIX_GWY_1|52=20250821-13:20:18.000|56=CRYPTO_TRADER_1|10=095|
2025/08/21 13:20:48.553297 8=FIX.4.4|9=68|35=0|34=14|49=CRYPTO_TRADER_1|52=20250821-13:20:48.553|56=FIX_GWY_1|10=112|
2025/08/21 13:20:48.554990 8=FIX.4.4|9=68|35=0|34=41|49=FIX_GWY_1|52=20250821-13:20:48.000|56=CRYPTO_TRADER_1|10=099|
2025/08/21 13:21:18.554376 8=FIX.4.4|9=68|35=0|34=15|49=CRYPTO_TRADER_1|52=20250821-13:21:18.554|56=FIX_GWY_1|10=112|
2025/08/21 13:21:18.556519 8=FIX.4.4|9=68|35=0|34=42|49=FIX_GWY_1|52=20250821-13:21:18.000|56=CRYPTO_TRADER_1|10=098|
2025/08/21 13:21:48.555319 8=FIX.4.4|9=68|35=0|34=16|49=CRYPTO_TRADER_1|52=20250821-13:21:48.555|56=FIX_GWY_1|10=117|
2025/08/21 13:21:48.555776 8=FIX.4.4|9=68|35=0|34=43|49=FIX_GWY_1|52=20250821-13:21:48.000|56=CRYPTO_TRADER_1|10=102|
2025/08/21 13:22:18.555233 8=FIX.4.4|9=68|35=0|34=17|49=CRYPTO_TRADER_1|52=20250821-13:22:18.555|56=FIX_GWY_1|10=116|
2025/08/21 13:22:18.556590 8=FIX.4.4|9=68|35=0|34=44|49=FIX_GWY_1|52=20250821-13:22:18.000|56=CRYPTO_TRADER_1|10=101|
2025/08/21 13:22:48.555739 8=FIX.4.4|9=68|35=0|34=18|49=CRYPTO_TRADER_1|52=20250821-13:22:48.555|56=FIX_GWY_1|10=120|
2025/08/21 13:22:48.556947 8=FIX.4.4|9=68|35=0|34=45|49=FIX_GWY_1|52=20250821-13:22:48.000|56=CRYPTO_TRADER_1|10=105|
2025/08/21 13:23:18.555662 8=FIX.4.4|9=68|35=0|34=19|49=CRYPTO_TRADER_1|52=20250821-13:23:18.555|56=FIX_GWY_1|10=119|
2025/08/21 13:23:18.556500 8=FIX.4.4|9=68|35=0|34=46|49=FIX_GWY_1|52=20250821-13:23:18.000|56=CRYPTO_TRADER_1|10=104|
2025/08/21 13:23:48.555561 8=FIX.4.4|9=68|35=0|34=20|49=CRYPTO_TRADER_1|52=20250821-13:23:48.555|56=FIX_GWY_1|10=114|
2025/08/21 13:23:48.555902 8=FIX.4.4|9=68|35=0|34=47|49=FIX_GWY_1|52=20250821-13:23:48.000|56=CRYPTO_TRADER_1|10=108|
2025/08/21 13:24:18.555909 8=FIX.4.4|9=68|35=0|34=21|49=CRYPTO_TRADER_1|52=20250821-13:24:18.555|56=FIX_GWY_1|10=113|
2025/08/21 13:24:18.557016 8=FIX.4.4|9=68|35=0|34=48|49=FIX_GWY_1|52=20250821-13:24:18.000|56=CRYPTO_TRADER_1|10=107|
2025/08/21 13:24:48.556249 8=FIX.4.4|9=68|35=0|34=22|49=CRYPTO_TRADER_1|52=20250821-13:24:48.556|56=FIX_GWY_1|10=118|
2025/08/21 13:24:48.557387 8=FIX.4.4|9=68|35=0|34=49|49=FIX_GWY_1|52=20250821-13:24:48.000|56=CRYPTO_TRADER_1|10=111|
2025/08/21 13:25:18.556009 8=FIX.4.4|9=68|35=0|34=23|49=CRYPTO_TRADER_1|52=20250821-13:25:18.555|56=FIX_GWY_1|10=116|
2025/08/21 13:25:18.557525 8=FIX.4.4|9=68|35=0|34=50|49=FIX_GWY_1|52=20250821-13:25:18.000|56=CRYPTO_TRADER_1|10=101|
2025/08/21 13:25:48.555866 8=FIX.4.4|9=68|35=0|34=24|49=CRYPTO_TRADER_1|52=20250821-13:25:48.555|56=FIX_GWY_1|10=120|
2025/08/21 13:25:48.557057 8=FIX.4.4|9=68|35=0|34=51|49=FIX_GWY_1|52=20250821-13:25:48.000|56=CRYPTO_TRADER_1|10=105|
2025/08/21 13:26:18.556427 8=FIX.4.4|9=68|35=0|34=25|49=CRYPTO_TRADER_1|52=20250821-13:26:18.556|56=FIX_GWY_1|10=120|
2025/08/21 13:26:18.556828 8=FIX.4.4|9=68|35=0|34=52|49=FIX_GWY_1|52=20250821-13:26:18.000|56=CRYPTO_TRADER_1|10=104|
2025/08/21 13:26:29.000539 8=FIX.4.4|9=114|35=A|34=1|49=CRYPTO_TRADER_1|52=20250821-13:26:29.000|56=FIX_GWY_1|98=0|108=30|141=Y|553=CRYPTO_TRADER_1|554=TEST|10=060|
2025/08/21 13:26:29.834800 8=FIX.4.4|9=85|35=A|34=1|49=FIX_GWY_1|52=20250821-13:26:29.000|56=CRYPTO_TRADER_1|98=0|108=30|141=Y|10=138|
2025/08/21 13:26:29.834932 8=FIX.4.4|9=98|35=x|34=2|49=CRYPTO_TRADER_1|52=20250821-13:26:29.834|56=FIX_GWY_1|320=SecurityListRequest1|559=4|10=133|
2025/08/21 13:26:30.069747 8=FIX.4.4|9=1525|35=y|34=2|49=FIX_GWY_1|52=20250821-13:26:30.000|56=CRYPTO_TRADER_1|146=28|55=ADA-USD|207=OTHER_COIN_MARKET|58={"type":"Crypto"}|55=AVX-AUD|207=OTHER_COIN_MARKET|58={"type":"Crypto"}|55=BCH-CNY|207=OTHER_COIN_MARKET|58={"type":"Crypto"}|55=BTC-AUD|207=BTC_MARKET|58={"type":"Crypto"}|55=BTC-CAD|207=BTC_MARKET|58={"type":"Crypto"}|55=BTC-CNY|207=BTC_MARKET|58={"type":"Crypto"}|55=BTC-EUR|207=BTC_MARKET|58={"type":"Crypto"}|55=BTC-GBP|207=BTC_MARKET|58={"type":"Crypto"}|55=BTC-JPY|207=BTC_MARKET|58={"type":"Crypto"}|55=BTC-USD|207=BTC_MARKET|58={"type":"Crypto"}|55=DAI-USD|207=OTHER_COIN_MARKET|58={"type":"Crypto"}|55=DOT-GBP|207=OTHER_COIN_MARKET|58={"type":"Crypto"}|55=ETH-AUD|207=ETH_MARKET|58={"type":"Crypto"}|55=ETH-CAD|207=ETH_MARKET|58={"type":"Crypto"}|55=ETH-CNY|207=ETH_MARKET|58={"type":"Crypto"}|55=ETH-EUR|207=ETH_MARKET|58={"type":"Crypto"}|55=ETH-GBP|207=ETH_MARKET|58={"type":"Crypto"}|55=ETH-JPY|207=ETH_MARKET|58={"type":"Crypto"}|55=ETH-USD|207=ETH_MARKET|58={"type":"Crypto"}|55=LTC-JPY|207=OTHER_COIN_MARKET|58={"type":"Crypto"}|55=LUN-CAD|207=OTHER_COIN_MARKET|58={"type":"Crypto"}|55=MTC-CAD|207=OTHER_COIN_MARKET|58={"type":"Crypto"}|55=SOL-EUR|207=OTHER_COIN_MARKET|58={"type":"Crypto"}|55=UNI-JPY|207=OTHER_COIN_MARKET|58={"type":"Crypto"}|55=XLM-CNY|207=OTHER_COIN_MARKET|58={"type":"Crypto"}|55=XLM-EUR|207=OTHER_COIN_MARKET|58={"type":"Crypto"}|55=XMR-AUD|207=OTHER_COIN_MARKET|58={"type":"Crypto"}|55=XRP-GBP|207=OTHER_COIN_MARKET|58={"type":"Crypto"}|320=SecurityListRequest1|322=1|560=0|10=030|
2025/08/21 13:26:30.070117 8=FIX.4.4|9=959|35=V|34=3|49=CRYPTO_TRADER_1|52=20250821-13:26:30.070|56=FIX_GWY_1|146=28|55=ADA-USD|207=OTHER_COIN_MARKET|55=AVX-AUD|207=OTHER_COIN_MARKET|55=BCH-CNY|207=OTHER_COIN_MARKET|55=BTC-AUD|207=BTC_MARKET|55=BTC-CAD|207=BTC_MARKET|55=BTC-CNY|207=BTC_MARKET|55=BTC-EUR|207=BTC_MARKET|55=BTC-GBP|207=BTC_MARKET|55=BTC-JPY|207=BTC_MARKET|55=BTC-USD|207=BTC_MARKET|55=DAI-USD|207=OTHER_COIN_MARKET|55=DOT-GBP|207=OTHER_COIN_MARKET|55=ETH-AUD|207=ETH_MARKET|55=ETH-CAD|207=ETH_MARKET|55=ETH-CNY|207=ETH_MARKET|55=ETH-EUR|207=ETH_MARKET|55=ETH-GBP|207=ETH_MARKET|55=ETH-JPY|207=ETH_MARKET|55=ETH-USD|207=ETH_MARKET|55=LTC-JPY|207=OTHER_COIN_MARKET|55=LUN-CAD|207=OTHER_COIN_MARKET|55=MTC-CAD|207=OTHER_COIN_MARKET|55=SOL-EUR|207=OTHER_COIN_MARKET|55=UNI-JPY|207=OTHER_COIN_MARKET|55=XLM-CNY|207=OTHER_COIN_MARKET|55=XLM-EUR|207=OTHER_COIN_MARKET|55=XMR-AUD|207=OTHER_COIN_MARKET|55=XRP-GBP|207=OTHER_COIN_MARKET|262=MarketDataRequest1|263=1|264=0|265=1|267=2|269=0|269=1|10=171|
2025/08/21 13:26:30.613807 8=FIX.4.4|9=126|35=W|34=3|49=FIX_GWY_1|52=20250821-13:26:30.000|56=CRYPTO_TRADER_1|55=ADA-USD|207=OTHER_COIN_MARKET|268=1|269=4|270=101|271=0|10=158|
2025/08/21 13:26:30.613914 8=FIX.4.4|9=126|35=W|34=4|49=FIX_GWY_1|52=20250821-13:26:30.000|56=CRYPTO_TRADER_1|55=AVX-AUD|207=OTHER_COIN_MARKET|268=1|269=4|270=401|271=0|10=185|
2025/08/21 13:26:30.613936 8=FIX.4.4|9=126|35=W|34=5|49=FIX_GWY_1|52=20250821-13:26:30.000|56=CRYPTO_TRADER_1|55=BCH-CNY|207=OTHER_COIN_MARKET|268=1|269=4|270=401|271=0|10=168|
2025/08/21 13:26:30.613948 8=FIX.4.4|9=121|35=W|34=6|49=FIX_GWY_1|52=20250821-13:26:30.000|56=CRYPTO_TRADER_1|55=BTC-AUD|207=BTC_MARKET|268=1|269=4|270=40100|271=0|10=207|
2025/08/21 13:26:30.614069 8=FIX.4.4|9=121|35=W|34=7|49=FIX_GWY_1|52=20250821-13:26:30.000|56=CRYPTO_TRADER_1|55=BTC-CAD|207=BTC_MARKET|268=1|269=4|270=40100|271=0|10=190|
2025/08/21 13:26:30.614283 8=FIX.4.4|9=366|35=W|34=8|49=FIX_GWY_1|52=20250821-13:26:30.000|56=CRYPTO_TRADER_1|55=BTC-CNY|207=BTC_MARKET|268=14|269=0|270=0|271=0|269=0|270=0|271=0|269=0|270=0|271=0|269=0|270=0|271=0|269=0|270=0|271=0|269=1|270=0|271=0|269=1|270=0|271=0|269=1|270=0|271=0|269=1|270=0|271=0|269=1|270=0|271=0|269=2|270=40200|271=0|269=B|270=0|271=500|269=4|270=40100|271=0|269=8|270=40100|271=0|10=183|
2025/08/21 13:26:30.614406 8=FIX.4.4|9=121|35=W|34=9|49=FIX_GWY_1|52=20250821-13:26:30.000|56=CRYPTO_TRADER_1|55=BTC-EUR|207=BTC_MARKET|268=1|269=4|270=20100|271=0|10=226|
2025/08/21 13:26:30.614493 8=FIX.4.4|9=122|35=W|34=10|49=FIX_GWY_1|52=20250821-13:26:30.000|56=CRYPTO_TRADER_1|55=BTC-GBP|207=BTC_MARKET|268=1|269=4|270=30100|271=0|10=249|
2025/08/21 13:26:30.614550 8=FIX.4.4|9=122|35=W|34=11|49=FIX_GWY_1|52=20250821-13:26:30.000|56=CRYPTO_TRADER_1|55=BTC-JPY|207=BTC_MARKET|268=1|269=4|270=40100|271=0|10=021|
2025/08/21 13:26:30.614604 8=FIX.4.4|9=122|35=W|34=12|49=FIX_GWY_1|52=20250821-13:26:30.000|56=CRYPTO_TRADER_1|55=BTC-USD|207=BTC_MARKET|268=1|269=4|270=10100|271=0|10=012|
2025/08/21 13:26:30.614712 8=FIX.4.4|9=127|35=W|34=13|49=FIX_GWY_1|52=20250821-13:26:30.000|56=CRYPTO_TRADER_1|55=DAI-USD|207=OTHER_COIN_MARKET|268=1|269=4|270=101|271=0|10=216|
2025/08/21 13:26:30.614842 8=FIX.4.4|9=127|35=W|34=14|49=FIX_GWY_1|52=20250821-13:26:30.000|56=CRYPTO_TRADER_1|55=DOT-GBP|207=OTHER_COIN_MARKET|268=1|269=4|270=301|271=0|10=225|
2025/08/21 13:26:30.614914 8=FIX.4.4|9=121|35=W|34=15|49=FIX_GWY_1|52=20250821-13:26:30.000|56=CRYPTO_TRADER_1|55=ETH-AUD|207=ETH_MARKET|268=1|269=4|270=4010|271=0|10=223|
2025/08/21 13:26:30.615045 8=FIX.4.4|9=121|35=W|34=16|49=FIX_GWY_1|52=20250821-13:26:30.000|56=CRYPTO_TRADER_1|55=ETH-CAD|207=ETH_MARKET|268=1|269=4|270=4010|271=0|10=206|
2025/08/21 13:26:30.615106 8=FIX.4.4|9=121|35=W|34=17|49=FIX_GWY_1|52=20250821-13:26:30.000|56=CRYPTO_TRADER_1|55=ETH-CNY|207=ETH_MARKET|268=1|269=4|270=4010|271=0|10=241|
2025/08/21 13:26:30.615194 8=FIX.4.4|9=121|35=W|34=18|49=FIX_GWY_1|52=20250821-13:26:30.000|56=CRYPTO_TRADER_1|55=ETH-EUR|207=ETH_MARKET|268=1|269=4|270=2010|271=0|10=242|
2025/08/21 13:26:30.615276 8=FIX.4.4|9=121|35=W|34=19|49=FIX_GWY_1|52=20250821-13:26:30.000|56=CRYPTO_TRADER_1|55=ETH-GBP|207=ETH_MARKET|268=1|269=4|270=3010|271=0|10=225|
2025/08/21 13:26:30.615322 8=FIX.4.4|9=121|35=W|34=20|49=FIX_GWY_1|52=20250821-13:26:30.000|56=CRYPTO_TRADER_1|55=ETH-JPY|207=ETH_MARKET|268=1|269=4|270=4010|271=0|10=244|
2025/08/21 13:26:30.615408 8=FIX.4.4|9=121|35=W|34=21|49=FIX_GWY_1|52=20250821-13:26:30.000|56=CRYPTO_TRADER_1|55=ETH-USD|207=ETH_MARKET|268=1|269=4|270=1010|271=0|10=235|
2025/08/21 13:26:30.615528 8=FIX.4.4|9=127|35=W|34=22|49=FIX_GWY_1|52=20250821-13:26:30.000|56=CRYPTO_TRADER_1|55=LTC-JPY|207=OTHER_COIN_MARKET|268=1|269=4|270=401|271=0|10=247|
2025/08/21 13:26:30.615572 8=FIX.4.4|9=127|35=W|34=23|49=FIX_GWY_1|52=20250821-13:26:30.000|56=CRYPTO_TRADER_1|55=LUN-CAD|207=OTHER_COIN_MARKET|268=1|269=4|270=401|271=0|10=217|
2025/08/21 13:26:30.615629 8=FIX.4.4|9=127|35=W|34=24|49=FIX_GWY_1|52=20250821-13:26:30.000|56=CRYPTO_TRADER_1|55=MTC-CAD|207=OTHER_COIN_MARKET|268=1|269=4|270=401|271=0|10=207|
2025/08/21 13:26:30.615675 8=FIX.4.4|9=127|35=W|34=25|49=FIX_GWY_1|52=20250821-13:26:30.000|56=CRYPTO_TRADER_1|55=SOL-EUR|207=OTHER_COIN_MARKET|268=1|269=4|270=201|271=0|10=252|
2025/08/21 13:26:30.615718 8=FIX.4.4|9=127|35=W|34=26|49=FIX_GWY_1|52=20250821-13:26:30.000|56=CRYPTO_TRADER_1|55=UNI-JPY|207=OTHER_COIN_MARKET|268=1|269=4|270=401|271=0|10=004|
2025/08/21 13:26:30.615764 8=FIX.4.4|9=127|35=W|34=27|49=FIX_GWY_1|52=20250821-13:26:30.000|56=CRYPTO_TRADER_1|55=XLM-CNY|207=OTHER_COIN_MARKET|268=1|269=4|270=401|271=0|10=001|
2025/08/21 13:26:30.615806 8=FIX.4.4|9=127|35=W|34=28|49=FIX_GWY_1|52=20250821-13:26:30.000|56=CRYPTO_TRADER_1|55=XLM-EUR|207=OTHER_COIN_MARKET|268=1|269=4|270=201|271=0|10=002|
2025/08/21 13:26:30.615854 8=FIX.4.4|9=127|35=W|34=29|49=FIX_GWY_1|52=20250821-13:26:30.000|56=CRYPTO_TRADER_1|55=XMR-AUD|207=OTHER_COIN_MARKET|268=1|269=4|270=401|271=0|10=249|
2025/08/21 13:26:30.615900 8=FIX.4.4|9=127|35=W|34=30|49=FIX_GWY_1|52=20250821-13:26:30.000|56=CRYPTO_TRADER_1|55=XRP-GBP|207=OTHER_COIN_MARKET|268=1|269=4|270=301|271=0|10=242|
2025/08/21 13:27:00.069687 8=FIX.4.4|9=67|35=0|34=4|49=CRYPTO_TRADER_1|52=20250821-13:27:00.069|56=FIX_GWY_1|10=059|
2025/08/21 13:27:00.070992 8=FIX.4.4|9=68|35=0|34=31|49=FIX_GWY_1|52=20250821-13:27:00.000|56=CRYPTO_TRADER_1|10=093|
2025/08/21 13:27:30.070174 8=FIX.4.4|9=67|35=0|34=5|49=CRYPTO_TRADER_1|52=20250821-13:27:30.070|56=FIX_GWY_1|10=055|
2025/08/21 13:27:30.071747 8=FIX.4.4|9=68|35=0|34=32|49=FIX_GWY_1|52=20250821-13:27:30.000|56=CRYPTO_TRADER_1|10=097|
2025/08/21 13:28:00.070063 8=FIX.4.4|9=67|35=0|34=6|49=CRYPTO_TRADER_1|52=20250821-13:28:00.070|56=FIX_GWY_1|10=054|
2025/08/21 13:28:00.071295 8=FIX.4.4|9=68|35=0|34=33|49=FIX_GWY_1|52=20250821-13:28:00.000|56=CRYPTO_TRADER_1|10=096|
2025/08/21 13:28:30.070245 8=FIX.4.4|9=67|35=0|34=7|49=CRYPTO_TRADER_1|52=20250821-13:28:30.070|56=FIX_GWY_1|10=058|
2025/08/21 13:28:30.071988 8=FIX.4.4|9=68|35=0|34=34|49=FIX_GWY_1|52=20250821-13:28:30.000|56=CRYPTO_TRADER_1|10=100|
2025/08/21 13:29:00.070378 8=FIX.4.4|9=67|35=0|34=8|49=CRYPTO_TRADER_1|52=20250821-13:29:00.070|56=FIX_GWY_1|10=057|
2025/08/21 13:29:00.071026 8=FIX.4.4|9=68|35=0|34=35|49=FIX_GWY_1|52=20250821-13:29:00.000|56=CRYPTO_TRADER_1|10=099|
2025/08/21 13:29:30.070550 8=FIX.4.4|9=67|35=0|34=9|49=CRYPTO_TRADER_1|52=20250821-13:29:30.070|56=FIX_GWY_1|10=061|
2025/08/21 13:29:30.071004 8=FIX.4.4|9=68|35=0|34=36|49=FIX_GWY_1|52=20250821-13:29:30.000|56=CRYPTO_TRADER_1|10=103|
2025/08/21 13:30:00.070463 8=FIX.4.4|9=68|35=0|34=10|49=CRYPTO_TRADER_1|52=20250821-13:30:00.070|56=FIX_GWY_1|10=091|
2025/08/21 13:30:00.071695 8=FIX.4.4|9=68|35=0|34=37|49=FIX_GWY_1|52=20250821-13:30:00.000|56=CRYPTO_TRADER_1|10=093|
2025/08/21 13:30:30.070104 8=FIX.4.4|9=68|35=0|34=11|49=CRYPTO_TRADER_1|52=20250821-13:30:30.070|56=FIX_GWY_1|10=095|
2025/08/21 13:30:30.070625 8=FIX.4.4|9=68|35=0|34=38|49=FIX_GWY_1|52=20250821-13:30:30.000|56=CRYPTO_TRADER_1|10=097|
2025/08/21 13:31:00.070064 8=FIX.4.4|9=68|35=0|34=12|49=CRYPTO_TRADER_1|52=20250821-13:31:00.070|56=FIX_GWY_1|10=094|
2025/08/21 13:31:00.071666 8=FIX.4.4|9=68|35=0|34=39|49=FIX_GWY_1|52=20250821-13:31:00.000|56=CRYPTO_TRADER_1|10=096|
2025/08/21 13:31:30.069754 8=FIX.4.4|9=68|35=0|34=13|49=CRYPTO_TRADER_1|52=20250821-13:31:30.069|56=FIX_GWY_1|10=106|
2025/08/21 13:31:30.071230 8=FIX.4.4|9=68|35=0|34=40|49=FIX_GWY_1|52=20250821-13:31:30.000|56=CRYPTO_TRADER_1|10=091|
2025/08/21 13:32:00.071703 8=FIX.4.4|9=68|35=0|34=14|49=CRYPTO_TRADER_1|52=20250821-13:32:00.071|56=FIX_GWY_1|10=098|
2025/08/21 13:32:00.073042 8=FIX.4.4|9=68|35=0|34=41|49=FIX_GWY_1|52=20250821-13:32:00.000|56=CRYPTO_TRADER_1|10=090|
2025/08/21 13:32:30.078775 8=FIX.4.4|9=68|35=0|34=15|49=CRYPTO_TRADER_1|52=20250821-13:32:30.078|56=FIX_GWY_1|10=109|
2025/08/21 13:32:30.080218 8=FIX.4.4|9=68|35=0|34=42|49=FIX_GWY_1|52=20250821-13:32:30.000|56=CRYPTO_TRADER_1|10=094|
2025/08/21 13:33:00.080384 8=FIX.4.4|9=68|35=0|34=16|49=CRYPTO_TRADER_1|52=20250821-13:33:00.080|56=FIX_GWY_1|10=101|
2025/08/21 13:33:00.081708 8=FIX.4.4|9=68|35=0|34=43|49=FIX_GWY_1|52=20250821-13:33:00.000|56=CRYPTO_TRADER_1|10=093|
2025/08/21 13:33:30.080194 8=FIX.4.4|9=68|35=0|34=17|49=CRYPTO_TRADER_1|52=20250821-13:33:30.080|56=FIX_GWY_1|10=105|
2025/08/21 13:33:30.081515 8=FIX.4.4|9=68|35=0|34=44|49=FIX_GWY_1|52=20250821-13:33:30.000|56=CRYPTO_TRADER_1|10=097|
2025/08/21 13:34:00.080441 8=FIX.4.4|9=68|35=0|34=18|49=CRYPTO_TRADER_1|52=20250821-13:34:00.080|56=FIX_GWY_1|10=104|
2025/08/21 13:34:00.081943 8=FIX.4.4|9=68|35=0|34=45|49=FIX_GWY_1|52=20250821-13:34:00.000|56=CRYPTO_TRADER_1|10=096|
2025/08/21 13:34:30.080413 8=FIX.4.4|9=68|35=0|34=19|49=CRYPTO_TRADER_1|52=20250821-13:34:30.080|56=FIX_GWY_1|10=108|
2025/08/21 13:34:30.080981 8=FIX.4.4|9=68|35=0|34=46|49=FIX_GWY_1|52=20250821-13:34:30.000|56=CRYPTO_TRADER_1|10=100|
2025/08/21 13:35:00.080304 8=FIX.4.4|9=68|35=0|34=20|49=CRYPTO_TRADER_1|52=20250821-13:35:00.080|56=FIX_GWY_1|10=098|
2025/08/21 13:35:00.080848 8=FIX.4.4|9=68|35=0|34=47|49=FIX_GWY_1|52=20250821-13:35:00.000|56=CRYPTO_TRADER_1|10=099|
2025/08/21 13:35:30.079962 8=FIX.4.4|9=68|35=0|34=21|49=CRYPTO_TRADER_1|52=20250821-13:35:30.079|56=FIX_GWY_1|10=110|
2025/08/21 13:35:30.081527 8=FIX.4.4|9=68|35=0|34=48|49=FIX_GWY_1|52=20250821-13:35:30.000|56=CRYPTO_TRADER_1|10=103|
2025/08/21 13:36:00.080495 8=FIX.4.4|9=68|35=0|34=22|49=CRYPTO_TRADER_1|52=20250821-13:36:00.080|56=FIX_GWY_1|10=101|
2025/08/21 13:36:00.081872 8=FIX.4.4|9=68|35=0|34=49|49=FIX_GWY_1|52=20250821-13:36:00.000|56=CRYPTO_TRADER_1|10=102|
2025/08/21 13:36:30.080341 8=FIX.4.4|9=68|35=0|34=23|49=CRYPTO_TRADER_1|52=20250821-13:36:30.080|56=FIX_GWY_1|10=105|
2025/08/21 13:36:30.081427 8=FIX.4.4|9=68|35=0|34=50|49=FIX_GWY_1|52=20250821-13:36:30.000|56=CRYPTO_TRADER_1|10=097|
2025/08/21 13:37:00.080446 8=FIX.4.4|9=68|35=0|34=24|49=CRYPTO_TRADER_1|52=20250821-13:37:00.080|56=FIX_GWY_1|10=104|
2025/08/21 13:37:00.081850 8=FIX.4.4|9=68|35=0|34=51|49=FIX_GWY_1|52=20250821-13:37:00.000|56=CRYPTO_TRADER_1|10=096|
2025/08/21 13:37:30.080091 8=FIX.4.4|9=68|35=0|34=25|49=CRYPTO_TRADER_1|52=20250821-13:37:30.080|56=FIX_GWY_1|10=108|
2025/08/21 13:37:30.080423 8=FIX.4.4|9=68|35=0|34=52|49=FIX_GWY_1|52=20250821-13:37:30.000|56=CRYPTO_TRADER_1|10=100|
2025/08/21 13:38:00.080125 8=FIX.4.4|9=68|35=0|34=26|49=CRYPTO_TRADER_1|52=20250821-13:38:00.080|56=FIX_GWY_1|10=107|
2025/08/21 13:38:00.080526 8=FIX.4.4|9=68|35=0|34=53|49=FIX_GWY_1|52=20250821-13:38:00.000|56=CRYPTO_TRADER_1|10=099|
2025/08/21 13:38:30.080684 8=FIX.4.4|9=68|35=0|34=27|49=CRYPTO_TRADER_1|52=20250821-13:38:30.080|56=FIX_GWY_1|10=111|
2025/08/21 13:38:30.082066 8=FIX.4.4|9=68|35=0|34=54|49=FIX_GWY_1|52=20250821-13:38:30.000|56=CRYPTO_TRADER_1|10=103|
2025/08/21 13:39:00.080502 8=FIX.4.4|9=68|35=0|34=28|49=CRYPTO_TRADER_1|52=20250821-13:39:00.080|56=FIX_GWY_1|10=110|
2025/08/21 13:39:00.082211 8=FIX.4.4|9=68|35=0|34=55|49=FIX_GWY_1|52=20250821-13:39:00.000|56=CRYPTO_TRADER_1|10=102|
2025/08/21 13:39:30.081091 8=FIX.4.4|9=68|35=0|34=29|49=CRYPTO_TRADER_1|52=20250821-13:39:30.081|56=FIX_GWY_1|10=115|
2025/08/21 13:39:30.081481 8=FIX.4.4|9=68|35=0|34=56|49=FIX_GWY_1|52=20250821-13:39:30.000|56=CRYPTO_TRADER_1|10=106|
2025/08/21 13:40:00.081379 8=FIX.4.4|9=68|35=0|34=30|49=CRYPTO_TRADER_1|52=20250821-13:40:00.081|56=FIX_GWY_1|10=096|
2025/08/21 13:40:00.081735 8=FIX.4.4|9=68|35=0|34=57|49=FIX_GWY_1|52=20250821-13:40:00.000|56=CRYPTO_TRADER_1|10=096|
2025/08/21 13:40:30.081015 8=FIX.4.4|9=68|35=0|34=31|49=CRYPTO_TRADER_1|52=20250821-13:40:30.081|56=FIX_GWY_1|10=100|
2025/08/21 13:40:30.081681 8=FIX.4.4|9=68|35=0|34=58|49=FIX_GWY_1|52=20250821-13:40:30.000|56=CRYPTO_TRADER_1|10=100|
2025/08/21 13:41:00.080991 8=FIX.4.4|9=68|35=0|34=32|49=CRYPTO_TRADER_1|52=20250821-13:41:00.080|56=FIX_GWY_1|10=098|
2025/08/21 13:41:00.081624 8=FIX.4.4|9=68|35=0|34=59|49=FIX_GWY_1|52=20250821-13:41:00.000|56=CRYPTO_TRADER_1|10=099|
2025/08/21 13:41:30.081054 8=FIX.4.4|9=68|35=0|34=33|49=CRYPTO_TRADER_1|52=20250821-13:41:30.081|56=FIX_GWY_1|10=103|
2025/08/21 13:41:30.081957 8=FIX.4.4|9=68|35=0|34=60|49=FIX_GWY_1|52=20250821-13:41:30.000|56=CRYPTO_TRADER_1|10=094|
2025/08/21 13:42:03.001612 8=FIX.4.4|9=114|35=A|34=1|49=CRYPTO_TRADER_1|52=20250821-13:42:03.001|56=FIX_GWY_1|98=0|108=30|141=Y|553=CRYPTO_TRADER_1|554=TEST|10=051|
2025/08/21 13:42:03.885942 8=FIX.4.4|9=85|35=A|34=1|49=FIX_GWY_1|52=20250821-13:42:03.000|56=CRYPTO_TRADER_1|98=0|108=30|141=Y|10=128|
2025/08/21 13:42:03.886155 8=FIX.4.4|9=98|35=x|34=2|49=CRYPTO_TRADER_1|52=20250821-13:42:03.886|56=FIX_GWY_1|320=SecurityListRequest1|559=4|10=130|
2025/08/21 13:42:04.092766 8=FIX.4.4|9=1525|35=y|34=2|49=FIX_GWY_1|52=20250821-13:42:04.000|56=CRYPTO_TRADER_1|146=28|55=ADA-USD|207=OTHER_COIN_MARKET|58={"type":"Crypto"}|55=AVX-AUD|207=OTHER_COIN_MARKET|58={"type":"Crypto"}|55=BCH-CNY|207=OTHER_COIN_MARKET|58={"type":"Crypto"}|55=BTC-AUD|207=BTC_MARKET|58={"type":"Crypto"}|55=BTC-CAD|207=BTC_MARKET|58={"type":"Crypto"}|55=BTC-CNY|207=BTC_MARKET|58={"type":"Crypto"}|55=BTC-EUR|207=BTC_MARKET|58={"type":"Crypto"}|55=BTC-GBP|207=BTC_MARKET|58={"type":"Crypto"}|55=BTC-JPY|207=BTC_MARKET|58={"type":"Crypto"}|55=BTC-USD|207=BTC_MARKET|58={"type":"Crypto"}|55=DAI-USD|207=OTHER_COIN_MARKET|58={"type":"Crypto"}|55=DOT-GBP|207=OTHER_COIN_MARKET|58={"type":"Crypto"}|55=ETH-AUD|207=ETH_MARKET|58={"type":"Crypto"}|55=ETH-CAD|207=ETH_MARKET|58={"type":"Crypto"}|55=ETH-CNY|207=ETH_MARKET|58={"type":"Crypto"}|55=ETH-EUR|207=ETH_MARKET|58={"type":"Crypto"}|55=ETH-GBP|207=ETH_MARKET|58={"type":"Crypto"}|55=ETH-JPY|207=ETH_MARKET|58={"type":"Crypto"}|55=ETH-USD|207=ETH_MARKET|58={"type":"Crypto"}|55=LTC-JPY|207=OTHER_COIN_MARKET|58={"type":"Crypto"}|55=LUN-CAD|207=OTHER_COIN_MARKET|58={"type":"Crypto"}|55=MTC-CAD|207=OTHER_COIN_MARKET|58={"type":"Crypto"}|55=SOL-EUR|207=OTHER_COIN_MARKET|58={"type":"Crypto"}|55=UNI-JPY|207=OTHER_COIN_MARKET|58={"type":"Crypto"}|55=XLM-CNY|207=OTHER_COIN_MARKET|58={"type":"Crypto"}|55=XLM-EUR|207=OTHER_COIN_MARKET|58={"type":"Crypto"}|55=XMR-AUD|207=OTHER_COIN_MARKET|58={"type":"Crypto"}|55=XRP-GBP|207=OTHER_COIN_MARKET|58={"type":"Crypto"}|320=SecurityListRequest1|322=1|560=0|10=029|
2025/08/21 13:42:04.093129 8=FIX.4.4|9=959|35=V|34=3|49=CRYPTO_TRADER_1|52=20250821-13:42:04.093|56=FIX_GWY_1|146=28|55=ADA-USD|207=OTHER_COIN_MARKET|55=AVX-AUD|207=OTHER_COIN_MARKET|55=BCH-CNY|207=OTHER_COIN_MARKET|55=BTC-AUD|207=BTC_MARKET|55=BTC-CAD|207=BTC_MARKET|55=BTC-CNY|207=BTC_MARKET|55=BTC-EUR|207=BTC_MARKET|55=BTC-GBP|207=BTC_MARKET|55=BTC-JPY|207=BTC_MARKET|55=BTC-USD|207=BTC_MARKET|55=DAI-USD|207=OTHER_COIN_MARKET|55=DOT-GBP|207=OTHER_COIN_MARKET|55=ETH-AUD|207=ETH_MARKET|55=ETH-CAD|207=ETH_MARKET|55=ETH-CNY|207=ETH_MARKET|55=ETH-EUR|207=ETH_MARKET|55=ETH-GBP|207=ETH_MARKET|55=ETH-JPY|207=ETH_MARKET|55=ETH-USD|207=ETH_MARKET|55=LTC-JPY|207=OTHER_COIN_MARKET|55=LUN-CAD|207=OTHER_COIN_MARKET|55=MTC-CAD|207=OTHER_COIN_MARKET|55=SOL-EUR|207=OTHER_COIN_MARKET|55=UNI-JPY|207=OTHER_COIN_MARKET|55=XLM-CNY|207=OTHER_COIN_MARKET|55=XLM-EUR|207=OTHER_COIN_MARKET|55=XMR-AUD|207=OTHER_COIN_MARKET|55=XRP-GBP|207=OTHER_COIN_MARKET|262=MarketDataRequest1|263=1|264=0|265=1|267=2|269=0|269=1|10=175|
2025/08/21 13:42:04.634243 8=FIX.4.4|9=126|35=W|34=3|49=FIX_GWY_1|52=20250821-13:42:04.000|56=CRYPTO_TRADER_1|55=ADA-USD|207=OTHER_COIN_MARKET|268=1|269=4|270=101|271=0|10=157|
2025/08/21 13:42:04.634323 8=FIX.4.4|9=126|35=W|34=4|49=FIX_GWY_1|52=20250821-13:42:04.000|56=CRYPTO_TRADER_1|55=AVX-AUD|207=OTHER_COIN_MARKET|268=1|269=4|270=401|271=0|10=184|
2025/08/21 13:42:04.634409 8=FIX.4.4|9=126|35=W|34=5|49=FIX_GWY_1|52=20250821-13:42:04.000|56=CRYPTO_TRADER_1|55=BCH-CNY|207=OTHER_COIN_MARKET|268=1|269=4|270=401|271=0|10=167|
2025/08/21 13:42:04.634463 8=FIX.4.4|9=121|35=W|34=6|49=FIX_GWY_1|52=20250821-13:42:04.000|56=CRYPTO_TRADER_1|55=BTC-AUD|207=BTC_MARKET|268=1|269=4|270=40100|271=0|10=206|
2025/08/21 13:42:04.634561 8=FIX.4.4|9=121|35=W|34=7|49=FIX_GWY_1|52=20250821-13:42:04.000|56=CRYPTO_TRADER_1|55=BTC-CAD|207=BTC_MARKET|268=1|269=4|270=40100|271=0|10=189|
2025/08/21 13:42:04.634711 8=FIX.4.4|9=366|35=W|34=8|49=FIX_GWY_1|52=20250821-13:42:04.000|56=CRYPTO_TRADER_1|55=BTC-CNY|207=BTC_MARKET|268=14|269=0|270=0|271=0|269=0|270=0|271=0|269=0|270=0|271=0|269=0|270=0|271=0|269=0|270=0|271=0|269=1|270=0|271=0|269=1|270=0|271=0|269=1|270=0|271=0|269=1|270=0|271=0|269=1|270=0|271=0|269=2|270=40200|271=0|269=B|270=0|271=500|269=4|270=40100|271=0|269=8|270=40100|271=0|10=182|
2025/08/21 13:42:04.634814 8=FIX.4.4|9=121|35=W|34=9|49=FIX_GWY_1|52=20250821-13:42:04.000|56=CRYPTO_TRADER_1|55=BTC-EUR|207=BTC_MARKET|268=1|269=4|270=20100|271=0|10=225|
2025/08/21 13:42:04.634879 8=FIX.4.4|9=122|35=W|34=10|49=FIX_GWY_1|52=20250821-13:42:04.000|56=CRYPTO_TRADER_1|55=BTC-GBP|207=BTC_MARKET|268=1|269=4|270=30100|271=0|10=248|
2025/08/21 13:42:04.634950 8=FIX.4.4|9=122|35=W|34=11|49=FIX_GWY_1|52=20250821-13:42:04.000|56=CRYPTO_TRADER_1|55=BTC-JPY|207=BTC_MARKET|268=1|269=4|270=40100|271=0|10=020|
2025/08/21 13:42:04.635055 8=FIX.4.4|9=122|35=W|34=12|49=FIX_GWY_1|52=20250821-13:42:04.000|56=CRYPTO_TRADER_1|55=BTC-USD|207=BTC_MARKET|268=1|269=4|270=10100|271=0|10=011|
2025/08/21 13:42:04.635114 8=FIX.4.4|9=127|35=W|34=13|49=FIX_GWY_1|52=20250821-13:42:04.000|56=CRYPTO_TRADER_1|55=DAI-USD|207=OTHER_COIN_MARKET|268=1|269=4|270=101|271=0|10=215|
2025/08/21 13:42:04.635212 8=FIX.4.4|9=127|35=W|34=14|49=FIX_GWY_1|52=20250821-13:42:04.000|56=CRYPTO_TRADER_1|55=DOT-GBP|207=OTHER_COIN_MARKET|268=1|269=4|270=301|271=0|10=224|
2025/08/21 13:42:04.635307 8=FIX.4.4|9=121|35=W|34=15|49=FIX_GWY_1|52=20250821-13:42:04.000|56=CRYPTO_TRADER_1|55=ETH-AUD|207=ETH_MARKET|268=1|269=4|270=4010|271=0|10=222|
2025/08/21 13:42:04.635399 8=FIX.4.4|9=121|35=W|34=16|49=FIX_GWY_1|52=20250821-13:42:04.000|56=CRYPTO_TRADER_1|55=ETH-CAD|207=ETH_MARKET|268=1|269=4|270=4010|271=0|10=205|
2025/08/21 13:42:04.635449 8=FIX.4.4|9=121|35=W|34=17|49=FIX_GWY_1|52=20250821-13:42:04.000|56=CRYPTO_TRADER_1|55=ETH-CNY|207=ETH_MARKET|268=1|269=4|270=4010|271=0|10=240|
2025/08/21 13:42:04.635497 8=FIX.4.4|9=121|35=W|34=18|49=FIX_GWY_1|52=20250821-13:42:04.000|56=CRYPTO_TRADER_1|55=ETH-EUR|207=ETH_MARKET|268=1|269=4|270=2010|271=0|10=241|
2025/08/21 13:42:04.635544 8=FIX.4.4|9=121|35=W|34=19|49=FIX_GWY_1|52=20250821-13:42:04.000|56=CRYPTO_TRADER_1|55=ETH-GBP|207=ETH_MARKET|268=1|269=4|270=3010|271=0|10=224|
2025/08/21 13:42:04.635589 8=FIX.4.4|9=121|35=W|34=20|49=FIX_GWY_1|52=20250821-13:42:04.000|56=CRYPTO_TRADER_1|55=ETH-JPY|207=ETH_MARKET|268=1|269=4|270=4010|271=0|10=243|
2025/08/21 13:42:04.635639 8=FIX.4.4|9=121|35=W|34=21|49=FIX_GWY_1|52=20250821-13:42:04.000|56=CRYPTO_TRADER_1|55=ETH-USD|207=ETH_MARKET|268=1|269=4|270=1010|271=0|10=234|
2025/08/21 13:42:04.635685 8=FIX.4.4|9=127|35=W|34=22|49=FIX_GWY_1|52=20250821-13:42:04.000|56=CRYPTO_TRADER_1|55=LTC-JPY|207=OTHER_COIN_MARKET|268=1|269=4|270=401|271=0|10=246|
2025/08/21 13:42:04.635728 8=FIX.4.4|9=127|35=W|34=23|49=FIX_GWY_1|52=20250821-13:42:04.000|56=CRYPTO_TRADER_1|55=LUN-CAD|207=OTHER_COIN_MARKET|268=1|269=4|270=401|271=0|10=216|
2025/08/21 13:42:04.635766 8=FIX.4.4|9=127|35=W|34=24|49=FIX_GWY_1|52=20250821-13:42:04.000|56=CRYPTO_TRADER_1|55=MTC-CAD|207=OTHER_COIN_MARKET|268=1|269=4|270=401|271=0|10=206|
2025/08/21 13:42:04.635808 8=FIX.4.4|9=127|35=W|34=25|49=FIX_GWY_1|52=20250821-13:42:04.000|56=CRYPTO_TRADER_1|55=SOL-EUR|207=OTHER_COIN_MARKET|268=1|269=4|270=201|271=0|10=251|
2025/08/21 13:42:04.635858 8=FIX.4.4|9=127|35=W|34=26|49=FIX_GWY_1|52=20250821-13:42:04.000|56=CRYPTO_TRADER_1|55=UNI-JPY|207=OTHER_COIN_MARKET|268=1|269=4|270=401|271=0|10=003|
2025/08/21 13:42:04.635897 8=FIX.4.4|9=127|35=W|34=27|49=FIX_GWY_1|52=20250821-13:42:04.000|56=CRYPTO_TRADER_1|55=XLM-CNY|207=OTHER_COIN_MARKET|268=1|269=4|270=401|271=0|10=000|
2025/08/21 13:42:04.635950 8=FIX.4.4|9=127|35=W|34=28|49=FIX_GWY_1|52=20250821-13:42:04.000|56=CRYPTO_TRADER_1|55=XLM-EUR|207=OTHER_COIN_MARKET|268=1|269=4|270=201|271=0|10=001|
2025/08/21 13:42:04.635993 8=FIX.4.4|9=127|35=W|34=29|49=FIX_GWY_1|52=20250821-13:42:04.000|56=CRYPTO_TRADER_1|55=XMR-AUD|207=OTHER_COIN_MARKET|268=1|269=4|270=401|271=0|10=248|
2025/08/21 13:42:04.636068 8=FIX.4.4|9=127|35=W|34=30|49=FIX_GWY_1|52=20250821-13:42:04.000|56=CRYPTO_TRADER_1|55=XRP-GBP|207=OTHER_COIN_MARKET|268=1|269=4|270=301|271=0|10=241|
2025/08/21 13:42:34.093003 8=FIX.4.4|9=67|35=0|34=4|49=CRYPTO_TRADER_1|52=20250821-13:42:34.092|56=FIX_GWY_1|10=059|
2025/08/21 13:42:34.094752 8=FIX.4.4|9=68|35=0|34=31|49=FIX_GWY_1|52=20250821-13:42:34.000|56=CRYPTO_TRADER_1|10=097|
2025/08/21 13:42:48.362574 8=FIX.4.4|9=174|35=D|34=5|49=CRYPTO_TRADER_1|52=20250821-13:42:48.362|56=FIX_GWY_1|11=investor_2:1755783723|38=400|40=1|44=40200|54=2|55=BTC-CNY|59=0|60=20250821-13:42:48.362|207=BTC_MARKET|10=029|
2025/08/21 13:42:48.366903 8=FIX.4.4|9=244|35=8|34=32|49=FIX_GWY_1|52=20250821-13:42:48.000|56=CRYPTO_TRADER_1|6=0|14=0|17=1000011|31=0|32=0|37=investor_2:1755783723|38=400|39=0|40=2|44=40200|54=2|55=BTC-CNY|58=OK|59=0|60=20250821-13:42:48.364783|99=0|103=0|150=0|151=400|207=BTC_MARKET|10=100|
2025/08/21 13:42:48.425812 8=FIX.4.4|9=795|35=X|34=33|49=FIX_GWY_1|52=20250821-13:42:48.000|56=CRYPTO_TRADER_1|268=14|279=0|269=0|55=BTC-CNY|207=BTC_MARKET|270=0|271=0|279=0|269=0|55=BTC-CNY|207=BTC_MARKET|270=0|271=0|279=0|269=0|55=BTC-CNY|207=BTC_MARKET|270=0|271=0|279=0|269=0|55=BTC-CNY|207=BTC_MARKET|270=0|271=0|279=0|269=0|55=BTC-CNY|207=BTC_MARKET|270=0|271=0|279=0|269=1|55=BTC-CNY|207=BTC_MARKET|270=40200|271=400|279=0|269=1|55=BTC-CNY|207=BTC_MARKET|270=0|271=0|279=0|269=1|55=BTC-CNY|207=BTC_MARKET|270=0|271=0|279=0|269=1|55=BTC-CNY|207=BTC_MARKET|270=0|271=0|279=0|269=1|55=BTC-CNY|207=BTC_MARKET|270=0|271=0|279=0|269=2|55=BTC-CNY|207=BTC_MARKET|270=40200|271=0|279=0|269=B|55=BTC-CNY|207=BTC_MARKET|270=0|271=500|279=0|269=4|55=BTC-CNY|207=BTC_MARKET|270=40100|271=0|279=0|269=8|55=BTC-CNY|207=BTC_MARKET|270=40100|271=0|10=108|
2025/08/21 13:43:18.363861 8=FIX.4.4|9=67|35=0|34=6|49=CRYPTO_TRADER_1|52=20250821-13:43:18.363|56=FIX_GWY_1|10=065|
2025/08/21 13:43:18.365300 8=FIX.4.4|9=68|35=0|34=34|49=FIX_GWY_1|52=20250821-13:43:18.000|56=CRYPTO_TRADER_1|10=103|
2025/08/21 13:43:48.363768 8=FIX.4.4|9=67|35=0|34=7|49=CRYPTO_TRADER_1|52=20250821-13:43:48.363|56=FIX_GWY_1|10=069|
2025/08/21 13:43:48.365877 8=FIX.4.4|9=68|35=0|34=35|49=FIX_GWY_1|52=20250821-13:43:48.000|56=CRYPTO_TRADER_1|10=107|
2025/08/21 13:44:18.364456 8=FIX.4.4|9=67|35=0|34=8|49=CRYPTO_TRADER_1|52=20250821-13:44:18.364|56=FIX_GWY_1|10=069|
2025/08/21 13:44:18.366408 8=FIX.4.4|9=68|35=0|34=36|49=FIX_GWY_1|52=20250821-13:44:18.000|56=CRYPTO_TRADER_1|10=106|
2025/08/21 13:44:48.365942 8=FIX.4.4|9=67|35=0|34=9|49=CRYPTO_TRADER_1|52=20250821-13:44:48.365|56=FIX_GWY_1|10=074|
2025/08/21 13:44:48.367096 8=FIX.4.4|9=68|35=0|34=37|49=FIX_GWY_1|52=20250821-13:44:48.000|56=CRYPTO_TRADER_1|10=110|
2025/08/21 13:45:18.366699 8=FIX.4.4|9=68|35=0|34=10|49=CRYPTO_TRADER_1|52=20250821-13:45:18.366|56=FIX_GWY_1|10=114|
2025/08/21 13:45:18.367022 8=FIX.4.4|9=68|35=0|34=38|49=FIX_GWY_1|52=20250821-13:45:18.000|56=CRYPTO_TRADER_1|10=109|
2025/08/21 13:45:48.367151 8=FIX.4.4|9=68|35=0|34=11|49=CRYPTO_TRADER_1|52=20250821-13:45:48.367|56=FIX_GWY_1|10=119|
2025/08/21 13:45:48.367521 8=FIX.4.4|9=68|35=0|34=39|49=FIX_GWY_1|52=20250821-13:45:48.000|56=CRYPTO_TRADER_1|10=113|
2025/08/21 13:46:18.367458 8=FIX.4.4|9=68|35=0|34=12|49=CRYPTO_TRADER_1|52=20250821-13:46:18.367|56=FIX_GWY_1|10=118|
2025/08/21 13:46:18.368578 8=FIX.4.4|9=68|35=0|34=40|49=FIX_GWY_1|52=20250821-13:46:18.000|56=CRYPTO_TRADER_1|10=103|
2025/08/21 13:46:48.367778 8=FIX.4.4|9=68|35=0|34=13|49=CRYPTO_TRADER_1|52=20250821-13:46:48.367|56=FIX_GWY_1|10=122|
2025/08/21 13:46:48.369446 8=FIX.4.4|9=68|35=0|34=41|49=FIX_GWY_1|52=20250821-13:46:48.000|56=CRYPTO_TRADER_1|10=107|
2025/08/21 13:47:18.375114 8=FIX.4.4|9=68|35=0|34=14|49=CRYPTO_TRADER_1|52=20250821-13:47:18.375|56=FIX_GWY_1|10=120|
2025/08/21 13:47:18.376727 8=FIX.4.4|9=68|35=0|34=42|49=FIX_GWY_1|52=20250821-13:47:18.000|56=CRYPTO_TRADER_1|10=106|
2025/08/21 13:47:48.377742 8=FIX.4.4|9=68|35=0|34=15|49=CRYPTO_TRADER_1|52=20250821-13:47:48.377|56=FIX_GWY_1|10=126|
2025/08/21 13:47:48.378096 8=FIX.4.4|9=68|35=0|34=43|49=FIX_GWY_1|52=20250821-13:47:48.000|56=CRYPTO_TRADER_1|10=110|
2025/08/21 13:48:18.377659 8=FIX.4.4|9=68|35=0|34=16|49=CRYPTO_TRADER_1|52=20250821-13:48:18.377|56=FIX_GWY_1|10=125|
2025/08/21 13:48:18.379134 8=FIX.4.4|9=68|35=0|34=44|49=FIX_GWY_1|52=20250821-13:48:18.000|56=CRYPTO_TRADER_1|10=109|
2025/08/21 13:48:48.378663 8=FIX.4.4|9=68|35=0|34=17|49=CRYPTO_TRADER_1|52=20250821-13:48:48.378|56=FIX_GWY_1|10=130|
2025/08/21 13:48:48.380480 8=FIX.4.4|9=68|35=0|34=45|49=FIX_GWY_1|52=20250821-13:48:48.000|56=CRYPTO_TRADER_1|10=113|
2025/08/21 13:49:18.379326 8=FIX.4.4|9=68|35=0|34=18|49=CRYPTO_TRADER_1|52=20250821-13:49:18.379|56=FIX_GWY_1|10=130|
2025/08/21 13:49:18.381112 8=FIX.4.4|9=68|35=0|34=46|49=FIX_GWY_1|52=20250821-13:49:18.000|56=CRYPTO_TRADER_1|10=112|
2025/08/21 13:49:48.379985 8=FIX.4.4|9=68|35=0|34=19|49=CRYPTO_TRADER_1|52=20250821-13:49:48.379|56=FIX_GWY_1|10=134|
2025/08/21 13:49:48.381454 8=FIX.4.4|9=68|35=0|34=47|49=FIX_GWY_1|52=20250821-13:49:48.000|56=CRYPTO_TRADER_1|10=116|
2025/08/21 13:50:18.381345 8=FIX.4.4|9=68|35=0|34=20|49=CRYPTO_TRADER_1|52=20250821-13:50:18.381|56=FIX_GWY_1|10=108|
2025/08/21 13:50:18.383088 8=FIX.4.4|9=68|35=0|34=48|49=FIX_GWY_1|52=20250821-13:50:18.000|56=CRYPTO_TRADER_1|10=106|
2025/08/21 13:50:48.382031 8=FIX.4.4|9=68|35=0|34=21|49=CRYPTO_TRADER_1|52=20250821-13:50:48.382|56=FIX_GWY_1|10=113|
2025/08/21 13:50:48.383464 8=FIX.4.4|9=68|35=0|34=49|49=FIX_GWY_1|52=20250821-13:50:48.000|56=CRYPTO_TRADER_1|10=110|
2025/08/21 13:51:18.383344 8=FIX.4.4|9=68|35=0|34=22|49=CRYPTO_TRADER_1|52=20250821-13:51:18.383|56=FIX_GWY_1|10=113|
2025/08/21 13:51:18.385339 8=FIX.4.4|9=68|35=0|34=50|49=FIX_GWY_1|52=20250821-13:51:18.000|56=CRYPTO_TRADER_1|10=100|
2025/08/21 13:51:48.384302 8=FIX.4.4|9=68|35=0|34=23|49=CRYPTO_TRADER_1|52=20250821-13:51:48.384|56=FIX_GWY_1|10=118|
2025/08/21 13:51:48.386181 8=FIX.4.4|9=68|35=0|34=51|49=FIX_GWY_1|52=20250821-13:51:48.000|56=CRYPTO_TRADER_1|10=104|
2025/08/21 13:52:18.385766 8=FIX.4.4|9=68|35=0|34=24|49=CRYPTO_TRADER_1|52=20250821-13:52:18.385|56=FIX_GWY_1|10=118|
2025/08/21 13:52:18.387443 8=FIX.4.4|9=68|35=0|34=52|49=FIX_GWY_1|52=20250821-13:52:18.000|56=CRYPTO_TRADER_1|10=103|
2025/08/21 13:52:48.386661 8=FIX.4.4|9=68|35=0|34=25|49=CRYPTO_TRADER_1|52=20250821-13:52:48.386|56=FIX_GWY_1|10=123|
2025/08/21 13:52:48.387665 8=FIX.4.4|9=68|35=0|34=53|49=FIX_GWY_1|52=20250821-13:52:48.000|56=CRYPTO_TRADER_1|10=107|
2025/08/21 13:53:18.386445 8=FIX.4.4|9=68|35=0|34=26|49=CRYPTO_TRADER_1|52=20250821-13:53:18.386|56=FIX_GWY_1|10=122|
2025/08/21 13:53:18.387241 8=FIX.4.4|9=68|35=0|34=54|49=FIX_GWY_1|52=20250821-13:53:18.000|56=CRYPTO_TRADER_1|10=106|
2025/08/21 13:53:48.386328 8=FIX.4.4|9=68|35=0|34=27|49=CRYPTO_TRADER_1|52=20250821-13:53:48.386|56=FIX_GWY_1|10=126|
2025/08/21 13:53:48.388044 8=FIX.4.4|9=68|35=0|34=55|49=FIX_GWY_1|52=20250821-13:53:48.000|56=CRYPTO_TRADER_1|10=110|
2025/08/22 06:43:49.001359 8=FIX.4.4|9=114|35=A|34=1|49=CRYPTO_TRADER_1|52=20250822-06:43:49.001|56=FIX_GWY_1|98=0|108=30|141=Y|553=CRYPTO_TRADER_1|554=TEST|10=065|
2025/08/22 06:43:49.735068 8=FIX.4.4|9=85|35=A|34=1|49=FIX_GWY_1|52=20250822-06:43:49.000|56=CRYPTO_TRADER_1|98=0|108=30|141=Y|10=142|
2025/08/22 06:43:49.735198 8=FIX.4.4|9=98|35=x|34=2|49=CRYPTO_TRADER_1|52=20250822-06:43:49.735|56=FIX_GWY_1|320=SecurityListRequest1|559=4|10=137|
2025/08/22 06:43:50.681806 8=FIX.4.4|9=1525|35=y|34=2|49=FIX_GWY_1|52=20250822-06:43:50.000|56=CRYPTO_TRADER_1|146=28|55=ADA-USD|207=OTHER_COIN_MARKET|58={"type":"Crypto"}|55=AVX-AUD|207=OTHER_COIN_MARKET|58={"type":"Crypto"}|55=BCH-CNY|207=OTHER_COIN_MARKET|58={"type":"Crypto"}|55=BTC-AUD|207=BTC_MARKET|58={"type":"Crypto"}|55=BTC-CAD|207=BTC_MARKET|58={"type":"Crypto"}|55=BTC-CNY|207=BTC_MARKET|58={"type":"Crypto"}|55=BTC-EUR|207=BTC_MARKET|58={"type":"Crypto"}|55=BTC-GBP|207=BTC_MARKET|58={"type":"Crypto"}|55=BTC-JPY|207=BTC_MARKET|58={"type":"Crypto"}|55=BTC-USD|207=BTC_MARKET|58={"type":"Crypto"}|55=DAI-USD|207=OTHER_COIN_MARKET|58={"type":"Crypto"}|55=DOT-GBP|207=OTHER_COIN_MARKET|58={"type":"Crypto"}|55=ETH-AUD|207=ETH_MARKET|58={"type":"Crypto"}|55=ETH-CAD|207=ETH_MARKET|58={"type":"Crypto"}|55=ETH-CNY|207=ETH_MARKET|58={"type":"Crypto"}|55=ETH-EUR|207=ETH_MARKET|58={"type":"Crypto"}|55=ETH-GBP|207=ETH_MARKET|58={"type":"Crypto"}|55=ETH-JPY|207=ETH_MARKET|58={"type":"Crypto"}|55=ETH-USD|207=ETH_MARKET|58={"type":"Crypto"}|55=LTC-JPY|207=OTHER_COIN_MARKET|58={"type":"Crypto"}|55=LUN-CAD|207=OTHER_COIN_MARKET|58={"type":"Crypto"}|55=MTC-CAD|207=OTHER_COIN_MARKET|58={"type":"Crypto"}|55=SOL-EUR|207=OTHER_COIN_MARKET|58={"type":"Crypto"}|55=UNI-JPY|207=OTHER_COIN_MARKET|58={"type":"Crypto"}|55=XLM-CNY|207=OTHER_COIN_MARKET|58={"type":"Crypto"}|55=XLM-EUR|207=OTHER_COIN_MARKET|58={"type":"Crypto"}|55=XMR-AUD|207=OTHER_COIN_MARKET|58={"type":"Crypto"}|55=XRP-GBP|207=OTHER_COIN_MARKET|58={"type":"Crypto"}|320=SecurityListRequest1|322=1|560=0|10=034|
2025/08/22 06:43:50.683222 8=FIX.4.4|9=959|35=V|34=3|49=CRYPTO_TRADER_1|52=20250822-06:43:50.683|56=FIX_GWY_1|146=28|55=ADA-USD|207=OTHER_COIN_MARKET|55=AVX-AUD|207=OTHER_COIN_MARKET|55=BCH-CNY|207=OTHER_COIN_MARKET|55=BTC-AUD|207=BTC_MARKET|55=BTC-CAD|207=BTC_MARKET|55=BTC-CNY|207=BTC_MARKET|55=BTC-EUR|207=BTC_MARKET|55=BTC-GBP|207=BTC_MARKET|55=BTC-JPY|207=BTC_MARKET|55=BTC-USD|207=BTC_MARKET|55=DAI-USD|207=OTHER_COIN_MARKET|55=DOT-GBP|207=OTHER_COIN_MARKET|55=ETH-AUD|207=ETH_MARKET|55=ETH-CAD|207=ETH_MARKET|55=ETH-CNY|207=ETH_MARKET|55=ETH-EUR|207=ETH_MARKET|55=ETH-GBP|207=ETH_MARKET|55=ETH-JPY|207=ETH_MARKET|55=ETH-USD|207=ETH_MARKET|55=LTC-JPY|207=OTHER_COIN_MARKET|55=LUN-CAD|207=OTHER_COIN_MARKET|55=MTC-CAD|207=OTHER_COIN_MARKET|55=SOL-EUR|207=OTHER_COIN_MARKET|55=UNI-JPY|207=OTHER_COIN_MARKET|55=XLM-CNY|207=OTHER_COIN_MARKET|55=XLM-EUR|207=OTHER_COIN_MARKET|55=XMR-AUD|207=OTHER_COIN_MARKET|55=XRP-GBP|207=OTHER_COIN_MARKET|262=MarketDataRequest1|263=1|264=0|265=1|267=2|269=0|269=1|10=185|
2025/08/22 06:43:51.685989 8=FIX.4.4|9=126|35=W|34=3|49=FIX_GWY_1|52=20250822-06:43:51.000|56=CRYPTO_TRADER_1|55=ADA-USD|207=OTHER_COIN_MARKET|268=1|269=4|270=101|271=0|10=163|
2025/08/22 06:43:51.686097 8=FIX.4.4|9=126|35=W|34=4|49=FIX_GWY_1|52=20250822-06:43:51.000|56=CRYPTO_TRADER_1|55=AVX-AUD|207=OTHER_COIN_MARKET|268=1|269=4|270=401|271=0|10=190|
2025/08/22 06:43:51.686120 8=FIX.4.4|9=126|35=W|34=5|49=FIX_GWY_1|52=20250822-06:43:51.000|56=CRYPTO_TRADER_1|55=BCH-CNY|207=OTHER_COIN_MARKET|268=1|269=4|270=401|271=0|10=173|
2025/08/22 06:43:51.686240 8=FIX.4.4|9=121|35=W|34=6|49=FIX_GWY_1|52=20250822-06:43:51.000|56=CRYPTO_TRADER_1|55=BTC-AUD|207=BTC_MARKET|268=1|269=4|270=40100|271=0|10=212|
2025/08/22 06:43:51.686353 8=FIX.4.4|9=121|35=W|34=7|49=FIX_GWY_1|52=20250822-06:43:51.000|56=CRYPTO_TRADER_1|55=BTC-CAD|207=BTC_MARKET|268=1|269=4|270=40100|271=0|10=195|
2025/08/22 06:43:51.686439 8=FIX.4.4|9=121|35=W|34=8|49=FIX_GWY_1|52=20250822-06:43:51.000|56=CRYPTO_TRADER_1|55=BTC-CNY|207=BTC_MARKET|268=1|269=4|270=40100|271=0|10=230|
2025/08/22 06:43:51.686502 8=FIX.4.4|9=121|35=W|34=9|49=FIX_GWY_1|52=20250822-06:43:51.000|56=CRYPTO_TRADER_1|55=BTC-EUR|207=BTC_MARKET|268=1|269=4|270=20100|271=0|10=231|
2025/08/22 06:43:51.686571 8=FIX.4.4|9=122|35=W|34=10|49=FIX_GWY_1|52=20250822-06:43:51.000|56=CRYPTO_TRADER_1|55=BTC-GBP|207=BTC_MARKET|268=1|269=4|270=30100|271=0|10=254|
2025/08/22 06:43:51.686626 8=FIX.4.4|9=122|35=W|34=11|49=FIX_GWY_1|52=20250822-06:43:51.000|56=CRYPTO_TRADER_1|55=BTC-JPY|207=BTC_MARKET|268=1|269=4|270=40100|271=0|10=026|
2025/08/22 06:43:51.686681 8=FIX.4.4|9=122|35=W|34=12|49=FIX_GWY_1|52=20250822-06:43:51.000|56=CRYPTO_TRADER_1|55=BTC-USD|207=BTC_MARKET|268=1|269=4|270=10100|271=0|10=017|
2025/08/22 06:43:51.686748 8=FIX.4.4|9=127|35=W|34=13|49=FIX_GWY_1|52=20250822-06:43:51.000|56=CRYPTO_TRADER_1|55=DAI-USD|207=OTHER_COIN_MARKET|268=1|269=4|270=101|271=0|10=221|
2025/08/22 06:43:51.686796 8=FIX.4.4|9=127|35=W|34=14|49=FIX_GWY_1|52=20250822-06:43:51.000|56=CRYPTO_TRADER_1|55=DOT-GBP|207=OTHER_COIN_MARKET|268=1|269=4|270=301|271=0|10=230|
2025/08/22 06:43:51.686898 8=FIX.4.4|9=121|35=W|34=15|49=FIX_GWY_1|52=20250822-06:43:51.000|56=CRYPTO_TRADER_1|55=ETH-AUD|207=ETH_MARKET|268=1|269=4|270=4010|271=0|10=228|
2025/08/22 06:43:51.686960 8=FIX.4.4|9=121|35=W|34=16|49=FIX_GWY_1|52=20250822-06:43:51.000|56=CRYPTO_TRADER_1|55=ETH-CAD|207=ETH_MARKET|268=1|269=4|270=4010|271=0|10=211|
2025/08/22 06:43:51.687023 8=FIX.4.4|9=121|35=W|34=17|49=FIX_GWY_1|52=20250822-06:43:51.000|56=CRYPTO_TRADER_1|55=ETH-CNY|207=ETH_MARKET|268=1|269=4|270=4010|271=0|10=246|
2025/08/22 06:43:51.687071 8=FIX.4.4|9=121|35=W|34=18|49=FIX_GWY_1|52=20250822-06:43:51.000|56=CRYPTO_TRADER_1|55=ETH-EUR|207=ETH_MARKET|268=1|269=4|270=2010|271=0|10=247|
2025/08/22 06:43:51.687147 8=FIX.4.4|9=121|35=W|34=19|49=FIX_GWY_1|52=20250822-06:43:51.000|56=CRYPTO_TRADER_1|55=ETH-GBP|207=ETH_MARKET|268=1|269=4|270=3010|271=0|10=230|
2025/08/22 06:43:51.687252 8=FIX.4.4|9=121|35=W|34=20|49=FIX_GWY_1|52=20250822-06:43:51.000|56=CRYPTO_TRADER_1|55=ETH-JPY|207=ETH_MARKET|268=1|269=4|270=4010|271=0|10=249|
2025/08/22 06:43:51.687313 8=FIX.4.4|9=121|35=W|34=21|49=FIX_GWY_1|52=20250822-06:43:51.000|56=CRYPTO_TRADER_1|55=ETH-USD|207=ETH_MARKET|268=1|269=4|270=1010|271=0|10=240|
2025/08/22 06:43:51.687375 8=FIX.4.4|9=127|35=W|34=22|49=FIX_GWY_1|52=20250822-06:43:51.000|56=CRYPTO_TRADER_1|55=LTC-JPY|207=OTHER_COIN_MARKET|268=1|269=4|270=401|271=0|10=252|
2025/08/22 06:43:51.687418 8=FIX.4.4|9=127|35=W|34=23|49=FIX_GWY_1|52=20250822-06:43:51.000|56=CRYPTO_TRADER_1|55=LUN-CAD|207=OTHER_COIN_MARKET|268=1|269=4|270=401|271=0|10=222|
2025/08/22 06:43:51.687477 8=FIX.4.4|9=127|35=W|34=24|49=FIX_GWY_1|52=20250822-06:43:51.000|56=CRYPTO_TRADER_1|55=MTC-CAD|207=OTHER_COIN_MARKET|268=1|269=4|270=401|271=0|10=212|
2025/08/22 06:43:51.687523 8=FIX.4.4|9=127|35=W|34=25|49=FIX_GWY_1|52=20250822-06:43:51.000|56=CRYPTO_TRADER_1|55=SOL-EUR|207=OTHER_COIN_MARKET|268=1|269=4|270=201|271=0|10=001|
2025/08/22 06:43:51.687584 8=FIX.4.4|9=127|35=W|34=26|49=FIX_GWY_1|52=20250822-06:43:51.000|56=CRYPTO_TRADER_1|55=UNI-JPY|207=OTHER_COIN_MARKET|268=1|269=4|270=401|271=0|10=009|
2025/08/22 06:43:51.687623 8=FIX.4.4|9=127|35=W|34=27|49=FIX_GWY_1|52=20250822-06:43:51.000|56=CRYPTO_TRADER_1|55=XLM-CNY|207=OTHER_COIN_MARKET|268=1|269=4|270=401|271=0|10=006|
2025/08/22 06:43:51.687684 8=FIX.4.4|9=127|35=W|34=28|49=FIX_GWY_1|52=20250822-06:43:51.000|56=CRYPTO_TRADER_1|55=XLM-EUR|207=OTHER_COIN_MARKET|268=1|269=4|270=201|271=0|10=007|
2025/08/22 06:43:51.687723 8=FIX.4.4|9=127|35=W|34=29|49=FIX_GWY_1|52=20250822-06:43:51.000|56=CRYPTO_TRADER_1|55=XMR-AUD|207=OTHER_COIN_MARKET|268=1|269=4|270=401|271=0|10=254|
2025/08/22 06:43:51.687780 8=FIX.4.4|9=127|35=W|34=30|49=FIX_GWY_1|52=20250822-06:43:51.000|56=CRYPTO_TRADER_1|55=XRP-GBP|207=OTHER_COIN_MARKET|268=1|269=4|270=301|271=0|10=247|
2025/08/22 06:44:20.683921 8=FIX.4.4|9=67|35=0|34=4|49=CRYPTO_TRADER_1|52=20250822-06:44:20.683|56=FIX_GWY_1|10=065|
2025/08/22 06:44:27.688349 8=FIX.4.4|9=76|35=1|34=5|49=CRYPTO_TRADER_1|52=20250822-06:44:27.688|56=FIX_GWY_1|112=TEST|10=097|
2025/08/22 06:44:27.689151 8=FIX.4.4|9=77|35=0|34=31|49=FIX_GWY_1|52=20250822-06:44:27.000|56=CRYPTO_TRADER_1|112=TEST|10=122|
2025/08/22 06:44:57.689331 8=FIX.4.4|9=67|35=0|34=6|49=CRYPTO_TRADER_1|52=20250822-06:44:57.689|56=FIX_GWY_1|10=083|
2025/08/22 06:44:57.691301 8=FIX.4.4|9=68|35=0|34=32|49=FIX_GWY_1|52=20250822-06:44:57.000|56=CRYPTO_TRADER_1|10=108|
2025/08/22 06:45:27.690979 8=FIX.4.4|9=67|35=0|34=7|49=CRYPTO_TRADER_1|52=20250822-06:45:27.690|56=FIX_GWY_1|10=074|
2025/08/22 06:45:27.692826 8=FIX.4.4|9=68|35=0|34=33|49=FIX_GWY_1|52=20250822-06:45:27.000|56=CRYPTO_TRADER_1|10=107|
2025/08/22 06:45:57.691969 8=FIX.4.4|9=67|35=0|34=8|49=CRYPTO_TRADER_1|52=20250822-06:45:57.691|56=FIX_GWY_1|10=079|
2025/08/22 06:45:57.692475 8=FIX.4.4|9=68|35=0|34=34|49=FIX_GWY_1|52=20250822-06:45:57.000|56=CRYPTO_TRADER_1|10=111|
2025/08/22 06:46:08.826586 8=FIX.4.4|9=174|35=D|34=9|49=CRYPTO_TRADER_1|52=20250822-06:46:08.826|56=FIX_GWY_1|11=investor_2:1755845029|38=300|40=1|44=40200|54=2|55=BTC-CNY|59=0|60=20250822-06:46:08.826|207=BTC_MARKET|10=046|
2025/08/22 06:46:08.828841 8=FIX.4.4|9=244|35=8|34=35|49=FIX_GWY_1|52=20250822-06:46:08.000|56=CRYPTO_TRADER_1|6=0|14=0|17=1000001|31=0|32=0|37=investor_2:1755845029|38=300|39=0|40=2|44=40200|54=2|55=BTC-CNY|58=OK|59=0|60=20250822-06:46:08.827638|99=0|103=0|150=0|151=300|207=BTC_MARKET|10=107|
2025/08/22 06:46:09.027616 8=FIX.4.4|9=635|35=X|34=36|49=FIX_GWY_1|52=20250822-06:46:09.000|56=CRYPTO_TRADER_1|268=11|279=0|269=0|55=BTC-CNY|207=BTC_MARKET|270=0|271=0|279=0|269=0|55=BTC-CNY|207=BTC_MARKET|270=0|271=0|279=0|269=0|55=BTC-CNY|207=BTC_MARKET|270=0|271=0|279=0|269=0|55=BTC-CNY|207=BTC_MARKET|270=0|271=0|279=0|269=0|55=BTC-CNY|207=BTC_MARKET|270=0|271=0|279=0|269=1|55=BTC-CNY|207=BTC_MARKET|270=40200|271=300|279=0|269=1|55=BTC-CNY|207=BTC_MARKET|270=0|271=0|279=0|269=1|55=BTC-CNY|207=BTC_MARKET|270=0|271=0|279=0|269=1|55=BTC-CNY|207=BTC_MARKET|270=0|271=0|279=0|269=1|55=BTC-CNY|207=BTC_MARKET|270=0|271=0|279=0|269=4|55=BTC-CNY|207=BTC_MARKET|270=40100|271=0|10=145|
2025/08/22 06:46:38.827225 8=FIX.4.4|9=68|35=0|34=10|49=CRYPTO_TRADER_1|52=20250822-06:46:38.827|56=FIX_GWY_1|10=122|
2025/08/22 06:46:45.028080 8=FIX.4.4|9=77|35=1|34=11|49=CRYPTO_TRADER_1|52=20250822-06:46:45.028|56=FIX_GWY_1|112=TEST|10=133|
2025/08/22 06:46:45.029123 8=FIX.4.4|9=77|35=0|34=37|49=FIX_GWY_1|52=20250822-06:46:45.000|56=CRYPTO_TRADER_1|112=TEST|10=130|
2025/08/22 06:47:15.028736 8=FIX.4.4|9=68|35=0|34=12|49=CRYPTO_TRADER_1|52=20250822-06:47:15.028|56=FIX_GWY_1|10=113|
2025/08/22 06:47:15.029250 8=FIX.4.4|9=68|35=0|34=38|49=FIX_GWY_1|52=20250822-06:47:15.000|56=CRYPTO_TRADER_1|10=111|
2025/08/22 06:47:45.028838 8=FIX.4.4|9=68|35=0|34=13|49=CRYPTO_TRADER_1|52=20250822-06:47:45.028|56=FIX_GWY_1|10=117|
2025/08/22 06:47:45.029153 8=FIX.4.4|9=68|35=0|34=39|49=FIX_GWY_1|52=20250822-06:47:45.000|56=CRYPTO_TRADER_1|10=115|
2025/08/22 06:48:15.029060 8=FIX.4.4|9=68|35=0|34=14|49=CRYPTO_TRADER_1|52=20250822-06:48:15.029|56=FIX_GWY_1|10=117|
2025/08/22 06:48:15.031128 8=FIX.4.4|9=68|35=0|34=40|49=FIX_GWY_1|52=20250822-06:48:15.000|56=CRYPTO_TRADER_1|10=105|
2025/08/22 06:48:34.782578 8=FIX.4.4|9=175|35=D|34=15|49=CRYPTO_TRADER_1|52=20250822-06:48:34.782|56=FIX_GWY_1|11=investor_2:1755845030|38=100|40=1|44=40200|54=1|55=BTC-CNY|59=0|60=20250822-06:48:34.782|207=BTC_MARKET|10=085|
2025/08/22 06:48:34.784735 8=FIX.4.4|9=244|35=8|34=41|49=FIX_GWY_1|52=20250822-06:48:34.000|56=CRYPTO_TRADER_1|6=0|14=0|17=1000002|31=0|32=0|37=investor_2:1755845030|38=100|39=0|40=2|44=40200|54=1|55=BTC-CNY|58=OK|59=0|60=20250822-06:48:34.783259|99=0|103=0|150=0|151=100|207=BTC_MARKET|10=094|
2025/08/22 06:48:34.785099 8=FIX.4.4|9=250|35=8|34=42|49=FIX_GWY_1|52=20250822-06:48:34.000|56=CRYPTO_TRADER_1|6=402|14=100|17=1000003|31=402|32=100|37=investor_2:1755845030|38=100|39=2|40=2|44=40200|54=1|55=BTC-CNY|58=OK|59=0|60=20250822-06:48:34.784499|99=0|103=0|150=2|151=0|207=BTC_MARKET|10=149|
2025/08/22 06:48:34.785596 8=FIX.4.4|9=252|35=8|34=43|49=FIX_GWY_1|52=20250822-06:48:34.000|56=CRYPTO_TRADER_1|6=402|14=100|17=1000004|31=402|32=100|37=investor_2:1755845029|38=300|39=1|40=2|44=40200|54=2|55=BTC-CNY|58=OK|59=0|60=20250822-06:48:34.784500|99=0|103=0|150=1|151=200|207=BTC_MARKET|10=243|
2025/08/22 06:48:34.824982 8=FIX.4.4|9=795|35=X|34=44|49=FIX_GWY_1|52=20250822-06:48:34.000|56=CRYPTO_TRADER_1|268=14|279=0|269=0|55=BTC-CNY|207=BTC_MARKET|270=0|271=0|279=0|269=0|55=BTC-CNY|207=BTC_MARKET|270=0|271=0|279=0|269=0|55=BTC-CNY|207=BTC_MARKET|270=0|271=0|279=0|269=0|55=BTC-CNY|207=BTC_MARKET|270=0|271=0|279=0|269=0|55=BTC-CNY|207=BTC_MARKET|270=0|271=0|279=0|269=1|55=BTC-CNY|207=BTC_MARKET|270=40200|271=200|279=0|269=1|55=BTC-CNY|207=BTC_MARKET|270=0|271=0|279=0|269=1|55=BTC-CNY|207=BTC_MARKET|270=0|271=0|279=0|269=1|55=BTC-CNY|207=BTC_MARKET|270=0|271=0|279=0|269=1|55=BTC-CNY|207=BTC_MARKET|270=0|271=0|279=0|269=2|55=BTC-CNY|207=BTC_MARKET|270=40200|271=0|279=0|269=B|55=BTC-CNY|207=BTC_MARKET|270=0|271=100|279=0|269=4|55=BTC-CNY|207=BTC_MARKET|270=40100|271=0|279=0|269=8|55=BTC-CNY|207=BTC_MARKET|270=40100|271=0|10=108|
2025/08/22 06:49:04.801187 8=FIX.4.4|9=68|35=0|34=16|49=CRYPTO_TRADER_1|52=20250822-06:49:04.801|56=FIX_GWY_1|10=116|
2025/08/22 06:49:04.805249 8=FIX.4.4|9=68|35=0|34=45|49=FIX_GWY_1|52=20250822-06:49:04.000|56=CRYPTO_TRADER_1|10=109|
2025/08/22 06:49:24.772440 8=FIX.4.4|9=175|35=D|34=17|49=CRYPTO_TRADER_1|52=20250822-06:49:24.772|56=FIX_GWY_1|11=investor_2:1755845031|38=100|40=1|44=40300|54=1|55=BTC-CNY|59=0|60=20250822-06:49:24.772|207=BTC_MARKET|10=087|
2025/08/22 06:49:24.774364 8=FIX.4.4|9=244|35=8|34=46|49=FIX_GWY_1|52=20250822-06:49:24.000|56=CRYPTO_TRADER_1|6=0|14=0|17=1000005|31=0|32=0|37=investor_2:1755845031|38=100|39=0|40=2|44=40300|54=1|55=BTC-CNY|58=OK|59=0|60=20250822-06:49:24.773038|99=0|103=0|150=0|151=100|207=BTC_MARKET|10=098|
2025/08/22 06:49:24.775083 8=FIX.4.4|9=250|35=8|34=47|49=FIX_GWY_1|52=20250822-06:49:24.000|56=CRYPTO_TRADER_1|6=402|14=100|17=1000006|31=402|32=100|37=investor_2:1755845031|38=100|39=2|40=2|44=40300|54=1|55=BTC-CNY|58=OK|59=0|60=20250822-06:49:24.774084|99=0|103=0|150=2|151=0|207=BTC_MARKET|10=148|
2025/08/22 06:49:24.775589 8=FIX.4.4|9=252|35=8|34=48|49=FIX_GWY_1|52=20250822-06:49:24.000|56=CRYPTO_TRADER_1|6=402|14=200|17=1000007|31=402|32=100|37=investor_2:1755845029|38=300|39=1|40=2|44=40200|54=2|55=BTC-CNY|58=OK|59=0|60=20250822-06:49:24.774086|99=0|103=0|150=1|151=100|207=BTC_MARKET|10=003|
2025/08/22 06:49:24.967151 8=FIX.4.4|9=795|35=X|34=49|49=FIX_GWY_1|52=20250822-06:49:24.000|56=CRYPTO_TRADER_1|268=14|279=0|269=0|55=BTC-CNY|207=BTC_MARKET|270=0|271=0|279=0|269=0|55=BTC-CNY|207=BTC_MARKET|270=0|271=0|279=0|269=0|55=BTC-CNY|207=BTC_MARKET|270=0|271=0|279=0|269=0|55=BTC-CNY|207=BTC_MARKET|270=0|271=0|279=0|269=0|55=BTC-CNY|207=BTC_MARKET|270=0|271=0|279=0|269=1|55=BTC-CNY|207=BTC_MARKET|270=40200|271=100|279=0|269=1|55=BTC-CNY|207=BTC_MARKET|270=0|271=0|279=0|269=1|55=BTC-CNY|207=BTC_MARKET|270=0|271=0|279=0|269=1|55=BTC-CNY|207=BTC_MARKET|270=0|271=0|279=0|269=1|55=BTC-CNY|207=BTC_MARKET|270=0|271=0|279=0|269=2|55=BTC-CNY|207=BTC_MARKET|270=40200|271=0|279=0|269=B|55=BTC-CNY|207=BTC_MARKET|270=0|271=200|279=0|269=4|55=BTC-CNY|207=BTC_MARKET|270=40100|271=0|279=0|269=8|55=BTC-CNY|207=BTC_MARKET|270=40100|271=0|10=113|
2025/08/22 06:49:54.774070 8=FIX.4.4|9=68|35=0|34=18|49=CRYPTO_TRADER_1|52=20250822-06:49:54.774|56=FIX_GWY_1|10=132|
2025/08/22 06:49:54.774396 8=FIX.4.4|9=68|35=0|34=50|49=FIX_GWY_1|52=20250822-06:49:54.000|56=CRYPTO_TRADER_1|10=110|
2025/08/22 06:50:11.227747 8=FIX.4.4|9=175|35=D|34=19|49=CRYPTO_TRADER_1|52=20250822-06:50:11.227|56=FIX_GWY_1|11=investor_2:1755845032|38=100|40=1|44=40000|54=1|55=BTC-CNY|59=0|60=20250822-06:50:11.227|207=BTC_MARKET|10=053|
2025/08/22 06:50:11.230028 8=FIX.4.4|9=244|35=8|34=51|49=FIX_GWY_1|52=20250822-06:50:11.000|56=CRYPTO_TRADER_1|6=0|14=0|17=1000008|31=0|32=0|37=investor_2:1755845032|38=100|39=0|40=2|44=40000|54=1|55=BTC-CNY|58=OK|59=0|60=20250822-06:50:11.228841|99=0|103=0|150=0|151=100|207=BTC_MARKET|10=068|
2025/08/22 06:50:11.268782 8=FIX.4.4|9=801|35=X|34=52|49=FIX_GWY_1|52=20250822-06:50:11.000|56=CRYPTO_TRADER_1|268=14|279=0|269=0|55=BTC-CNY|207=BTC_MARKET|270=40000|271=100|279=0|269=0|55=BTC-CNY|207=BTC_MARKET|270=0|271=0|279=0|269=0|55=BTC-CNY|207=BTC_MARKET|270=0|271=0|279=0|269=0|55=BTC-CNY|207=BTC_MARKET|270=0|271=0|279=0|269=0|55=BTC-CNY|207=BTC_MARKET|270=0|271=0|279=0|269=1|55=BTC-CNY|207=BTC_MARKET|270=40200|271=100|279=0|269=1|55=BTC-CNY|207=BTC_MARKET|270=0|271=0|279=0|269=1|55=BTC-CNY|207=BTC_MARKET|270=0|271=0|279=0|269=1|55=BTC-CNY|207=BTC_MARKET|270=0|271=0|279=0|269=1|55=BTC-CNY|207=BTC_MARKET|270=0|271=0|279=0|269=2|55=BTC-CNY|207=BTC_MARKET|270=40200|271=0|279=0|269=B|55=BTC-CNY|207=BTC_MARKET|270=0|271=200|279=0|269=4|55=BTC-CNY|207=BTC_MARKET|270=40100|271=0|279=0|269=8|55=BTC-CNY|207=BTC_MARKET|270=40100|271=0|10=120|
2025/08/22 06:50:41.228472 8=FIX.4.4|9=68|35=0|34=20|49=CRYPTO_TRADER_1|52=20250822-06:50:41.228|56=FIX_GWY_1|10=107|
2025/08/22 06:50:41.228890 8=FIX.4.4|9=68|35=0|34=53|49=FIX_GWY_1|52=20250822-06:50:41.000|56=CRYPTO_TRADER_1|10=101|
2025/08/22 06:51:11.229571 8=FIX.4.4|9=68|35=0|34=21|49=CRYPTO_TRADER_1|52=20250822-06:51:11.229|56=FIX_GWY_1|10=107|
2025/08/22 06:51:11.229840 8=FIX.4.4|9=68|35=0|34=54|49=FIX_GWY_1|52=20250822-06:51:11.000|56=CRYPTO_TRADER_1|10=100|
2025/08/22 06:51:41.230337 8=FIX.4.4|9=68|35=0|34=22|49=CRYPTO_TRADER_1|52=20250822-06:51:41.230|56=FIX_GWY_1|10=103|
2025/08/22 06:51:41.230617 8=FIX.4.4|9=68|35=0|34=55|49=FIX_GWY_1|52=20250822-06:51:41.000|56=CRYPTO_TRADER_1|10=104|
2025/08/22 06:52:11.230499 8=FIX.4.4|9=68|35=0|34=23|49=CRYPTO_TRADER_1|52=20250822-06:52:11.230|56=FIX_GWY_1|10=102|
2025/08/22 06:52:11.230869 8=FIX.4.4|9=68|35=0|34=56|49=FIX_GWY_1|52=20250822-06:52:11.000|56=CRYPTO_TRADER_1|10=103|
2025/08/22 06:52:41.230636 8=FIX.4.4|9=68|35=0|34=24|49=CRYPTO_TRADER_1|52=20250822-06:52:41.230|56=FIX_GWY_1|10=106|
2025/08/22 06:52:41.232478 8=FIX.4.4|9=68|35=0|34=57|49=FIX_GWY_1|52=20250822-06:52:41.000|56=CRYPTO_TRADER_1|10=107|
2025/08/22 06:53:11.232254 8=FIX.4.4|9=68|35=0|34=25|49=CRYPTO_TRADER_1|52=20250822-06:53:11.232|56=FIX_GWY_1|10=107|
2025/08/22 06:53:11.232578 8=FIX.4.4|9=68|35=0|34=58|49=FIX_GWY_1|52=20250822-06:53:11.000|56=CRYPTO_TRADER_1|10=106|
2025/08/22 06:53:41.233295 8=FIX.4.4|9=68|35=0|34=26|49=CRYPTO_TRADER_1|52=20250822-06:53:41.233|56=FIX_GWY_1|10=112|
2025/08/22 06:53:41.233587 8=FIX.4.4|9=68|35=0|34=59|49=FIX_GWY_1|52=20250822-06:53:41.000|56=CRYPTO_TRADER_1|10=110|
2025/08/22 06:54:11.233855 8=FIX.4.4|9=68|35=0|34=27|49=CRYPTO_TRADER_1|52=20250822-06:54:11.233|56=FIX_GWY_1|10=111|
2025/08/22 06:54:11.234233 8=FIX.4.4|9=68|35=0|34=60|49=FIX_GWY_1|52=20250822-06:54:11.000|56=CRYPTO_TRADER_1|10=100|
2025/08/22 06:54:41.234013 8=FIX.4.4|9=68|35=0|34=28|49=CRYPTO_TRADER_1|52=20250822-06:54:41.234|56=FIX_GWY_1|10=116|
2025/08/22 06:54:41.234625 8=FIX.4.4|9=68|35=0|34=61|49=FIX_GWY_1|52=20250822-06:54:41.000|56=CRYPTO_TRADER_1|10=104|
2025/08/22 06:55:11.235090 8=FIX.4.4|9=68|35=0|34=29|49=CRYPTO_TRADER_1|52=20250822-06:55:11.235|56=FIX_GWY_1|10=116|
2025/08/22 06:55:11.235397 8=FIX.4.4|9=68|35=0|34=62|49=FIX_GWY_1|52=20250822-06:55:11.000|56=CRYPTO_TRADER_1|10=103|
2025/08/22 06:55:41.235248 8=FIX.4.4|9=68|35=0|34=30|49=CRYPTO_TRADER_1|52=20250822-06:55:41.235|56=FIX_GWY_1|10=111|
2025/08/22 06:55:41.235524 8=FIX.4.4|9=68|35=0|34=63|49=FIX_GWY_1|52=20250822-06:55:41.000|56=CRYPTO_TRADER_1|10=107|
2025/08/22 06:56:11.235632 8=FIX.4.4|9=68|35=0|34=31|49=CRYPTO_TRADER_1|52=20250822-06:56:11.235|56=FIX_GWY_1|10=110|
2025/08/22 06:56:11.235948 8=FIX.4.4|9=68|35=0|34=64|49=FIX_GWY_1|52=20250822-06:56:11.000|56=CRYPTO_TRADER_1|10=106|
2025/08/22 06:56:41.236412 8=FIX.4.4|9=68|35=0|34=32|49=CRYPTO_TRADER_1|52=20250822-06:56:41.236|56=FIX_GWY_1|10=115|
2025/08/22 06:56:41.236876 8=FIX.4.4|9=68|35=0|34=65|49=FIX_GWY_1|52=20250822-06:56:41.000|56=CRYPTO_TRADER_1|10=110|
2025/08/22 06:57:11.236999 8=FIX.4.4|9=68|35=0|34=33|49=CRYPTO_TRADER_1|52=20250822-06:57:11.236|56=FIX_GWY_1|10=114|
2025/08/22 06:57:11.237334 8=FIX.4.4|9=68|35=0|34=66|49=FIX_GWY_1|52=20250822-06:57:11.000|56=CRYPTO_TRADER_1|10=109|
2025/08/22 06:57:41.237119 8=FIX.4.4|9=68|35=0|34=34|49=CRYPTO_TRADER_1|52=20250822-06:57:41.237|56=FIX_GWY_1|10=119|
2025/08/22 06:57:41.237448 8=FIX.4.4|9=68|35=0|34=67|49=FIX_GWY_1|52=20250822-06:57:41.000|56=CRYPTO_TRADER_1|10=113|
2025/08/22 06:58:11.237876 8=FIX.4.4|9=68|35=0|34=35|49=CRYPTO_TRADER_1|52=20250822-06:58:11.237|56=FIX_GWY_1|10=118|
2025/08/22 06:58:11.238349 8=FIX.4.4|9=68|35=0|34=68|49=FIX_GWY_1|52=20250822-06:58:11.000|56=CRYPTO_TRADER_1|10=112|
2025/08/22 06:58:41.238056 8=FIX.4.4|9=68|35=0|34=36|49=CRYPTO_TRADER_1|52=20250822-06:58:41.238|56=FIX_GWY_1|10=123|
2025/08/22 06:58:41.238511 8=FIX.4.4|9=68|35=0|34=69|49=FIX_GWY_1|52=20250822-06:58:41.000|56=CRYPTO_TRADER_1|10=116|
2025/08/22 06:59:11.238204 8=FIX.4.4|9=68|35=0|34=37|49=CRYPTO_TRADER_1|52=20250822-06:59:11.238|56=FIX_GWY_1|10=122|
2025/08/22 06:59:11.238531 8=FIX.4.4|9=68|35=0|34=70|49=FIX_GWY_1|52=20250822-06:59:11.000|56=CRYPTO_TRADER_1|10=106|
2025/08/22 06:59:41.238971 8=FIX.4.4|9=68|35=0|34=38|49=CRYPTO_TRADER_1|52=20250822-06:59:41.238|56=FIX_GWY_1|10=126|
2025/08/22 06:59:41.239530 8=FIX.4.4|9=68|35=0|34=71|49=FIX_GWY_1|52=20250822-06:59:41.000|56=CRYPTO_TRADER_1|10=110|
2025/08/22 07:00:11.239435 8=FIX.4.4|9=68|35=0|34=39|49=CRYPTO_TRADER_1|52=20250822-07:00:11.239|56=FIX_GWY_1|10=112|
2025/08/22 07:00:11.241398 8=FIX.4.4|9=68|35=0|34=72|49=FIX_GWY_1|52=20250822-07:00:11.000|56=CRYPTO_TRADER_1|10=095|
2025/08/22 07:00:41.242141 8=FIX.4.4|9=68|35=0|34=40|49=CRYPTO_TRADER_1|52=20250822-07:00:41.242|56=FIX_GWY_1|10=101|
2025/08/22 07:00:41.243232 8=FIX.4.4|9=68|35=0|34=73|49=FIX_GWY_1|52=20250822-07:00:41.000|56=CRYPTO_TRADER_1|10=099|
2025/08/22 07:01:11.242487 8=FIX.4.4|9=68|35=0|34=41|49=CRYPTO_TRADER_1|52=20250822-07:01:11.242|56=FIX_GWY_1|10=100|
2025/08/22 07:01:11.243416 8=FIX.4.4|9=68|35=0|34=74|49=FIX_GWY_1|52=20250822-07:01:11.000|56=CRYPTO_TRADER_1|10=098|
2025/08/22 07:01:41.242752 8=FIX.4.4|9=68|35=0|34=42|49=CRYPTO_TRADER_1|52=20250822-07:01:41.242|56=FIX_GWY_1|10=104|
2025/08/22 07:01:41.243498 8=FIX.4.4|9=68|35=0|34=75|49=FIX_GWY_1|52=20250822-07:01:41.000|56=CRYPTO_TRADER_1|10=102|
2025/08/22 07:02:11.243793 8=FIX.4.4|9=68|35=0|34=43|49=CRYPTO_TRADER_1|52=20250822-07:02:11.243|56=FIX_GWY_1|10=104|
2025/08/22 07:02:11.244777 8=FIX.4.4|9=68|35=0|34=76|49=FIX_GWY_1|52=20250822-07:02:11.000|56=CRYPTO_TRADER_1|10=101|
2025/08/22 07:02:41.245476 8=FIX.4.4|9=68|35=0|34=44|49=CRYPTO_TRADER_1|52=20250822-07:02:41.245|56=FIX_GWY_1|10=110|
2025/08/22 07:02:41.246330 8=FIX.4.4|9=68|35=0|34=77|49=FIX_GWY_1|52=20250822-07:02:41.000|56=CRYPTO_TRADER_1|10=105|
2025/08/22 07:03:11.247231 8=FIX.4.4|9=68|35=0|34=45|49=CRYPTO_TRADER_1|52=20250822-07:03:11.247|56=FIX_GWY_1|10=111|
2025/08/22 07:03:11.247923 8=FIX.4.4|9=68|35=0|34=78|49=FIX_GWY_1|52=20250822-07:03:11.000|56=CRYPTO_TRADER_1|10=104|
2025/08/22 07:03:41.247902 8=FIX.4.4|9=68|35=0|34=46|49=CRYPTO_TRADER_1|52=20250822-07:03:41.247|56=FIX_GWY_1|10=115|
2025/08/22 07:03:41.249659 8=FIX.4.4|9=68|35=0|34=79|49=FIX_GWY_1|52=20250822-07:03:41.000|56=CRYPTO_TRADER_1|10=108|
2025/08/22 07:04:11.249007 8=FIX.4.4|9=68|35=0|34=47|49=CRYPTO_TRADER_1|52=20250822-07:04:11.248|56=FIX_GWY_1|10=115|
2025/08/22 07:04:11.249955 8=FIX.4.4|9=68|35=0|34=80|49=FIX_GWY_1|52=20250822-07:04:11.000|56=CRYPTO_TRADER_1|10=098|
2025/08/22 07:04:41.250200 8=FIX.4.4|9=68|35=0|34=48|49=CRYPTO_TRADER_1|52=20250822-07:04:41.250|56=FIX_GWY_1|10=112|
2025/08/22 07:04:41.251123 8=FIX.4.4|9=68|35=0|34=81|49=FIX_GWY_1|52=20250822-07:04:41.000|56=CRYPTO_TRADER_1|10=102|
2025/08/22 07:05:11.250756 8=FIX.4.4|9=68|35=0|34=49|49=CRYPTO_TRADER_1|52=20250822-07:05:11.250|56=FIX_GWY_1|10=111|
2025/08/22 07:05:11.251671 8=FIX.4.4|9=68|35=0|34=82|49=FIX_GWY_1|52=20250822-07:05:11.000|56=CRYPTO_TRADER_1|10=101|
2025/08/22 07:05:41.253038 8=FIX.4.4|9=68|35=0|34=50|49=CRYPTO_TRADER_1|52=20250822-07:05:41.253|56=FIX_GWY_1|10=109|
2025/08/22 07:05:41.253796 8=FIX.4.4|9=68|35=0|34=83|49=FIX_GWY_1|52=20250822-07:05:41.000|56=CRYPTO_TRADER_1|10=105|
2025/08/22 07:06:11.253779 8=FIX.4.4|9=68|35=0|34=51|49=CRYPTO_TRADER_1|52=20250822-07:06:11.253|56=FIX_GWY_1|10=108|
2025/08/22 07:06:11.255486 8=FIX.4.4|9=68|35=0|34=84|49=FIX_GWY_1|52=20250822-07:06:11.000|56=CRYPTO_TRADER_1|10=104|
2025/08/22 07:06:41.255955 8=FIX.4.4|9=68|35=0|34=52|49=CRYPTO_TRADER_1|52=20250822-07:06:41.255|56=FIX_GWY_1|10=114|
2025/08/22 07:06:41.257785 8=FIX.4.4|9=68|35=0|34=85|49=FIX_GWY_1|52=20250822-07:06:41.000|56=CRYPTO_TRADER_1|10=108|
2025/08/22 07:07:11.257615 8=FIX.4.4|9=68|35=0|34=53|49=CRYPTO_TRADER_1|52=20250822-07:07:11.257|56=FIX_GWY_1|10=115|
2025/08/22 07:07:11.258460 8=FIX.4.4|9=68|35=0|34=86|49=FIX_GWY_1|52=20250822-07:07:11.000|56=CRYPTO_TRADER_1|10=107|
2025/08/22 07:07:41.259028 8=FIX.4.4|9=68|35=0|34=54|49=CRYPTO_TRADER_1|52=20250822-07:07:41.259|56=FIX_GWY_1|10=121|
2025/08/22 07:07:41.259909 8=FIX.4.4|9=68|35=0|34=87|49=FIX_GWY_1|52=20250822-07:07:41.000|56=CRYPTO_TRADER_1|10=111|
2025/08/22 07:08:11.260750 8=FIX.4.4|9=68|35=0|34=55|49=CRYPTO_TRADER_1|52=20250822-07:08:11.260|56=FIX_GWY_1|10=112|
2025/08/22 07:08:11.261724 8=FIX.4.4|9=68|35=0|34=88|49=FIX_GWY_1|52=20250822-07:08:11.000|56=CRYPTO_TRADER_1|10=110|
2025/08/22 07:08:41.262864 8=FIX.4.4|9=68|35=0|34=56|49=CRYPTO_TRADER_1|52=20250822-07:08:41.262|56=FIX_GWY_1|10=118|
2025/08/22 07:08:41.263877 8=FIX.4.4|9=68|35=0|34=89|49=FIX_GWY_1|52=20250822-07:08:41.000|56=CRYPTO_TRADER_1|10=114|
2025/08/22 07:09:11.263592 8=FIX.4.4|9=68|35=0|34=57|49=CRYPTO_TRADER_1|52=20250822-07:09:11.263|56=FIX_GWY_1|10=118|
2025/08/22 07:09:11.265095 8=FIX.4.4|9=68|35=0|34=90|49=FIX_GWY_1|52=20250822-07:09:11.000|56=CRYPTO_TRADER_1|10=104|
2025/08/22 07:09:41.266118 8=FIX.4.4|9=68|35=0|34=58|49=CRYPTO_TRADER_1|52=20250822-07:09:41.266|56=FIX_GWY_1|10=125|
2025/08/22 07:09:41.267078 8=FIX.4.4|9=68|35=0|34=91|49=FIX_GWY_1|52=20250822-07:09:41.000|56=CRYPTO_TRADER_1|10=108|
2025/08/22 07:10:11.268368 8=FIX.4.4|9=68|35=0|34=59|49=CRYPTO_TRADER_1|52=20250822-07:10:11.268|56=FIX_GWY_1|10=117|
2025/08/22 07:10:11.269292 8=FIX.4.4|9=68|35=0|34=92|49=FIX_GWY_1|52=20250822-07:10:11.000|56=CRYPTO_TRADER_1|10=098|
2025/08/22 07:10:41.268648 8=FIX.4.4|9=68|35=0|34=60|49=CRYPTO_TRADER_1|52=20250822-07:10:41.268|56=FIX_GWY_1|10=112|
2025/08/22 07:10:41.269658 8=FIX.4.4|9=68|35=0|34=93|49=FIX_GWY_1|52=20250822-07:10:41.000|56=CRYPTO_TRADER_1|10=102|
2025/08/22 07:11:11.270364 8=FIX.4.4|9=68|35=0|34=61|49=CRYPTO_TRADER_1|52=20250822-07:11:11.270|56=FIX_GWY_1|10=104|
2025/08/22 07:11:11.271138 8=FIX.4.4|9=68|35=0|34=94|49=FIX_GWY_1|52=20250822-07:11:11.000|56=CRYPTO_TRADER_1|10=101|
2025/08/22 07:11:41.272038 8=FIX.4.4|9=68|35=0|34=62|49=CRYPTO_TRADER_1|52=20250822-07:11:41.272|56=FIX_GWY_1|10=110|
2025/08/22 07:11:41.272923 8=FIX.4.4|9=68|35=0|34=95|49=FIX_GWY_1|52=20250822-07:11:41.000|56=CRYPTO_TRADER_1|10=105|
2025/08/22 07:12:11.272348 8=FIX.4.4|9=68|35=0|34=63|49=CRYPTO_TRADER_1|52=20250822-07:12:11.272|56=FIX_GWY_1|10=109|
2025/08/22 07:12:11.274285 8=FIX.4.4|9=68|35=0|34=96|49=FIX_GWY_1|52=20250822-07:12:11.000|56=CRYPTO_TRADER_1|10=104|
2025/08/22 07:12:41.275179 8=FIX.4.4|9=68|35=0|34=64|49=CRYPTO_TRADER_1|52=20250822-07:12:41.275|56=FIX_GWY_1|10=116|
2025/08/22 07:12:41.276830 8=FIX.4.4|9=68|35=0|34=97|49=FIX_GWY_1|52=20250822-07:12:41.000|56=CRYPTO_TRADER_1|10=108|
2025/08/22 07:13:11.277429 8=FIX.4.4|9=68|35=0|34=65|49=CRYPTO_TRADER_1|52=20250822-07:13:11.277|56=FIX_GWY_1|10=117|
2025/08/22 07:13:11.278412 8=FIX.4.4|9=68|35=0|34=98|49=FIX_GWY_1|52=20250822-07:13:11.000|56=CRYPTO_TRADER_1|10=107|
2025/08/22 07:13:41.278903 8=FIX.4.4|9=68|35=0|34=66|49=CRYPTO_TRADER_1|52=20250822-07:13:41.278|56=FIX_GWY_1|10=122|
2025/08/22 07:13:41.279908 8=FIX.4.4|9=68|35=0|34=99|49=FIX_GWY_1|52=20250822-07:13:41.000|56=CRYPTO_TRADER_1|10=111|
2025/08/22 07:14:11.279720 8=FIX.4.4|9=68|35=0|34=67|49=CRYPTO_TRADER_1|52=20250822-07:14:11.279|56=FIX_GWY_1|10=122|
2025/08/22 07:14:11.280722 8=FIX.4.4|9=69|35=0|34=100|49=FIX_GWY_1|52=20250822-07:14:11.000|56=CRYPTO_TRADER_1|10=141|
2025/08/22 07:14:41.281207 8=FIX.4.4|9=68|35=0|34=68|49=CRYPTO_TRADER_1|52=20250822-07:14:41.281|56=FIX_GWY_1|10=119|
2025/08/22 07:14:41.281995 8=FIX.4.4|9=69|35=0|34=101|49=FIX_GWY_1|52=20250822-07:14:41.000|56=CRYPTO_TRADER_1|10=145|
2025/08/22 07:18:07.094460 8=FIX.4.4|9=68|35=0|34=69|49=CRYPTO_TRADER_1|52=20250822-07:18:07.094|56=FIX_GWY_1|10=128|
2025/08/22 07:18:07.095876 8=FIX.4.4|9=69|35=0|34=102|49=FIX_GWY_1|52=20250822-07:18:07.000|56=CRYPTO_TRADER_1|10=152|
2025/08/22 07:18:37.095705 8=FIX.4.4|9=68|35=0|34=70|49=CRYPTO_TRADER_1|52=20250822-07:18:37.095|56=FIX_GWY_1|10=124|
2025/08/22 07:18:37.096094 8=FIX.4.4|9=69|35=0|34=103|49=FIX_GWY_1|52=20250822-07:18:37.000|56=CRYPTO_TRADER_1|10=156|
2025/08/22 07:19:07.095472 8=FIX.4.4|9=68|35=0|34=71|49=CRYPTO_TRADER_1|52=20250822-07:19:07.095|56=FIX_GWY_1|10=123|
2025/08/22 07:19:07.096642 8=FIX.4.4|9=69|35=0|34=104|49=FIX_GWY_1|52=20250822-07:19:07.000|56=CRYPTO_TRADER_1|10=155|
2025/08/22 07:19:37.096678 8=FIX.4.4|9=68|35=0|34=72|49=CRYPTO_TRADER_1|52=20250822-07:19:37.096|56=FIX_GWY_1|10=128|
2025/08/22 07:19:37.097109 8=FIX.4.4|9=69|35=0|34=105|49=FIX_GWY_1|52=20250822-07:19:37.000|56=CRYPTO_TRADER_1|10=159|
2025/08/22 07:20:07.096809 8=FIX.4.4|9=68|35=0|34=73|49=CRYPTO_TRADER_1|52=20250822-07:20:07.096|56=FIX_GWY_1|10=118|
2025/08/22 07:20:07.097305 8=FIX.4.4|9=69|35=0|34=106|49=FIX_GWY_1|52=20250822-07:20:07.000|56=CRYPTO_TRADER_1|10=149|
2025/08/22 07:20:37.097525 8=FIX.4.4|9=68|35=0|34=74|49=CRYPTO_TRADER_1|52=20250822-07:20:37.097|56=FIX_GWY_1|10=123|
2025/08/22 07:20:37.097887 8=FIX.4.4|9=69|35=0|34=107|49=FIX_GWY_1|52=20250822-07:20:37.000|56=CRYPTO_TRADER_1|10=153|
2025/08/22 07:21:07.098033 8=FIX.4.4|9=68|35=0|34=75|49=CRYPTO_TRADER_1|52=20250822-07:21:07.098|56=FIX_GWY_1|10=123|
2025/08/22 07:21:07.098493 8=FIX.4.4|9=69|35=0|34=108|49=FIX_GWY_1|52=20250822-07:21:07.000|56=CRYPTO_TRADER_1|10=152|
2025/08/22 07:21:37.098738 8=FIX.4.4|9=68|35=0|34=76|49=CRYPTO_TRADER_1|52=20250822-07:21:37.098|56=FIX_GWY_1|10=127|
2025/08/22 07:21:37.099166 8=FIX.4.4|9=69|35=0|34=109|49=FIX_GWY_1|52=20250822-07:21:37.000|56=CRYPTO_TRADER_1|10=156|
2025/08/22 07:22:07.098870 8=FIX.4.4|9=68|35=0|34=77|49=CRYPTO_TRADER_1|52=20250822-07:22:07.098|56=FIX_GWY_1|10=126|
2025/08/22 07:22:07.099318 8=FIX.4.4|9=69|35=0|34=110|49=FIX_GWY_1|52=20250822-07:22:07.000|56=CRYPTO_TRADER_1|10=146|
2025/08/22 07:22:37.099101 8=FIX.4.4|9=68|35=0|34=78|49=CRYPTO_TRADER_1|52=20250822-07:22:37.099|56=FIX_GWY_1|10=131|
2025/08/22 07:22:37.099461 8=FIX.4.4|9=69|35=0|34=111|49=FIX_GWY_1|52=20250822-07:22:37.000|56=CRYPTO_TRADER_1|10=150|
2025/08/22 07:23:07.098868 8=FIX.4.4|9=68|35=0|34=79|49=CRYPTO_TRADER_1|52=20250822-07:23:07.098|56=FIX_GWY_1|10=129|
2025/08/22 07:23:07.099319 8=FIX.4.4|9=69|35=0|34=112|49=FIX_GWY_1|52=20250822-07:23:07.000|56=CRYPTO_TRADER_1|10=149|
2025/08/22 07:23:37.098872 8=FIX.4.4|9=68|35=0|34=80|49=CRYPTO_TRADER_1|52=20250822-07:23:37.098|56=FIX_GWY_1|10=124|
2025/08/22 07:23:37.099350 8=FIX.4.4|9=69|35=0|34=113|49=FIX_GWY_1|52=20250822-07:23:37.000|56=CRYPTO_TRADER_1|10=153|
2025/08/22 07:24:07.099090 8=FIX.4.4|9=68|35=0|34=81|49=CRYPTO_TRADER_1|52=20250822-07:24:07.099|56=FIX_GWY_1|10=124|
2025/08/22 07:24:07.099467 8=FIX.4.4|9=69|35=0|34=114|49=FIX_GWY_1|52=20250822-07:24:07.000|56=CRYPTO_TRADER_1|10=152|
2025/08/22 07:24:37.098860 8=FIX.4.4|9=68|35=0|34=82|49=CRYPTO_TRADER_1|52=20250822-07:24:37.098|56=FIX_GWY_1|10=127|
2025/08/22 07:24:37.099133 8=FIX.4.4|9=69|35=0|34=115|49=FIX_GWY_1|52=20250822-07:24:37.000|56=CRYPTO_TRADER_1|10=156|
2025/08/22 07:25:07.098569 8=FIX.4.4|9=68|35=0|34=83|49=CRYPTO_TRADER_1|52=20250822-07:25:07.098|56=FIX_GWY_1|10=126|
2025/08/22 07:25:07.098940 8=FIX.4.4|9=69|35=0|34=116|49=FIX_GWY_1|52=20250822-07:25:07.000|56=CRYPTO_TRADER_1|10=155|
2025/08/22 07:25:37.098933 8=FIX.4.4|9=68|35=0|34=84|49=CRYPTO_TRADER_1|52=20250822-07:25:37.098|56=FIX_GWY_1|10=130|
2025/08/22 07:25:37.099281 8=FIX.4.4|9=69|35=0|34=117|49=FIX_GWY_1|52=20250822-07:25:37.000|56=CRYPTO_TRADER_1|10=159|
2025/08/22 07:26:07.099097 8=FIX.4.4|9=68|35=0|34=85|49=CRYPTO_TRADER_1|52=20250822-07:26:07.099|56=FIX_GWY_1|10=130|
2025/08/22 07:26:07.099598 8=FIX.4.4|9=69|35=0|34=118|49=FIX_GWY_1|52=20250822-07:26:07.000|56=CRYPTO_TRADER_1|10=158|
2025/08/22 07:26:37.098813 8=FIX.4.4|9=68|35=0|34=86|49=CRYPTO_TRADER_1|52=20250822-07:26:37.098|56=FIX_GWY_1|10=133|
2025/08/22 07:26:37.099139 8=FIX.4.4|9=69|35=0|34=119|49=FIX_GWY_1|52=20250822-07:26:37.000|56=CRYPTO_TRADER_1|10=162|
2025/08/22 07:27:07.099486 8=FIX.4.4|9=68|35=0|34=87|49=CRYPTO_TRADER_1|52=20250822-07:27:07.099|56=FIX_GWY_1|10=133|
2025/08/22 07:27:07.099886 8=FIX.4.4|9=69|35=0|34=120|49=FIX_GWY_1|52=20250822-07:27:07.000|56=CRYPTO_TRADER_1|10=152|
2025/08/22 07:27:37.100252 8=FIX.4.4|9=68|35=0|34=88|49=CRYPTO_TRADER_1|52=20250822-07:27:37.100|56=FIX_GWY_1|10=120|
2025/08/22 07:27:37.100730 8=FIX.4.4|9=69|35=0|34=121|49=FIX_GWY_1|52=20250822-07:27:37.000|56=CRYPTO_TRADER_1|10=156|
2025/08/22 07:28:07.101063 8=FIX.4.4|9=68|35=0|34=89|49=CRYPTO_TRADER_1|52=20250822-07:28:07.101|56=FIX_GWY_1|10=120|
2025/08/22 07:28:07.101337 8=FIX.4.4|9=69|35=0|34=122|49=FIX_GWY_1|52=20250822-07:28:07.000|56=CRYPTO_TRADER_1|10=155|
2025/08/22 07:28:37.101130 8=FIX.4.4|9=68|35=0|34=90|49=CRYPTO_TRADER_1|52=20250822-07:28:37.101|56=FIX_GWY_1|10=115|
2025/08/22 07:28:37.101447 8=FIX.4.4|9=69|35=0|34=123|49=FIX_GWY_1|52=20250822-07:28:37.000|56=CRYPTO_TRADER_1|10=159|
2025/08/22 07:29:07.101809 8=FIX.4.4|9=68|35=0|34=91|49=CRYPTO_TRADER_1|52=20250822-07:29:07.101|56=FIX_GWY_1|10=114|
2025/08/22 07:29:07.102114 8=FIX.4.4|9=69|35=0|34=124|49=FIX_GWY_1|52=20250822-07:29:07.000|56=CRYPTO_TRADER_1|10=158|
2025/08/22 07:29:37.102459 8=FIX.4.4|9=68|35=0|34=92|49=CRYPTO_TRADER_1|52=20250822-07:29:37.102|56=FIX_GWY_1|10=119|
2025/08/22 07:29:37.102941 8=FIX.4.4|9=69|35=0|34=125|49=FIX_GWY_1|52=20250822-07:29:37.000|56=CRYPTO_TRADER_1|10=162|
2025/08/22 07:30:07.102850 8=FIX.4.4|9=68|35=0|34=93|49=CRYPTO_TRADER_1|52=20250822-07:30:07.102|56=FIX_GWY_1|10=109|
2025/08/22 07:30:07.103175 8=FIX.4.4|9=69|35=0|34=126|49=FIX_GWY_1|52=20250822-07:30:07.000|56=CRYPTO_TRADER_1|10=152|
2025/08/22 07:30:37.103488 8=FIX.4.4|9=68|35=0|34=94|49=CRYPTO_TRADER_1|52=20250822-07:30:37.103|56=FIX_GWY_1|10=114|
2025/08/22 07:30:37.103852 8=FIX.4.4|9=69|35=0|34=127|49=FIX_GWY_1|52=20250822-07:30:37.000|56=CRYPTO_TRADER_1|10=156|
2025/08/22 07:31:33.001350 8=FIX.4.4|9=114|35=A|34=1|49=CRYPTO_TRADER_1|52=20250822-07:31:33.001|56=FIX_GWY_1|98=0|108=30|141=Y|553=CRYPTO_TRADER_1|554=TEST|10=056|
2025/08/22 07:31:33.239968 8=FIX.4.4|9=85|35=A|34=1|49=FIX_GWY_1|52=20250822-07:31:33.000|56=CRYPTO_TRADER_1|98=0|108=30|141=Y|10=133|
2025/08/22 07:31:33.240098 8=FIX.4.4|9=98|35=x|34=2|49=CRYPTO_TRADER_1|52=20250822-07:31:33.240|56=FIX_GWY_1|320=SecurityListRequest1|559=4|10=119|
2025/08/22 07:31:34.177731 8=FIX.4.4|9=1525|35=y|34=2|49=FIX_GWY_1|52=20250822-07:31:34.000|56=CRYPTO_TRADER_1|146=28|55=ADA-USD|207=OTHER_COIN_MARKET|58={"type":"Crypto"}|55=AVX-AUD|207=OTHER_COIN_MARKET|58={"type":"Crypto"}|55=BCH-CNY|207=OTHER_COIN_MARKET|58={"type":"Crypto"}|55=BTC-AUD|207=BTC_MARKET|58={"type":"Crypto"}|55=BTC-CAD|207=BTC_MARKET|58={"type":"Crypto"}|55=BTC-CNY|207=BTC_MARKET|58={"type":"Crypto"}|55=BTC-EUR|207=BTC_MARKET|58={"type":"Crypto"}|55=BTC-GBP|207=BTC_MARKET|58={"type":"Crypto"}|55=BTC-JPY|207=BTC_MARKET|58={"type":"Crypto"}|55=BTC-USD|207=BTC_MARKET|58={"type":"Crypto"}|55=DAI-USD|207=OTHER_COIN_MARKET|58={"type":"Crypto"}|55=DOT-GBP|207=OTHER_COIN_MARKET|58={"type":"Crypto"}|55=ETH-AUD|207=ETH_MARKET|58={"type":"Crypto"}|55=ETH-CAD|207=ETH_MARKET|58={"type":"Crypto"}|55=ETH-CNY|207=ETH_MARKET|58={"type":"Crypto"}|55=ETH-EUR|207=ETH_MARKET|58={"type":"Crypto"}|55=ETH-GBP|207=ETH_MARKET|58={"type":"Crypto"}|55=ETH-JPY|207=ETH_MARKET|58={"type":"Crypto"}|55=ETH-USD|207=ETH_MARKET|58={"type":"Crypto"}|55=LTC-JPY|207=OTHER_COIN_MARKET|58={"type":"Crypto"}|55=LUN-CAD|207=OTHER_COIN_MARKET|58={"type":"Crypto"}|55=MTC-CAD|207=OTHER_COIN_MARKET|58={"type":"Crypto"}|55=SOL-EUR|207=OTHER_COIN_MARKET|58={"type":"Crypto"}|55=UNI-JPY|207=OTHER_COIN_MARKET|58={"type":"Crypto"}|55=XLM-CNY|207=OTHER_COIN_MARKET|58={"type":"Crypto"}|55=XLM-EUR|207=OTHER_COIN_MARKET|58={"type":"Crypto"}|55=XMR-AUD|207=OTHER_COIN_MARKET|58={"type":"Crypto"}|55=XRP-GBP|207=OTHER_COIN_MARKET|58={"type":"Crypto"}|320=SecurityListRequest1|322=1|560=0|10=034|
2025/08/22 07:31:34.178075 8=FIX.4.4|9=959|35=V|34=3|49=CRYPTO_TRADER_1|52=20250822-07:31:34.178|56=FIX_GWY_1|146=28|55=ADA-USD|207=OTHER_COIN_MARKET|55=AVX-AUD|207=OTHER_COIN_MARKET|55=BCH-CNY|207=OTHER_COIN_MARKET|55=BTC-AUD|207=BTC_MARKET|55=BTC-CAD|207=BTC_MARKET|55=BTC-CNY|207=BTC_MARKET|55=BTC-EUR|207=BTC_MARKET|55=BTC-GBP|207=BTC_MARKET|55=BTC-JPY|207=BTC_MARKET|55=BTC-USD|207=BTC_MARKET|55=DAI-USD|207=OTHER_COIN_MARKET|55=DOT-GBP|207=OTHER_COIN_MARKET|55=ETH-AUD|207=ETH_MARKET|55=ETH-CAD|207=ETH_MARKET|55=ETH-CNY|207=ETH_MARKET|55=ETH-EUR|207=ETH_MARKET|55=ETH-GBP|207=ETH_MARKET|55=ETH-JPY|207=ETH_MARKET|55=ETH-USD|207=ETH_MARKET|55=LTC-JPY|207=OTHER_COIN_MARKET|55=LUN-CAD|207=OTHER_COIN_MARKET|55=MTC-CAD|207=OTHER_COIN_MARKET|55=SOL-EUR|207=OTHER_COIN_MARKET|55=UNI-JPY|207=OTHER_COIN_MARKET|55=XLM-CNY|207=OTHER_COIN_MARKET|55=XLM-EUR|207=OTHER_COIN_MARKET|55=XMR-AUD|207=OTHER_COIN_MARKET|55=XRP-GBP|207=OTHER_COIN_MARKET|262=MarketDataRequest1|263=1|264=0|265=1|267=2|269=0|269=1|10=184|
2025/08/22 07:31:35.181186 8=FIX.4.4|9=126|35=W|34=3|49=FIX_GWY_1|52=20250822-07:31:35.000|56=CRYPTO_TRADER_1|55=ADA-USD|207=OTHER_COIN_MARKET|268=1|269=4|270=101|271=0|10=163|
2025/08/22 07:31:35.181236 8=FIX.4.4|9=126|35=W|34=4|49=FIX_GWY_1|52=20250822-07:31:35.000|56=CRYPTO_TRADER_1|55=AVX-AUD|207=OTHER_COIN_MARKET|268=1|269=4|270=401|271=0|10=190|
2025/08/22 07:31:35.181281 8=FIX.4.4|9=126|35=W|34=5|49=FIX_GWY_1|52=20250822-07:31:35.000|56=CRYPTO_TRADER_1|55=BCH-CNY|207=OTHER_COIN_MARKET|268=1|269=4|270=401|271=0|10=173|
2025/08/22 07:31:35.181370 8=FIX.4.4|9=121|35=W|34=6|49=FIX_GWY_1|52=20250822-07:31:35.000|56=CRYPTO_TRADER_1|55=BTC-AUD|207=BTC_MARKET|268=1|269=4|270=40100|271=0|10=212|
2025/08/22 07:31:35.181423 8=FIX.4.4|9=121|35=W|34=7|49=FIX_GWY_1|52=20250822-07:31:35.000|56=CRYPTO_TRADER_1|55=BTC-CAD|207=BTC_MARKET|268=1|269=4|270=40100|271=0|10=195|
2025/08/22 07:31:35.181500 8=FIX.4.4|9=121|35=W|34=8|49=FIX_GWY_1|52=20250822-07:31:35.000|56=CRYPTO_TRADER_1|55=BTC-CNY|207=BTC_MARKET|268=1|269=4|270=40100|271=0|10=230|
2025/08/22 07:31:35.181552 8=FIX.4.4|9=121|35=W|34=9|49=FIX_GWY_1|52=20250822-07:31:35.000|56=CRYPTO_TRADER_1|55=BTC-EUR|207=BTC_MARKET|268=1|269=4|270=20100|271=0|10=231|
2025/08/22 07:31:35.181592 8=FIX.4.4|9=122|35=W|34=10|49=FIX_GWY_1|52=20250822-07:31:35.000|56=CRYPTO_TRADER_1|55=BTC-GBP|207=BTC_MARKET|268=1|269=4|270=30100|271=0|10=254|
2025/08/22 07:31:35.181716 8=FIX.4.4|9=122|35=W|34=11|49=FIX_GWY_1|52=20250822-07:31:35.000|56=CRYPTO_TRADER_1|55=BTC-JPY|207=BTC_MARKET|268=1|269=4|270=40100|271=0|10=026|
2025/08/22 07:31:35.181783 8=FIX.4.4|9=122|35=W|34=12|49=FIX_GWY_1|52=20250822-07:31:35.000|56=CRYPTO_TRADER_1|55=BTC-USD|207=BTC_MARKET|268=1|269=4|270=10100|271=0|10=017|
2025/08/22 07:31:35.181846 8=FIX.4.4|9=127|35=W|34=13|49=FIX_GWY_1|52=20250822-07:31:35.000|56=CRYPTO_TRADER_1|55=DAI-USD|207=OTHER_COIN_MARKET|268=1|269=4|270=101|271=0|10=221|
2025/08/22 07:31:35.181914 8=FIX.4.4|9=127|35=W|34=14|49=FIX_GWY_1|52=20250822-07:31:35.000|56=CRYPTO_TRADER_1|55=DOT-GBP|207=OTHER_COIN_MARKET|268=1|269=4|270=301|271=0|10=230|
2025/08/22 07:31:35.181998 8=FIX.4.4|9=121|35=W|34=15|49=FIX_GWY_1|52=20250822-07:31:35.000|56=CRYPTO_TRADER_1|55=ETH-AUD|207=ETH_MARKET|268=1|269=4|270=4010|271=0|10=228|
2025/08/22 07:31:35.182054 8=FIX.4.4|9=121|35=W|34=16|49=FIX_GWY_1|52=20250822-07:31:35.000|56=CRYPTO_TRADER_1|55=ETH-CAD|207=ETH_MARKET|268=1|269=4|270=4010|271=0|10=211|
2025/08/22 07:31:35.182116 8=FIX.4.4|9=121|35=W|34=17|49=FIX_GWY_1|52=20250822-07:31:35.000|56=CRYPTO_TRADER_1|55=ETH-CNY|207=ETH_MARKET|268=1|269=4|270=4010|271=0|10=246|
2025/08/22 07:31:35.182207 8=FIX.4.4|9=121|35=W|34=18|49=FIX_GWY_1|52=20250822-07:31:35.000|56=CRYPTO_TRADER_1|55=ETH-EUR|207=ETH_MARKET|268=1|269=4|270=2010|271=0|10=247|
2025/08/22 07:31:35.182263 8=FIX.4.4|9=121|35=W|34=19|49=FIX_GWY_1|52=20250822-07:31:35.000|56=CRYPTO_TRADER_1|55=ETH-GBP|207=ETH_MARKET|268=1|269=4|270=3010|271=0|10=230|
2025/08/22 07:31:35.182351 8=FIX.4.4|9=121|35=W|34=20|49=FIX_GWY_1|52=20250822-07:31:35.000|56=CRYPTO_TRADER_1|55=ETH-JPY|207=ETH_MARKET|268=1|269=4|270=4010|271=0|10=249|
2025/08/22 07:31:35.182400 8=FIX.4.4|9=121|35=W|34=21|49=FIX_GWY_1|52=20250822-07:31:35.000|56=CRYPTO_TRADER_1|55=ETH-USD|207=ETH_MARKET|268=1|269=4|270=1010|271=0|10=240|
2025/08/22 07:31:35.182456 8=FIX.4.4|9=127|35=W|34=22|49=FIX_GWY_1|52=20250822-07:31:35.000|56=CRYPTO_TRADER_1|55=LTC-JPY|207=OTHER_COIN_MARKET|268=1|269=4|270=401|271=0|10=252|
2025/08/22 07:31:35.182592 8=FIX.4.4|9=127|35=W|34=23|49=FIX_GWY_1|52=20250822-07:31:35.000|56=CRYPTO_TRADER_1|55=LUN-CAD|207=OTHER_COIN_MARKET|268=1|269=4|270=401|271=0|10=222|
2025/08/22 07:31:35.182651 8=FIX.4.4|9=127|35=W|34=24|49=FIX_GWY_1|52=20250822-07:31:35.000|56=CRYPTO_TRADER_1|55=MTC-CAD|207=OTHER_COIN_MARKET|268=1|269=4|270=401|271=0|10=212|
2025/08/22 07:31:35.182709 8=FIX.4.4|9=127|35=W|34=25|49=FIX_GWY_1|52=20250822-07:31:35.000|56=CRYPTO_TRADER_1|55=SOL-EUR|207=OTHER_COIN_MARKET|268=1|269=4|270=201|271=0|10=001|
2025/08/22 07:31:35.182762 8=FIX.4.4|9=127|35=W|34=26|49=FIX_GWY_1|52=20250822-07:31:35.000|56=CRYPTO_TRADER_1|55=UNI-JPY|207=OTHER_COIN_MARKET|268=1|269=4|270=401|271=0|10=009|
2025/08/22 07:31:35.182820 8=FIX.4.4|9=127|35=W|34=27|49=FIX_GWY_1|52=20250822-07:31:35.000|56=CRYPTO_TRADER_1|55=XLM-CNY|207=OTHER_COIN_MARKET|268=1|269=4|270=401|271=0|10=006|
2025/08/22 07:31:35.182877 8=FIX.4.4|9=127|35=W|34=28|49=FIX_GWY_1|52=20250822-07:31:35.000|56=CRYPTO_TRADER_1|55=XLM-EUR|207=OTHER_COIN_MARKET|268=1|269=4|270=201|271=0|10=007|
2025/08/22 07:31:35.182931 8=FIX.4.4|9=127|35=W|34=29|49=FIX_GWY_1|52=20250822-07:31:35.000|56=CRYPTO_TRADER_1|55=XMR-AUD|207=OTHER_COIN_MARKET|268=1|269=4|270=401|271=0|10=254|
2025/08/22 07:31:35.182971 8=FIX.4.4|9=127|35=W|34=30|49=FIX_GWY_1|52=20250822-07:31:35.000|56=CRYPTO_TRADER_1|55=XRP-GBP|207=OTHER_COIN_MARKET|268=1|269=4|270=301|271=0|10=247|
2025/08/22 07:32:04.177962 8=FIX.4.4|9=67|35=0|34=4|49=CRYPTO_TRADER_1|52=20250822-07:32:04.177|56=FIX_GWY_1|10=063|
2025/08/22 07:32:11.182605 8=FIX.4.4|9=76|35=1|34=5|49=CRYPTO_TRADER_1|52=20250822-07:32:11.182|56=FIX_GWY_1|112=TEST|10=077|
2025/08/22 07:32:11.183425 8=FIX.4.4|9=77|35=0|34=31|49=FIX_GWY_1|52=20250822-07:32:11.000|56=CRYPTO_TRADER_1|112=TEST|10=113|
2025/08/22 07:32:32.000801 8=FIX.4.4|9=114|35=A|34=1|49=CRYPTO_TRADER_1|52=20250822-07:32:32.000|56=FIX_GWY_1|98=0|108=30|141=Y|553=CRYPTO_TRADER_1|554=TEST|10=055|
2025/08/22 07:32:32.311091 8=FIX.4.4|9=85|35=A|34=1|49=FIX_GWY_1|52=20250822-07:32:32.000|56=CRYPTO_TRADER_1|98=0|108=30|141=Y|10=133|
2025/08/22 07:32:32.311207 8=FIX.4.4|9=98|35=x|34=2|49=CRYPTO_TRADER_1|52=20250822-07:32:32.311|56=FIX_GWY_1|320=SecurityListRequest1|559=4|10=118|
2025/08/22 07:32:33.312019 8=FIX.4.4|9=1525|35=y|34=2|49=FIX_GWY_1|52=20250822-07:32:33.000|56=CRYPTO_TRADER_1|146=28|55=ADA-USD|207=OTHER_COIN_MARKET|58={"type":"Crypto"}|55=AVX-AUD|207=OTHER_COIN_MARKET|58={"type":"Crypto"}|55=BCH-CNY|207=OTHER_COIN_MARKET|58={"type":"Crypto"}|55=BTC-AUD|207=BTC_MARKET|58={"type":"Crypto"}|55=BTC-CAD|207=BTC_MARKET|58={"type":"Crypto"}|55=BTC-CNY|207=BTC_MARKET|58={"type":"Crypto"}|55=BTC-EUR|207=BTC_MARKET|58={"type":"Crypto"}|55=BTC-GBP|207=BTC_MARKET|58={"type":"Crypto"}|55=BTC-JPY|207=BTC_MARKET|58={"type":"Crypto"}|55=BTC-USD|207=BTC_MARKET|58={"type":"Crypto"}|55=DAI-USD|207=OTHER_COIN_MARKET|58={"type":"Crypto"}|55=DOT-GBP|207=OTHER_COIN_MARKET|58={"type":"Crypto"}|55=ETH-AUD|207=ETH_MARKET|58={"type":"Crypto"}|55=ETH-CAD|207=ETH_MARKET|58={"type":"Crypto"}|55=ETH-CNY|207=ETH_MARKET|58={"type":"Crypto"}|55=ETH-EUR|207=ETH_MARKET|58={"type":"Crypto"}|55=ETH-GBP|207=ETH_MARKET|58={"type":"Crypto"}|55=ETH-JPY|207=ETH_MARKET|58={"type":"Crypto"}|55=ETH-USD|207=ETH_MARKET|58={"type":"Crypto"}|55=LTC-JPY|207=OTHER_COIN_MARKET|58={"type":"Crypto"}|55=LUN-CAD|207=OTHER_COIN_MARKET|58={"type":"Crypto"}|55=MTC-CAD|207=OTHER_COIN_MARKET|58={"type":"Crypto"}|55=SOL-EUR|207=OTHER_COIN_MARKET|58={"type":"Crypto"}|55=UNI-JPY|207=OTHER_COIN_MARKET|58={"type":"Crypto"}|55=XLM-CNY|207=OTHER_COIN_MARKET|58={"type":"Crypto"}|55=XLM-EUR|207=OTHER_COIN_MARKET|58={"type":"Crypto"}|55=XMR-AUD|207=OTHER_COIN_MARKET|58={"type":"Crypto"}|55=XRP-GBP|207=OTHER_COIN_MARKET|58={"type":"Crypto"}|320=SecurityListRequest1|322=1|560=0|10=034|
2025/08/22 07:32:33.312383 8=FIX.4.4|9=959|35=V|34=3|49=CRYPTO_TRADER_1|52=20250822-07:32:33.312|56=FIX_GWY_1|146=28|55=ADA-USD|207=OTHER_COIN_MARKET|55=AVX-AUD|207=OTHER_COIN_MARKET|55=BCH-CNY|207=OTHER_COIN_MARKET|55=BTC-AUD|207=BTC_MARKET|55=BTC-CAD|207=BTC_MARKET|55=BTC-CNY|207=BTC_MARKET|55=BTC-EUR|207=BTC_MARKET|55=BTC-GBP|207=BTC_MARKET|55=BTC-JPY|207=BTC_MARKET|55=BTC-USD|207=BTC_MARKET|55=DAI-USD|207=OTHER_COIN_MARKET|55=DOT-GBP|207=OTHER_COIN_MARKET|55=ETH-AUD|207=ETH_MARKET|55=ETH-CAD|207=ETH_MARKET|55=ETH-CNY|207=ETH_MARKET|55=ETH-EUR|207=ETH_MARKET|55=ETH-GBP|207=ETH_MARKET|55=ETH-JPY|207=ETH_MARKET|55=ETH-USD|207=ETH_MARKET|55=LTC-JPY|207=OTHER_COIN_MARKET|55=LUN-CAD|207=OTHER_COIN_MARKET|55=MTC-CAD|207=OTHER_COIN_MARKET|55=SOL-EUR|207=OTHER_COIN_MARKET|55=UNI-JPY|207=OTHER_COIN_MARKET|55=XLM-CNY|207=OTHER_COIN_MARKET|55=XLM-EUR|207=OTHER_COIN_MARKET|55=XMR-AUD|207=OTHER_COIN_MARKET|55=XRP-GBP|207=OTHER_COIN_MARKET|262=MarketDataRequest1|263=1|264=0|265=1|267=2|269=0|269=1|10=174|
2025/08/22 07:32:34.300976 8=FIX.4.4|9=126|35=W|34=3|49=FIX_GWY_1|52=20250822-07:32:34.000|56=CRYPTO_TRADER_1|55=ADA-USD|207=OTHER_COIN_MARKET|268=1|269=4|270=101|271=0|10=163|
2025/08/22 07:32:34.301091 8=FIX.4.4|9=126|35=W|34=4|49=FIX_GWY_1|52=20250822-07:32:34.000|56=CRYPTO_TRADER_1|55=AVX-AUD|207=OTHER_COIN_MARKET|268=1|269=4|270=401|271=0|10=190|
2025/08/22 07:32:34.301181 8=FIX.4.4|9=126|35=W|34=5|49=FIX_GWY_1|52=20250822-07:32:34.000|56=CRYPTO_TRADER_1|55=BCH-CNY|207=OTHER_COIN_MARKET|268=1|269=4|270=401|271=0|10=173|
2025/08/22 07:32:34.301239 8=FIX.4.4|9=121|35=W|34=6|49=FIX_GWY_1|52=20250822-07:32:34.000|56=CRYPTO_TRADER_1|55=BTC-AUD|207=BTC_MARKET|268=1|269=4|270=40100|271=0|10=212|
2025/08/22 07:32:34.301302 8=FIX.4.4|9=121|35=W|34=7|49=FIX_GWY_1|52=20250822-07:32:34.000|56=CRYPTO_TRADER_1|55=BTC-CAD|207=BTC_MARKET|268=1|269=4|270=40100|271=0|10=195|
2025/08/22 07:32:34.301380 8=FIX.4.4|9=121|35=W|34=8|49=FIX_GWY_1|52=20250822-07:32:34.000|56=CRYPTO_TRADER_1|55=BTC-CNY|207=BTC_MARKET|268=1|269=4|270=40100|271=0|10=230|
2025/08/22 07:32:34.301485 8=FIX.4.4|9=121|35=W|34=9|49=FIX_GWY_1|52=20250822-07:32:34.000|56=CRYPTO_TRADER_1|55=BTC-EUR|207=BTC_MARKET|268=1|269=4|270=20100|271=0|10=231|
2025/08/22 07:32:34.301551 8=FIX.4.4|9=122|35=W|34=10|49=FIX_GWY_1|52=20250822-07:32:34.000|56=CRYPTO_TRADER_1|55=BTC-GBP|207=BTC_MARKET|268=1|269=4|270=30100|271=0|10=254|
2025/08/22 07:32:34.301600 8=FIX.4.4|9=122|35=W|34=11|49=FIX_GWY_1|52=20250822-07:32:34.000|56=CRYPTO_TRADER_1|55=BTC-JPY|207=BTC_MARKET|268=1|269=4|270=40100|271=0|10=026|
2025/08/22 07:32:34.301722 8=FIX.4.4|9=122|35=W|34=12|49=FIX_GWY_1|52=20250822-07:32:34.000|56=CRYPTO_TRADER_1|55=BTC-USD|207=BTC_MARKET|268=1|269=4|270=10100|271=0|10=017|
2025/08/22 07:32:34.301784 8=FIX.4.4|9=127|35=W|34=13|49=FIX_GWY_1|52=20250822-07:32:34.000|56=CRYPTO_TRADER_1|55=DAI-USD|207=OTHER_COIN_MARKET|268=1|269=4|270=101|271=0|10=221|
2025/08/22 07:32:34.301893 8=FIX.4.4|9=127|35=W|34=14|49=FIX_GWY_1|52=20250822-07:32:34.000|56=CRYPTO_TRADER_1|55=DOT-GBP|207=OTHER_COIN_MARKET|268=1|269=4|270=301|271=0|10=230|
2025/08/22 07:32:34.301962 8=FIX.4.4|9=121|35=W|34=15|49=FIX_GWY_1|52=20250822-07:32:34.000|56=CRYPTO_TRADER_1|55=ETH-AUD|207=ETH_MARKET|268=1|269=4|270=4010|271=0|10=228|
2025/08/22 07:32:34.302025 8=FIX.4.4|9=121|35=W|34=16|49=FIX_GWY_1|52=20250822-07:32:34.000|56=CRYPTO_TRADER_1|55=ETH-CAD|207=ETH_MARKET|268=1|269=4|270=4010|271=0|10=211|
2025/08/22 07:32:34.302104 8=FIX.4.4|9=121|35=W|34=17|49=FIX_GWY_1|52=20250822-07:32:34.000|56=CRYPTO_TRADER_1|55=ETH-CNY|207=ETH_MARKET|268=1|269=4|270=4010|271=0|10=246|
2025/08/22 07:32:34.302151 8=FIX.4.4|9=121|35=W|34=18|49=FIX_GWY_1|52=20250822-07:32:34.000|56=CRYPTO_TRADER_1|55=ETH-EUR|207=ETH_MARKET|268=1|269=4|270=2010|271=0|10=247|
2025/08/22 07:32:34.302223 8=FIX.4.4|9=121|35=W|34=19|49=FIX_GWY_1|52=20250822-07:32:34.000|56=CRYPTO_TRADER_1|55=ETH-GBP|207=ETH_MARKET|268=1|269=4|270=3010|271=0|10=230|
2025/08/22 07:32:34.302273 8=FIX.4.4|9=121|35=W|34=20|49=FIX_GWY_1|52=20250822-07:32:34.000|56=CRYPTO_TRADER_1|55=ETH-JPY|207=ETH_MARKET|268=1|269=4|270=4010|271=0|10=249|
2025/08/22 07:32:34.302325 8=FIX.4.4|9=121|35=W|34=21|49=FIX_GWY_1|52=20250822-07:32:34.000|56=CRYPTO_TRADER_1|55=ETH-USD|207=ETH_MARKET|268=1|269=4|270=1010|271=0|10=240|
2025/08/22 07:32:34.302367 8=FIX.4.4|9=127|35=W|34=22|49=FIX_GWY_1|52=20250822-07:32:34.000|56=CRYPTO_TRADER_1|55=LTC-JPY|207=OTHER_COIN_MARKET|268=1|269=4|270=401|271=0|10=252|
2025/08/22 07:32:34.302423 8=FIX.4.4|9=127|35=W|34=23|49=FIX_GWY_1|52=20250822-07:32:34.000|56=CRYPTO_TRADER_1|55=LUN-CAD|207=OTHER_COIN_MARKET|268=1|269=4|270=401|271=0|10=222|
2025/08/22 07:32:34.302476 8=FIX.4.4|9=127|35=W|34=24|49=FIX_GWY_1|52=20250822-07:32:34.000|56=CRYPTO_TRADER_1|55=MTC-CAD|207=OTHER_COIN_MARKET|268=1|269=4|270=401|271=0|10=212|
2025/08/22 07:32:34.302525 8=FIX.4.4|9=127|35=W|34=25|49=FIX_GWY_1|52=20250822-07:32:34.000|56=CRYPTO_TRADER_1|55=SOL-EUR|207=OTHER_COIN_MARKET|268=1|269=4|270=201|271=0|10=001|
2025/08/22 07:32:34.302581 8=FIX.4.4|9=127|35=W|34=26|49=FIX_GWY_1|52=20250822-07:32:34.000|56=CRYPTO_TRADER_1|55=UNI-JPY|207=OTHER_COIN_MARKET|268=1|269=4|270=401|271=0|10=009|
2025/08/22 07:32:34.302620 8=FIX.4.4|9=127|35=W|34=27|49=FIX_GWY_1|52=20250822-07:32:34.000|56=CRYPTO_TRADER_1|55=XLM-CNY|207=OTHER_COIN_MARKET|268=1|269=4|270=401|271=0|10=006|
2025/08/22 07:32:34.302674 8=FIX.4.4|9=127|35=W|34=28|49=FIX_GWY_1|52=20250822-07:32:34.000|56=CRYPTO_TRADER_1|55=XLM-EUR|207=OTHER_COIN_MARKET|268=1|269=4|270=201|271=0|10=007|
2025/08/22 07:32:34.302717 8=FIX.4.4|9=127|35=W|34=29|49=FIX_GWY_1|52=20250822-07:32:34.000|56=CRYPTO_TRADER_1|55=XMR-AUD|207=OTHER_COIN_MARKET|268=1|269=4|270=401|271=0|10=254|
2025/08/22 07:32:34.302757 8=FIX.4.4|9=127|35=W|34=30|49=FIX_GWY_1|52=20250822-07:32:34.000|56=CRYPTO_TRADER_1|55=XRP-GBP|207=OTHER_COIN_MARKET|268=1|269=4|270=301|271=0|10=247|
2025/08/22 07:33:03.313036 8=FIX.4.4|9=67|35=0|34=4|49=CRYPTO_TRADER_1|52=20250822-07:33:03.313|56=FIX_GWY_1|10=055|
2025/08/22 07:33:10.303062 8=FIX.4.4|9=76|35=1|34=5|49=CRYPTO_TRADER_1|52=20250822-07:33:10.303|56=FIX_GWY_1|112=TEST|10=072|
2025/08/22 07:33:10.303672 8=FIX.4.4|9=77|35=0|34=31|49=FIX_GWY_1|52=20250822-07:33:10.000|56=CRYPTO_TRADER_1|112=TEST|10=113|
2025/08/22 07:33:13.415347 8=FIX.4.4|9=174|35=D|34=6|49=CRYPTO_TRADER_1|52=20250822-07:33:13.415|56=FIX_GWY_1|11=investor_2:1755847952|38=100|40=1|44=40100|54=1|55=BTC-CNY|59=0|60=20250822-07:33:13.415|207=BTC_MARKET|10=020|
2025/08/22 07:33:13.416988 8=FIX.4.4|9=244|35=8|34=32|49=FIX_GWY_1|52=20250822-07:33:13.000|56=CRYPTO_TRADER_1|6=0|14=0|17=1000001|31=0|32=0|37=investor_2:1755847952|38=100|39=0|40=2|44=40100|54=1|55=BTC-CNY|58=OK|59=0|60=20250822-07:33:13.416079|99=0|103=0|150=0|151=100|207=BTC_MARKET|10=084|
2025/08/22 07:33:13.421688 8=FIX.4.4|9=635|35=X|34=33|49=FIX_GWY_1|52=20250822-07:33:13.000|56=CRYPTO_TRADER_1|268=11|279=0|269=0|55=BTC-CNY|207=BTC_MARKET|270=40100|271=100|279=0|269=0|55=BTC-CNY|207=BTC_MARKET|270=0|271=0|279=0|269=0|55=BTC-CNY|207=BTC_MARKET|270=0|271=0|279=0|269=0|55=BTC-CNY|207=BTC_MARKET|270=0|271=0|279=0|269=0|55=BTC-CNY|207=BTC_MARKET|270=0|271=0|279=0|269=1|55=BTC-CNY|207=BTC_MARKET|270=0|271=0|279=0|269=1|55=BTC-CNY|207=BTC_MARKET|270=0|271=0|279=0|269=1|55=BTC-CNY|207=BTC_MARKET|270=0|271=0|279=0|269=1|55=BTC-CNY|207=BTC_MARKET|270=0|271=0|279=0|269=1|55=BTC-CNY|207=BTC_MARKET|270=0|271=0|279=0|269=4|55=BTC-CNY|207=BTC_MARKET|270=40100|271=0|10=131|
2025/08/22 07:33:43.154493 8=FIX.4.4|9=174|35=D|34=7|49=CRYPTO_TRADER_1|52=20250822-07:33:43.154|56=FIX_GWY_1|11=investor_2:1755847953|38=100|40=1|44=40200|54=2|55=BTC-CNY|59=0|60=20250822-07:33:43.154|207=BTC_MARKET|10=030|
2025/08/22 07:33:43.155008 8=FIX.4.4|9=68|35=0|34=34|49=FIX_GWY_1|52=20250822-07:33:43.000|56=CRYPTO_TRADER_1|10=104|
2025/08/22 07:33:43.156678 8=FIX.4.4|9=244|35=8|34=35|49=FIX_GWY_1|52=20250822-07:33:43.000|56=CRYPTO_TRADER_1|6=0|14=0|17=1000002|31=0|32=0|37=investor_2:1755847953|38=100|39=0|40=2|44=40200|54=2|55=BTC-CNY|58=OK|59=0|60=20250822-07:33:43.155162|99=0|103=0|150=0|151=100|207=BTC_MARKET|10=090|
2025/08/22 07:33:43.357079 8=FIX.4.4|9=641|35=X|34=36|49=FIX_GWY_1|52=20250822-07:33:43.000|56=CRYPTO_TRADER_1|268=11|279=0|269=0|55=BTC-CNY|207=BTC_MARKET|270=40100|271=100|279=0|269=0|55=BTC-CNY|207=BTC_MARKET|270=0|271=0|279=0|269=0|55=BTC-CNY|207=BTC_MARKET|270=0|271=0|279=0|269=0|55=BTC-CNY|207=BTC_MARKET|270=0|271=0|279=0|269=0|55=BTC-CNY|207=BTC_MARKET|270=0|271=0|279=0|269=1|55=BTC-CNY|207=BTC_MARKET|270=40200|271=100|279=0|269=1|55=BTC-CNY|207=BTC_MARKET|270=0|271=0|279=0|269=1|55=BTC-CNY|207=BTC_MARKET|270=0|271=0|279=0|269=1|55=BTC-CNY|207=BTC_MARKET|270=0|271=0|279=0|269=1|55=BTC-CNY|207=BTC_MARKET|270=0|271=0|279=0|269=4|55=BTC-CNY|207=BTC_MARKET|270=40100|271=0|10=173|
2025/08/22 07:34:07.199501 8=FIX.4.4|9=174|35=D|34=8|49=CRYPTO_TRADER_1|52=20250822-07:34:07.199|56=FIX_GWY_1|11=investor_2:1755847954|38=100|40=1|44=40150|54=1|55=BTC-CNY|59=0|60=20250822-07:34:07.199|207=BTC_MARKET|10=055|
2025/08/22 07:34:07.201316 8=FIX.4.4|9=244|35=8|34=37|49=FIX_GWY_1|52=20250822-07:34:07.000|56=CRYPTO_TRADER_1|6=0|14=0|17=1000003|31=0|32=0|37=investor_2:1755847954|38=100|39=0|40=2|44=40150|54=1|55=BTC-CNY|58=OK|59=0|60=20250822-07:34:07.200339|99=0|103=0|150=0|151=100|207=BTC_MARKET|10=096|
2025/08/22 07:34:07.390631 8=FIX.4.4|9=647|35=X|34=38|49=FIX_GWY_1|52=20250822-07:34:07.000|56=CRYPTO_TRADER_1|268=11|279=0|269=0|55=BTC-CNY|207=BTC_MARKET|270=40150|271=100|279=0|269=0|55=BTC-CNY|207=BTC_MARKET|270=40100|271=100|279=0|269=0|55=BTC-CNY|207=BTC_MARKET|270=0|271=0|279=0|269=0|55=BTC-CNY|207=BTC_MARKET|270=0|271=0|279=0|269=0|55=BTC-CNY|207=BTC_MARKET|270=0|271=0|279=0|269=1|55=BTC-CNY|207=BTC_MARKET|270=40200|271=100|279=0|269=1|55=BTC-CNY|207=BTC_MARKET|270=0|271=0|279=0|269=1|55=BTC-CNY|207=BTC_MARKET|270=0|271=0|279=0|269=1|55=BTC-CNY|207=BTC_MARKET|270=0|271=0|279=0|269=1|55=BTC-CNY|207=BTC_MARKET|270=0|271=0|279=0|269=4|55=BTC-CNY|207=BTC_MARKET|270=40100|271=0|10=225|
2025/08/22 07:34:25.919846 8=FIX.4.4|9=174|35=D|34=9|49=CRYPTO_TRADER_1|52=20250822-07:34:25.919|56=FIX_GWY_1|11=investor_2:1755847955|38=100|40=1|44=40120|54=1|55=BTC-CNY|59=0|60=20250822-07:34:25.919|207=BTC_MARKET|10=054|
2025/08/22 07:34:25.921535 8=FIX.4.4|9=244|35=8|34=39|49=FIX_GWY_1|52=20250822-07:34:25.000|56=CRYPTO_TRADER_1|6=0|14=0|17=1000004|31=0|32=0|37=investor_2:1755847955|38=100|39=0|40=2|44=40120|54=1|55=BTC-CNY|58=OK|59=0|60=20250822-07:34:25.920535|99=0|103=0|150=0|151=100|207=BTC_MARKET|10=104|
2025/08/22 07:34:25.982032 8=FIX.4.4|9=653|35=X|34=40|49=FIX_GWY_1|52=20250822-07:34:25.000|56=CRYPTO_TRADER_1|268=11|279=0|269=0|55=BTC-CNY|207=BTC_MARKET|270=40150|271=100|279=0|269=0|55=BTC-CNY|207=BTC_MARKET|270=40120|271=100|279=0|269=0|55=BTC-CNY|207=BTC_MARKET|270=40100|271=100|279=0|269=0|55=BTC-CNY|207=BTC_MARKET|270=0|271=0|279=0|269=0|55=BTC-CNY|207=BTC_MARKET|270=0|271=0|279=0|269=1|55=BTC-CNY|207=BTC_MARKET|270=40200|271=100|279=0|269=1|55=BTC-CNY|207=BTC_MARKET|270=0|271=0|279=0|269=1|55=BTC-CNY|207=BTC_MARKET|270=0|271=0|279=0|269=1|55=BTC-CNY|207=BTC_MARKET|270=0|271=0|279=0|269=1|55=BTC-CNY|207=BTC_MARKET|270=0|271=0|279=0|269=4|55=BTC-CNY|207=BTC_MARKET|270=40100|271=0|10=255|
