2025/07/30 13:52:01.000553 8=FIX.4.4|9=114|35=A|34=1|49=CRYPTO_TRADER_1|52=20250730-13:52:01.000|56=FIX_GWY_1|98=0|108=30|141=Y|553=CRYPTO_TRADER_1|554=TEST|10=048|
2025/07/30 13:52:01.200284 8=FIX.4.4|9=85|35=A|34=1|49=FIX_GWY_1|52=20250730-13:52:01.000|56=CRYPTO_TRADER_1|98=0|108=30|141=Y|10=126|
2025/07/30 13:52:01.200380 8=FIX.4.4|9=98|35=x|34=2|49=CRYPTO_TRADER_1|52=20250730-13:52:01.200|56=FIX_GWY_1|320=SecurityListRequest1|559=4|10=108|
2025/07/30 13:52:02.285241 8=FIX.4.4|9=1525|35=y|34=2|49=FIX_GWY_1|52=20250730-13:52:02.000|56=CRYPTO_TRADER_1|146=28|55=ADA-USD|207=OTHER_COIN_MARKET|58={"type":"Crypto"}|55=AVX-AUD|207=OTHER_COIN_MARKET|58={"type":"Crypto"}|55=BCH-CNY|207=OTHER_COIN_MARKET|58={"type":"Crypto"}|55=BTC-AUD|207=BTC_MARKET|58={"type":"Crypto"}|55=BTC-CAD|207=BTC_MARKET|58={"type":"Crypto"}|55=BTC-CNY|207=BTC_MARKET|58={"type":"Crypto"}|55=BTC-EUR|207=BTC_MARKET|58={"type":"Crypto"}|55=BTC-GBP|207=BTC_MARKET|58={"type":"Crypto"}|55=BTC-JPY|207=BTC_MARKET|58={"type":"Crypto"}|55=BTC-USD|207=BTC_MARKET|58={"type":"Crypto"}|55=DAI-USD|207=OTHER_COIN_MARKET|58={"type":"Crypto"}|55=DOT-GBP|207=OTHER_COIN_MARKET|58={"type":"Crypto"}|55=ETH-AUD|207=ETH_MARKET|58={"type":"Crypto"}|55=ETH-CAD|207=ETH_MARKET|58={"type":"Crypto"}|55=ETH-CNY|207=ETH_MARKET|58={"type":"Crypto"}|55=ETH-EUR|207=ETH_MARKET|58={"type":"Crypto"}|55=ETH-GBP|207=ETH_MARKET|58={"type":"Crypto"}|55=ETH-JPY|207=ETH_MARKET|58={"type":"Crypto"}|55=ETH-USD|207=ETH_MARKET|58={"type":"Crypto"}|55=LTC-JPY|207=OTHER_COIN_MARKET|58={"type":"Crypto"}|55=LUN-CAD|207=OTHER_COIN_MARKET|58={"type":"Crypto"}|55=MTC-CAD|207=OTHER_COIN_MARKET|58={"type":"Crypto"}|55=SOL-EUR|207=OTHER_COIN_MARKET|58={"type":"Crypto"}|55=UNI-JPY|207=OTHER_COIN_MARKET|58={"type":"Crypto"}|55=XLM-CNY|207=OTHER_COIN_MARKET|58={"type":"Crypto"}|55=XLM-EUR|207=OTHER_COIN_MARKET|58={"type":"Crypto"}|55=XMR-AUD|207=OTHER_COIN_MARKET|58={"type":"Crypto"}|55=XRP-GBP|207=OTHER_COIN_MARKET|58={"type":"Crypto"}|320=SecurityListRequest1|322=1|560=0|10=027|
2025/07/30 13:52:02.285590 8=FIX.4.4|9=959|35=V|34=3|49=CRYPTO_TRADER_1|52=20250730-13:52:02.285|56=FIX_GWY_1|146=28|55=ADA-USD|207=OTHER_COIN_MARKET|55=AVX-AUD|207=OTHER_COIN_MARKET|55=BCH-CNY|207=OTHER_COIN_MARKET|55=BTC-AUD|207=BTC_MARKET|55=BTC-CAD|207=BTC_MARKET|55=BTC-CNY|207=BTC_MARKET|55=BTC-EUR|207=BTC_MARKET|55=BTC-GBP|207=BTC_MARKET|55=BTC-JPY|207=BTC_MARKET|55=BTC-USD|207=BTC_MARKET|55=DAI-USD|207=OTHER_COIN_MARKET|55=DOT-GBP|207=OTHER_COIN_MARKET|55=ETH-AUD|207=ETH_MARKET|55=ETH-CAD|207=ETH_MARKET|55=ETH-CNY|207=ETH_MARKET|55=ETH-EUR|207=ETH_MARKET|55=ETH-GBP|207=ETH_MARKET|55=ETH-JPY|207=ETH_MARKET|55=ETH-USD|207=ETH_MARKET|55=LTC-JPY|207=OTHER_COIN_MARKET|55=LUN-CAD|207=OTHER_COIN_MARKET|55=MTC-CAD|207=OTHER_COIN_MARKET|55=SOL-EUR|207=OTHER_COIN_MARKET|55=UNI-JPY|207=OTHER_COIN_MARKET|55=XLM-CNY|207=OTHER_COIN_MARKET|55=XLM-EUR|207=OTHER_COIN_MARKET|55=XMR-AUD|207=OTHER_COIN_MARKET|55=XRP-GBP|207=OTHER_COIN_MARKET|262=MarketDataRequest1|263=1|264=0|265=1|267=2|269=0|269=1|10=176|
2025/07/30 13:52:03.050247 8=FIX.4.4|9=126|35=W|34=3|49=FIX_GWY_1|52=20250730-13:52:03.000|56=CRYPTO_TRADER_1|55=ADA-USD|207=OTHER_COIN_MARKET|268=1|269=4|270=101|271=0|10=156|
2025/07/30 13:52:03.050579 8=FIX.4.4|9=126|35=W|34=4|49=FIX_GWY_1|52=20250730-13:52:03.000|56=CRYPTO_TRADER_1|55=AVX-AUD|207=OTHER_COIN_MARKET|268=1|269=4|270=401|271=0|10=183|
2025/07/30 13:52:03.050869 8=FIX.4.4|9=126|35=W|34=5|49=FIX_GWY_1|52=20250730-13:52:03.000|56=CRYPTO_TRADER_1|55=BCH-CNY|207=OTHER_COIN_MARKET|268=1|269=4|270=401|271=0|10=166|
2025/07/30 13:52:03.052098 8=FIX.4.4|9=121|35=W|34=6|49=FIX_GWY_1|52=20250730-13:52:03.000|56=CRYPTO_TRADER_1|55=BTC-AUD|207=BTC_MARKET|268=1|269=4|270=40100|271=0|10=205|
2025/07/30 13:52:03.052142 8=FIX.4.4|9=121|35=W|34=7|49=FIX_GWY_1|52=20250730-13:52:03.000|56=CRYPTO_TRADER_1|55=BTC-CAD|207=BTC_MARKET|268=1|269=4|270=40100|271=0|10=188|
2025/07/30 13:52:03.052354 8=FIX.4.4|9=121|35=W|34=8|49=FIX_GWY_1|52=20250730-13:52:03.000|56=CRYPTO_TRADER_1|55=BTC-CNY|207=BTC_MARKET|268=1|269=4|270=40100|271=0|10=223|
2025/07/30 13:52:03.052464 8=FIX.4.4|9=121|35=W|34=9|49=FIX_GWY_1|52=20250730-13:52:03.000|56=CRYPTO_TRADER_1|55=BTC-EUR|207=BTC_MARKET|268=1|269=4|270=20100|271=0|10=224|
2025/07/30 13:52:03.052598 8=FIX.4.4|9=122|35=W|34=10|49=FIX_GWY_1|52=20250730-13:52:03.000|56=CRYPTO_TRADER_1|55=BTC-GBP|207=BTC_MARKET|268=1|269=4|270=30100|271=0|10=247|
2025/07/30 13:52:03.052708 8=FIX.4.4|9=122|35=W|34=11|49=FIX_GWY_1|52=20250730-13:52:03.000|56=CRYPTO_TRADER_1|55=BTC-JPY|207=BTC_MARKET|268=1|269=4|270=40100|271=0|10=019|
2025/07/30 13:52:03.052862 8=FIX.4.4|9=303|35=W|34=12|49=FIX_GWY_1|52=20250730-13:52:03.000|56=CRYPTO_TRADER_1|55=BTC-USD|207=BTC_MARKET|268=11|269=0|270=0|271=0|269=0|270=0|271=0|269=0|270=0|271=0|269=0|270=0|271=0|269=0|270=0|271=0|269=1|270=0|271=0|269=1|270=0|271=0|269=1|270=0|271=0|269=1|270=0|271=0|269=1|270=0|271=0|269=4|270=10100|271=0|10=109|
2025/07/30 13:52:03.052966 8=FIX.4.4|9=127|35=W|34=13|49=FIX_GWY_1|52=20250730-13:52:03.000|56=CRYPTO_TRADER_1|55=DAI-USD|207=OTHER_COIN_MARKET|268=1|269=4|270=101|271=0|10=214|
2025/07/30 13:52:03.053026 8=FIX.4.4|9=127|35=W|34=14|49=FIX_GWY_1|52=20250730-13:52:03.000|56=CRYPTO_TRADER_1|55=DOT-GBP|207=OTHER_COIN_MARKET|268=1|269=4|270=301|271=0|10=223|
2025/07/30 13:52:03.053084 8=FIX.4.4|9=121|35=W|34=15|49=FIX_GWY_1|52=20250730-13:52:03.000|56=CRYPTO_TRADER_1|55=ETH-AUD|207=ETH_MARKET|268=1|269=4|270=4010|271=0|10=221|
2025/07/30 13:52:03.053183 8=FIX.4.4|9=121|35=W|34=16|49=FIX_GWY_1|52=20250730-13:52:03.000|56=CRYPTO_TRADER_1|55=ETH-CAD|207=ETH_MARKET|268=1|269=4|270=4010|271=0|10=204|
2025/07/30 13:52:03.053249 8=FIX.4.4|9=121|35=W|34=17|49=FIX_GWY_1|52=20250730-13:52:03.000|56=CRYPTO_TRADER_1|55=ETH-CNY|207=ETH_MARKET|268=1|269=4|270=4010|271=0|10=239|
2025/07/30 13:52:03.053358 8=FIX.4.4|9=121|35=W|34=18|49=FIX_GWY_1|52=20250730-13:52:03.000|56=CRYPTO_TRADER_1|55=ETH-EUR|207=ETH_MARKET|268=1|269=4|270=2010|271=0|10=240|
2025/07/30 13:52:03.053442 8=FIX.4.4|9=121|35=W|34=19|49=FIX_GWY_1|52=20250730-13:52:03.000|56=CRYPTO_TRADER_1|55=ETH-GBP|207=ETH_MARKET|268=1|269=4|270=3010|271=0|10=223|
2025/07/30 13:52:03.053537 8=FIX.4.4|9=121|35=W|34=20|49=FIX_GWY_1|52=20250730-13:52:03.000|56=CRYPTO_TRADER_1|55=ETH-JPY|207=ETH_MARKET|268=1|269=4|270=4010|271=0|10=242|
2025/07/30 13:52:03.053593 8=FIX.4.4|9=121|35=W|34=21|49=FIX_GWY_1|52=20250730-13:52:03.000|56=CRYPTO_TRADER_1|55=ETH-USD|207=ETH_MARKET|268=1|269=4|270=1010|271=0|10=233|
2025/07/30 13:52:03.053659 8=FIX.4.4|9=127|35=W|34=22|49=FIX_GWY_1|52=20250730-13:52:03.000|56=CRYPTO_TRADER_1|55=LTC-JPY|207=OTHER_COIN_MARKET|268=1|269=4|270=401|271=0|10=245|
2025/07/30 13:52:03.053727 8=FIX.4.4|9=127|35=W|34=23|49=FIX_GWY_1|52=20250730-13:52:03.000|56=CRYPTO_TRADER_1|55=LUN-CAD|207=OTHER_COIN_MARKET|268=1|269=4|270=401|271=0|10=215|
2025/07/30 13:52:03.054230 8=FIX.4.4|9=127|35=W|34=24|49=FIX_GWY_1|52=20250730-13:52:03.000|56=CRYPTO_TRADER_1|55=MTC-CAD|207=OTHER_COIN_MARKET|268=1|269=4|270=401|271=0|10=205|
2025/07/30 13:52:03.054296 8=FIX.4.4|9=127|35=W|34=25|49=FIX_GWY_1|52=20250730-13:52:03.000|56=CRYPTO_TRADER_1|55=SOL-EUR|207=OTHER_COIN_MARKET|268=1|269=4|270=201|271=0|10=250|
2025/07/30 13:52:03.054405 8=FIX.4.4|9=127|35=W|34=26|49=FIX_GWY_1|52=20250730-13:52:03.000|56=CRYPTO_TRADER_1|55=UNI-JPY|207=OTHER_COIN_MARKET|268=1|269=4|270=401|271=0|10=002|
2025/07/30 13:52:03.054514 8=FIX.4.4|9=127|35=W|34=27|49=FIX_GWY_1|52=20250730-13:52:03.000|56=CRYPTO_TRADER_1|55=XLM-CNY|207=OTHER_COIN_MARKET|268=1|269=4|270=401|271=0|10=255|
2025/07/30 13:52:03.054623 8=FIX.4.4|9=127|35=W|34=28|49=FIX_GWY_1|52=20250730-13:52:03.000|56=CRYPTO_TRADER_1|55=XLM-EUR|207=OTHER_COIN_MARKET|268=1|269=4|270=201|271=0|10=000|
2025/07/30 13:52:03.054686 8=FIX.4.4|9=127|35=W|34=29|49=FIX_GWY_1|52=20250730-13:52:03.000|56=CRYPTO_TRADER_1|55=XMR-AUD|207=OTHER_COIN_MARKET|268=1|269=4|270=401|271=0|10=247|
2025/07/30 13:52:03.054967 8=FIX.4.4|9=127|35=W|34=30|49=FIX_GWY_1|52=20250730-13:52:03.000|56=CRYPTO_TRADER_1|55=XRP-GBP|207=OTHER_COIN_MARKET|268=1|269=4|270=301|271=0|10=240|
2025/07/30 13:52:32.285979 8=FIX.4.4|9=67|35=0|34=4|49=CRYPTO_TRADER_1|52=20250730-13:52:32.285|56=FIX_GWY_1|10=061|
2025/07/30 13:52:39.054378 8=FIX.4.4|9=76|35=1|34=5|49=CRYPTO_TRADER_1|52=20250730-13:52:39.054|56=FIX_GWY_1|112=TEST|10=082|
2025/07/30 13:52:39.054987 8=FIX.4.4|9=77|35=0|34=31|49=FIX_GWY_1|52=20250730-13:52:39.000|56=CRYPTO_TRADER_1|112=TEST|10=120|
2025/07/30 13:53:09.054524 8=FIX.4.4|9=67|35=0|34=6|49=CRYPTO_TRADER_1|52=20250730-13:53:09.054|56=FIX_GWY_1|10=062|
2025/07/30 13:53:09.056348 8=FIX.4.4|9=68|35=0|34=32|49=FIX_GWY_1|52=20250730-13:53:09.000|56=CRYPTO_TRADER_1|10=101|
2025/07/30 13:53:39.054846 8=FIX.4.4|9=67|35=0|34=7|49=CRYPTO_TRADER_1|52=20250730-13:53:39.054|56=FIX_GWY_1|10=066|
2025/07/30 13:53:39.056439 8=FIX.4.4|9=68|35=0|34=33|49=FIX_GWY_1|52=20250730-13:53:39.000|56=CRYPTO_TRADER_1|10=105|
2025/07/30 13:54:09.056147 8=FIX.4.4|9=67|35=0|34=8|49=CRYPTO_TRADER_1|52=20250730-13:54:09.056|56=FIX_GWY_1|10=067|
2025/07/30 13:54:09.057826 8=FIX.4.4|9=68|35=0|34=34|49=FIX_GWY_1|52=20250730-13:54:09.000|56=CRYPTO_TRADER_1|10=104|
2025/07/30 13:54:39.063924 8=FIX.4.4|9=67|35=0|34=9|49=CRYPTO_TRADER_1|52=20250730-13:54:39.063|56=FIX_GWY_1|10=069|
2025/07/30 13:54:39.064730 8=FIX.4.4|9=68|35=0|34=35|49=FIX_GWY_1|52=20250730-13:54:39.000|56=CRYPTO_TRADER_1|10=108|
2025/07/30 13:55:09.073232 8=FIX.4.4|9=68|35=0|34=10|49=CRYPTO_TRADER_1|52=20250730-13:55:09.073|56=FIX_GWY_1|10=109|
2025/07/30 13:55:09.074745 8=FIX.4.4|9=68|35=0|34=36|49=FIX_GWY_1|52=20250730-13:55:09.000|56=CRYPTO_TRADER_1|10=107|
2025/07/30 13:55:39.074923 8=FIX.4.4|9=68|35=0|34=11|49=CRYPTO_TRADER_1|52=20250730-13:55:39.074|56=FIX_GWY_1|10=114|
2025/07/30 13:55:39.075934 8=FIX.4.4|9=68|35=0|34=37|49=FIX_GWY_1|52=20250730-13:55:39.000|56=CRYPTO_TRADER_1|10=111|
2025/07/30 13:55:57.000483 8=FIX.4.4|9=114|35=A|34=1|49=CRYPTO_TRADER_1|52=20250730-13:55:57.000|56=FIX_GWY_1|98=0|108=30|141=Y|553=CRYPTO_TRADER_1|554=TEST|10=062|
2025/07/30 13:55:57.691321 8=FIX.4.4|9=85|35=A|34=1|49=FIX_GWY_1|52=20250730-13:55:57.000|56=CRYPTO_TRADER_1|98=0|108=30|141=Y|10=140|
2025/07/30 13:55:57.691440 8=FIX.4.4|9=98|35=x|34=2|49=CRYPTO_TRADER_1|52=20250730-13:55:57.691|56=FIX_GWY_1|320=SecurityListRequest1|559=4|10=136|
2025/07/30 13:55:58.687796 8=FIX.4.4|9=1525|35=y|34=2|49=FIX_GWY_1|52=20250730-13:55:58.000|56=CRYPTO_TRADER_1|146=28|55=ADA-USD|207=OTHER_COIN_MARKET|58={"type":"Crypto"}|55=AVX-AUD|207=OTHER_COIN_MARKET|58={"type":"Crypto"}|55=BCH-CNY|207=OTHER_COIN_MARKET|58={"type":"Crypto"}|55=BTC-AUD|207=BTC_MARKET|58={"type":"Crypto"}|55=BTC-CAD|207=BTC_MARKET|58={"type":"Crypto"}|55=BTC-CNY|207=BTC_MARKET|58={"type":"Crypto"}|55=BTC-EUR|207=BTC_MARKET|58={"type":"Crypto"}|55=BTC-GBP|207=BTC_MARKET|58={"type":"Crypto"}|55=BTC-JPY|207=BTC_MARKET|58={"type":"Crypto"}|55=BTC-USD|207=BTC_MARKET|58={"type":"Crypto"}|55=DAI-USD|207=OTHER_COIN_MARKET|58={"type":"Crypto"}|55=DOT-GBP|207=OTHER_COIN_MARKET|58={"type":"Crypto"}|55=ETH-AUD|207=ETH_MARKET|58={"type":"Crypto"}|55=ETH-CAD|207=ETH_MARKET|58={"type":"Crypto"}|55=ETH-CNY|207=ETH_MARKET|58={"type":"Crypto"}|55=ETH-EUR|207=ETH_MARKET|58={"type":"Crypto"}|55=ETH-GBP|207=ETH_MARKET|58={"type":"Crypto"}|55=ETH-JPY|207=ETH_MARKET|58={"type":"Crypto"}|55=ETH-USD|207=ETH_MARKET|58={"type":"Crypto"}|55=LTC-JPY|207=OTHER_COIN_MARKET|58={"type":"Crypto"}|55=LUN-CAD|207=OTHER_COIN_MARKET|58={"type":"Crypto"}|55=MTC-CAD|207=OTHER_COIN_MARKET|58={"type":"Crypto"}|55=SOL-EUR|207=OTHER_COIN_MARKET|58={"type":"Crypto"}|55=UNI-JPY|207=OTHER_COIN_MARKET|58={"type":"Crypto"}|55=XLM-CNY|207=OTHER_COIN_MARKET|58={"type":"Crypto"}|55=XLM-EUR|207=OTHER_COIN_MARKET|58={"type":"Crypto"}|55=XMR-AUD|207=OTHER_COIN_MARKET|58={"type":"Crypto"}|55=XRP-GBP|207=OTHER_COIN_MARKET|58={"type":"Crypto"}|320=SecurityListRequest1|322=1|560=0|10=041|
2025/07/30 13:55:58.688175 8=FIX.4.4|9=959|35=V|34=3|49=CRYPTO_TRADER_1|52=20250730-13:55:58.688|56=FIX_GWY_1|146=28|55=ADA-USD|207=OTHER_COIN_MARKET|55=AVX-AUD|207=OTHER_COIN_MARKET|55=BCH-CNY|207=OTHER_COIN_MARKET|55=BTC-AUD|207=BTC_MARKET|55=BTC-CAD|207=BTC_MARKET|55=BTC-CNY|207=BTC_MARKET|55=BTC-EUR|207=BTC_MARKET|55=BTC-GBP|207=BTC_MARKET|55=BTC-JPY|207=BTC_MARKET|55=BTC-USD|207=BTC_MARKET|55=DAI-USD|207=OTHER_COIN_MARKET|55=DOT-GBP|207=OTHER_COIN_MARKET|55=ETH-AUD|207=ETH_MARKET|55=ETH-CAD|207=ETH_MARKET|55=ETH-CNY|207=ETH_MARKET|55=ETH-EUR|207=ETH_MARKET|55=ETH-GBP|207=ETH_MARKET|55=ETH-JPY|207=ETH_MARKET|55=ETH-USD|207=ETH_MARKET|55=LTC-JPY|207=OTHER_COIN_MARKET|55=LUN-CAD|207=OTHER_COIN_MARKET|55=MTC-CAD|207=OTHER_COIN_MARKET|55=SOL-EUR|207=OTHER_COIN_MARKET|55=UNI-JPY|207=OTHER_COIN_MARKET|55=XLM-CNY|207=OTHER_COIN_MARKET|55=XLM-EUR|207=OTHER_COIN_MARKET|55=XMR-AUD|207=OTHER_COIN_MARKET|55=XRP-GBP|207=OTHER_COIN_MARKET|262=MarketDataRequest1|263=1|264=0|265=1|267=2|269=0|269=1|10=197|
2025/07/30 13:55:59.549666 8=FIX.4.4|9=126|35=W|34=3|49=FIX_GWY_1|52=20250730-13:55:59.000|56=CRYPTO_TRADER_1|55=ADA-USD|207=OTHER_COIN_MARKET|268=1|269=4|270=101|271=0|10=170|
2025/07/30 13:55:59.549770 8=FIX.4.4|9=126|35=W|34=4|49=FIX_GWY_1|52=20250730-13:55:59.000|56=CRYPTO_TRADER_1|55=AVX-AUD|207=OTHER_COIN_MARKET|268=1|269=4|270=401|271=0|10=197|
2025/07/30 13:55:59.549802 8=FIX.4.4|9=126|35=W|34=5|49=FIX_GWY_1|52=20250730-13:55:59.000|56=CRYPTO_TRADER_1|55=BCH-CNY|207=OTHER_COIN_MARKET|268=1|269=4|270=401|271=0|10=180|
2025/07/30 13:55:59.551160 8=FIX.4.4|9=121|35=W|34=6|49=FIX_GWY_1|52=20250730-13:55:59.000|56=CRYPTO_TRADER_1|55=BTC-AUD|207=BTC_MARKET|268=1|269=4|270=40100|271=0|10=219|
2025/07/30 13:55:59.551272 8=FIX.4.4|9=121|35=W|34=7|49=FIX_GWY_1|52=20250730-13:55:59.000|56=CRYPTO_TRADER_1|55=BTC-CAD|207=BTC_MARKET|268=1|269=4|270=40100|271=0|10=202|
2025/07/30 13:55:59.551425 8=FIX.4.4|9=121|35=W|34=8|49=FIX_GWY_1|52=20250730-13:55:59.000|56=CRYPTO_TRADER_1|55=BTC-CNY|207=BTC_MARKET|268=1|269=4|270=40100|271=0|10=237|
2025/07/30 13:55:59.551545 8=FIX.4.4|9=121|35=W|34=9|49=FIX_GWY_1|52=20250730-13:55:59.000|56=CRYPTO_TRADER_1|55=BTC-EUR|207=BTC_MARKET|268=1|269=4|270=20100|271=0|10=238|
2025/07/30 13:55:59.551638 8=FIX.4.4|9=122|35=W|34=10|49=FIX_GWY_1|52=20250730-13:55:59.000|56=CRYPTO_TRADER_1|55=BTC-GBP|207=BTC_MARKET|268=1|269=4|270=30100|271=0|10=005|
2025/07/30 13:55:59.551774 8=FIX.4.4|9=122|35=W|34=11|49=FIX_GWY_1|52=20250730-13:55:59.000|56=CRYPTO_TRADER_1|55=BTC-JPY|207=BTC_MARKET|268=1|269=4|270=40100|271=0|10=033|
2025/07/30 13:55:59.551916 8=FIX.4.4|9=303|35=W|34=12|49=FIX_GWY_1|52=20250730-13:55:59.000|56=CRYPTO_TRADER_1|55=BTC-USD|207=BTC_MARKET|268=11|269=0|270=0|271=0|269=0|270=0|271=0|269=0|270=0|271=0|269=0|270=0|271=0|269=0|270=0|271=0|269=1|270=0|271=0|269=1|270=0|271=0|269=1|270=0|271=0|269=1|270=0|271=0|269=1|270=0|271=0|269=4|270=10100|271=0|10=123|
2025/07/30 13:55:59.552013 8=FIX.4.4|9=127|35=W|34=13|49=FIX_GWY_1|52=20250730-13:55:59.000|56=CRYPTO_TRADER_1|55=DAI-USD|207=OTHER_COIN_MARKET|268=1|269=4|270=101|271=0|10=228|
2025/07/30 13:55:59.552138 8=FIX.4.4|9=127|35=W|34=14|49=FIX_GWY_1|52=20250730-13:55:59.000|56=CRYPTO_TRADER_1|55=DOT-GBP|207=OTHER_COIN_MARKET|268=1|269=4|270=301|271=0|10=237|
2025/07/30 13:55:59.552284 8=FIX.4.4|9=121|35=W|34=15|49=FIX_GWY_1|52=20250730-13:55:59.000|56=CRYPTO_TRADER_1|55=ETH-AUD|207=ETH_MARKET|268=1|269=4|270=4010|271=0|10=235|
2025/07/30 13:55:59.552367 8=FIX.4.4|9=121|35=W|34=16|49=FIX_GWY_1|52=20250730-13:55:59.000|56=CRYPTO_TRADER_1|55=ETH-CAD|207=ETH_MARKET|268=1|269=4|270=4010|271=0|10=218|
2025/07/30 13:55:59.552437 8=FIX.4.4|9=121|35=W|34=17|49=FIX_GWY_1|52=20250730-13:55:59.000|56=CRYPTO_TRADER_1|55=ETH-CNY|207=ETH_MARKET|268=1|269=4|270=4010|271=0|10=253|
2025/07/30 13:55:59.552527 8=FIX.4.4|9=121|35=W|34=18|49=FIX_GWY_1|52=20250730-13:55:59.000|56=CRYPTO_TRADER_1|55=ETH-EUR|207=ETH_MARKET|268=1|269=4|270=2010|271=0|10=254|
2025/07/30 13:55:59.552587 8=FIX.4.4|9=121|35=W|34=19|49=FIX_GWY_1|52=20250730-13:55:59.000|56=CRYPTO_TRADER_1|55=ETH-GBP|207=ETH_MARKET|268=1|269=4|270=3010|271=0|10=237|
2025/07/30 13:55:59.552647 8=FIX.4.4|9=121|35=W|34=20|49=FIX_GWY_1|52=20250730-13:55:59.000|56=CRYPTO_TRADER_1|55=ETH-JPY|207=ETH_MARKET|268=1|269=4|270=4010|271=0|10=000|
2025/07/30 13:55:59.552707 8=FIX.4.4|9=121|35=W|34=21|49=FIX_GWY_1|52=20250730-13:55:59.000|56=CRYPTO_TRADER_1|55=ETH-USD|207=ETH_MARKET|268=1|269=4|270=1010|271=0|10=247|
2025/07/30 13:55:59.552762 8=FIX.4.4|9=127|35=W|34=22|49=FIX_GWY_1|52=20250730-13:55:59.000|56=CRYPTO_TRADER_1|55=LTC-JPY|207=OTHER_COIN_MARKET|268=1|269=4|270=401|271=0|10=003|
2025/07/30 13:55:59.552824 8=FIX.4.4|9=127|35=W|34=23|49=FIX_GWY_1|52=20250730-13:55:59.000|56=CRYPTO_TRADER_1|55=LUN-CAD|207=OTHER_COIN_MARKET|268=1|269=4|270=401|271=0|10=229|
2025/07/30 13:55:59.552901 8=FIX.4.4|9=127|35=W|34=24|49=FIX_GWY_1|52=20250730-13:55:59.000|56=CRYPTO_TRADER_1|55=MTC-CAD|207=OTHER_COIN_MARKET|268=1|269=4|270=401|271=0|10=219|
2025/07/30 13:55:59.552962 8=FIX.4.4|9=127|35=W|34=25|49=FIX_GWY_1|52=20250730-13:55:59.000|56=CRYPTO_TRADER_1|55=SOL-EUR|207=OTHER_COIN_MARKET|268=1|269=4|270=201|271=0|10=008|
2025/07/30 13:55:59.553015 8=FIX.4.4|9=127|35=W|34=26|49=FIX_GWY_1|52=20250730-13:55:59.000|56=CRYPTO_TRADER_1|55=UNI-JPY|207=OTHER_COIN_MARKET|268=1|269=4|270=401|271=0|10=016|
2025/07/30 13:55:59.553056 8=FIX.4.4|9=127|35=W|34=27|49=FIX_GWY_1|52=20250730-13:55:59.000|56=CRYPTO_TRADER_1|55=XLM-CNY|207=OTHER_COIN_MARKET|268=1|269=4|270=401|271=0|10=013|
2025/07/30 13:55:59.553125 8=FIX.4.4|9=127|35=W|34=28|49=FIX_GWY_1|52=20250730-13:55:59.000|56=CRYPTO_TRADER_1|55=XLM-EUR|207=OTHER_COIN_MARKET|268=1|269=4|270=201|271=0|10=014|
2025/07/30 13:55:59.553179 8=FIX.4.4|9=127|35=W|34=29|49=FIX_GWY_1|52=20250730-13:55:59.000|56=CRYPTO_TRADER_1|55=XMR-AUD|207=OTHER_COIN_MARKET|268=1|269=4|270=401|271=0|10=005|
2025/07/30 13:55:59.553224 8=FIX.4.4|9=127|35=W|34=30|49=FIX_GWY_1|52=20250730-13:55:59.000|56=CRYPTO_TRADER_1|55=XRP-GBP|207=OTHER_COIN_MARKET|268=1|269=4|270=301|271=0|10=254|
2025/07/30 13:56:28.688807 8=FIX.4.4|9=67|35=0|34=4|49=CRYPTO_TRADER_1|52=20250730-13:56:28.688|56=FIX_GWY_1|10=077|
2025/07/30 13:56:35.553259 8=FIX.4.4|9=76|35=1|34=5|49=CRYPTO_TRADER_1|52=20250730-13:56:35.553|56=FIX_GWY_1|112=TEST|10=086|
2025/07/30 13:56:35.554221 8=FIX.4.4|9=77|35=0|34=31|49=FIX_GWY_1|52=20250730-13:56:35.000|56=CRYPTO_TRADER_1|112=TEST|10=120|
2025/07/30 13:57:05.553925 8=FIX.4.4|9=67|35=0|34=6|49=CRYPTO_TRADER_1|52=20250730-13:57:05.553|56=FIX_GWY_1|10=066|
2025/07/30 13:57:05.556600 8=FIX.4.4|9=68|35=0|34=32|49=FIX_GWY_1|52=20250730-13:57:05.000|56=CRYPTO_TRADER_1|10=101|
2025/07/30 13:57:35.554466 8=FIX.4.4|9=67|35=0|34=7|49=CRYPTO_TRADER_1|52=20250730-13:57:35.554|56=FIX_GWY_1|10=071|
2025/07/30 13:57:35.557016 8=FIX.4.4|9=68|35=0|34=33|49=FIX_GWY_1|52=20250730-13:57:35.000|56=CRYPTO_TRADER_1|10=105|
2025/07/30 13:58:05.555868 8=FIX.4.4|9=67|35=0|34=8|49=CRYPTO_TRADER_1|52=20250730-13:58:05.555|56=FIX_GWY_1|10=071|
2025/07/30 13:58:05.557570 8=FIX.4.4|9=68|35=0|34=34|49=FIX_GWY_1|52=20250730-13:58:05.000|56=CRYPTO_TRADER_1|10=104|
2025/07/30 13:58:35.557346 8=FIX.4.4|9=67|35=0|34=9|49=CRYPTO_TRADER_1|52=20250730-13:58:35.557|56=FIX_GWY_1|10=077|
2025/07/30 13:58:35.559993 8=FIX.4.4|9=68|35=0|34=35|49=FIX_GWY_1|52=20250730-13:58:35.000|56=CRYPTO_TRADER_1|10=108|
2025/07/30 13:59:05.557994 8=FIX.4.4|9=68|35=0|34=10|49=CRYPTO_TRADER_1|52=20250730-13:59:05.557|56=FIX_GWY_1|10=116|
2025/07/30 13:59:05.560067 8=FIX.4.4|9=68|35=0|34=36|49=FIX_GWY_1|52=20250730-13:59:05.000|56=CRYPTO_TRADER_1|10=107|
2025/07/30 13:59:35.558277 8=FIX.4.4|9=68|35=0|34=11|49=CRYPTO_TRADER_1|52=20250730-13:59:35.558|56=FIX_GWY_1|10=121|
2025/07/30 13:59:35.560599 8=FIX.4.4|9=68|35=0|34=37|49=FIX_GWY_1|52=20250730-13:59:35.000|56=CRYPTO_TRADER_1|10=111|
2025/07/30 14:00:05.559324 8=FIX.4.4|9=68|35=0|34=12|49=CRYPTO_TRADER_1|52=20250730-14:00:05.559|56=FIX_GWY_1|10=107|
2025/07/30 14:00:05.560778 8=FIX.4.4|9=68|35=0|34=38|49=FIX_GWY_1|52=20250730-14:00:05.000|56=CRYPTO_TRADER_1|10=096|
2025/07/30 14:00:35.559767 8=FIX.4.4|9=68|35=0|34=13|49=CRYPTO_TRADER_1|52=20250730-14:00:35.559|56=FIX_GWY_1|10=111|
2025/07/30 14:00:35.561945 8=FIX.4.4|9=68|35=0|34=39|49=FIX_GWY_1|52=20250730-14:00:35.000|56=CRYPTO_TRADER_1|10=100|
2025/07/30 14:01:05.560661 8=FIX.4.4|9=68|35=0|34=14|49=CRYPTO_TRADER_1|52=20250730-14:01:05.560|56=FIX_GWY_1|10=102|
2025/07/30 14:01:05.562808 8=FIX.4.4|9=68|35=0|34=40|49=FIX_GWY_1|52=20250730-14:01:05.000|56=CRYPTO_TRADER_1|10=090|
2025/07/30 14:01:35.561427 8=FIX.4.4|9=68|35=0|34=15|49=CRYPTO_TRADER_1|52=20250730-14:01:35.561|56=FIX_GWY_1|10=107|
2025/07/30 14:01:35.563552 8=FIX.4.4|9=68|35=0|34=41|49=FIX_GWY_1|52=20250730-14:01:35.000|56=CRYPTO_TRADER_1|10=094|
2025/07/30 14:02:05.562222 8=FIX.4.4|9=68|35=0|34=16|49=CRYPTO_TRADER_1|52=20250730-14:02:05.562|56=FIX_GWY_1|10=107|
2025/07/30 14:02:05.564847 8=FIX.4.4|9=68|35=0|34=42|49=FIX_GWY_1|52=20250730-14:02:05.000|56=CRYPTO_TRADER_1|10=093|
2025/07/30 14:02:35.563348 8=FIX.4.4|9=68|35=0|34=17|49=CRYPTO_TRADER_1|52=20250730-14:02:35.563|56=FIX_GWY_1|10=112|
2025/07/30 14:02:35.565469 8=FIX.4.4|9=68|35=0|34=43|49=FIX_GWY_1|52=20250730-14:02:35.000|56=CRYPTO_TRADER_1|10=097|
2025/07/30 14:03:05.564358 8=FIX.4.4|9=68|35=0|34=18|49=CRYPTO_TRADER_1|52=20250730-14:03:05.564|56=FIX_GWY_1|10=112|
2025/07/30 14:03:05.566503 8=FIX.4.4|9=68|35=0|34=44|49=FIX_GWY_1|52=20250730-14:03:05.000|56=CRYPTO_TRADER_1|10=096|
2025/07/30 14:03:35.565214 8=FIX.4.4|9=68|35=0|34=19|49=CRYPTO_TRADER_1|52=20250730-14:03:35.565|56=FIX_GWY_1|10=117|
2025/07/30 14:03:35.565658 8=FIX.4.4|9=68|35=0|34=45|49=FIX_GWY_1|52=20250730-14:03:35.000|56=CRYPTO_TRADER_1|10=100|
2025/07/30 14:04:05.564879 8=FIX.4.4|9=68|35=0|34=20|49=CRYPTO_TRADER_1|52=20250730-14:04:05.564|56=FIX_GWY_1|10=106|
2025/07/30 14:04:05.567331 8=FIX.4.4|9=68|35=0|34=46|49=FIX_GWY_1|52=20250730-14:04:05.000|56=CRYPTO_TRADER_1|10=099|
2025/07/30 14:04:35.566310 8=FIX.4.4|9=68|35=0|34=21|49=CRYPTO_TRADER_1|52=20250730-14:04:35.566|56=FIX_GWY_1|10=112|
2025/07/30 14:04:35.568315 8=FIX.4.4|9=68|35=0|34=47|49=FIX_GWY_1|52=20250730-14:04:35.000|56=CRYPTO_TRADER_1|10=103|
2025/07/30 14:05:05.566315 8=FIX.4.4|9=68|35=0|34=22|49=CRYPTO_TRADER_1|52=20250730-14:05:05.566|56=FIX_GWY_1|10=111|
2025/07/30 14:05:05.568924 8=FIX.4.4|9=68|35=0|34=48|49=FIX_GWY_1|52=20250730-14:05:05.000|56=CRYPTO_TRADER_1|10=102|
2025/07/30 14:05:35.567837 8=FIX.4.4|9=68|35=0|34=23|49=CRYPTO_TRADER_1|52=20250730-14:05:35.567|56=FIX_GWY_1|10=116|
2025/07/30 14:05:35.569371 8=FIX.4.4|9=68|35=0|34=49|49=FIX_GWY_1|52=20250730-14:05:35.000|56=CRYPTO_TRADER_1|10=106|
2025/07/30 14:07:34.002280 8=FIX.4.4|9=114|35=A|34=1|49=CRYPTO_TRADER_1|52=20250730-14:07:34.002|56=FIX_GWY_1|98=0|108=30|141=Y|553=CRYPTO_TRADER_1|554=TEST|10=057|
2025/07/30 14:07:34.170843 8=FIX.4.4|9=85|35=A|34=1|49=FIX_GWY_1|52=20250730-14:07:34.000|56=CRYPTO_TRADER_1|98=0|108=30|141=Y|10=133|
2025/07/30 14:07:34.170940 8=FIX.4.4|9=98|35=x|34=2|49=CRYPTO_TRADER_1|52=20250730-14:07:34.170|56=FIX_GWY_1|320=SecurityListRequest1|559=4|10=121|
2025/07/30 14:07:35.110477 8=FIX.4.4|9=1525|35=y|34=2|49=FIX_GWY_1|52=20250730-14:07:35.000|56=CRYPTO_TRADER_1|146=28|55=ADA-USD|207=OTHER_COIN_MARKET|58={"type":"Crypto"}|55=AVX-AUD|207=OTHER_COIN_MARKET|58={"type":"Crypto"}|55=BCH-CNY|207=OTHER_COIN_MARKET|58={"type":"Crypto"}|55=BTC-AUD|207=BTC_MARKET|58={"type":"Crypto"}|55=BTC-CAD|207=BTC_MARKET|58={"type":"Crypto"}|55=BTC-CNY|207=BTC_MARKET|58={"type":"Crypto"}|55=BTC-EUR|207=BTC_MARKET|58={"type":"Crypto"}|55=BTC-GBP|207=BTC_MARKET|58={"type":"Crypto"}|55=BTC-JPY|207=BTC_MARKET|58={"type":"Crypto"}|55=BTC-USD|207=BTC_MARKET|58={"type":"Crypto"}|55=DAI-USD|207=OTHER_COIN_MARKET|58={"type":"Crypto"}|55=DOT-GBP|207=OTHER_COIN_MARKET|58={"type":"Crypto"}|55=ETH-AUD|207=ETH_MARKET|58={"type":"Crypto"}|55=ETH-CAD|207=ETH_MARKET|58={"type":"Crypto"}|55=ETH-CNY|207=ETH_MARKET|58={"type":"Crypto"}|55=ETH-EUR|207=ETH_MARKET|58={"type":"Crypto"}|55=ETH-GBP|207=ETH_MARKET|58={"type":"Crypto"}|55=ETH-JPY|207=ETH_MARKET|58={"type":"Crypto"}|55=ETH-USD|207=ETH_MARKET|58={"type":"Crypto"}|55=LTC-JPY|207=OTHER_COIN_MARKET|58={"type":"Crypto"}|55=LUN-CAD|207=OTHER_COIN_MARKET|58={"type":"Crypto"}|55=MTC-CAD|207=OTHER_COIN_MARKET|58={"type":"Crypto"}|55=SOL-EUR|207=OTHER_COIN_MARKET|58={"type":"Crypto"}|55=UNI-JPY|207=OTHER_COIN_MARKET|58={"type":"Crypto"}|55=XLM-CNY|207=OTHER_COIN_MARKET|58={"type":"Crypto"}|55=XLM-EUR|207=OTHER_COIN_MARKET|58={"type":"Crypto"}|55=XMR-AUD|207=OTHER_COIN_MARKET|58={"type":"Crypto"}|55=XRP-GBP|207=OTHER_COIN_MARKET|58={"type":"Crypto"}|320=SecurityListRequest1|322=1|560=0|10=034|
2025/07/30 14:07:35.111150 8=FIX.4.4|9=959|35=V|34=3|49=CRYPTO_TRADER_1|52=20250730-14:07:35.111|56=FIX_GWY_1|146=28|55=ADA-USD|207=OTHER_COIN_MARKET|55=AVX-AUD|207=OTHER_COIN_MARKET|55=BCH-CNY|207=OTHER_COIN_MARKET|55=BTC-AUD|207=BTC_MARKET|55=BTC-CAD|207=BTC_MARKET|55=BTC-CNY|207=BTC_MARKET|55=BTC-EUR|207=BTC_MARKET|55=BTC-GBP|207=BTC_MARKET|55=BTC-JPY|207=BTC_MARKET|55=BTC-USD|207=BTC_MARKET|55=DAI-USD|207=OTHER_COIN_MARKET|55=DOT-GBP|207=OTHER_COIN_MARKET|55=ETH-AUD|207=ETH_MARKET|55=ETH-CAD|207=ETH_MARKET|55=ETH-CNY|207=ETH_MARKET|55=ETH-EUR|207=ETH_MARKET|55=ETH-GBP|207=ETH_MARKET|55=ETH-JPY|207=ETH_MARKET|55=ETH-USD|207=ETH_MARKET|55=LTC-JPY|207=OTHER_COIN_MARKET|55=LUN-CAD|207=OTHER_COIN_MARKET|55=MTC-CAD|207=OTHER_COIN_MARKET|55=SOL-EUR|207=OTHER_COIN_MARKET|55=UNI-JPY|207=OTHER_COIN_MARKET|55=XLM-CNY|207=OTHER_COIN_MARKET|55=XLM-EUR|207=OTHER_COIN_MARKET|55=XMR-AUD|207=OTHER_COIN_MARKET|55=XRP-GBP|207=OTHER_COIN_MARKET|262=MarketDataRequest1|263=1|264=0|265=1|267=2|269=0|269=1|10=171|
2025/07/30 14:07:36.105651 8=FIX.4.4|9=126|35=W|34=3|49=FIX_GWY_1|52=20250730-14:07:36.000|56=CRYPTO_TRADER_1|55=ADA-USD|207=OTHER_COIN_MARKET|268=1|269=4|270=101|271=0|10=163|
2025/07/30 14:07:36.105767 8=FIX.4.4|9=126|35=W|34=4|49=FIX_GWY_1|52=20250730-14:07:36.000|56=CRYPTO_TRADER_1|55=AVX-AUD|207=OTHER_COIN_MARKET|268=1|269=4|270=401|271=0|10=190|
2025/07/30 14:07:36.105854 8=FIX.4.4|9=126|35=W|34=5|49=FIX_GWY_1|52=20250730-14:07:36.000|56=CRYPTO_TRADER_1|55=BCH-CNY|207=OTHER_COIN_MARKET|268=1|269=4|270=401|271=0|10=173|
2025/07/30 14:07:36.105926 8=FIX.4.4|9=121|35=W|34=6|49=FIX_GWY_1|52=20250730-14:07:36.000|56=CRYPTO_TRADER_1|55=BTC-AUD|207=BTC_MARKET|268=1|269=4|270=40100|271=0|10=212|
2025/07/30 14:07:36.106035 8=FIX.4.4|9=121|35=W|34=7|49=FIX_GWY_1|52=20250730-14:07:36.000|56=CRYPTO_TRADER_1|55=BTC-CAD|207=BTC_MARKET|268=1|269=4|270=40100|271=0|10=195|
2025/07/30 14:07:36.106118 8=FIX.4.4|9=121|35=W|34=8|49=FIX_GWY_1|52=20250730-14:07:36.000|56=CRYPTO_TRADER_1|55=BTC-CNY|207=BTC_MARKET|268=1|269=4|270=40100|271=0|10=230|
2025/07/30 14:07:36.106240 8=FIX.4.4|9=121|35=W|34=9|49=FIX_GWY_1|52=20250730-14:07:36.000|56=CRYPTO_TRADER_1|55=BTC-EUR|207=BTC_MARKET|268=1|269=4|270=20100|271=0|10=231|
2025/07/30 14:07:36.106355 8=FIX.4.4|9=122|35=W|34=10|49=FIX_GWY_1|52=20250730-14:07:36.000|56=CRYPTO_TRADER_1|55=BTC-GBP|207=BTC_MARKET|268=1|269=4|270=30100|271=0|10=254|
2025/07/30 14:07:36.106468 8=FIX.4.4|9=122|35=W|34=11|49=FIX_GWY_1|52=20250730-14:07:36.000|56=CRYPTO_TRADER_1|55=BTC-JPY|207=BTC_MARKET|268=1|269=4|270=40100|271=0|10=026|
2025/07/30 14:07:36.106609 8=FIX.4.4|9=303|35=W|34=12|49=FIX_GWY_1|52=20250730-14:07:36.000|56=CRYPTO_TRADER_1|55=BTC-USD|207=BTC_MARKET|268=11|269=0|270=0|271=0|269=0|270=0|271=0|269=0|270=0|271=0|269=0|270=0|271=0|269=0|270=0|271=0|269=1|270=0|271=0|269=1|270=0|271=0|269=1|270=0|271=0|269=1|270=0|271=0|269=1|270=0|271=0|269=4|270=10100|271=0|10=116|
2025/07/30 14:07:36.106666 8=FIX.4.4|9=127|35=W|34=13|49=FIX_GWY_1|52=20250730-14:07:36.000|56=CRYPTO_TRADER_1|55=DAI-USD|207=OTHER_COIN_MARKET|268=1|269=4|270=101|271=0|10=221|
2025/07/30 14:07:36.106782 8=FIX.4.4|9=127|35=W|34=14|49=FIX_GWY_1|52=20250730-14:07:36.000|56=CRYPTO_TRADER_1|55=DOT-GBP|207=OTHER_COIN_MARKET|268=1|269=4|270=301|271=0|10=230|
2025/07/30 14:07:36.106884 8=FIX.4.4|9=121|35=W|34=15|49=FIX_GWY_1|52=20250730-14:07:36.000|56=CRYPTO_TRADER_1|55=ETH-AUD|207=ETH_MARKET|268=1|269=4|270=4010|271=0|10=228|
2025/07/30 14:07:36.107048 8=FIX.4.4|9=121|35=W|34=16|49=FIX_GWY_1|52=20250730-14:07:36.000|56=CRYPTO_TRADER_1|55=ETH-CAD|207=ETH_MARKET|268=1|269=4|270=4010|271=0|10=211|
2025/07/30 14:07:36.107081 8=FIX.4.4|9=121|35=W|34=17|49=FIX_GWY_1|52=20250730-14:07:36.000|56=CRYPTO_TRADER_1|55=ETH-CNY|207=ETH_MARKET|268=1|269=4|270=4010|271=0|10=246|
2025/07/30 14:07:36.107189 8=FIX.4.4|9=121|35=W|34=18|49=FIX_GWY_1|52=20250730-14:07:36.000|56=CRYPTO_TRADER_1|55=ETH-EUR|207=ETH_MARKET|268=1|269=4|270=2010|271=0|10=247|
2025/07/30 14:07:36.107252 8=FIX.4.4|9=121|35=W|34=19|49=FIX_GWY_1|52=20250730-14:07:36.000|56=CRYPTO_TRADER_1|55=ETH-GBP|207=ETH_MARKET|268=1|269=4|270=3010|271=0|10=230|
2025/07/30 14:07:36.107307 8=FIX.4.4|9=121|35=W|34=20|49=FIX_GWY_1|52=20250730-14:07:36.000|56=CRYPTO_TRADER_1|55=ETH-JPY|207=ETH_MARKET|268=1|269=4|270=4010|271=0|10=249|
2025/07/30 14:07:36.107380 8=FIX.4.4|9=121|35=W|34=21|49=FIX_GWY_1|52=20250730-14:07:36.000|56=CRYPTO_TRADER_1|55=ETH-USD|207=ETH_MARKET|268=1|269=4|270=1010|271=0|10=240|
2025/07/30 14:07:36.107437 8=FIX.4.4|9=127|35=W|34=22|49=FIX_GWY_1|52=20250730-14:07:36.000|56=CRYPTO_TRADER_1|55=LTC-JPY|207=OTHER_COIN_MARKET|268=1|269=4|270=401|271=0|10=252|
2025/07/30 14:07:36.107492 8=FIX.4.4|9=127|35=W|34=23|49=FIX_GWY_1|52=20250730-14:07:36.000|56=CRYPTO_TRADER_1|55=LUN-CAD|207=OTHER_COIN_MARKET|268=1|269=4|270=401|271=0|10=222|
2025/07/30 14:07:36.107550 8=FIX.4.4|9=127|35=W|34=24|49=FIX_GWY_1|52=20250730-14:07:36.000|56=CRYPTO_TRADER_1|55=MTC-CAD|207=OTHER_COIN_MARKET|268=1|269=4|270=401|271=0|10=212|
2025/07/30 14:07:36.107609 8=FIX.4.4|9=127|35=W|34=25|49=FIX_GWY_1|52=20250730-14:07:36.000|56=CRYPTO_TRADER_1|55=SOL-EUR|207=OTHER_COIN_MARKET|268=1|269=4|270=201|271=0|10=001|
2025/07/30 14:07:36.107666 8=FIX.4.4|9=127|35=W|34=26|49=FIX_GWY_1|52=20250730-14:07:36.000|56=CRYPTO_TRADER_1|55=UNI-JPY|207=OTHER_COIN_MARKET|268=1|269=4|270=401|271=0|10=009|
2025/07/30 14:07:36.107730 8=FIX.4.4|9=127|35=W|34=27|49=FIX_GWY_1|52=20250730-14:07:36.000|56=CRYPTO_TRADER_1|55=XLM-CNY|207=OTHER_COIN_MARKET|268=1|269=4|270=401|271=0|10=006|
2025/07/30 14:07:36.107779 8=FIX.4.4|9=127|35=W|34=28|49=FIX_GWY_1|52=20250730-14:07:36.000|56=CRYPTO_TRADER_1|55=XLM-EUR|207=OTHER_COIN_MARKET|268=1|269=4|270=201|271=0|10=007|
2025/07/30 14:07:36.107837 8=FIX.4.4|9=127|35=W|34=29|49=FIX_GWY_1|52=20250730-14:07:36.000|56=CRYPTO_TRADER_1|55=XMR-AUD|207=OTHER_COIN_MARKET|268=1|269=4|270=401|271=0|10=254|
2025/07/30 14:07:36.107905 8=FIX.4.4|9=127|35=W|34=30|49=FIX_GWY_1|52=20250730-14:07:36.000|56=CRYPTO_TRADER_1|55=XRP-GBP|207=OTHER_COIN_MARKET|268=1|269=4|270=301|271=0|10=247|
2025/07/30 14:08:05.110814 8=FIX.4.4|9=67|35=0|34=4|49=CRYPTO_TRADER_1|52=20250730-14:08:05.110|56=FIX_GWY_1|10=050|
2025/07/30 14:08:12.107654 8=FIX.4.4|9=76|35=1|34=5|49=CRYPTO_TRADER_1|52=20250730-14:08:12.107|56=FIX_GWY_1|112=TEST|10=074|
2025/07/30 14:08:12.108299 8=FIX.4.4|9=77|35=0|34=31|49=FIX_GWY_1|52=20250730-14:08:12.000|56=CRYPTO_TRADER_1|112=TEST|10=113|
2025/07/30 14:08:42.108264 8=FIX.4.4|9=67|35=0|34=6|49=CRYPTO_TRADER_1|52=20250730-14:08:42.108|56=FIX_GWY_1|10=060|
2025/07/30 14:08:42.108634 8=FIX.4.4|9=68|35=0|34=32|49=FIX_GWY_1|52=20250730-14:08:42.000|56=CRYPTO_TRADER_1|10=099|
2025/07/30 14:09:12.108707 8=FIX.4.4|9=67|35=0|34=7|49=CRYPTO_TRADER_1|52=20250730-14:09:12.108|56=FIX_GWY_1|10=059|
2025/07/30 14:09:12.110797 8=FIX.4.4|9=68|35=0|34=33|49=FIX_GWY_1|52=20250730-14:09:12.000|56=CRYPTO_TRADER_1|10=098|
2025/07/30 14:09:42.109942 8=FIX.4.4|9=67|35=0|34=8|49=CRYPTO_TRADER_1|52=20250730-14:09:42.109|56=FIX_GWY_1|10=064|
2025/07/30 14:09:42.111307 8=FIX.4.4|9=68|35=0|34=34|49=FIX_GWY_1|52=20250730-14:09:42.000|56=CRYPTO_TRADER_1|10=102|
2025/07/30 14:10:12.167737 8=FIX.4.4|9=67|35=0|34=9|49=CRYPTO_TRADER_1|52=20250730-14:10:12.167|56=FIX_GWY_1|10=058|
2025/07/30 14:10:12.169303 8=FIX.4.4|9=68|35=0|34=35|49=FIX_GWY_1|52=20250730-14:10:12.000|56=CRYPTO_TRADER_1|10=092|
2025/07/30 14:10:42.169147 8=FIX.4.4|9=68|35=0|34=10|49=CRYPTO_TRADER_1|52=20250730-14:10:42.169|56=FIX_GWY_1|10=104|
2025/07/30 14:10:42.171069 8=FIX.4.4|9=68|35=0|34=36|49=FIX_GWY_1|52=20250730-14:10:42.000|56=CRYPTO_TRADER_1|10=096|
2025/07/30 14:11:12.170683 8=FIX.4.4|9=68|35=0|34=11|49=CRYPTO_TRADER_1|52=20250730-14:11:12.170|56=FIX_GWY_1|10=095|
2025/07/30 14:11:12.172662 8=FIX.4.4|9=68|35=0|34=37|49=FIX_GWY_1|52=20250730-14:11:12.000|56=CRYPTO_TRADER_1|10=095|
2025/07/30 14:11:42.172206 8=FIX.4.4|9=68|35=0|34=12|49=CRYPTO_TRADER_1|52=20250730-14:11:42.172|56=FIX_GWY_1|10=101|
2025/07/30 14:11:42.175717 8=FIX.4.4|9=68|35=0|34=38|49=FIX_GWY_1|52=20250730-14:11:42.000|56=CRYPTO_TRADER_1|10=099|
2025/07/30 14:12:12.173218 8=FIX.4.4|9=68|35=0|34=13|49=CRYPTO_TRADER_1|52=20250730-14:12:12.173|56=FIX_GWY_1|10=101|
2025/07/30 14:12:12.174817 8=FIX.4.4|9=68|35=0|34=39|49=FIX_GWY_1|52=20250730-14:12:12.000|56=CRYPTO_TRADER_1|10=098|
2025/07/30 14:12:42.174529 8=FIX.4.4|9=68|35=0|34=14|49=CRYPTO_TRADER_1|52=20250730-14:12:42.174|56=FIX_GWY_1|10=106|
2025/07/30 14:12:42.175887 8=FIX.4.4|9=68|35=0|34=40|49=FIX_GWY_1|52=20250730-14:12:42.000|56=CRYPTO_TRADER_1|10=093|
2025/07/30 14:13:12.174751 8=FIX.4.4|9=68|35=0|34=15|49=CRYPTO_TRADER_1|52=20250730-14:13:12.174|56=FIX_GWY_1|10=105|
2025/07/30 14:13:12.176973 8=FIX.4.4|9=68|35=0|34=41|49=FIX_GWY_1|52=20250730-14:13:12.000|56=CRYPTO_TRADER_1|10=092|
2025/07/30 14:13:42.175769 8=FIX.4.4|9=68|35=0|34=16|49=CRYPTO_TRADER_1|52=20250730-14:13:42.175|56=FIX_GWY_1|10=110|
2025/07/30 14:13:42.177794 8=FIX.4.4|9=68|35=0|34=42|49=FIX_GWY_1|52=20250730-14:13:42.000|56=CRYPTO_TRADER_1|10=096|
2025/07/30 14:14:12.176468 8=FIX.4.4|9=68|35=0|34=17|49=CRYPTO_TRADER_1|52=20250730-14:14:12.176|56=FIX_GWY_1|10=110|
2025/07/30 14:14:12.178733 8=FIX.4.4|9=68|35=0|34=43|49=FIX_GWY_1|52=20250730-14:14:12.000|56=CRYPTO_TRADER_1|10=095|
2025/07/30 14:14:42.177887 8=FIX.4.4|9=68|35=0|34=18|49=CRYPTO_TRADER_1|52=20250730-14:14:42.177|56=FIX_GWY_1|10=115|
2025/07/30 14:14:42.178215 8=FIX.4.4|9=68|35=0|34=44|49=FIX_GWY_1|52=20250730-14:14:42.000|56=CRYPTO_TRADER_1|10=099|
2025/07/30 14:15:12.178339 8=FIX.4.4|9=68|35=0|34=19|49=CRYPTO_TRADER_1|52=20250730-14:15:12.178|56=FIX_GWY_1|10=115|
2025/07/30 14:15:12.179612 8=FIX.4.4|9=68|35=0|34=45|49=FIX_GWY_1|52=20250730-14:15:12.000|56=CRYPTO_TRADER_1|10=098|
2025/07/30 14:15:42.179278 8=FIX.4.4|9=68|35=0|34=20|49=CRYPTO_TRADER_1|52=20250730-14:15:42.179|56=FIX_GWY_1|10=111|
2025/07/30 14:15:42.181511 8=FIX.4.4|9=68|35=0|34=46|49=FIX_GWY_1|52=20250730-14:15:42.000|56=CRYPTO_TRADER_1|10=102|
2025/07/30 14:16:12.180695 8=FIX.4.4|9=68|35=0|34=21|49=CRYPTO_TRADER_1|52=20250730-14:16:12.180|56=FIX_GWY_1|10=102|
2025/07/30 14:16:12.182873 8=FIX.4.4|9=68|35=0|34=47|49=FIX_GWY_1|52=20250730-14:16:12.000|56=CRYPTO_TRADER_1|10=101|
2025/07/30 14:16:42.182354 8=FIX.4.4|9=68|35=0|34=22|49=CRYPTO_TRADER_1|52=20250730-14:16:42.182|56=FIX_GWY_1|10=108|
2025/07/30 14:16:42.184127 8=FIX.4.4|9=68|35=0|34=48|49=FIX_GWY_1|52=20250730-14:16:42.000|56=CRYPTO_TRADER_1|10=105|
2025/07/30 14:32:09.709728 8=FIX.4.4|9=68|35=0|34=23|49=CRYPTO_TRADER_1|52=20250730-14:32:09.709|56=FIX_GWY_1|10=115|
2025/07/30 14:32:09.711091 8=FIX.4.4|9=68|35=0|34=49|49=FIX_GWY_1|52=20250730-14:32:09.000|56=CRYPTO_TRADER_1|10=107|
2025/07/30 14:32:39.701029 8=FIX.4.4|9=68|35=0|34=24|49=CRYPTO_TRADER_1|52=20250730-14:32:39.701|56=FIX_GWY_1|10=111|
2025/07/30 14:32:39.703165 8=FIX.4.4|9=68|35=0|34=50|49=FIX_GWY_1|52=20250730-14:32:39.000|56=CRYPTO_TRADER_1|10=102|
2025/07/30 14:33:09.701869 8=FIX.4.4|9=68|35=0|34=25|49=CRYPTO_TRADER_1|52=20250730-14:33:09.701|56=FIX_GWY_1|10=110|
2025/07/30 14:33:09.702408 8=FIX.4.4|9=68|35=0|34=51|49=FIX_GWY_1|52=20250730-14:33:09.000|56=CRYPTO_TRADER_1|10=101|
2025/07/30 14:33:39.701530 8=FIX.4.4|9=68|35=0|34=26|49=CRYPTO_TRADER_1|52=20250730-14:33:39.701|56=FIX_GWY_1|10=114|
2025/07/30 14:33:39.701846 8=FIX.4.4|9=68|35=0|34=52|49=FIX_GWY_1|52=20250730-14:33:39.000|56=CRYPTO_TRADER_1|10=105|
2025/07/30 14:34:09.701972 8=FIX.4.4|9=68|35=0|34=27|49=CRYPTO_TRADER_1|52=20250730-14:34:09.701|56=FIX_GWY_1|10=113|
2025/07/30 14:34:09.704497 8=FIX.4.4|9=68|35=0|34=53|49=FIX_GWY_1|52=20250730-14:34:09.000|56=CRYPTO_TRADER_1|10=104|
2025/07/30 14:34:39.703767 8=FIX.4.4|9=68|35=0|34=28|49=CRYPTO_TRADER_1|52=20250730-14:34:39.703|56=FIX_GWY_1|10=119|
2025/07/30 14:34:39.705846 8=FIX.4.4|9=68|35=0|34=54|49=FIX_GWY_1|52=20250730-14:34:39.000|56=CRYPTO_TRADER_1|10=108|
2025/07/30 14:35:09.704727 8=FIX.4.4|9=68|35=0|34=29|49=CRYPTO_TRADER_1|52=20250730-14:35:09.704|56=FIX_GWY_1|10=119|
2025/07/30 14:35:09.705121 8=FIX.4.4|9=68|35=0|34=55|49=FIX_GWY_1|52=20250730-14:35:09.000|56=CRYPTO_TRADER_1|10=107|
2025/07/30 14:35:39.704865 8=FIX.4.4|9=68|35=0|34=30|49=CRYPTO_TRADER_1|52=20250730-14:35:39.704|56=FIX_GWY_1|10=114|
2025/07/30 14:35:39.705268 8=FIX.4.4|9=68|35=0|34=56|49=FIX_GWY_1|52=20250730-14:35:39.000|56=CRYPTO_TRADER_1|10=111|
2025/07/30 14:36:09.704881 8=FIX.4.4|9=68|35=0|34=31|49=CRYPTO_TRADER_1|52=20250730-14:36:09.704|56=FIX_GWY_1|10=113|
2025/07/30 14:36:09.706283 8=FIX.4.4|9=68|35=0|34=57|49=FIX_GWY_1|52=20250730-14:36:09.000|56=CRYPTO_TRADER_1|10=110|
2025/07/30 14:36:39.705960 8=FIX.4.4|9=68|35=0|34=32|49=CRYPTO_TRADER_1|52=20250730-14:36:39.705|56=FIX_GWY_1|10=118|
2025/07/30 14:36:39.708158 8=FIX.4.4|9=68|35=0|34=58|49=FIX_GWY_1|52=20250730-14:36:39.000|56=CRYPTO_TRADER_1|10=114|
2025/07/30 14:37:09.707394 8=FIX.4.4|9=68|35=0|34=33|49=CRYPTO_TRADER_1|52=20250730-14:37:09.707|56=FIX_GWY_1|10=119|
2025/07/30 14:37:09.709878 8=FIX.4.4|9=68|35=0|34=59|49=FIX_GWY_1|52=20250730-14:37:09.000|56=CRYPTO_TRADER_1|10=113|
2025/07/30 14:37:39.708754 8=FIX.4.4|9=68|35=0|34=34|49=CRYPTO_TRADER_1|52=20250730-14:37:39.708|56=FIX_GWY_1|10=124|
2025/07/30 14:37:39.709498 8=FIX.4.4|9=68|35=0|34=60|49=FIX_GWY_1|52=20250730-14:37:39.000|56=CRYPTO_TRADER_1|10=108|
2025/07/30 14:38:09.709735 8=FIX.4.4|9=68|35=0|34=35|49=CRYPTO_TRADER_1|52=20250730-14:38:09.709|56=FIX_GWY_1|10=124|
2025/07/30 14:38:09.711728 8=FIX.4.4|9=68|35=0|34=61|49=FIX_GWY_1|52=20250730-14:38:09.000|56=CRYPTO_TRADER_1|10=107|
2025/07/30 14:38:34.587539 8=FIX.4.4|9=175|35=D|34=36|49=CRYPTO_TRADER_1|52=20250730-14:38:34.587|56=FIX_GWY_1|11=investor_1:1753884454|38=100|40=1|44=40100|54=1|55=BTC-AUD|59=0|60=20250730-14:38:34.586|207=BTC_MARKET|10=078|
2025/07/30 14:38:34.599242 8=FIX.4.4|9=244|35=8|34=62|49=FIX_GWY_1|52=20250730-14:38:34.000|56=CRYPTO_TRADER_1|6=0|14=0|17=1002998|31=0|32=0|37=investor_1:1753884454|38=100|39=0|40=2|44=40100|54=1|55=BTC-AUD|58=OK|59=0|60=20250730-14:38:34.591532|99=0|103=0|150=0|151=100|207=BTC_MARKET|10=099|
2025/07/30 14:38:34.745029 8=FIX.4.4|9=635|35=X|34=63|49=FIX_GWY_1|52=20250730-14:38:34.000|56=CRYPTO_TRADER_1|268=11|279=0|269=0|55=BTC-AUD|207=BTC_MARKET|270=40100|271=100|279=0|269=0|55=BTC-AUD|207=BTC_MARKET|270=0|271=0|279=0|269=0|55=BTC-AUD|207=BTC_MARKET|270=0|271=0|279=0|269=0|55=BTC-AUD|207=BTC_MARKET|270=0|271=0|279=0|269=0|55=BTC-AUD|207=BTC_MARKET|270=0|271=0|279=0|269=1|55=BTC-AUD|207=BTC_MARKET|270=0|271=0|279=0|269=1|55=BTC-AUD|207=BTC_MARKET|270=0|271=0|279=0|269=1|55=BTC-AUD|207=BTC_MARKET|270=0|271=0|279=0|269=1|55=BTC-AUD|207=BTC_MARKET|270=0|271=0|279=0|269=1|55=BTC-AUD|207=BTC_MARKET|270=0|271=0|279=0|269=4|55=BTC-AUD|207=BTC_MARKET|270=40100|271=0|10=218|
2025/07/30 14:38:47.997088 8=FIX.4.4|9=175|35=D|34=37|49=CRYPTO_TRADER_1|52=20250730-14:38:47.997|56=FIX_GWY_1|11=investor_1:1753884455|38=100|40=1|44=40100|54=1|55=BTC-AUD|59=0|60=20250730-14:38:47.997|207=BTC_MARKET|10=099|
2025/07/30 14:38:48.005133 8=FIX.4.4|9=244|35=8|34=64|49=FIX_GWY_1|52=20250730-14:38:48.000|56=CRYPTO_TRADER_1|6=0|14=0|17=1002999|31=0|32=0|37=investor_1:1753884455|38=100|39=0|40=2|44=40100|54=1|55=BTC-AUD|58=OK|59=0|60=20250730-14:38:47.999150|99=0|103=0|150=0|151=100|207=BTC_MARKET|10=120|
2025/07/30 14:38:48.078036 8=FIX.4.4|9=635|35=X|34=65|49=FIX_GWY_1|52=20250730-14:38:48.000|56=CRYPTO_TRADER_1|268=11|279=0|269=0|55=BTC-AUD|207=BTC_MARKET|270=40100|271=200|279=0|269=0|55=BTC-AUD|207=BTC_MARKET|270=0|271=0|279=0|269=0|55=BTC-AUD|207=BTC_MARKET|270=0|271=0|279=0|269=0|55=BTC-AUD|207=BTC_MARKET|270=0|271=0|279=0|269=0|55=BTC-AUD|207=BTC_MARKET|270=0|271=0|279=0|269=1|55=BTC-AUD|207=BTC_MARKET|270=0|271=0|279=0|269=1|55=BTC-AUD|207=BTC_MARKET|270=0|271=0|279=0|269=1|55=BTC-AUD|207=BTC_MARKET|270=0|271=0|279=0|269=1|55=BTC-AUD|207=BTC_MARKET|270=0|271=0|279=0|269=1|55=BTC-AUD|207=BTC_MARKET|270=0|271=0|279=0|269=4|55=BTC-AUD|207=BTC_MARKET|270=40100|271=0|10=226|
2025/07/30 14:39:17.997073 8=FIX.4.4|9=68|35=0|34=38|49=CRYPTO_TRADER_1|52=20250730-14:39:17.997|56=FIX_GWY_1|10=136|
2025/07/30 14:39:24.078564 8=FIX.4.4|9=77|35=1|34=39|49=CRYPTO_TRADER_1|52=20250730-14:39:24.078|56=FIX_GWY_1|112=TEST|10=144|
2025/07/30 14:39:24.079720 8=FIX.4.4|9=77|35=0|34=66|49=FIX_GWY_1|52=20250730-14:39:24.000|56=CRYPTO_TRADER_1|112=TEST|10=128|
2025/07/30 14:39:54.078661 8=FIX.4.4|9=68|35=0|34=40|49=CRYPTO_TRADER_1|52=20250730-14:39:54.078|56=FIX_GWY_1|10=120|
2025/07/30 14:39:54.079017 8=FIX.4.4|9=68|35=0|34=67|49=FIX_GWY_1|52=20250730-14:39:54.000|56=CRYPTO_TRADER_1|10=114|
2025/07/30 14:40:24.078882 8=FIX.4.4|9=68|35=0|34=41|49=CRYPTO_TRADER_1|52=20250730-14:40:24.078|56=FIX_GWY_1|10=110|
2025/07/30 14:40:24.081044 8=FIX.4.4|9=68|35=0|34=68|49=FIX_GWY_1|52=20250730-14:40:24.000|56=CRYPTO_TRADER_1|10=104|
2025/07/30 14:40:54.079504 8=FIX.4.4|9=68|35=0|34=42|49=CRYPTO_TRADER_1|52=20250730-14:40:54.079|56=FIX_GWY_1|10=115|
2025/07/30 14:40:54.081541 8=FIX.4.4|9=68|35=0|34=69|49=FIX_GWY_1|52=20250730-14:40:54.000|56=CRYPTO_TRADER_1|10=108|
2025/07/30 14:41:24.080758 8=FIX.4.4|9=68|35=0|34=43|49=CRYPTO_TRADER_1|52=20250730-14:41:24.080|56=FIX_GWY_1|10=106|
2025/07/30 14:41:24.082894 8=FIX.4.4|9=68|35=0|34=70|49=FIX_GWY_1|52=20250730-14:41:24.000|56=CRYPTO_TRADER_1|10=098|
2025/07/30 14:41:54.082192 8=FIX.4.4|9=68|35=0|34=44|49=CRYPTO_TRADER_1|52=20250730-14:41:54.082|56=FIX_GWY_1|10=112|
2025/07/30 14:41:54.084578 8=FIX.4.4|9=68|35=0|34=71|49=FIX_GWY_1|52=20250730-14:41:54.000|56=CRYPTO_TRADER_1|10=102|
2025/07/30 14:42:24.083425 8=FIX.4.4|9=68|35=0|34=45|49=CRYPTO_TRADER_1|52=20250730-14:42:24.083|56=FIX_GWY_1|10=112|
2025/07/30 14:42:24.085664 8=FIX.4.4|9=68|35=0|34=72|49=FIX_GWY_1|52=20250730-14:42:24.000|56=CRYPTO_TRADER_1|10=101|
2025/07/30 14:42:54.084393 8=FIX.4.4|9=68|35=0|34=46|49=CRYPTO_TRADER_1|52=20250730-14:42:54.084|56=FIX_GWY_1|10=117|
2025/07/30 14:42:54.086608 8=FIX.4.4|9=68|35=0|34=73|49=FIX_GWY_1|52=20250730-14:42:54.000|56=CRYPTO_TRADER_1|10=105|
2025/07/30 14:43:21.625830 8=FIX.4.4|9=175|35=D|34=47|49=CRYPTO_TRADER_1|52=20250730-14:43:21.625|56=FIX_GWY_1|11=investor_1:1753884456|38=100|40=1|44=40100|54=1|55=BTC-AUD|59=0|60=20250730-14:43:21.625|207=BTC_MARKET|10=053|
2025/07/30 14:43:21.639944 8=FIX.4.4|9=244|35=8|34=74|49=FIX_GWY_1|52=20250730-14:43:21.000|56=CRYPTO_TRADER_1|6=0|14=0|17=1003000|31=0|32=0|37=investor_1:1753884456|38=100|39=0|40=2|44=40100|54=1|55=BTC-AUD|58=OK|59=0|60=20250730-14:43:21.633287|99=0|103=0|150=0|151=100|207=BTC_MARKET|10=067|
2025/07/30 14:43:21.767660 8=FIX.4.4|9=635|35=X|34=75|49=FIX_GWY_1|52=20250730-14:43:21.000|56=CRYPTO_TRADER_1|268=11|279=0|269=0|55=BTC-AUD|207=BTC_MARKET|270=40100|271=300|279=0|269=0|55=BTC-AUD|207=BTC_MARKET|270=0|271=0|279=0|269=0|55=BTC-AUD|207=BTC_MARKET|270=0|271=0|279=0|269=0|55=BTC-AUD|207=BTC_MARKET|270=0|271=0|279=0|269=0|55=BTC-AUD|207=BTC_MARKET|270=0|271=0|279=0|269=1|55=BTC-AUD|207=BTC_MARKET|270=0|271=0|279=0|269=1|55=BTC-AUD|207=BTC_MARKET|270=0|271=0|279=0|269=1|55=BTC-AUD|207=BTC_MARKET|270=0|271=0|279=0|269=1|55=BTC-AUD|207=BTC_MARKET|270=0|271=0|279=0|269=1|55=BTC-AUD|207=BTC_MARKET|270=0|271=0|279=0|269=4|55=BTC-AUD|207=BTC_MARKET|270=40100|271=0|10=215|
2025/07/30 14:43:22.628770 8=FIX.4.4|9=174|35=D|34=48|49=CRYPTO_TRADER_1|52=20250730-14:43:22.628|56=FIX_GWY_1|11=investor_2:1753884457|38=50|40=1|44=40100|54=2|55=BTC-AUD|59=0|60=20250730-14:43:22.628|207=BTC_MARKET|10=020|
2025/07/30 14:43:22.635192 8=FIX.4.4|9=242|35=8|34=76|49=FIX_GWY_1|52=20250730-14:43:22.000|56=CRYPTO_TRADER_1|6=0|14=0|17=1003001|31=0|32=0|37=investor_2:1753884457|38=50|39=0|40=2|44=40100|54=2|55=BTC-AUD|58=OK|59=0|60=20250730-14:43:22.632009|99=0|103=0|150=0|151=50|207=BTC_MARKET|10=232|
2025/07/30 14:43:22.635259 8=FIX.4.4|9=247|35=8|34=77|49=FIX_GWY_1|52=20250730-14:43:22.000|56=CRYPTO_TRADER_1|6=802|14=50|17=1003002|31=802|32=50|37=investor_2:1753884457|38=50|39=2|40=2|44=40100|54=2|55=BTC-AUD|58=OK|59=0|60=20250730-14:43:22.633703|99=0|103=0|150=2|151=0|207=BTC_MARKET|10=254|
2025/07/30 14:43:22.635343 8=FIX.4.4|9=249|35=8|34=78|49=FIX_GWY_1|52=20250730-14:43:22.000|56=CRYPTO_TRADER_1|6=802|14=50|17=1003003|31=802|32=50|37=investor_1:1753884454|38=100|39=1|40=2|44=40100|54=1|55=BTC-AUD|58=OK|59=0|60=20250730-14:43:22.633706|99=0|103=0|150=1|151=50|207=BTC_MARKET|10=095|
2025/07/30 14:43:22.781447 8=FIX.4.4|9=794|35=X|34=79|49=FIX_GWY_1|52=20250730-14:43:22.000|56=CRYPTO_TRADER_1|268=14|279=0|269=0|55=BTC-AUD|207=BTC_MARKET|270=40100|271=250|279=0|269=0|55=BTC-AUD|207=BTC_MARKET|270=0|271=0|279=0|269=0|55=BTC-AUD|207=BTC_MARKET|270=0|271=0|279=0|269=0|55=BTC-AUD|207=BTC_MARKET|270=0|271=0|279=0|269=0|55=BTC-AUD|207=BTC_MARKET|270=0|271=0|279=0|269=1|55=BTC-AUD|207=BTC_MARKET|270=0|271=0|279=0|269=1|55=BTC-AUD|207=BTC_MARKET|270=0|271=0|279=0|269=1|55=BTC-AUD|207=BTC_MARKET|270=0|271=0|279=0|269=1|55=BTC-AUD|207=BTC_MARKET|270=0|271=0|279=0|269=1|55=BTC-AUD|207=BTC_MARKET|270=0|271=0|279=0|269=2|55=BTC-AUD|207=BTC_MARKET|270=40100|271=0|279=0|269=B|55=BTC-AUD|207=BTC_MARKET|270=0|271=50|279=0|269=4|55=BTC-AUD|207=BTC_MARKET|270=40100|271=0|279=0|269=8|55=BTC-AUD|207=BTC_MARKET|270=40100|271=0|10=095|
2025/07/30 14:43:23.637546 8=FIX.4.4|9=174|35=F|34=49|49=CRYPTO_TRADER_1|52=20250730-14:43:23.637|56=FIX_GWY_1|11=investor_1:1753884458|41=investor_1:1753884456|54=1|55=BTC-AUD|60=20250730-14:43:23.636|207=BTC_MARKET|10=185|
2025/07/30 14:43:23.638824 8=FIX.4.4|9=175|35=D|34=50|49=CRYPTO_TRADER_1|52=20250730-14:43:23.638|56=FIX_GWY_1|11=investor_1:1753884459|38=100|40=1|44=40100|54=1|55=BTC-CAD|59=0|60=20250730-14:43:23.638|207=BTC_MARKET|10=044|
2025/07/30 14:43:23.647124 8=FIX.4.4|9=242|35=8|34=80|49=FIX_GWY_1|52=20250730-14:43:23.000|56=CRYPTO_TRADER_1|6=0|14=0|17=1003004|31=0|32=0|37=investor_1:1753884456|38=100|39=4|40=2|44=40100|54=1|55=BTC-AUD|58=OK|59=0|60=20250730-14:43:23.640841|99=0|103=0|150=4|151=0|207=BTC_MARKET|10=231|
2025/07/30 14:43:23.647181 8=FIX.4.4|9=244|35=8|34=81|49=FIX_GWY_1|52=20250730-14:43:23.000|56=CRYPTO_TRADER_1|6=0|14=0|17=1003005|31=0|32=0|37=investor_1:1753884459|38=100|39=0|40=2|44=40100|54=1|55=BTC-CAD|58=OK|59=0|60=20250730-14:43:23.642778|99=0|103=0|150=0|151=100|207=BTC_MARKET|10=064|
2025/07/30 14:43:23.802896 8=FIX.4.4|9=1354|35=X|34=82|49=FIX_GWY_1|52=20250730-14:43:23.000|56=CRYPTO_TRADER_1|268=25|279=0|269=0|55=BTC-AUD|207=BTC_MARKET|270=40100|271=150|279=0|269=0|55=BTC-AUD|207=BTC_MARKET|270=0|271=0|279=0|269=0|55=BTC-AUD|207=BTC_MARKET|270=0|271=0|279=0|269=0|55=BTC-AUD|207=BTC_MARKET|270=0|271=0|279=0|269=0|55=BTC-AUD|207=BTC_MARKET|270=0|271=0|279=0|269=1|55=BTC-AUD|207=BTC_MARKET|270=0|271=0|279=0|269=1|55=BTC-AUD|207=BTC_MARKET|270=0|271=0|279=0|269=1|55=BTC-AUD|207=BTC_MARKET|270=0|271=0|279=0|269=1|55=BTC-AUD|207=BTC_MARKET|270=0|271=0|279=0|269=1|55=BTC-AUD|207=BTC_MARKET|270=0|271=0|279=0|269=2|55=BTC-AUD|207=BTC_MARKET|270=40100|271=0|279=0|269=B|55=BTC-AUD|207=BTC_MARKET|270=0|271=50|279=0|269=4|55=BTC-AUD|207=BTC_MARKET|270=40100|271=0|279=0|269=8|55=BTC-AUD|207=BTC_MARKET|270=40100|271=0|279=0|269=0|55=BTC-CAD|207=BTC_MARKET|270=40100|271=100|279=0|269=0|55=BTC-CAD|207=BTC_MARKET|270=0|271=0|279=0|269=0|55=BTC-CAD|207=BTC_MARKET|270=0|271=0|279=0|269=0|55=BTC-CAD|207=BTC_MARKET|270=0|271=0|279=0|269=0|55=BTC-CAD|207=BTC_MARKET|270=0|271=0|279=0|269=1|55=BTC-CAD|207=BTC_MARKET|270=0|271=0|279=0|269=1|55=BTC-CAD|207=BTC_MARKET|270=0|271=0|279=0|269=1|55=BTC-CAD|207=BTC_MARKET|270=0|271=0|279=0|269=1|55=BTC-CAD|207=BTC_MARKET|270=0|271=0|279=0|269=1|55=BTC-CAD|207=BTC_MARKET|270=0|271=0|279=0|269=4|55=BTC-CAD|207=BTC_MARKET|270=40100|271=0|10=149|
2025/07/30 14:43:24.641086 8=FIX.4.4|9=174|35=D|34=51|49=CRYPTO_TRADER_1|52=20250730-14:43:24.641|56=FIX_GWY_1|11=investor_2:1753884460|38=50|40=1|44=40100|54=2|55=BTC-CAD|59=0|60=20250730-14:43:24.641|207=BTC_MARKET|10=240|
2025/07/30 14:43:24.651541 8=FIX.4.4|9=242|35=8|34=83|49=FIX_GWY_1|52=20250730-14:43:24.000|56=CRYPTO_TRADER_1|6=0|14=0|17=1003006|31=0|32=0|37=investor_2:1753884460|38=50|39=0|40=2|44=40100|54=2|55=BTC-CAD|58=OK|59=0|60=20250730-14:43:24.646272|99=0|103=0|150=0|151=50|207=BTC_MARKET|10=222|
2025/07/30 14:43:24.651617 8=FIX.4.4|9=247|35=8|34=84|49=FIX_GWY_1|52=20250730-14:43:24.000|56=CRYPTO_TRADER_1|6=802|14=50|17=1003007|31=802|32=50|37=investor_2:1753884460|38=50|39=2|40=2|44=40100|54=2|55=BTC-CAD|58=OK|59=0|60=20250730-14:43:24.647122|99=0|103=0|150=2|151=0|207=BTC_MARKET|10=237|
2025/07/30 14:43:24.651725 8=FIX.4.4|9=249|35=8|34=85|49=FIX_GWY_1|52=20250730-14:43:24.000|56=CRYPTO_TRADER_1|6=802|14=50|17=1003008|31=802|32=50|37=investor_1:1753884459|38=100|39=1|40=2|44=40100|54=1|55=BTC-CAD|58=OK|59=0|60=20250730-14:43:24.647125|99=0|103=0|150=1|151=50|207=BTC_MARKET|10=089|
2025/07/30 14:43:24.819876 8=FIX.4.4|9=793|35=X|34=86|49=FIX_GWY_1|52=20250730-14:43:24.000|56=CRYPTO_TRADER_1|268=14|279=0|269=0|55=BTC-CAD|207=BTC_MARKET|270=40100|271=50|279=0|269=0|55=BTC-CAD|207=BTC_MARKET|270=0|271=0|279=0|269=0|55=BTC-CAD|207=BTC_MARKET|270=0|271=0|279=0|269=0|55=BTC-CAD|207=BTC_MARKET|270=0|271=0|279=0|269=0|55=BTC-CAD|207=BTC_MARKET|270=0|271=0|279=0|269=1|55=BTC-CAD|207=BTC_MARKET|270=0|271=0|279=0|269=1|55=BTC-CAD|207=BTC_MARKET|270=0|271=0|279=0|269=1|55=BTC-CAD|207=BTC_MARKET|270=0|271=0|279=0|269=1|55=BTC-CAD|207=BTC_MARKET|270=0|271=0|279=0|269=1|55=BTC-CAD|207=BTC_MARKET|270=0|271=0|279=0|269=2|55=BTC-CAD|207=BTC_MARKET|270=40100|271=0|279=0|269=B|55=BTC-CAD|207=BTC_MARKET|270=0|271=50|279=0|269=4|55=BTC-CAD|207=BTC_MARKET|270=40100|271=0|279=0|269=8|55=BTC-CAD|207=BTC_MARKET|270=40100|271=0|10=048|
2025/07/30 14:43:25.644897 8=FIX.4.4|9=174|35=F|34=52|49=CRYPTO_TRADER_1|52=20250730-14:43:25.644|56=FIX_GWY_1|11=investor_1:1753884461|41=investor_1:1753884459|54=1|55=BTC-CAD|60=20250730-14:43:25.644|207=BTC_MARKET|10=159|
2025/07/30 14:43:25.646649 8=FIX.4.4|9=175|35=D|34=53|49=CRYPTO_TRADER_1|52=20250730-14:43:25.646|56=FIX_GWY_1|11=investor_1:1753884462|38=100|40=1|44=40100|54=1|55=BTC-CNY|59=0|60=20250730-14:43:25.646|207=BTC_MARKET|10=077|
2025/07/30 14:43:25.654583 8=FIX.4.4|9=245|35=8|34=87|49=FIX_GWY_1|52=20250730-14:43:25.000|56=CRYPTO_TRADER_1|6=802|14=50|17=1003009|31=0|32=0|37=investor_1:1753884459|38=100|39=4|40=2|44=40100|54=1|55=BTC-CAD|58=OK|59=0|60=20250730-14:43:25.649630|99=0|103=0|150=4|151=0|207=BTC_MARKET|10=143|
2025/07/30 14:43:25.654635 8=FIX.4.4|9=244|35=8|34=88|49=FIX_GWY_1|52=20250730-14:43:25.000|56=CRYPTO_TRADER_1|6=0|14=0|17=1003010|31=0|32=0|37=investor_1:1753884462|38=100|39=0|40=2|44=40100|54=1|55=BTC-CNY|58=OK|59=0|60=20250730-14:43:25.651978|99=0|103=0|150=0|151=100|207=BTC_MARKET|10=101|
2025/07/30 14:43:25.838965 8=FIX.4.4|9=1348|35=X|34=89|49=FIX_GWY_1|52=20250730-14:43:25.000|56=CRYPTO_TRADER_1|268=25|279=0|269=0|55=BTC-CAD|207=BTC_MARKET|270=0|271=0|279=0|269=0|55=BTC-CAD|207=BTC_MARKET|270=0|271=0|279=0|269=0|55=BTC-CAD|207=BTC_MARKET|270=0|271=0|279=0|269=0|55=BTC-CAD|207=BTC_MARKET|270=0|271=0|279=0|269=0|55=BTC-CAD|207=BTC_MARKET|270=0|271=0|279=0|269=1|55=BTC-CAD|207=BTC_MARKET|270=0|271=0|279=0|269=1|55=BTC-CAD|207=BTC_MARKET|270=0|271=0|279=0|269=1|55=BTC-CAD|207=BTC_MARKET|270=0|271=0|279=0|269=1|55=BTC-CAD|207=BTC_MARKET|270=0|271=0|279=0|269=1|55=BTC-CAD|207=BTC_MARKET|270=0|271=0|279=0|269=2|55=BTC-CAD|207=BTC_MARKET|270=40100|271=0|279=0|269=B|55=BTC-CAD|207=BTC_MARKET|270=0|271=50|279=0|269=4|55=BTC-CAD|207=BTC_MARKET|270=40100|271=0|279=0|269=8|55=BTC-CAD|207=BTC_MARKET|270=40100|271=0|279=0|269=0|55=BTC-CNY|207=BTC_MARKET|270=40100|271=100|279=0|269=0|55=BTC-CNY|207=BTC_MARKET|270=0|271=0|279=0|269=0|55=BTC-CNY|207=BTC_MARKET|270=0|271=0|279=0|269=0|55=BTC-CNY|207=BTC_MARKET|270=0|271=0|279=0|269=0|55=BTC-CNY|207=BTC_MARKET|270=0|271=0|279=0|269=1|55=BTC-CNY|207=BTC_MARKET|270=0|271=0|279=0|269=1|55=BTC-CNY|207=BTC_MARKET|270=0|271=0|279=0|269=1|55=BTC-CNY|207=BTC_MARKET|270=0|271=0|279=0|269=1|55=BTC-CNY|207=BTC_MARKET|270=0|271=0|279=0|269=1|55=BTC-CNY|207=BTC_MARKET|270=0|271=0|279=0|269=4|55=BTC-CNY|207=BTC_MARKET|270=40100|271=0|10=240|
2025/07/30 14:43:26.650400 8=FIX.4.4|9=174|35=D|34=54|49=CRYPTO_TRADER_1|52=20250730-14:43:26.650|56=FIX_GWY_1|11=investor_2:1753884463|38=50|40=1|44=40100|54=2|55=BTC-CNY|59=0|60=20250730-14:43:26.650|207=BTC_MARKET|10=028|
2025/07/30 14:43:26.658469 8=FIX.4.4|9=242|35=8|34=90|49=FIX_GWY_1|52=20250730-14:43:26.000|56=CRYPTO_TRADER_1|6=0|14=0|17=1003011|31=0|32=0|37=investor_2:1753884463|38=50|39=0|40=2|44=40100|54=2|55=BTC-CNY|58=OK|59=0|60=20250730-14:43:26.653342|99=0|103=0|150=0|151=50|207=BTC_MARKET|10=253|
2025/07/30 14:43:26.658526 8=FIX.4.4|9=247|35=8|34=91|49=FIX_GWY_1|52=20250730-14:43:26.000|56=CRYPTO_TRADER_1|6=802|14=50|17=1003012|31=802|32=50|37=investor_2:1753884463|38=50|39=2|40=2|44=40100|54=2|55=BTC-CNY|58=OK|59=0|60=20250730-14:43:26.655052|99=0|103=0|150=2|151=0|207=BTC_MARKET|10=017|
2025/07/30 14:43:26.658608 8=FIX.4.4|9=249|35=8|34=92|49=FIX_GWY_1|52=20250730-14:43:26.000|56=CRYPTO_TRADER_1|6=802|14=50|17=1003013|31=802|32=50|37=investor_1:1753884462|38=100|39=1|40=2|44=40100|54=1|55=BTC-CNY|58=OK|59=0|60=20250730-14:43:26.655055|99=0|103=0|150=1|151=50|207=BTC_MARKET|10=116|
2025/07/30 14:43:26.843809 8=FIX.4.4|9=793|35=X|34=93|49=FIX_GWY_1|52=20250730-14:43:26.000|56=CRYPTO_TRADER_1|268=14|279=0|269=0|55=BTC-CNY|207=BTC_MARKET|270=40100|271=50|279=0|269=0|55=BTC-CNY|207=BTC_MARKET|270=0|271=0|279=0|269=0|55=BTC-CNY|207=BTC_MARKET|270=0|271=0|279=0|269=0|55=BTC-CNY|207=BTC_MARKET|270=0|271=0|279=0|269=0|55=BTC-CNY|207=BTC_MARKET|270=0|271=0|279=0|269=1|55=BTC-CNY|207=BTC_MARKET|270=0|271=0|279=0|269=1|55=BTC-CNY|207=BTC_MARKET|270=0|271=0|279=0|269=1|55=BTC-CNY|207=BTC_MARKET|270=0|271=0|279=0|269=1|55=BTC-CNY|207=BTC_MARKET|270=0|271=0|279=0|269=1|55=BTC-CNY|207=BTC_MARKET|270=0|271=0|279=0|269=2|55=BTC-CNY|207=BTC_MARKET|270=40100|271=0|279=0|269=B|55=BTC-CNY|207=BTC_MARKET|270=0|271=50|279=0|269=4|55=BTC-CNY|207=BTC_MARKET|270=40100|271=0|279=0|269=8|55=BTC-CNY|207=BTC_MARKET|270=40100|271=0|10=012|
2025/07/30 14:43:27.657051 8=FIX.4.4|9=174|35=F|34=55|49=CRYPTO_TRADER_1|52=20250730-14:43:27.657|56=FIX_GWY_1|11=investor_1:1753884464|41=investor_1:1753884462|54=1|55=BTC-CNY|60=20250730-14:43:27.657|207=BTC_MARKET|10=205|
2025/07/30 14:43:27.658135 8=FIX.4.4|9=175|35=D|34=56|49=CRYPTO_TRADER_1|52=20250730-14:43:27.658|56=FIX_GWY_1|11=investor_1:1753884465|38=100|40=1|44=20100|54=1|55=BTC-EUR|59=0|60=20250730-14:43:27.658|207=BTC_MARKET|10=093|
2025/07/30 14:43:27.665022 8=FIX.4.4|9=245|35=8|34=94|49=FIX_GWY_1|52=20250730-14:43:27.000|56=CRYPTO_TRADER_1|6=802|14=50|17=1003014|31=0|32=0|37=investor_1:1753884462|38=100|39=4|40=2|44=40100|54=1|55=BTC-CNY|58=OK|59=0|60=20250730-14:43:27.660451|99=0|103=0|150=4|151=0|207=BTC_MARKET|10=163|
2025/07/30 14:43:27.665087 8=FIX.4.4|9=244|35=8|34=95|49=FIX_GWY_1|52=20250730-14:43:27.000|56=CRYPTO_TRADER_1|6=0|14=0|17=1003015|31=0|32=0|37=investor_1:1753884465|38=100|39=0|40=2|44=20100|54=1|55=BTC-EUR|58=OK|59=0|60=20250730-14:43:27.662782|99=0|103=0|150=0|151=100|207=BTC_MARKET|10=106|
2025/07/30 14:43:27.861346 8=FIX.4.4|9=1348|35=X|34=96|49=FIX_GWY_1|52=20250730-14:43:27.000|56=CRYPTO_TRADER_1|268=25|279=0|269=0|55=BTC-CNY|207=BTC_MARKET|270=0|271=0|279=0|269=0|55=BTC-CNY|207=BTC_MARKET|270=0|271=0|279=0|269=0|55=BTC-CNY|207=BTC_MARKET|270=0|271=0|279=0|269=0|55=BTC-CNY|207=BTC_MARKET|270=0|271=0|279=0|269=0|55=BTC-CNY|207=BTC_MARKET|270=0|271=0|279=0|269=1|55=BTC-CNY|207=BTC_MARKET|270=0|271=0|279=0|269=1|55=BTC-CNY|207=BTC_MARKET|270=0|271=0|279=0|269=1|55=BTC-CNY|207=BTC_MARKET|270=0|271=0|279=0|269=1|55=BTC-CNY|207=BTC_MARKET|270=0|271=0|279=0|269=1|55=BTC-CNY|207=BTC_MARKET|270=0|271=0|279=0|269=2|55=BTC-CNY|207=BTC_MARKET|270=40100|271=0|279=0|269=B|55=BTC-CNY|207=BTC_MARKET|270=0|271=50|279=0|269=4|55=BTC-CNY|207=BTC_MARKET|270=40100|271=0|279=0|269=8|55=BTC-CNY|207=BTC_MARKET|270=40100|271=0|279=0|269=0|55=BTC-EUR|207=BTC_MARKET|270=20100|271=100|279=0|269=0|55=BTC-EUR|207=BTC_MARKET|270=0|271=0|279=0|269=0|55=BTC-EUR|207=BTC_MARKET|270=0|271=0|279=0|269=0|55=BTC-EUR|207=BTC_MARKET|270=0|271=0|279=0|269=0|55=BTC-EUR|207=BTC_MARKET|270=0|271=0|279=0|269=1|55=BTC-EUR|207=BTC_MARKET|270=0|271=0|279=0|269=1|55=BTC-EUR|207=BTC_MARKET|270=0|271=0|279=0|269=1|55=BTC-EUR|207=BTC_MARKET|270=0|271=0|279=0|269=1|55=BTC-EUR|207=BTC_MARKET|270=0|271=0|279=0|269=1|55=BTC-EUR|207=BTC_MARKET|270=0|271=0|279=0|269=4|55=BTC-EUR|207=BTC_MARKET|270=20100|271=0|10=222|
2025/07/30 14:43:28.662216 8=FIX.4.4|9=174|35=D|34=57|49=CRYPTO_TRADER_1|52=20250730-14:43:28.662|56=FIX_GWY_1|11=investor_2:1753884466|38=50|40=1|44=20100|54=2|55=BTC-EUR|59=0|60=20250730-14:43:28.662|207=BTC_MARKET|10=044|
2025/07/30 14:43:28.667763 8=FIX.4.4|9=242|35=8|34=97|49=FIX_GWY_1|52=20250730-14:43:28.000|56=CRYPTO_TRADER_1|6=0|14=0|17=1003016|31=0|32=0|37=investor_2:1753884466|38=50|39=0|40=2|44=20100|54=2|55=BTC-EUR|58=OK|59=0|60=20250730-14:43:28.663635|99=0|103=0|150=0|151=50|207=BTC_MARKET|10=022|
2025/07/30 14:43:28.667833 8=FIX.4.4|9=247|35=8|34=98|49=FIX_GWY_1|52=20250730-14:43:28.000|56=CRYPTO_TRADER_1|6=402|14=50|17=1003017|31=402|32=50|37=investor_2:1753884466|38=50|39=2|40=2|44=20100|54=2|55=BTC-EUR|58=OK|59=0|60=20250730-14:43:28.665276|99=0|103=0|150=2|151=0|207=BTC_MARKET|10=037|
2025/07/30 14:43:28.673405 8=FIX.4.4|9=249|35=8|34=99|49=FIX_GWY_1|52=20250730-14:43:28.000|56=CRYPTO_TRADER_1|6=402|14=50|17=1003018|31=402|32=50|37=investor_1:1753884465|38=100|39=1|40=2|44=20100|54=1|55=BTC-EUR|58=OK|59=0|60=20250730-14:43:28.665279|99=0|103=0|150=1|151=50|207=BTC_MARKET|10=136|
2025/07/30 14:43:28.863786 8=FIX.4.4|9=794|35=X|34=100|49=FIX_GWY_1|52=20250730-14:43:28.000|56=CRYPTO_TRADER_1|268=14|279=0|269=0|55=BTC-EUR|207=BTC_MARKET|270=20100|271=50|279=0|269=0|55=BTC-EUR|207=BTC_MARKET|270=0|271=0|279=0|269=0|55=BTC-EUR|207=BTC_MARKET|270=0|271=0|279=0|269=0|55=BTC-EUR|207=BTC_MARKET|270=0|271=0|279=0|269=0|55=BTC-EUR|207=BTC_MARKET|270=0|271=0|279=0|269=1|55=BTC-EUR|207=BTC_MARKET|270=0|271=0|279=0|269=1|55=BTC-EUR|207=BTC_MARKET|270=0|271=0|279=0|269=1|55=BTC-EUR|207=BTC_MARKET|270=0|271=0|279=0|269=1|55=BTC-EUR|207=BTC_MARKET|270=0|271=0|279=0|269=1|55=BTC-EUR|207=BTC_MARKET|270=0|271=0|279=0|269=2|55=BTC-EUR|207=BTC_MARKET|270=20100|271=0|279=0|269=B|55=BTC-EUR|207=BTC_MARKET|270=0|271=50|279=0|269=4|55=BTC-EUR|207=BTC_MARKET|270=20100|271=0|279=0|269=8|55=BTC-EUR|207=BTC_MARKET|270=20100|271=0|10=072|
